{
  "address": "0x507cF454753a43e9390f01a36e7d24a82ac89d09",
  "abi": [
    {
      "inputs": [],
      "stateMutability": "nonpayable",
      "type": "constructor"
    },
    {
      "inputs": [
        {
          "internalType": "address",
          "name": "conduit",
          "type": "address"
        }
      ],
      "name": "CallerIsNotNewPotentialOwner",
      "type": "error"
    },
    {
      "inputs": [
        {
          "internalType": "address",
          "name": "conduit",
          "type": "address"
        }
      ],
      "name": "CallerIsNotOwner",
      "type": "error"
    },
    {
      "inputs": [
        {
          "internalType": "address",
          "name": "conduit",
          "type": "address"
        }
      ],
      "name": "ChannelOutOfRange",
      "type": "error"
    },
    {
      "inputs": [
        {
          "internalType": "address",
          "name": "conduit",
          "type": "address"
        }
      ],
      "name": "ConduitAlreadyExists",
      "type": "error"
    },
    {
      "inputs": [],
      "name": "InvalidCreator",
      "type": "error"
    },
    {
      "inputs": [],
      "name": "InvalidInitialOwner",
      "type": "error"
    },
    {
      "inputs": [
        {
          "internalType": "address",
          "name": "conduit",
          "type": "address"
        },
        {
          "internalType": "address",
          "name": "newPotentialOwner",
          "type": "address"
        }
      ],
      "name": "NewPotentialOwnerAlreadySet",
      "type": "error"
    },
    {
      "inputs": [
        {
          "internalType": "address",
          "name": "conduit",
          "type": "address"
        }
      ],
      "name": "NewPotentialOwnerIsZeroAddress",
      "type": "error"
    },
    {
      "inputs": [],
      "name": "NoConduit",
      "type": "error"
    },
    {
      "inputs": [
        {
          "internalType": "address",
          "name": "conduit",
          "type": "address"
        }
      ],
      "name": "NoPotentialOwnerCurrentlySet",
      "type": "error"
    },
    {
      "anonymous": false,
      "inputs": [
        {
          "indexed": false,
          "internalType": "address",
          "name": "conduit",
          "type": "address"
        },
        {
          "indexed": false,
          "internalType": "bytes32",
          "name": "conduitKey",
          "type": "bytes32"
        }
      ],
      "name": "NewConduit",
      "type": "event"
    },
    {
      "anonymous": false,
      "inputs": [
        {
          "indexed": true,
          "internalType": "address",
          "name": "conduit",
          "type": "address"
        },
        {
          "indexed": true,
          "internalType": "address",
          "name": "previousOwner",
          "type": "address"
        },
        {
          "indexed": true,
          "internalType": "address",
          "name": "newOwner",
          "type": "address"
        }
      ],
      "name": "OwnershipTransferred",
      "type": "event"
    },
    {
      "anonymous": false,
      "inputs": [
        {
          "indexed": true,
          "internalType": "address",
          "name": "newPotentialOwner",
          "type": "address"
        }
      ],
      "name": "PotentialOwnerUpdated",
      "type": "event"
    },
    {
      "inputs": [
        {
          "internalType": "address",
          "name": "conduit",
          "type": "address"
        }
      ],
      "name": "acceptOwnership",
      "outputs": [],
      "stateMutability": "nonpayable",
      "type": "function"
    },
    {
      "inputs": [
        {
          "internalType": "address",
          "name": "conduit",
          "type": "address"
        }
      ],
      "name": "cancelOwnershipTransfer",
      "outputs": [],
      "stateMutability": "nonpayable",
      "type": "function"
    },
    {
      "inputs": [
        {
          "internalType": "bytes32",
          "name": "conduitKey",
          "type": "bytes32"
        },
        {
          "internalType": "address",
          "name": "initialOwner",
          "type": "address"
        }
      ],
      "name": "createConduit",
      "outputs": [
        {
          "internalType": "address",
          "name": "conduit",
          "type": "address"
        }
      ],
      "stateMutability": "nonpayable",
      "type": "function"
    },
    {
      "inputs": [
        {
          "internalType": "address",
          "name": "conduit",
          "type": "address"
        },
        {
          "internalType": "uint256",
          "name": "channelIndex",
          "type": "uint256"
        }
      ],
      "name": "getChannel",
      "outputs": [
        {
          "internalType": "address",
          "name": "channel",
          "type": "address"
        }
      ],
      "stateMutability": "view",
      "type": "function"
    },
    {
      "inputs": [
        {
          "internalType": "address",
          "name": "conduit",
          "type": "address"
        },
        {
          "internalType": "address",
          "name": "channel",
          "type": "address"
        }
      ],
      "name": "getChannelStatus",
      "outputs": [
        {
          "internalType": "bool",
          "name": "isOpen",
          "type": "bool"
        }
      ],
      "stateMutability": "view",
      "type": "function"
    },
    {
      "inputs": [
        {
          "internalType": "address",
          "name": "conduit",
          "type": "address"
        }
      ],
      "name": "getChannels",
      "outputs": [
        {
          "internalType": "address[]",
          "name": "channels",
          "type": "address[]"
        }
      ],
      "stateMutability": "view",
      "type": "function"
    },
    {
      "inputs": [
        {
          "internalType": "bytes32",
          "name": "conduitKey",
          "type": "bytes32"
        }
      ],
      "name": "getConduit",
      "outputs": [
        {
          "internalType": "address",
          "name": "conduit",
          "type": "address"
        },
        {
          "internalType": "bool",
          "name": "exists",
          "type": "bool"
        }
      ],
      "stateMutability": "view",
      "type": "function"
    },
    {
      "inputs": [],
      "name": "getConduitCodeHashes",
      "outputs": [
        {
          "internalType": "bytes32",
          "name": "creationCodeHash",
          "type": "bytes32"
        },
        {
          "internalType": "bytes32",
          "name": "runtimeCodeHash",
          "type": "bytes32"
        }
      ],
      "stateMutability": "view",
      "type": "function"
    },
    {
      "inputs": [
        {
          "internalType": "address",
          "name": "conduit",
          "type": "address"
        }
      ],
      "name": "getKey",
      "outputs": [
        {
          "internalType": "bytes32",
          "name": "conduitKey",
          "type": "bytes32"
        }
      ],
      "stateMutability": "view",
      "type": "function"
    },
    {
      "inputs": [
        {
          "internalType": "address",
          "name": "conduit",
          "type": "address"
        }
      ],
      "name": "getPotentialOwner",
      "outputs": [
        {
          "internalType": "address",
          "name": "potentialOwner",
          "type": "address"
        }
      ],
      "stateMutability": "view",
      "type": "function"
    },
    {
      "inputs": [
        {
          "internalType": "address",
          "name": "conduit",
          "type": "address"
        }
      ],
      "name": "getTotalChannels",
      "outputs": [
        {
          "internalType": "uint256",
          "name": "totalChannels",
          "type": "uint256"
        }
      ],
      "stateMutability": "view",
      "type": "function"
    },
    {
      "inputs": [
        {
          "internalType": "address",
          "name": "conduit",
          "type": "address"
        }
      ],
      "name": "ownerOf",
      "outputs": [
        {
          "internalType": "address",
          "name": "owner",
          "type": "address"
        }
      ],
      "stateMutability": "view",
      "type": "function"
    },
    {
      "inputs": [
        {
          "internalType": "address",
          "name": "conduit",
          "type": "address"
        },
        {
          "internalType": "address",
          "name": "newPotentialOwner",
          "type": "address"
        }
      ],
      "name": "transferOwnership",
      "outputs": [],
      "stateMutability": "nonpayable",
      "type": "function"
    },
    {
      "inputs": [
        {
          "internalType": "address",
          "name": "conduit",
          "type": "address"
        },
        {
          "internalType": "address",
          "name": "channel",
          "type": "address"
        },
        {
          "internalType": "bool",
          "name": "isOpen",
          "type": "bool"
        }
      ],
      "name": "updateChannel",
      "outputs": [],
      "stateMutability": "nonpayable",
      "type": "function"
    }
  ],
  "transactionHash": "0x1369f0eaf3baf3f1fc5211924fea8e27b57bd49fb3682d32521317b31409e369",
  "args": [],
  "numDeployments": 1,
  "solcInputHash": "910a96178c04a4f38b4af23f23d7182f",
  "bytecode": "0x60c08060405234620000ea57600090610c9f906001600160401b03603f8301601f1916820181811183821017620000da575b604052828252620023889160208101908484833951902060805260405192839281840192831184841017620000ca575b8339039082f58015620000ba575b6001600160a01b03163f60a05260405161227490816200011482396080518181816102b101528181610bcc0152610d06015260a0518181816102d401528181610c620152610da90152f35b620000c462000106565b6200006f565b620000d4620000ef565b62000061565b620000e4620000ef565b62000031565b600080fd5b50634e487b7160e01b600052604160045260246000fd5b506040513d6000823e3d90fdfe60806040526004361015610013575b600080fd5b60003560e01c8063027cc7641461012b5780630a96ad391461012257806313ad9cab1461011957806314afd79e1461011057806333bc8572146101075780634e3f9580146100fe57806351710e45146100f55780636d435421146100ec5780636e9bfd9f146100e3578063794593bc146100da5780637b37e561146100d15780638b9e028b146100c8578063906c87cc146100bf576393790f44146100b757600080fd5b61000e61126e565b5061000e6111fa565b5061000e61113c565b5061000e610fc8565b5061000e610c8a565b5061000e610b3c565b5061000e6109bf565b5061000e610765565b5061000e6106f3565b5061000e61064f565b5061000e6105db565b5061000e6102fa565b5061000e61027b565b5061000e61017a565b6004359073ffffffffffffffffffffffffffffffffffffffff8216820361000e57565b6024359073ffffffffffffffffffffffffffffffffffffffff8216820361000e57565b503461000e5760407ffffffffffffffffffffffffffffffffffffffffffffffffffffffffffffffffc36011261000e576101b2610134565b602435906101bf81611574565b73ffffffffffffffffffffffffffffffffffffffff80911691600083815280602052600360408220015482101561023f5790600360408361023b9661020a9552806020522001611400565b90549060031b1c166040519182918291909173ffffffffffffffffffffffffffffffffffffffff6020820193169052565b0390f35b602484604051907f6ceb340b0000000000000000000000000000000000000000000000000000000082526004820152fd5b600091031261000e57565b503461000e5760007ffffffffffffffffffffffffffffffffffffffffffffffffffffffffffffffffc36011261000e57604080517f000000000000000000000000000000000000000000000000000000000000000081527f00000000000000000000000000000000000000000000000000000000000000006020820152f35b503461000e5760607ffffffffffffffffffffffffffffffffffffffffffffffffffffffffffffffffc36011261000e57610332610134565b61033a610157565b90604435918215918215840361000e5761035381611505565b73ffffffffffffffffffffffffffffffffffffffff811690813b1561000e576040517fc4e8fcb500000000000000000000000000000000000000000000000000000000815273ffffffffffffffffffffffffffffffffffffffff841660048201528515156024820152610401926000908290604490829084905af180156105ce575b6105b5575b5073ffffffffffffffffffffffffffffffffffffffff166000526000602052604060002090565b92600484019261043183859073ffffffffffffffffffffffffffffffffffffffff16600052602052604060002090565b5491821590806105ae575b1561048157505050600361047d92930161045682826114ce565b54929073ffffffffffffffffffffffffffffffffffffffff16600052602052604060002090565b555b005b91949391816105a5575b5061049257005b6104df61047d938560037fffffffffffffffffffffffffffffffffffffffffffffffffffffffffffffffff600098019201916104ce83546113a4565b90808203610504575b505050611447565b9073ffffffffffffffffffffffffffffffffffffffff16600052602052604060002090565b6105766105449161053b61051b61059c9588611400565b905473ffffffffffffffffffffffffffffffffffffffff9160031b1c1690565b92839187611400565b90919082549060031b9173ffffffffffffffffffffffffffffffffffffffff9283811b93849216901b16911916179055565b859073ffffffffffffffffffffffffffffffffffffffff16600052602052604060002090565b553880806104d7565b9050153861048b565b508061043c565b806105c26105c892611335565b80610270565b386103da565b6105d6611397565b6103d5565b503461000e5760207ffffffffffffffffffffffffffffffffffffffffffffffffffffffffffffffffc36011261000e576020610615610134565b61061e81611574565b73ffffffffffffffffffffffffffffffffffffffff8091166000526000825260016040600020015416604051908152f35b503461000e5760407ffffffffffffffffffffffffffffffffffffffffffffffffffffffffffffffffc36011261000e5760206106e861068c610134565b73ffffffffffffffffffffffffffffffffffffffff6106a9610157565b916106b381611574565b166000526000835260046040600020019073ffffffffffffffffffffffffffffffffffffffff16600052602052604060002090565b541515604051908152f35b503461000e5760207ffffffffffffffffffffffffffffffffffffffffffffffffffffffffffffffffc36011261000e5773ffffffffffffffffffffffffffffffffffffffff610740610134565b61074981611574565b1660005260006020526020600360406000200154604051908152f35b503461000e5760207ffffffffffffffffffffffffffffffffffffffffffffffffffffffffffffffffc36011261000e5761079d610134565b6107a681611574565b61080c6107f360026107d88473ffffffffffffffffffffffffffffffffffffffff166000526000602052604060002090565b015473ffffffffffffffffffffffffffffffffffffffff1690565b73ffffffffffffffffffffffffffffffffffffffff1690565b33036109765761047f9060007f11a3cf439fb225bfe74225716b6774765670ec1060e3796802e62139d69974da81604051a2610896600261086d8373ffffffffffffffffffffffffffffffffffffffff166000526000602052604060002090565b017fffffffffffffffffffffffff00000000000000000000000000000000000000008154169055565b73ffffffffffffffffffffffffffffffffffffffff3390806108dd60016107d88673ffffffffffffffffffffffffffffffffffffffff166000526000602052604060002090565b169083167fc8894f26f396ce8c004245c8b7cd1b92103a6e4302fcbab883987149ac01b7ec6000604051a46001610935339273ffffffffffffffffffffffffffffffffffffffff166000526000602052604060002090565b019073ffffffffffffffffffffffffffffffffffffffff167fffffffffffffffffffffffff0000000000000000000000000000000000000000825416179055565b6040517f88c3a11500000000000000000000000000000000000000000000000000000000815273ffffffffffffffffffffffffffffffffffffffff919091166004820152602490fd5b503461000e5760407ffffffffffffffffffffffffffffffffffffffffffffffffffffffffffffffffc36011261000e576109f7610134565b6109ff610157565b90610a0981611505565b73ffffffffffffffffffffffffffffffffffffffff808316908115610b095750610a5b6107f360026107d88573ffffffffffffffffffffffffffffffffffffffff166000526000602052604060002090565b8114610ab95761093561047f93926002927f11a3cf439fb225bfe74225716b6774765670ec1060e3796802e62139d69974da6000604051a273ffffffffffffffffffffffffffffffffffffffff166000526000602052604060002090565b506040517fcbc080ca00000000000000000000000000000000000000000000000000000000815273ffffffffffffffffffffffffffffffffffffffff918216600482015291166024820152604490fd5b82602491604051917fa388d263000000000000000000000000000000000000000000000000000000008352166004820152fd5b503461000e5760207ffffffffffffffffffffffffffffffffffffffffffffffffffffffffffffffffc36011261000e576040517fff00000000000000000000000000000000000000000000000000000000000000602082019081523060601b7fffffffffffffffffffffffffffffffffffffffff00000000000000000000000016602183015260043560358301527f0000000000000000000000000000000000000000000000000000000000000000605583015273ffffffffffffffffffffffffffffffffffffffff91610c3b81607581015b037fffffffffffffffffffffffffffffffffffffffffffffffffffffffffffffffe08101835282611356565b519020604080519290911673ffffffffffffffffffffffffffffffffffffffff811683523f7f000000000000000000000000000000000000000000000000000000000000000014602083015290f35b503461000e576040807ffffffffffffffffffffffffffffffffffffffffffffffffffffffffffffffffc36011261000e57600435610cc6610157565b73ffffffffffffffffffffffffffffffffffffffff91828216908115610f9f57338160601c03610f7657610da46107f386516020810190610d8881610c0f7f0000000000000000000000000000000000000000000000000000000000000000883087917fffffffffffffffffffffffffffffffffffffffff000000000000000000000000605594927fff00000000000000000000000000000000000000000000000000000000000000855260601b166001840152601583015260358201520190565b51902073ffffffffffffffffffffffffffffffffffffffff1690565b92833f7f000000000000000000000000000000000000000000000000000000000000000014610f3057947f4397af6128d529b8ae0442f99db1296d5136062597a15bbc61c1b2a6431a7d15610eca838060009961023b989796865180610c9f8082019082821067ffffffffffffffff831117610f23575b6115a0833903908df515610f16575b610e9c610e578973ffffffffffffffffffffffffffffffffffffffff166000526000602052604060002090565b91600183019073ffffffffffffffffffffffffffffffffffffffff167fffffffffffffffffffffffff0000000000000000000000000000000000000000825416179055565b55835173ffffffffffffffffffffffffffffffffffffffff8716815260208101919091529081906040820190565b0390a15194859483167fc8894f26f396ce8c004245c8b7cd1b92103a6e4302fcbab883987149ac01b7ec8287a473ffffffffffffffffffffffffffffffffffffffff1682526020820190565b610f1e611397565b610e2a565b610f2b611305565b610e1b565b85517f6328ccb200000000000000000000000000000000000000000000000000000000815273ffffffffffffffffffffffffffffffffffffffff85166004820152602490fd5b600485517fcb6e5344000000000000000000000000000000000000000000000000000000008152fd5b600485517f99faaa04000000000000000000000000000000000000000000000000000000008152fd5b503461000e5760207ffffffffffffffffffffffffffffffffffffffffffffffffffffffffffffffffc36011261000e57611000610134565b61100981611505565b73ffffffffffffffffffffffffffffffffffffffff9081811660009281845283602052600260408520015416156110ba575061108e600291837f11a3cf439fb225bfe74225716b6774765670ec1060e3796802e62139d69974da81604051a273ffffffffffffffffffffffffffffffffffffffff166000526000602052604060002090565b017fffffffffffffffffffffffff00000000000000000000000000000000000000008154169055604051f35b602490604051907f6b0136160000000000000000000000000000000000000000000000000000000082526004820152fd5b6020908160408183019282815285518094520193019160005b828110611112575050505090565b835173ffffffffffffffffffffffffffffffffffffffff1685529381019392810192600101611104565b503461000e576020807ffffffffffffffffffffffffffffffffffffffffffffffffffffffffffffffffc36011261000e57611175610134565b9061117f82611574565b73ffffffffffffffffffffffffffffffffffffffff91826000911681528082526003604082200192604051908193808654938481520195845280842093915b8383106111e15761023b866111d5818a0382611356565b604051918291826110eb565b84548116875295810195600194850194909201916111be565b503461000e5760207ffffffffffffffffffffffffffffffffffffffffffffffffffffffffffffffffc36011261000e576020611234610134565b61123d81611574565b73ffffffffffffffffffffffffffffffffffffffff8091166000526000825260026040600020015416604051908152f35b503461000e5760207ffffffffffffffffffffffffffffffffffffffffffffffffffffffffffffffffc36011261000e5773ffffffffffffffffffffffffffffffffffffffff6112bb610134565b16600052600060205260406000205480156112db57602090604051908152f35b60046040517f4ca82090000000000000000000000000000000000000000000000000000000008152fd5b507f4e487b7100000000000000000000000000000000000000000000000000000000600052604160045260246000fd5b67ffffffffffffffff811161134957604052565b611351611305565b604052565b90601f7fffffffffffffffffffffffffffffffffffffffffffffffffffffffffffffffe0910116810190811067ffffffffffffffff82111761134957604052565b506040513d6000823e3d90fd5b600181106113d1577fffffffffffffffffffffffffffffffffffffffffffffffffffffffffffffffff0190565b7f4e487b7100000000000000000000000000000000000000000000000000000000600052601160045260246000fd5b80548210156114185760005260206000200190600090565b7f4e487b7100000000000000000000000000000000000000000000000000000000600052603260045260246000fd5b8054801561149f577fffffffffffffffffffffffffffffffffffffffffffffffffffffffffffffffff019061147c8282611400565b73ffffffffffffffffffffffffffffffffffffffff82549160031b1b1916905555565b7f4e487b7100000000000000000000000000000000000000000000000000000000600052603160045260246000fd5b906105446114f692805490680100000000000000008210156114f8575b600182018155611400565b565b611500611305565b6114eb565b61150e81611574565b73ffffffffffffffffffffffffffffffffffffffff809116908160005260006020526001604060002001541633036115435750565b602490604051907fd4ed9a170000000000000000000000000000000000000000000000000000000082526004820152fd5b73ffffffffffffffffffffffffffffffffffffffff166000526000602052604060002054156112db5756fe60a080604052346100235733608052610c7690816100298239608051816103c50152f35b600080fdfe60806040526004361015610013575b600080fd5b6000803560e01c9081634ce34aa21461006657508063899e104c1461005d5780638df25d92146100545763c4e8fcb51461004c57600080fd5b61000e610362565b5061000e61027f565b5061000e6101ab565b346101465760207ffffffffffffffffffffffffffffffffffffffffffffffffffffffffffffffffc3601126101465760043567ffffffffffffffff8111610142576100b5903690600401610149565b9133815280602052604081205415610116575b8281106100fa576040517f4ce34aa2000000000000000000000000000000000000000000000000000000008152602090f35b8061011061010b6001938686610532565b6105c4565b016100c8565b807f93daadf2000000000000000000000000000000000000000000000000000000006024925233600452fd5b5080fd5b80fd5b9181601f8401121561000e5782359167ffffffffffffffff831161000e5760208085019460c0850201011161000e57565b9181601f8401121561000e5782359167ffffffffffffffff831161000e576020808501948460051b01011161000e57565b503461000e5760407ffffffffffffffffffffffffffffffffffffffffffffffffffffffffffffffffc36011261000e5767ffffffffffffffff60043581811161000e576101fc903690600401610149565b9160243590811161000e5761021590369060040161017a565b919092600033815280602052604081205415610116575b8181106102685761023d8486610acb565b6040517f899e104c000000000000000000000000000000000000000000000000000000008152602090f35b8061027961010b6001938587610532565b0161022c565b503461000e5760207ffffffffffffffffffffffffffffffffffffffffffffffffffffffffffffffffc36011261000e5760043567ffffffffffffffff811161000e576102cf90369060040161017a565b33600052600060205260406000205415610316576102ec91610acb565b60206040517f8df25d92000000000000000000000000000000000000000000000000000000008152f35b7f93daadf2000000000000000000000000000000000000000000000000000000006000523360045260246000fd5b73ffffffffffffffffffffffffffffffffffffffff81160361000e57565b503461000e5760407ffffffffffffffffffffffffffffffffffffffffffffffffffffffffffffffffc36011261000e5760043561039e81610344565b6024359081151580830361000e5773ffffffffffffffffffffffffffffffffffffffff90817f00000000000000000000000000000000000000000000000000000000000000001633036105085761041f6104188473ffffffffffffffffffffffffffffffffffffffff166000526000602052604060002090565b5460ff1690565b1515146104b657816104a6846104767fae63067d43ac07563b7eb8db6595635fc77f1578a2a5ea06ba91b63e2afa37e29573ffffffffffffffffffffffffffffffffffffffff166000526000602052604060002090565b9060ff7fffffffffffffffffffffffffffffffffffffffffffffffffffffffffffffff0083541691151516179055565b60405193151584521691602090a2005b506040517f924e341e00000000000000000000000000000000000000000000000000000000815273ffffffffffffffffffffffffffffffffffffffff9190911660048201529015156024820152604490fd5b60046040517f6d5769be000000000000000000000000000000000000000000000000000000008152fd5b91908110156105425760c0020190565b7f4e487b7100000000000000000000000000000000000000000000000000000000600052603260045260246000fd5b6004111561057b57565b7f4e487b7100000000000000000000000000000000000000000000000000000000600052602160045260246000fd5b35600481101561000e5790565b356105c181610344565b90565b60016105cf826105aa565b6105d881610571565b0361061357806105ed602061061193016105b7565b906105fa604082016105b7565b60a0610608606084016105b7565b92013592610712565b565b600261061e826105aa565b61062781610571565b0361069657600160a08201350361066c5780610648602061061193016105b7565b90610655604082016105b7565b6080610663606084016105b7565b92013592610882565b60046040517fefcc00b1000000000000000000000000000000000000000000000000000000008152fd5b60036106a1826105aa565b6106aa81610571565b036106e857806106bf602061061193016105b7565b6106cb604083016105b7565b6106d7606084016105b7565b90608060a085013594013592610990565b60046040517f7932f1fc000000000000000000000000000000000000000000000000000000008152fd5b9092604051926000947f23b872dd00000000000000000000000000000000000000000000000000000000865280600452816024528260445260208660648180885af1803d15601f3d1160018a51141617163d151581161561077c575b505050505050604052606052565b80863b15151661076e579087959691156107bc57602486887f5f15d672000000000000000000000000000000000000000000000000000000008252600452fd5b156107f657506084947f98891923000000000000000000000000000000000000000000000000000000008552600452602452604452606452fd5b3d610835575b5060a4947ff486bc8700000000000000000000000000000000000000000000000000000000855260045260245260445281606452608452fd5b601f3d0160051c9060051c908060030291808211610869575b505060205a91011061086057856107fc565b833d81803e3d90fd5b8080600392028380020360091c9203020101868061084e565b9092813b1561096257604051926000947f23b872dd000000000000000000000000000000000000000000000000000000008652806004528160245282604452858060648180885af1156108db5750505050604052606052565b8593943d61091e575b5060a4947ff486bc870000000000000000000000000000000000000000000000000000000085526004526024526044526064526001608452fd5b601f3d0160051c9060051c908060030291808211610949575b505060205a91011061086057856108e4565b8080600392028380020360091c92030201018680610937565b507f5f15d6720000000000000000000000000000000000000000000000000000000060005260045260246000fd5b929093833b15610a9d57604051936080519160a0519360c051956000987ff242432a000000000000000000000000000000000000000000000000000000008a528060045281602452826044528360645260a06084528960a452898060c48180895af115610a0d57505050505060805260a05260c052604052606052565b89949550883d610a50575b5060a4957ff486bc87000000000000000000000000000000000000000000000000000000008652600452602452604452606452608452fd5b601f3d0160051c9060051c908060030291808211610a84575b505060205a910110610a7b5786610a18565b843d81803e3d90fd5b8080600392028380020360091c92030201018780610a69565b837f5f15d6720000000000000000000000000000000000000000000000000000000060005260045260246000fd5b90816020907f2eb2c2d600000000000000000000000000000000000000000000000000000000825260005b838110610b095750505050506080604052565b8435820194853590813b156109625760a09182880192833560059181831b948b60c08097608094818301868501351490606085013514169201013584141615610c165789019a890160243760061b9360e0850160a452610104850194600086526040019060c437600080858982865af115610b8a5750505050600101610af6565b869394503d610bcb575b507fafc445e20000000000000000000000000000000000000000000000000000000060005260045260645260849081510190526000fd5b84601f3d01821c911c90600381810292808311610bff575b505050835a910110610bf55784610b94565b3d6000803e3d6000fd5b8080028380020360091c9203020101858080610be3565b7feba2084c0000000000000000000000000000000000000000000000000000000060005260046000fdfea2646970667358221220c5c8d054d9d5df7c3530eab1c32506aad1fcb6772c1457f0da5443ad9e91b4a364736f6c634300080e0033a264697066735822122031e2de61a9e35e9e87d5eef6a36b045a0bab54c4031fd01a0f8138afce3cec3164736f6c634300080e003360a080604052346100235733608052610c7690816100298239608051816103c50152f35b600080fdfe60806040526004361015610013575b600080fd5b6000803560e01c9081634ce34aa21461006657508063899e104c1461005d5780638df25d92146100545763c4e8fcb51461004c57600080fd5b61000e610362565b5061000e61027f565b5061000e6101ab565b346101465760207ffffffffffffffffffffffffffffffffffffffffffffffffffffffffffffffffc3601126101465760043567ffffffffffffffff8111610142576100b5903690600401610149565b9133815280602052604081205415610116575b8281106100fa576040517f4ce34aa2000000000000000000000000000000000000000000000000000000008152602090f35b8061011061010b6001938686610532565b6105c4565b016100c8565b807f93daadf2000000000000000000000000000000000000000000000000000000006024925233600452fd5b5080fd5b80fd5b9181601f8401121561000e5782359167ffffffffffffffff831161000e5760208085019460c0850201011161000e57565b9181601f8401121561000e5782359167ffffffffffffffff831161000e576020808501948460051b01011161000e57565b503461000e5760407ffffffffffffffffffffffffffffffffffffffffffffffffffffffffffffffffc36011261000e5767ffffffffffffffff60043581811161000e576101fc903690600401610149565b9160243590811161000e5761021590369060040161017a565b919092600033815280602052604081205415610116575b8181106102685761023d8486610acb565b6040517f899e104c000000000000000000000000000000000000000000000000000000008152602090f35b8061027961010b6001938587610532565b0161022c565b503461000e5760207ffffffffffffffffffffffffffffffffffffffffffffffffffffffffffffffffc36011261000e5760043567ffffffffffffffff811161000e576102cf90369060040161017a565b33600052600060205260406000205415610316576102ec91610acb565b60206040517f8df25d92000000000000000000000000000000000000000000000000000000008152f35b7f93daadf2000000000000000000000000000000000000000000000000000000006000523360045260246000fd5b73ffffffffffffffffffffffffffffffffffffffff81160361000e57565b503461000e5760407ffffffffffffffffffffffffffffffffffffffffffffffffffffffffffffffffc36011261000e5760043561039e81610344565b6024359081151580830361000e5773ffffffffffffffffffffffffffffffffffffffff90817f00000000000000000000000000000000000000000000000000000000000000001633036105085761041f6104188473ffffffffffffffffffffffffffffffffffffffff166000526000602052604060002090565b5460ff1690565b1515146104b657816104a6846104767fae63067d43ac07563b7eb8db6595635fc77f1578a2a5ea06ba91b63e2afa37e29573ffffffffffffffffffffffffffffffffffffffff166000526000602052604060002090565b9060ff7fffffffffffffffffffffffffffffffffffffffffffffffffffffffffffffff0083541691151516179055565b60405193151584521691602090a2005b506040517f924e341e00000000000000000000000000000000000000000000000000000000815273ffffffffffffffffffffffffffffffffffffffff9190911660048201529015156024820152604490fd5b60046040517f6d5769be000000000000000000000000000000000000000000000000000000008152fd5b91908110156105425760c0020190565b7f4e487b7100000000000000000000000000000000000000000000000000000000600052603260045260246000fd5b6004111561057b57565b7f4e487b7100000000000000000000000000000000000000000000000000000000600052602160045260246000fd5b35600481101561000e5790565b356105c181610344565b90565b60016105cf826105aa565b6105d881610571565b0361061357806105ed602061061193016105b7565b906105fa604082016105b7565b60a0610608606084016105b7565b92013592610712565b565b600261061e826105aa565b61062781610571565b0361069657600160a08201350361066c5780610648602061061193016105b7565b90610655604082016105b7565b6080610663606084016105b7565b92013592610882565b60046040517fefcc00b1000000000000000000000000000000000000000000000000000000008152fd5b60036106a1826105aa565b6106aa81610571565b036106e857806106bf602061061193016105b7565b6106cb604083016105b7565b6106d7606084016105b7565b90608060a085013594013592610990565b60046040517f7932f1fc000000000000000000000000000000000000000000000000000000008152fd5b9092604051926000947f23b872dd00000000000000000000000000000000000000000000000000000000865280600452816024528260445260208660648180885af1803d15601f3d1160018a51141617163d151581161561077c575b505050505050604052606052565b80863b15151661076e579087959691156107bc57602486887f5f15d672000000000000000000000000000000000000000000000000000000008252600452fd5b156107f657506084947f98891923000000000000000000000000000000000000000000000000000000008552600452602452604452606452fd5b3d610835575b5060a4947ff486bc8700000000000000000000000000000000000000000000000000000000855260045260245260445281606452608452fd5b601f3d0160051c9060051c908060030291808211610869575b505060205a91011061086057856107fc565b833d81803e3d90fd5b8080600392028380020360091c9203020101868061084e565b9092813b1561096257604051926000947f23b872dd000000000000000000000000000000000000000000000000000000008652806004528160245282604452858060648180885af1156108db5750505050604052606052565b8593943d61091e575b5060a4947ff486bc870000000000000000000000000000000000000000000000000000000085526004526024526044526064526001608452fd5b601f3d0160051c9060051c908060030291808211610949575b505060205a91011061086057856108e4565b8080600392028380020360091c92030201018680610937565b507f5f15d6720000000000000000000000000000000000000000000000000000000060005260045260246000fd5b929093833b15610a9d57604051936080519160a0519360c051956000987ff242432a000000000000000000000000000000000000000000000000000000008a528060045281602452826044528360645260a06084528960a452898060c48180895af115610a0d57505050505060805260a05260c052604052606052565b89949550883d610a50575b5060a4957ff486bc87000000000000000000000000000000000000000000000000000000008652600452602452604452606452608452fd5b601f3d0160051c9060051c908060030291808211610a84575b505060205a910110610a7b5786610a18565b843d81803e3d90fd5b8080600392028380020360091c92030201018780610a69565b837f5f15d6720000000000000000000000000000000000000000000000000000000060005260045260246000fd5b90816020907f2eb2c2d600000000000000000000000000000000000000000000000000000000825260005b838110610b095750505050506080604052565b8435820194853590813b156109625760a09182880192833560059181831b948b60c08097608094818301868501351490606085013514169201013584141615610c165789019a890160243760061b9360e0850160a452610104850194600086526040019060c437600080858982865af115610b8a5750505050600101610af6565b869394503d610bcb575b507fafc445e20000000000000000000000000000000000000000000000000000000060005260045260645260849081510190526000fd5b84601f3d01821c911c90600381810292808311610bff575b505050835a910110610bf55784610b94565b3d6000803e3d6000fd5b8080028380020360091c9203020101858080610be3565b7feba2084c0000000000000000000000000000000000000000000000000000000060005260046000fdfea2646970667358221220c5c8d054d9d5df7c3530eab1c32506aad1fcb6772c1457f0da5443ad9e91b4a364736f6c634300080e0033"
}