{
  "address": "0xF64031fa1c9746E1b76f1B71158CbE5672fa3350",
  "abi": [
    {
      "inputs": [
        {
          "internalType": "address",
          "name": "ownerAddress",
          "type": "address"
        }
      ],
      "stateMutability": "nonpayable",
      "type": "constructor"
    },
    {
      "inputs": [],
      "name": "CallerIsNotOperator",
      "type": "error"
    },
    {
      "inputs": [],
      "name": "CallerIsNotOwner",
      "type": "error"
    },
    {
      "inputs": [],
      "name": "CallerIsNotPotentialOwner",
      "type": "error"
    },
    {
      "inputs": [],
      "name": "InvalidController",
      "type": "error"
    },
    {
      "inputs": [],
      "name": "InvalidOperator",
      "type": "error"
    },
    {
      "inputs": [],
      "name": "InvalidPauser",
      "type": "error"
    },
    {
      "inputs": [],
      "name": "OwnerCanNotBeSetAsZero",
      "type": "error"
    },
    {
      "inputs": [],
      "name": "PauserCanNotBeSetAsZero",
      "type": "error"
    },
    {
      "inputs": [
        {
          "internalType": "address",
          "name": "zone",
          "type": "address"
        }
      ],
      "name": "ZoneAlreadyExists",
      "type": "error"
    },
    {
      "anonymous": false,
      "inputs": [
        {
          "indexed": false,
          "internalType": "address",
          "name": "newOperator",
          "type": "address"
        }
      ],
      "name": "OperatorUpdated",
      "type": "event"
    },
    {
      "anonymous": false,
      "inputs": [
        {
          "indexed": false,
          "internalType": "address",
          "name": "previousOwner",
          "type": "address"
        },
        {
          "indexed": false,
          "internalType": "address",
          "name": "newOwner",
          "type": "address"
        }
      ],
      "name": "OwnershipTransferred",
      "type": "event"
    },
    {
      "anonymous": false,
      "inputs": [],
      "name": "Paused",
      "type": "event"
    },
    {
      "anonymous": false,
      "inputs": [
        {
          "indexed": false,
          "internalType": "address",
          "name": "newPauser",
          "type": "address"
        }
      ],
      "name": "PauserUpdated",
      "type": "event"
    },
    {
      "anonymous": false,
      "inputs": [
        {
          "indexed": false,
          "internalType": "address",
          "name": "newPotentialOwner",
          "type": "address"
        }
      ],
      "name": "PotentialOwnerUpdated",
      "type": "event"
    },
    {
      "anonymous": false,
      "inputs": [],
      "name": "Unpaused",
      "type": "event"
    },
    {
      "anonymous": false,
      "inputs": [
        {
          "indexed": false,
          "internalType": "address",
          "name": "zone",
          "type": "address"
        },
        {
          "indexed": false,
          "internalType": "bytes32",
          "name": "salt",
          "type": "bytes32"
        }
      ],
      "name": "ZoneCreated",
      "type": "event"
    },
    {
      "inputs": [],
      "name": "acceptOwnership",
      "outputs": [],
      "stateMutability": "nonpayable",
      "type": "function"
    },
    {
      "inputs": [
        {
          "internalType": "address",
          "name": "pausableZoneAddress",
          "type": "address"
        },
        {
          "internalType": "address",
          "name": "operatorToAssign",
          "type": "address"
        }
      ],
      "name": "assignOperator",
      "outputs": [],
      "stateMutability": "nonpayable",
      "type": "function"
    },
    {
      "inputs": [
        {
          "internalType": "address",
          "name": "pauserToAssign",
          "type": "address"
        }
      ],
      "name": "assignPauser",
      "outputs": [],
      "stateMutability": "nonpayable",
      "type": "function"
    },
    {
      "inputs": [
        {
          "internalType": "address",
          "name": "pausableZoneAddress",
          "type": "address"
        },
        {
          "internalType": "contract SeaportInterface",
          "name": "seaportAddress",
          "type": "address"
        },
        {
          "components": [
            {
              "internalType": "address",
              "name": "offerer",
              "type": "address"
            },
            {
              "internalType": "address",
              "name": "zone",
              "type": "address"
            },
            {
              "components": [
                {
                  "internalType": "enum ItemType",
                  "name": "itemType",
                  "type": "uint8"
                },
                {
                  "internalType": "address",
                  "name": "token",
                  "type": "address"
                },
                {
                  "internalType": "uint256",
                  "name": "identifierOrCriteria",
                  "type": "uint256"
                },
                {
                  "internalType": "uint256",
                  "name": "startAmount",
                  "type": "uint256"
                },
                {
                  "internalType": "uint256",
                  "name": "endAmount",
                  "type": "uint256"
                }
              ],
              "internalType": "struct OfferItem[]",
              "name": "offer",
              "type": "tuple[]"
            },
            {
              "components": [
                {
                  "internalType": "enum ItemType",
                  "name": "itemType",
                  "type": "uint8"
                },
                {
                  "internalType": "address",
                  "name": "token",
                  "type": "address"
                },
                {
                  "internalType": "uint256",
                  "name": "identifierOrCriteria",
                  "type": "uint256"
                },
                {
                  "internalType": "uint256",
                  "name": "startAmount",
                  "type": "uint256"
                },
                {
                  "internalType": "uint256",
                  "name": "endAmount",
                  "type": "uint256"
                },
                {
                  "internalType": "address payable",
                  "name": "recipient",
                  "type": "address"
                }
              ],
              "internalType": "struct ConsiderationItem[]",
              "name": "consideration",
              "type": "tuple[]"
            },
            {
              "internalType": "enum OrderType",
              "name": "orderType",
              "type": "uint8"
            },
            {
              "internalType": "uint256",
              "name": "startTime",
              "type": "uint256"
            },
            {
              "internalType": "uint256",
              "name": "endTime",
              "type": "uint256"
            },
            {
              "internalType": "bytes32",
              "name": "zoneHash",
              "type": "bytes32"
            },
            {
              "internalType": "uint256",
              "name": "salt",
              "type": "uint256"
            },
            {
              "internalType": "bytes32",
              "name": "conduitKey",
              "type": "bytes32"
            },
            {
              "internalType": "uint256",
              "name": "counter",
              "type": "uint256"
            }
          ],
          "internalType": "struct OrderComponents[]",
          "name": "orders",
          "type": "tuple[]"
        }
      ],
      "name": "cancelOrders",
      "outputs": [],
      "stateMutability": "nonpayable",
      "type": "function"
    },
    {
      "inputs": [],
      "name": "cancelOwnershipTransfer",
      "outputs": [],
      "stateMutability": "nonpayable",
      "type": "function"
    },
    {
      "inputs": [
        {
          "internalType": "bytes32",
          "name": "salt",
          "type": "bytes32"
        }
      ],
      "name": "createZone",
      "outputs": [
        {
          "internalType": "address",
          "name": "derivedAddress",
          "type": "address"
        }
      ],
      "stateMutability": "nonpayable",
      "type": "function"
    },
    {
      "inputs": [
        {
          "internalType": "address",
          "name": "pausableZoneAddress",
          "type": "address"
        },
        {
          "internalType": "contract SeaportInterface",
          "name": "seaportAddress",
          "type": "address"
        },
        {
          "components": [
            {
              "components": [
                {
                  "internalType": "address",
                  "name": "offerer",
                  "type": "address"
                },
                {
                  "internalType": "address",
                  "name": "zone",
                  "type": "address"
                },
                {
                  "components": [
                    {
                      "internalType": "enum ItemType",
                      "name": "itemType",
                      "type": "uint8"
                    },
                    {
                      "internalType": "address",
                      "name": "token",
                      "type": "address"
                    },
                    {
                      "internalType": "uint256",
                      "name": "identifierOrCriteria",
                      "type": "uint256"
                    },
                    {
                      "internalType": "uint256",
                      "name": "startAmount",
                      "type": "uint256"
                    },
                    {
                      "internalType": "uint256",
                      "name": "endAmount",
                      "type": "uint256"
                    }
                  ],
                  "internalType": "struct OfferItem[]",
                  "name": "offer",
                  "type": "tuple[]"
                },
                {
                  "components": [
                    {
                      "internalType": "enum ItemType",
                      "name": "itemType",
                      "type": "uint8"
                    },
                    {
                      "internalType": "address",
                      "name": "token",
                      "type": "address"
                    },
                    {
                      "internalType": "uint256",
                      "name": "identifierOrCriteria",
                      "type": "uint256"
                    },
                    {
                      "internalType": "uint256",
                      "name": "startAmount",
                      "type": "uint256"
                    },
                    {
                      "internalType": "uint256",
                      "name": "endAmount",
                      "type": "uint256"
                    },
                    {
                      "internalType": "address payable",
                      "name": "recipient",
                      "type": "address"
                    }
                  ],
                  "internalType": "struct ConsiderationItem[]",
                  "name": "consideration",
                  "type": "tuple[]"
                },
                {
                  "internalType": "enum OrderType",
                  "name": "orderType",
                  "type": "uint8"
                },
                {
                  "internalType": "uint256",
                  "name": "startTime",
                  "type": "uint256"
                },
                {
                  "internalType": "uint256",
                  "name": "endTime",
                  "type": "uint256"
                },
                {
                  "internalType": "bytes32",
                  "name": "zoneHash",
                  "type": "bytes32"
                },
                {
                  "internalType": "uint256",
                  "name": "salt",
                  "type": "uint256"
                },
                {
                  "internalType": "bytes32",
                  "name": "conduitKey",
                  "type": "bytes32"
                },
                {
                  "internalType": "uint256",
                  "name": "totalOriginalConsiderationItems",
                  "type": "uint256"
                }
              ],
              "internalType": "struct OrderParameters",
              "name": "parameters",
              "type": "tuple"
            },
            {
              "internalType": "uint120",
              "name": "numerator",
              "type": "uint120"
            },
            {
              "internalType": "uint120",
              "name": "denominator",
              "type": "uint120"
            },
            {
              "internalType": "bytes",
              "name": "signature",
              "type": "bytes"
            },
            {
              "internalType": "bytes",
              "name": "extraData",
              "type": "bytes"
            }
          ],
          "internalType": "struct AdvancedOrder[]",
          "name": "orders",
          "type": "tuple[]"
        },
        {
          "components": [
            {
              "internalType": "uint256",
              "name": "orderIndex",
              "type": "uint256"
            },
            {
              "internalType": "enum Side",
              "name": "side",
              "type": "uint8"
            },
            {
              "internalType": "uint256",
              "name": "index",
              "type": "uint256"
            },
            {
              "internalType": "uint256",
              "name": "identifier",
              "type": "uint256"
            },
            {
              "internalType": "bytes32[]",
              "name": "criteriaProof",
              "type": "bytes32[]"
            }
          ],
          "internalType": "struct CriteriaResolver[]",
          "name": "criteriaResolvers",
          "type": "tuple[]"
        },
        {
          "components": [
            {
              "components": [
                {
                  "internalType": "uint256",
                  "name": "orderIndex",
                  "type": "uint256"
                },
                {
                  "internalType": "uint256",
                  "name": "itemIndex",
                  "type": "uint256"
                }
              ],
              "internalType": "struct FulfillmentComponent[]",
              "name": "offerComponents",
              "type": "tuple[]"
            },
            {
              "components": [
                {
                  "internalType": "uint256",
                  "name": "orderIndex",
                  "type": "uint256"
                },
                {
                  "internalType": "uint256",
                  "name": "itemIndex",
                  "type": "uint256"
                }
              ],
              "internalType": "struct FulfillmentComponent[]",
              "name": "considerationComponents",
              "type": "tuple[]"
            }
          ],
          "internalType": "struct Fulfillment[]",
          "name": "fulfillments",
          "type": "tuple[]"
        }
      ],
      "name": "executeMatchAdvancedOrders",
      "outputs": [
        {
          "components": [
            {
              "components": [
                {
                  "internalType": "enum ItemType",
                  "name": "itemType",
                  "type": "uint8"
                },
                {
                  "internalType": "address",
                  "name": "token",
                  "type": "address"
                },
                {
                  "internalType": "uint256",
                  "name": "identifier",
                  "type": "uint256"
                },
                {
                  "internalType": "uint256",
                  "name": "amount",
                  "type": "uint256"
                },
                {
                  "internalType": "address payable",
                  "name": "recipient",
                  "type": "address"
                }
              ],
              "internalType": "struct ReceivedItem",
              "name": "item",
              "type": "tuple"
            },
            {
              "internalType": "address",
              "name": "offerer",
              "type": "address"
            },
            {
              "internalType": "bytes32",
              "name": "conduitKey",
              "type": "bytes32"
            }
          ],
          "internalType": "struct Execution[]",
          "name": "executions",
          "type": "tuple[]"
        }
      ],
      "stateMutability": "payable",
      "type": "function"
    },
    {
      "inputs": [
        {
          "internalType": "address",
          "name": "pausableZoneAddress",
          "type": "address"
        },
        {
          "internalType": "contract SeaportInterface",
          "name": "seaportAddress",
          "type": "address"
        },
        {
          "components": [
            {
              "components": [
                {
                  "internalType": "address",
                  "name": "offerer",
                  "type": "address"
                },
                {
                  "internalType": "address",
                  "name": "zone",
                  "type": "address"
                },
                {
                  "components": [
                    {
                      "internalType": "enum ItemType",
                      "name": "itemType",
                      "type": "uint8"
                    },
                    {
                      "internalType": "address",
                      "name": "token",
                      "type": "address"
                    },
                    {
                      "internalType": "uint256",
                      "name": "identifierOrCriteria",
                      "type": "uint256"
                    },
                    {
                      "internalType": "uint256",
                      "name": "startAmount",
                      "type": "uint256"
                    },
                    {
                      "internalType": "uint256",
                      "name": "endAmount",
                      "type": "uint256"
                    }
                  ],
                  "internalType": "struct OfferItem[]",
                  "name": "offer",
                  "type": "tuple[]"
                },
                {
                  "components": [
                    {
                      "internalType": "enum ItemType",
                      "name": "itemType",
                      "type": "uint8"
                    },
                    {
                      "internalType": "address",
                      "name": "token",
                      "type": "address"
                    },
                    {
                      "internalType": "uint256",
                      "name": "identifierOrCriteria",
                      "type": "uint256"
                    },
                    {
                      "internalType": "uint256",
                      "name": "startAmount",
                      "type": "uint256"
                    },
                    {
                      "internalType": "uint256",
                      "name": "endAmount",
                      "type": "uint256"
                    },
                    {
                      "internalType": "address payable",
                      "name": "recipient",
                      "type": "address"
                    }
                  ],
                  "internalType": "struct ConsiderationItem[]",
                  "name": "consideration",
                  "type": "tuple[]"
                },
                {
                  "internalType": "enum OrderType",
                  "name": "orderType",
                  "type": "uint8"
                },
                {
                  "internalType": "uint256",
                  "name": "startTime",
                  "type": "uint256"
                },
                {
                  "internalType": "uint256",
                  "name": "endTime",
                  "type": "uint256"
                },
                {
                  "internalType": "bytes32",
                  "name": "zoneHash",
                  "type": "bytes32"
                },
                {
                  "internalType": "uint256",
                  "name": "salt",
                  "type": "uint256"
                },
                {
                  "internalType": "bytes32",
                  "name": "conduitKey",
                  "type": "bytes32"
                },
                {
                  "internalType": "uint256",
                  "name": "totalOriginalConsiderationItems",
                  "type": "uint256"
                }
              ],
              "internalType": "struct OrderParameters",
              "name": "parameters",
              "type": "tuple"
            },
            {
              "internalType": "bytes",
              "name": "signature",
              "type": "bytes"
            }
          ],
          "internalType": "struct Order[]",
          "name": "orders",
          "type": "tuple[]"
        },
        {
          "components": [
            {
              "components": [
                {
                  "internalType": "uint256",
                  "name": "orderIndex",
                  "type": "uint256"
                },
                {
                  "internalType": "uint256",
                  "name": "itemIndex",
                  "type": "uint256"
                }
              ],
              "internalType": "struct FulfillmentComponent[]",
              "name": "offerComponents",
              "type": "tuple[]"
            },
            {
              "components": [
                {
                  "internalType": "uint256",
                  "name": "orderIndex",
                  "type": "uint256"
                },
                {
                  "internalType": "uint256",
                  "name": "itemIndex",
                  "type": "uint256"
                }
              ],
              "internalType": "struct FulfillmentComponent[]",
              "name": "considerationComponents",
              "type": "tuple[]"
            }
          ],
          "internalType": "struct Fulfillment[]",
          "name": "fulfillments",
          "type": "tuple[]"
        }
      ],
      "name": "executeMatchOrders",
      "outputs": [
        {
          "components": [
            {
              "components": [
                {
                  "internalType": "enum ItemType",
                  "name": "itemType",
                  "type": "uint8"
                },
                {
                  "internalType": "address",
                  "name": "token",
                  "type": "address"
                },
                {
                  "internalType": "uint256",
                  "name": "identifier",
                  "type": "uint256"
                },
                {
                  "internalType": "uint256",
                  "name": "amount",
                  "type": "uint256"
                },
                {
                  "internalType": "address payable",
                  "name": "recipient",
                  "type": "address"
                }
              ],
              "internalType": "struct ReceivedItem",
              "name": "item",
              "type": "tuple"
            },
            {
              "internalType": "address",
              "name": "offerer",
              "type": "address"
            },
            {
              "internalType": "bytes32",
              "name": "conduitKey",
              "type": "bytes32"
            }
          ],
          "internalType": "struct Execution[]",
          "name": "executions",
          "type": "tuple[]"
        }
      ],
      "stateMutability": "payable",
      "type": "function"
    },
    {
      "inputs": [],
      "name": "owner",
      "outputs": [
        {
          "internalType": "address",
          "name": "",
          "type": "address"
        }
      ],
      "stateMutability": "view",
      "type": "function"
    },
    {
      "inputs": [
        {
          "internalType": "address",
          "name": "zone",
          "type": "address"
        }
      ],
      "name": "pause",
      "outputs": [
        {
          "internalType": "bool",
          "name": "success",
          "type": "bool"
        }
      ],
      "stateMutability": "nonpayable",
      "type": "function"
    },
    {
      "inputs": [],
      "name": "pauser",
      "outputs": [
        {
          "internalType": "address",
          "name": "",
          "type": "address"
        }
      ],
      "stateMutability": "view",
      "type": "function"
    },
    {
      "inputs": [],
      "name": "potentialOwner",
      "outputs": [
        {
          "internalType": "address",
          "name": "",
          "type": "address"
        }
      ],
      "stateMutability": "view",
      "type": "function"
    },
    {
      "inputs": [
        {
          "internalType": "address",
          "name": "newPotentialOwner",
          "type": "address"
        }
      ],
      "name": "transferOwnership",
      "outputs": [],
      "stateMutability": "nonpayable",
      "type": "function"
    },
    {
      "inputs": [],
      "name": "zoneCreationCode",
      "outputs": [
        {
          "internalType": "bytes32",
          "name": "",
          "type": "bytes32"
        }
      ],
      "stateMutability": "view",
      "type": "function"
    }
  ],
  "transactionHash": "0x7e9eb9c75f3335e713894f6a5852925adb05b67f6b2b7c75d0dae7d5a0d560d5",
  "args": [
    "0x745E3182275791241eb92036a4A767664c456343"
  ],
  "numDeployments": 1,
  "solcInputHash": "6d132c08ea5855a8db9ad1d8958352e3",
  "bytecode": "0x60a0604052346200009b57620045f2602081380391826200002081620000a0565b9384928339810103126200009b57516001600160a01b038116908190036200009b57600080546001600160a01b0319169190911790556115506200006760208201620000a0565b8181526020810191620030a28339519020608052604051612fc59081620000dd82396080518181816104e001526106db0152f35b600080fd5b6040519190601f01601f191682016001600160401b03811183821017620000c657604052565b634e487b7160e01b600052604160045260246000fdfe60806040526004361015610013575b600080fd5b60003560e01c806323452b9c1461012b57806340ddc7881461012257806346b3ce9f146101195780637242512f1461011057806376a67a51146101075780637762df25146100fe57806379ba5097146100f55780638da5cb5b146100ec5780639fd0506d146100e3578063b44f6608146100da578063d6f3b110146100d1578063dcd5b13e146100c8578063f2fde38b146100bf5763f7e4aac6146100b757600080fd5b61000e610f2b565b5061000e610e61565b5061000e610d3e565b5061000e610c2e565b5061000e61099f565b5061000e61096a565b5061000e610935565b5061000e610825565b5061000e6107f0565b5061000e6106fe565b5061000e6106c2565b5061000e61048c565b5061000e61033b565b5061000e61013f565b600091031261000e57565b503461000e576000806003193601126101f15773ffffffffffffffffffffffffffffffffffffffff81541633036101c7577f11a3cf439fb225bfe74225716b6774765670ec1060e3796802e62139d69974da6020604051838152a17fffffffffffffffffffffffff000000000000000000000000000000000000000060015416600155604051f35b60046040517f6db2465f000000000000000000000000000000000000000000000000000000008152fd5b80fd5b73ffffffffffffffffffffffffffffffffffffffff81160361000e57565b359061021d826101f4565b565b9181601f8401121561000e5782359167ffffffffffffffff831161000e576020808501948460051b01011161000e57565b507f4e487b7100000000000000000000000000000000000000000000000000000000600052602160045260246000fd5b90600682101561028d5752565b610295610250565b52565b60208082019080835283518092528060408094019401926000905b8382106102c257505050505090565b90919293948360e060019284895180516102dd848251610280565b73ffffffffffffffffffffffffffffffffffffffff9081878201511687860152838101518486015260608082015190860152816080809201511690850152858201511660a0840152015160c0820152019601920190939291936102b3565b50608060031936011261000e57600435610354816101f4565b60243590610361826101f4565b67ffffffffffffffff9060443582811161000e5761038390369060040161021f565b909260643590811161000e5761039d90369060040161021f565b9290936103db6103c260005473ffffffffffffffffffffffffffffffffffffffff1690565b73ffffffffffffffffffffffffffffffffffffffff1690565b33036101c75761045a95610421600095604051978896879586957f2718034d000000000000000000000000000000000000000000000000000000008752600487016117dc565b039173ffffffffffffffffffffffffffffffffffffffff3491165af190811561047f575b60009161045e575b5060405191829182610298565b0390f35b610479913d8091833e61047181836110b6565b8101906114e4565b3861044d565b6104876110f7565b610445565b503461000e57602060031936011261000e576004356104c36103c260005473ffffffffffffffffffffffffffffffffffffffff1690565b33036101c7576105aa6103c2604051602081019061058e816105627f0000000000000000000000000000000000000000000000000000000000000000883087917fffffffffffffffffffffffffffffffffffffffff000000000000000000000000605594927fff00000000000000000000000000000000000000000000000000000000000000855260601b166001840152601583015260358201520190565b037fffffffffffffffffffffffffffffffffffffffffffffffffffffffffffffffe081018352826110b6565b51902073ffffffffffffffffffffffffffffffffffffffff1690565b803b61067a577fd1fa916c9f898e9a8dcedb0f78093657d07014799896193f2b219bed6ac7399c6106368361045a94604051806115508082019082821067ffffffffffffffff83111761066d575b611a40833903906000f515610660575b6040805173ffffffffffffffffffffffffffffffffffffffff86168152602081019290925290918291820190565b0390a160405173ffffffffffffffffffffffffffffffffffffffff90911681529081906020820190565b6106686110f7565b610608565b61067561102d565b6105f8565b6040517e83438500000000000000000000000000000000000000000000000000000000815273ffffffffffffffffffffffffffffffffffffffff919091166004820152602490fd5b503461000e57600060031936011261000e5760206040517f00000000000000000000000000000000000000000000000000000000000000008152f35b503461000e57602060031936011261000e5760043561071c816101f4565b73ffffffffffffffffffffffffffffffffffffffff908160025416331415806107e2575b6107b85716803b1561000e57600080916024604051809481937f76a67a510000000000000000000000000000000000000000000000000000000083523360048401525af180156107ab575b61079c575b60405160018152602090f35b6107a59061105d565b38610790565b6107b36110f7565b61078b565b60046040517fc7260843000000000000000000000000000000000000000000000000000000008152fd5b508160005416331415610740565b503461000e57600060031936011261000e57602073ffffffffffffffffffffffffffffffffffffffff60015416604051908152f35b503461000e576000806003193601126101f15760015473ffffffffffffffffffffffffffffffffffffffff90818116330361090b577f8be0079c531659141344cd1fd0a4f28419497f9722a3daafe3b4186f6b6457e0917fffffffffffffffffffffffff00000000000000000000000000000000000000006040927f11a3cf439fb225bfe74225716b6774765670ec1060e3796802e62139d69974da60208551888152a1166001558354168151908152336020820152a1600080547fffffffffffffffffffffffff00000000000000000000000000000000000000001633179055604051f35b60046040517f1ff958b6000000000000000000000000000000000000000000000000000000008152fd5b503461000e57600060031936011261000e57602073ffffffffffffffffffffffffffffffffffffffff60005416604051908152f35b503461000e57600060031936011261000e57602073ffffffffffffffffffffffffffffffffffffffff60025416604051908152f35b5060a060031990808236011261000e57600480356109bc816101f4565b602435936109c9856101f4565b67ffffffffffffffff60443581811161000e576109e9903690860161021f565b909560643583811161000e57610a02903690880161021f565b909360843590811161000e57610a1b903690890161021f565b94909373ffffffffffffffffffffffffffffffffffffffff998a600054163303610c05579060249491818c9d60409d9c9d9c8d519e8f917f65c4eb720000000000000000000000000000000000000000000000000000000083526084830193169101528d608098899101525260a48c019560a48d8460051b01019682946000935b858510610b2a57505050505050508561045a9a958a9795610ad1868a9896610ae0968a988960009f9b030160448a0152611953565b92858403016064860152611750565b03923491165af1918215610b1d575b600092610b02575b505191829182610298565b610b1691923d8091833e61047181836110b6565b9038610af7565b610b256110f7565b610aef565b909192939495988f8f90917fffffffffffffffffffffffffffffffffffffffffffffffffffffffffffffff5c6001938203018652610bf4610b6b8d866118e0565b610b84610b788280611402565b88855288850190611314565b92610be7610bdd6effffffffffffffffffffffffffffff95602097878998610bad8a89016118c4565b1689870152610bbd8288016118c4565b16908501526060610bd0818701876115fd565b918684039087015261164d565b928b8101906115fd565b918b81850391015261164d565b9b0194019501939295949190610a9c565b896040517f6db2465f000000000000000000000000000000000000000000000000000000008152fd5b503461000e57606060031936011261000e57600435610c4c816101f4565b602435610c58816101f4565b60443567ffffffffffffffff811161000e57610c7890369060040161021f565b9092610c9c6103c260005473ffffffffffffffffffffffffffffffffffffffff1690565b33036101c757610cf693600073ffffffffffffffffffffffffffffffffffffffff602095604051978896879586937fe5c27af100000000000000000000000000000000000000000000000000000000855260048501611434565b0393165af18015610d31575b610d0857005b610d289060203d8111610d2a575b610d2081836110b6565b810190611104565b005b503d610d16565b610d396110f7565b610d02565b503461000e57602060031936011261000e57600435610d5c816101f4565b73ffffffffffffffffffffffffffffffffffffffff806000541633036101c757811615610e3757610dc89073ffffffffffffffffffffffffffffffffffffffff167fffffffffffffffffffffffff00000000000000000000000000000000000000006002541617600255565b7fa4336c0cb1e245b95ad204faed7e940d6dc999684fd8b5e1ff597a0c4efca8ab610e32610e0b60025473ffffffffffffffffffffffffffffffffffffffff1690565b60405173ffffffffffffffffffffffffffffffffffffffff90911681529081906020820190565b0390a1005b60046040517f5384e6f5000000000000000000000000000000000000000000000000000000008152fd5b503461000e57602060031936011261000e57600435610e7f816101f4565b73ffffffffffffffffffffffffffffffffffffffff90816000541633036101c757168015610f01577f11a3cf439fb225bfe74225716b6774765670ec1060e3796802e62139d69974da6020604051838152a17fffffffffffffffffffffffff000000000000000000000000000000000000000060015416176001556000604051f35b60046040517fda72ecf9000000000000000000000000000000000000000000000000000000008152fd5b503461000e57604060031936011261000e57600435610f49816101f4565b60243590610f56826101f4565b600091610f7a6103c2845473ffffffffffffffffffffffffffffffffffffffff1690565b33036101c75773ffffffffffffffffffffffffffffffffffffffff83921690813b15611029576040517f84385c6f00000000000000000000000000000000000000000000000000000000815273ffffffffffffffffffffffffffffffffffffffff91909116600482015291908290602490829084905af1801561101c575b611003575b50604051f35b806110106110169261105d565b80610134565b38610ffd565b6110246110f7565b610ff8565b5050fd5b507f4e487b7100000000000000000000000000000000000000000000000000000000600052604160045260246000fd5b67ffffffffffffffff811161107157604052565b61107961102d565b604052565b6060810190811067ffffffffffffffff82111761107157604052565b60a0810190811067ffffffffffffffff82111761107157604052565b90601f7fffffffffffffffffffffffffffffffffffffffffffffffffffffffffffffffe0910116810190811067ffffffffffffffff82111761107157604052565b506040513d6000823e3d90fd5b9081602091031261000e5751801515810361000e5790565b90357fffffffffffffffffffffffffffffffffffffffffffffffffffffffffffffffe18236030181121561000e57016020813591019167ffffffffffffffff821161000e5760a082023603831361000e57565b6006111561000e57565b9190808252602080920192916000905b828210611197575050505090565b90919293806111b260019287356111ad8161116f565b610280565b73ffffffffffffffffffffffffffffffffffffffff838701356111d4816101f4565b168184015260408681013590820152606080870135908201526080808701359082015260a0908101950193920190611189565b90357fffffffffffffffffffffffffffffffffffffffffffffffffffffffffffffffe18236030181121561000e57016020813591019167ffffffffffffffff821161000e5760c082023603831361000e57565b9190808252602080920192916000905b828210611278575050505090565b909192938061128e60019287356111ad8161116f565b8286013561129b816101f4565b73ffffffffffffffffffffffffffffffffffffffff8091168483015260408088013590830152606080880135908301526080808801359083015260a090818801356112e5816101f4565b169082015260c090810195019392019061126a565b3590600482101561000e57565b90600482101561028d5752565b9061133c8161132284610212565b73ffffffffffffffffffffffffffffffffffffffff169052565b61136861134b60208401610212565b73ffffffffffffffffffffffffffffffffffffffff166020830152565b6113a761138c61137b604085018561111c565b610160806040870152850191611179565b6113996060850185611207565b90848303606086015261125a565b916113c16113b7608083016112fa565b6080840190611307565b60a081013560a083015260c081013560c083015260e081013560e0830152610100808201359083015261012080820135908301526101408091013591015290565b90357ffffffffffffffffffffffffffffffffffffffffffffffffffffffffffffffea18236030181121561000e570190565b929073ffffffffffffffffffffffffffffffffffffffff60408501911684528160209160408387015252606084019360608360051b82010194846000925b858410611483575050505050505090565b9091929394959685806114c8837fffffffffffffffffffffffffffffffffffffffffffffffffffffffffffffffa086600196030188526114c38c88611402565b611314565b990194019401929594939190611472565b519061021d826101f4565b6020808284031261000e57815167ffffffffffffffff9283821161000e57019083601f8301121561000e5781519283116115f0575b60409384519461152e838660051b01876110b6565b848652828601918360e08097028601019481861161000e578401925b85841061155b575050505050505090565b83820387811261000e578351916115718361107e565b60a080921261000e5788926115d88893875161158c8161109a565b89516115978161116f565b8152858a01516115a6816101f4565b86820152888a0151898201526060808b0151908201526080808b0151906115cc826101f4565b820152835288016114d9565b8382015260c08701518682015281520193019261154a565b6115f861102d565b611519565b90357fffffffffffffffffffffffffffffffffffffffffffffffffffffffffffffffe18236030181121561000e57016020813591019167ffffffffffffffff821161000e57813603831361000e57565b601f82602094937fffffffffffffffffffffffffffffffffffffffffffffffffffffffffffffffe0938186528686013760008582860101520116010190565b90357fffffffffffffffffffffffffffffffffffffffffffffffffffffffffffffffc18236030181121561000e570190565b90357fffffffffffffffffffffffffffffffffffffffffffffffffffffffffffffffe18236030181121561000e57016020813591019167ffffffffffffffff821161000e578160061b3603831361000e57565b9190808252602080920192916000905b82821061172f575050505090565b83358552838101358582015260409485019490930192600190910190611721565b90808352602080930192838260051b850194846000925b858410611778575050505050505090565b9091929394959685806117cb83856001950388526117968c8861168c565b906117be6117b46117a784806116be565b6040808652850191611711565b92858101906116be565b9185818503910152611711565b990194019401929594939190611767565b90939195949273ffffffffffffffffffffffffffffffffffffffff60608301951682528060209560608785015252608082019060808160051b8401019588926000905b83821061184157505050505061183e9495506040818503910152611750565b90565b909192939783806118b5836118808f8e907fffffffffffffffffffffffffffffffffffffffffffffffffffffffffffffff808d6001990301895261168c565b906118a861189e6118918480611402565b6040808552840190611314565b92858101906115fd565b918581850391015261164d565b9a01920192019093929161181f565b35906effffffffffffffffffffffffffffff8216820361000e57565b90357fffffffffffffffffffffffffffffffffffffffffffffffffffffffffffffff618236030181121561000e570190565b90918281527f07ffffffffffffffffffffffffffffffffffffffffffffffffffffffffffffff831161000e5760209260051b80928483013701016000815290565b90808352602080930190819360059282841b810195856000925b85841061197f57505050505050505090565b9091929394959697818103845261199689846118e0565b8035825286810135600281101561000e57878301526040808201359083015260608082013590830152608090818101357fffffffffffffffffffffffffffffffffffffffffffffffffffffffffffffffe18236030181121561000e57019087823592019267ffffffffffffffff831161000e57828b1b3603841361000e5760019389938493611a2d9360a080928201520191611912565b9a01940194019296959493919061196d56fe60a0806040523461006457336080527fa45f47fdea8a1efdd9029a5691c7f759c32b7c698632b563573e155625d16933600082a16114e6908161006a82396080518181816104870152818161085b015281816108d8015281816109a70152610bf30152f35b600080fdfe608080604052600436101561001357600080fd5b60003560e01c9081630e1d31dc146100b6575080632718034d146100ad57806333131570146100a4578063570ca7351461009b57806365c4eb721461009257806376a67a511461008957806384385c6f146100805763e5c27af114610078575b600080fd5b610073610a55565b50610073610952565b50610073610883565b506100736105bc565b50610073610569565b506100736104af565b5061007361026a565b346100735760807ffffffffffffffffffffffffffffffffffffffffffffffffffffffffffffffffc360112610073576020906100f3602435610123565b6100fe604435610123565b7f0e1d31dc000000000000000000000000000000000000000000000000000000008152f35b73ffffffffffffffffffffffffffffffffffffffff81160361007357565b359061014c82610123565b565b9181601f840112156100735782359167ffffffffffffffff8311610073576020808501948460051b01011161007357565b507f4e487b7100000000000000000000000000000000000000000000000000000000600052602160045260246000fd5b9060068210156101bc5752565b6101c461017f565b52565b60208082019080835283518092528060408094019401926000905b8382106101f157505050505090565b90919293948360e0600192848951805161020c8482516101af565b73ffffffffffffffffffffffffffffffffffffffff9081878201511687860152838101518486015260608082015190860152816080809201511690850152858201511660a0840152015160c0820152019601920190939291936101e2565b507ffffffffffffffffffffffffffffffffffffffffffffffffffffffffffffffffc606081360112610073576004356102a281610123565b67ffffffffffffffff91602435838111610073576102c490369060040161014e565b929093604435908111610073576102df90369060040161014e565b73ffffffffffffffffffffffffffffffffffffffff9591866000541633141580610483575b610459576040948551967fa817440400000000000000000000000000000000000000000000000000000000885280604489018860048b015252606488019060648160051b8a01019580926000915b8383106103d35750505061039f89896000828e818d8161037d8f8f8f8f858403016024860152611285565b03923491165af19182156103c6575b6000926103a3575b5051918291826101c7565b0390f35b6103bf91923d8091833e6103b78183610c90565b810190611019565b9083610394565b6103ce611001565b61038c565b909192939761043d8b61044a838f6104178e7fffffffffffffffffffffffffffffffffffffffffffffffffffffffffffffff9c61042e9360019903018a52886111c1565b936104228580610fcf565b90808452830190610ee1565b90602094848680960190611132565b9185818503910152611182565b9a019301930191939290610352565b60046040517fccea9e6f000000000000000000000000000000000000000000000000000000008152fd5b50867f000000000000000000000000000000000000000000000000000000000000000016331415610304565b5034610073577ffffffffffffffffffffffffffffffffffffffffffffffffffffffffffffffffc60a081360112610073576104eb602435610123565b60443567ffffffffffffffff918282116100735760a09136030112610073576064358181116100735761052290369060040161014e565b50506084359081116100735761053c90369060040161014e565b50506040517f0e1d31dc000000000000000000000000000000000000000000000000000000008152602090f35b50346100735760007ffffffffffffffffffffffffffffffffffffffffffffffffffffffffffffffffc36011261007357602073ffffffffffffffffffffffffffffffffffffffff60005416604051908152f35b5060807ffffffffffffffffffffffffffffffffffffffffffffffffffffffffffffffffc81813601126100735760049081356105f781610123565b67ffffffffffffffff9160243583811161007357610618903690860161014e565b95909360443581811161007357610632903690880161014e565b9290916064359081116100735761064c903690890161014e565b93909273ffffffffffffffffffffffffffffffffffffffff998a6000541633141580610857575b61082e5797989260409889519a7f55944a42000000000000000000000000000000000000000000000000000000008c528160648d018d606098899101525260848c019560848d8460051b01019682946000935b85851061075357505050505050508561039f9a958a97956106fb868a989661070a968a988960009f9b030160248a01526113c4565b92858403016044860152611285565b03923491165af1918215610746575b60009261072b575051918291826101c7565b61073f91923d8091833e6103b78183610c90565b9038610394565b61074e611001565b610719565b909192939495988f8f90917fffffffffffffffffffffffffffffffffffffffffffffffffffffffffffffff7c600193820301865261081d6107948d86611351565b6107ae6107a18280610fcf565b60a0808652850190610ee1565b926108106108066effffffffffffffffffffffffffffff956020978789986107d78a8901611335565b16898701526107e7828801611335565b16908501528c6107f981870187611132565b9186840390870152611182565b9289810190611132565b9189818503910152611182565b9b01940195019392959491906106c6565b896040517fccea9e6f000000000000000000000000000000000000000000000000000000008152fd5b508a7f000000000000000000000000000000000000000000000000000000000000000016331415610673565b50346100735760207ffffffffffffffffffffffffffffffffffffffffffffffffffffffffffffffffc360112610073576004356108bf81610123565b73ffffffffffffffffffffffffffffffffffffffff90817f0000000000000000000000000000000000000000000000000000000000000000163303610928577f9e87fac88ff661f02d44f95383c817fece4bce600a3dab7a54406878b965e7526000604051a116ff5b60046040517f6d5769be000000000000000000000000000000000000000000000000000000008152fd5b50346100735760207ffffffffffffffffffffffffffffffffffffffffffffffffffffffffffffffffc3601126100735760043561098e81610123565b73ffffffffffffffffffffffffffffffffffffffff90817f000000000000000000000000000000000000000000000000000000000000000016330361092857168015610a2b576020817fb3b3f5f64ab192e4b5fefde1f51ce9733bbdcf831951543b325aebd49cc27ec4927fffffffffffffffffffffffff00000000000000000000000000000000000000006000541617600055604051908152a1005b60046040517f5384e6f5000000000000000000000000000000000000000000000000000000008152fd5b50346100735760407ffffffffffffffffffffffffffffffffffffffffffffffffffffffffffffffffc36011261007357600435610a9181610123565b60243567ffffffffffffffff811161007357610ab190369060040161014e565b9073ffffffffffffffffffffffffffffffffffffffff806000541633141580610bef575b61045957604051917ffd9f1e1000000000000000000000000000000000000000000000000000000000835260248301938060209586600487015252604484019060448160051b8601019280926000915b838310610b9d5761039f898981818e8160008e828f0393165af1918215610b90575b600092610b63575b505060405190151581529081906020820190565b610b829250803d10610b89575b610b7a8183610c90565b810190610cd1565b8280610b4f565b503d610b70565b610b98611001565b610b47565b90919293948880610be0837fffffffffffffffffffffffffffffffffffffffffffffffffffffffffffffffbc8c60019603018752610bdb8a87610fcf565b610ee1565b97019301930191939290610b25565b50807f000000000000000000000000000000000000000000000000000000000000000016331415610ad5565b507f4e487b7100000000000000000000000000000000000000000000000000000000600052604160045260246000fd5b6060810190811067ffffffffffffffff821117610c6757604052565b610c6f610c1b565b604052565b60a0810190811067ffffffffffffffff821117610c6757604052565b90601f7fffffffffffffffffffffffffffffffffffffffffffffffffffffffffffffffe0910116810190811067ffffffffffffffff821117610c6757604052565b90816020910312610073575180151581036100735790565b90357fffffffffffffffffffffffffffffffffffffffffffffffffffffffffffffffe18236030181121561007357016020813591019167ffffffffffffffff82116100735760a082023603831361007357565b6006111561007357565b9190808252602080920192916000905b828210610d64575050505090565b9091929380610d7f6001928735610d7a81610d3c565b6101af565b73ffffffffffffffffffffffffffffffffffffffff83870135610da181610123565b168184015260408681013590820152606080870135908201526080808701359082015260a0908101950193920190610d56565b90357fffffffffffffffffffffffffffffffffffffffffffffffffffffffffffffffe18236030181121561007357016020813591019167ffffffffffffffff82116100735760c082023603831361007357565b9190808252602080920192916000905b828210610e45575050505090565b9091929380610e5b6001928735610d7a81610d3c565b82860135610e6881610123565b73ffffffffffffffffffffffffffffffffffffffff8091168483015260408088013590830152606080880135908301526080808801359083015260a09081880135610eb281610123565b169082015260c0908101950193920190610e37565b3590600482101561007357565b9060048210156101bc5752565b90610f0981610eef84610141565b73ffffffffffffffffffffffffffffffffffffffff169052565b610f35610f1860208401610141565b73ffffffffffffffffffffffffffffffffffffffff166020830152565b610f74610f59610f486040850185610ce9565b610160806040870152850191610d46565b610f666060850185610dd4565b908483036060860152610e27565b91610f8e610f8460808301610ec7565b6080840190610ed4565b60a081013560a083015260c081013560c083015260e081013560e0830152610100808201359083015261012080820135908301526101408091013591015290565b90357ffffffffffffffffffffffffffffffffffffffffffffffffffffffffffffffea182360301811215610073570190565b506040513d6000823e3d90fd5b519061014c82610123565b6020808284031261007357815167ffffffffffffffff9283821161007357019083601f83011215610073578151928311611125575b604093845194611063838660051b0187610c90565b848652828601918360e080970286010194818611610073578401925b858410611090575050505050505090565b838203878112610073578351916110a683610c4b565b60a080921261007357889261110d889387516110c181610c74565b89516110cc81610d3c565b8152858a01516110db81610123565b86820152888a0151898201526060808b0151908201526080808b01519061110182610123565b8201528352880161100e565b8382015260c08701518682015281520193019261107f565b61112d610c1b565b61104e565b90357fffffffffffffffffffffffffffffffffffffffffffffffffffffffffffffffe18236030181121561007357016020813591019167ffffffffffffffff821161007357813603831361007357565b601f82602094937fffffffffffffffffffffffffffffffffffffffffffffffffffffffffffffffe0938186528686013760008582860101520116010190565b90357fffffffffffffffffffffffffffffffffffffffffffffffffffffffffffffffc182360301811215610073570190565b90357fffffffffffffffffffffffffffffffffffffffffffffffffffffffffffffffe18236030181121561007357016020813591019167ffffffffffffffff8211610073578160061b3603831361007357565b9190808252602080920192916000905b828210611264575050505090565b83358552838101358582015260409485019490930192600190910190611256565b9082818152602080910193818360051b82010194846000925b8584106112af575050505050505090565b909192939495968580611324837fffffffffffffffffffffffffffffffffffffffffffffffffffffffffffffffe086600196030188526112ef8c886111c1565b9061131761130d61130084806111f3565b6040808652850191611246565b92858101906111f3565b9185818503910152611246565b99019401940192959493919061129e565b35906effffffffffffffffffffffffffffff8216820361007357565b90357fffffffffffffffffffffffffffffffffffffffffffffffffffffffffffffff6182360301811215610073570190565b90918281527f07ffffffffffffffffffffffffffffffffffffffffffffffffffffffffffffff83116100735760209260051b80928483013701016000815290565b90808352602080930190819360059282841b810195856000925b8584106113f057505050505050505090565b909192939495969781810384526114078984611351565b8035825286810135600281101561007357878301526040808201359083015260608082013590830152608090818101357fffffffffffffffffffffffffffffffffffffffffffffffffffffffffffffffe18236030181121561007357019087823592019267ffffffffffffffff831161007357828b1b36038413610073576001938993849361149e9360a080928201520191611383565b9a0194019401929695949391906113de56fea2646970667358221220e84559c3f56d11012c527592a3028539d6a9bd490aeaf77c13db47f1c001dbb864736f6c634300080e0033a264697066735822122011b66f2f3e2519c28cc4817599cf50425e60db1115b3c062022ee48a3047de4964736f6c634300080e003360a0806040523461006457336080527fa45f47fdea8a1efdd9029a5691c7f759c32b7c698632b563573e155625d16933600082a16114e6908161006a82396080518181816104870152818161085b015281816108d8015281816109a70152610bf30152f35b600080fdfe608080604052600436101561001357600080fd5b60003560e01c9081630e1d31dc146100b6575080632718034d146100ad57806333131570146100a4578063570ca7351461009b57806365c4eb721461009257806376a67a511461008957806384385c6f146100805763e5c27af114610078575b600080fd5b610073610a55565b50610073610952565b50610073610883565b506100736105bc565b50610073610569565b506100736104af565b5061007361026a565b346100735760807ffffffffffffffffffffffffffffffffffffffffffffffffffffffffffffffffc360112610073576020906100f3602435610123565b6100fe604435610123565b7f0e1d31dc000000000000000000000000000000000000000000000000000000008152f35b73ffffffffffffffffffffffffffffffffffffffff81160361007357565b359061014c82610123565b565b9181601f840112156100735782359167ffffffffffffffff8311610073576020808501948460051b01011161007357565b507f4e487b7100000000000000000000000000000000000000000000000000000000600052602160045260246000fd5b9060068210156101bc5752565b6101c461017f565b52565b60208082019080835283518092528060408094019401926000905b8382106101f157505050505090565b90919293948360e0600192848951805161020c8482516101af565b73ffffffffffffffffffffffffffffffffffffffff9081878201511687860152838101518486015260608082015190860152816080809201511690850152858201511660a0840152015160c0820152019601920190939291936101e2565b507ffffffffffffffffffffffffffffffffffffffffffffffffffffffffffffffffc606081360112610073576004356102a281610123565b67ffffffffffffffff91602435838111610073576102c490369060040161014e565b929093604435908111610073576102df90369060040161014e565b73ffffffffffffffffffffffffffffffffffffffff9591866000541633141580610483575b610459576040948551967fa817440400000000000000000000000000000000000000000000000000000000885280604489018860048b015252606488019060648160051b8a01019580926000915b8383106103d35750505061039f89896000828e818d8161037d8f8f8f8f858403016024860152611285565b03923491165af19182156103c6575b6000926103a3575b5051918291826101c7565b0390f35b6103bf91923d8091833e6103b78183610c90565b810190611019565b9083610394565b6103ce611001565b61038c565b909192939761043d8b61044a838f6104178e7fffffffffffffffffffffffffffffffffffffffffffffffffffffffffffffff9c61042e9360019903018a52886111c1565b936104228580610fcf565b90808452830190610ee1565b90602094848680960190611132565b9185818503910152611182565b9a019301930191939290610352565b60046040517fccea9e6f000000000000000000000000000000000000000000000000000000008152fd5b50867f000000000000000000000000000000000000000000000000000000000000000016331415610304565b5034610073577ffffffffffffffffffffffffffffffffffffffffffffffffffffffffffffffffc60a081360112610073576104eb602435610123565b60443567ffffffffffffffff918282116100735760a09136030112610073576064358181116100735761052290369060040161014e565b50506084359081116100735761053c90369060040161014e565b50506040517f0e1d31dc000000000000000000000000000000000000000000000000000000008152602090f35b50346100735760007ffffffffffffffffffffffffffffffffffffffffffffffffffffffffffffffffc36011261007357602073ffffffffffffffffffffffffffffffffffffffff60005416604051908152f35b5060807ffffffffffffffffffffffffffffffffffffffffffffffffffffffffffffffffc81813601126100735760049081356105f781610123565b67ffffffffffffffff9160243583811161007357610618903690860161014e565b95909360443581811161007357610632903690880161014e565b9290916064359081116100735761064c903690890161014e565b93909273ffffffffffffffffffffffffffffffffffffffff998a6000541633141580610857575b61082e5797989260409889519a7f55944a42000000000000000000000000000000000000000000000000000000008c528160648d018d606098899101525260848c019560848d8460051b01019682946000935b85851061075357505050505050508561039f9a958a97956106fb868a989661070a968a988960009f9b030160248a01526113c4565b92858403016044860152611285565b03923491165af1918215610746575b60009261072b575051918291826101c7565b61073f91923d8091833e6103b78183610c90565b9038610394565b61074e611001565b610719565b909192939495988f8f90917fffffffffffffffffffffffffffffffffffffffffffffffffffffffffffffff7c600193820301865261081d6107948d86611351565b6107ae6107a18280610fcf565b60a0808652850190610ee1565b926108106108066effffffffffffffffffffffffffffff956020978789986107d78a8901611335565b16898701526107e7828801611335565b16908501528c6107f981870187611132565b9186840390870152611182565b9289810190611132565b9189818503910152611182565b9b01940195019392959491906106c6565b896040517fccea9e6f000000000000000000000000000000000000000000000000000000008152fd5b508a7f000000000000000000000000000000000000000000000000000000000000000016331415610673565b50346100735760207ffffffffffffffffffffffffffffffffffffffffffffffffffffffffffffffffc360112610073576004356108bf81610123565b73ffffffffffffffffffffffffffffffffffffffff90817f0000000000000000000000000000000000000000000000000000000000000000163303610928577f9e87fac88ff661f02d44f95383c817fece4bce600a3dab7a54406878b965e7526000604051a116ff5b60046040517f6d5769be000000000000000000000000000000000000000000000000000000008152fd5b50346100735760207ffffffffffffffffffffffffffffffffffffffffffffffffffffffffffffffffc3601126100735760043561098e81610123565b73ffffffffffffffffffffffffffffffffffffffff90817f000000000000000000000000000000000000000000000000000000000000000016330361092857168015610a2b576020817fb3b3f5f64ab192e4b5fefde1f51ce9733bbdcf831951543b325aebd49cc27ec4927fffffffffffffffffffffffff00000000000000000000000000000000000000006000541617600055604051908152a1005b60046040517f5384e6f5000000000000000000000000000000000000000000000000000000008152fd5b50346100735760407ffffffffffffffffffffffffffffffffffffffffffffffffffffffffffffffffc36011261007357600435610a9181610123565b60243567ffffffffffffffff811161007357610ab190369060040161014e565b9073ffffffffffffffffffffffffffffffffffffffff806000541633141580610bef575b61045957604051917ffd9f1e1000000000000000000000000000000000000000000000000000000000835260248301938060209586600487015252604484019060448160051b8601019280926000915b838310610b9d5761039f898981818e8160008e828f0393165af1918215610b90575b600092610b63575b505060405190151581529081906020820190565b610b829250803d10610b89575b610b7a8183610c90565b810190610cd1565b8280610b4f565b503d610b70565b610b98611001565b610b47565b90919293948880610be0837fffffffffffffffffffffffffffffffffffffffffffffffffffffffffffffffbc8c60019603018752610bdb8a87610fcf565b610ee1565b97019301930191939290610b25565b50807f000000000000000000000000000000000000000000000000000000000000000016331415610ad5565b507f4e487b7100000000000000000000000000000000000000000000000000000000600052604160045260246000fd5b6060810190811067ffffffffffffffff821117610c6757604052565b610c6f610c1b565b604052565b60a0810190811067ffffffffffffffff821117610c6757604052565b90601f7fffffffffffffffffffffffffffffffffffffffffffffffffffffffffffffffe0910116810190811067ffffffffffffffff821117610c6757604052565b90816020910312610073575180151581036100735790565b90357fffffffffffffffffffffffffffffffffffffffffffffffffffffffffffffffe18236030181121561007357016020813591019167ffffffffffffffff82116100735760a082023603831361007357565b6006111561007357565b9190808252602080920192916000905b828210610d64575050505090565b9091929380610d7f6001928735610d7a81610d3c565b6101af565b73ffffffffffffffffffffffffffffffffffffffff83870135610da181610123565b168184015260408681013590820152606080870135908201526080808701359082015260a0908101950193920190610d56565b90357fffffffffffffffffffffffffffffffffffffffffffffffffffffffffffffffe18236030181121561007357016020813591019167ffffffffffffffff82116100735760c082023603831361007357565b9190808252602080920192916000905b828210610e45575050505090565b9091929380610e5b6001928735610d7a81610d3c565b82860135610e6881610123565b73ffffffffffffffffffffffffffffffffffffffff8091168483015260408088013590830152606080880135908301526080808801359083015260a09081880135610eb281610123565b169082015260c0908101950193920190610e37565b3590600482101561007357565b9060048210156101bc5752565b90610f0981610eef84610141565b73ffffffffffffffffffffffffffffffffffffffff169052565b610f35610f1860208401610141565b73ffffffffffffffffffffffffffffffffffffffff166020830152565b610f74610f59610f486040850185610ce9565b610160806040870152850191610d46565b610f666060850185610dd4565b908483036060860152610e27565b91610f8e610f8460808301610ec7565b6080840190610ed4565b60a081013560a083015260c081013560c083015260e081013560e0830152610100808201359083015261012080820135908301526101408091013591015290565b90357ffffffffffffffffffffffffffffffffffffffffffffffffffffffffffffffea182360301811215610073570190565b506040513d6000823e3d90fd5b519061014c82610123565b6020808284031261007357815167ffffffffffffffff9283821161007357019083601f83011215610073578151928311611125575b604093845194611063838660051b0187610c90565b848652828601918360e080970286010194818611610073578401925b858410611090575050505050505090565b838203878112610073578351916110a683610c4b565b60a080921261007357889261110d889387516110c181610c74565b89516110cc81610d3c565b8152858a01516110db81610123565b86820152888a0151898201526060808b0151908201526080808b01519061110182610123565b8201528352880161100e565b8382015260c08701518682015281520193019261107f565b61112d610c1b565b61104e565b90357fffffffffffffffffffffffffffffffffffffffffffffffffffffffffffffffe18236030181121561007357016020813591019167ffffffffffffffff821161007357813603831361007357565b601f82602094937fffffffffffffffffffffffffffffffffffffffffffffffffffffffffffffffe0938186528686013760008582860101520116010190565b90357fffffffffffffffffffffffffffffffffffffffffffffffffffffffffffffffc182360301811215610073570190565b90357fffffffffffffffffffffffffffffffffffffffffffffffffffffffffffffffe18236030181121561007357016020813591019167ffffffffffffffff8211610073578160061b3603831361007357565b9190808252602080920192916000905b828210611264575050505090565b83358552838101358582015260409485019490930192600190910190611256565b9082818152602080910193818360051b82010194846000925b8584106112af575050505050505090565b909192939495968580611324837fffffffffffffffffffffffffffffffffffffffffffffffffffffffffffffffe086600196030188526112ef8c886111c1565b9061131761130d61130084806111f3565b6040808652850191611246565b92858101906111f3565b9185818503910152611246565b99019401940192959493919061129e565b35906effffffffffffffffffffffffffffff8216820361007357565b90357fffffffffffffffffffffffffffffffffffffffffffffffffffffffffffffff6182360301811215610073570190565b90918281527f07ffffffffffffffffffffffffffffffffffffffffffffffffffffffffffffff83116100735760209260051b80928483013701016000815290565b90808352602080930190819360059282841b810195856000925b8584106113f057505050505050505090565b909192939495969781810384526114078984611351565b8035825286810135600281101561007357878301526040808201359083015260608082013590830152608090818101357fffffffffffffffffffffffffffffffffffffffffffffffffffffffffffffffe18236030181121561007357019087823592019267ffffffffffffffff831161007357828b1b36038413610073576001938993849361149e9360a080928201520191611383565b9a0194019401929695949391906113de56fea2646970667358221220e84559c3f56d11012c527592a3028539d6a9bd490aeaf77c13db47f1c001dbb864736f6c634300080e0033",
  "devdoc": {
    "author": "cupOJoseph, BCLeFevre, stuckinaboot, stephankmin",
    "errors": {
      "CallerIsNotOperator()": [
        {
          "details": "Revert with an error when the caller does not have the operator role"
        }
      ],
      "CallerIsNotOwner()": [
        {
          "details": "Revert with an error when the caller does not have the _owner role"
        }
      ],
      "CallerIsNotPotentialOwner()": [
        {
          "details": "Revert with an error when the caller does not have      the potentialOwner role."
        }
      ],
      "InvalidController()": [
        {
          "details": "Revert with an error when attempting to pause the zone or update the      operator while the caller is not the controller of the zone."
        }
      ],
      "InvalidOperator()": [
        {
          "details": "Revert with an error when attempting to call an operation      while the caller is not the controller or operator of the zone."
        }
      ],
      "InvalidPauser()": [
        {
          "details": "Revert with an error when attempting to pause the zone      while the caller is not the owner or pauser of the zone."
        }
      ],
      "OwnerCanNotBeSetAsZero()": [
        {
          "details": "Revert with an error when attempting to set the new potential owner      as the 0 address."
        }
      ],
      "PauserCanNotBeSetAsZero()": [
        {
          "details": "Revert with an error when attempting to set the new potential pauser      as the 0 address."
        }
      ],
      "ZoneAlreadyExists(address)": [
        {
          "details": "Revert with an error when attempting to deploy a zone that is      currently deployed."
        }
      ]
    },
    "kind": "dev",
    "methods": {
      "assignOperator(address,address)": {
        "params": {
          "operatorToAssign": "The address to assign as operator.",
          "pausableZoneAddress": "The zone address to assign operator role."
        }
      },
      "assignPauser(address)": {
        "params": {
          "pauserToAssign": "The address to assign the pauser role."
        }
      },
      "cancelOrders(address,address,(address,address,(uint8,address,uint256,uint256,uint256)[],(uint8,address,uint256,uint256,uint256,address)[],uint8,uint256,uint256,bytes32,uint256,bytes32,uint256)[])": {
        "params": {
          "orders": "The orders to cancel.",
          "pausableZoneAddress": "The zone that manages the orders to be cancelled.",
          "seaportAddress": "The Seaport address."
        }
      },
      "constructor": {
        "params": {
          "ownerAddress": "The deployer to be set as the owner."
        }
      },
      "createZone(bytes32)": {
        "params": {
          "salt": "The salt to be used to derive the zone address"
        },
        "returns": {
          "derivedAddress": "The derived address for the zone."
        }
      },
      "executeMatchAdvancedOrders(address,address,((address,address,(uint8,address,uint256,uint256,uint256)[],(uint8,address,uint256,uint256,uint256,address)[],uint8,uint256,uint256,bytes32,uint256,bytes32,uint256),uint120,uint120,bytes,bytes)[],(uint256,uint8,uint256,uint256,bytes32[])[],((uint256,uint256)[],(uint256,uint256)[])[])": {
        "params": {
          "criteriaResolvers": "An array where each element contains a                            reference to a specific order as well as that                            order's offer or consideration, a token                            identifier, and a proof that the supplied                            token identifier is contained in the                            order's merkle root.",
          "fulfillments": "An array of elements allocating offer                            components to consideration components.",
          "orders": "The orders to match.",
          "pausableZoneAddress": "The zone that manages the orders to be                            cancelled.",
          "seaportAddress": "The Seaport address."
        },
        "returns": {
          "executions": "An array of elements indicating the sequence of                    transfers performed as part of matching the given                    orders."
        }
      },
      "executeMatchOrders(address,address,((address,address,(uint8,address,uint256,uint256,uint256)[],(uint8,address,uint256,uint256,uint256,address)[],uint8,uint256,uint256,bytes32,uint256,bytes32,uint256),bytes)[],((uint256,uint256)[],(uint256,uint256)[])[])": {
        "params": {
          "fulfillments": "An array of elements allocating offer                            components to consideration components.",
          "orders": "The orders to match.",
          "pausableZoneAddress": "The zone that manages the orders to be cancelled.",
          "seaportAddress": "The Seaport address."
        },
        "returns": {
          "executions": "An array of elements indicating the sequence of                    transfers performed as part of matching the given                    orders."
        }
      },
      "owner()": {
        "returns": {
          "_0": "The address of the owner."
        }
      },
      "pause(address)": {
        "params": {
          "zone": "The address of the zone to be paused."
        },
        "returns": {
          "success": "A boolean indicating the zone has been paused."
        }
      },
      "pauser()": {
        "returns": {
          "_0": "The address of the pauser."
        }
      },
      "potentialOwner()": {
        "returns": {
          "_0": "The address of the potential owner."
        }
      },
      "transferOwnership(address)": {
        "params": {
          "newPotentialOwner": "The address for which to initiate ownership                          transfer to."
        }
      }
    },
    "title": "PausableZoneController",
    "version": 1
  },
  "userdoc": {
    "kind": "user",
    "methods": {
      "acceptOwnership()": {
        "notice": "Accept ownership of this contract. Only the account that the         current owner has set as the new potential owner may call this         function."
      },
      "assignOperator(address,address)": {
        "notice": "Assign the given address with the ability to operate the         given zone."
      },
      "assignPauser(address)": {
        "notice": "Assign the given address with the ability to pause the zone."
      },
      "cancelOrders(address,address,(address,address,(uint8,address,uint256,uint256,uint256)[],(uint8,address,uint256,uint256,uint256,address)[],uint8,uint256,uint256,bytes32,uint256,bytes32,uint256)[])": {
        "notice": "Cancel Seaport orders on a given zone."
      },
      "cancelOwnershipTransfer()": {
        "notice": "Clear the currently set potential owner, if any.         Only the owner of this contract may call this function."
      },
      "constructor": {
        "notice": "Set the owner of the controller and store         the zone creation code."
      },
      "createZone(bytes32)": {
        "notice": "Deploy a PausableZone to a precomputed address."
      },
      "executeMatchAdvancedOrders(address,address,((address,address,(uint8,address,uint256,uint256,uint256)[],(uint8,address,uint256,uint256,uint256,address)[],uint8,uint256,uint256,bytes32,uint256,bytes32,uint256),uint120,uint120,bytes,bytes)[],(uint256,uint8,uint256,uint256,bytes32[])[],((uint256,uint256)[],(uint256,uint256)[])[])": {
        "notice": "Execute an arbitrary number of matched advanced orders on a given         zone."
      },
      "executeMatchOrders(address,address,((address,address,(uint8,address,uint256,uint256,uint256)[],(uint8,address,uint256,uint256,uint256,address)[],uint8,uint256,uint256,bytes32,uint256,bytes32,uint256),bytes)[],((uint256,uint256)[],(uint256,uint256)[])[])": {
        "notice": "Execute an arbitrary number of matched orders on a given zone."
      },
      "owner()": {
        "notice": "An external view function that returns the owner."
      },
      "pause(address)": {
        "notice": "Pause orders on a given zone."
      },
      "pauser()": {
        "notice": "An external view function that returns the pauser."
      },
      "potentialOwner()": {
        "notice": "An external view function that return the potential owner."
      },
      "transferOwnership(address)": {
        "notice": "Initiate Zone ownership transfer by assigning a new potential         owner this contract. Once set, the new potential owner         may call `acceptOwnership` to claim ownership.         Only the owner in question may call this function."
      }
    },
    "notice": "PausableZoneController enables deploying, pausing and executing         orders on PausableZones. This deployer is designed to be owned         by a gnosis safe, DAO, or trusted party.",
    "version": 1
  },
  "storageLayout": {
    "storage": [
      {
        "astId": 4307,
        "contract": "contracts/seaport/Zones/PausableZoneController.sol:PausableZoneController",
        "label": "_owner",
        "offset": 0,
        "slot": "0",
        "type": "t_address"
      },
      {
        "astId": 4309,
        "contract": "contracts/seaport/Zones/PausableZoneController.sol:PausableZoneController",
        "label": "_potentialOwner",
        "offset": 0,
        "slot": "1",
        "type": "t_address"
      },
      {
        "astId": 4311,
        "contract": "contracts/seaport/Zones/PausableZoneController.sol:PausableZoneController",
        "label": "_pauser",
        "offset": 0,
        "slot": "2",
        "type": "t_address"
      }
    ],
    "types": {
      "t_address": {
        "encoding": "inplace",
        "label": "address",
        "numberOfBytes": "20"
      }
    }
  }
}