{
  "address": "0xCC0B66bBd3fC2c8559DFDe643d5E4eB2A9E1baB0",
  "abi": [
    {
      "inputs": [
        {
          "internalType": "address",
          "name": "_seaportAddress",
          "type": "address"
        }
      ],
      "stateMutability": "nonpayable",
      "type": "constructor"
    },
    {
      "inputs": [
        {
          "internalType": "address[]",
          "name": "tokensToApprove",
          "type": "address[]"
        },
        {
          "internalType": "uint256",
          "name": "ethAmount",
          "type": "uint256"
        },
        {
          "internalType": "bytes",
          "name": "data",
          "type": "bytes"
        }
      ],
      "name": "approveBeforeFulfill",
      "outputs": [],
      "stateMutability": "payable",
      "type": "function"
    },
    {
      "inputs": [
        {
          "internalType": "address[]",
          "name": "tokensToApprove",
          "type": "address[]"
        },
        {
          "internalType": "uint256",
          "name": "ethAmount",
          "type": "uint256"
        },
        {
          "internalType": "bytes",
          "name": "data",
          "type": "bytes"
        },
        {
          "internalType": "bool",
          "name": "revertIfIncomplete",
          "type": "bool"
        }
      ],
      "name": "approveBeforeFulfillBatch",
      "outputs": [],
      "stateMutability": "payable",
      "type": "function"
    },
    {
      "inputs": [
        {
          "internalType": "uint256",
          "name": "ethAmount",
          "type": "uint256"
        },
        {
          "internalType": "bytes",
          "name": "data",
          "type": "bytes"
        }
      ],
      "name": "fulfill",
      "outputs": [],
      "stateMutability": "payable",
      "type": "function"
    },
    {
      "inputs": [
        {
          "internalType": "uint256",
          "name": "ethAmount",
          "type": "uint256"
        },
        {
          "internalType": "bytes",
          "name": "data",
          "type": "bytes"
        },
        {
          "internalType": "bool",
          "name": "revertIfIncomplete",
          "type": "bool"
        }
      ],
      "name": "fulfillBatch",
      "outputs": [],
      "stateMutability": "payable",
      "type": "function"
    },
    {
      "inputs": [],
      "name": "seaportAddress",
      "outputs": [
        {
          "internalType": "address",
          "name": "",
          "type": "address"
        }
      ],
      "stateMutability": "view",
      "type": "function"
    }
  ],
  "transactionHash": "0xdce0ebf939f8b8b3b15f324756f2aeb09dc51ce860f336af21ac754f66d92d8d",
  "args": [
    "0x00000000006c3852cbEf3e08E8dF289169EdE581"
  ],
  "numDeployments": 1,
  "solcInputHash": "f88f57136358a3b31827c2ad30206828",
  "bytecode": "0x60a03461008657601f610e5d38819003918201601f19168301916001600160401b0383118484101761008b5780849260209460405283398101031261008657516001600160a01b038116810361008657608052604051610dbb90816100a282396080518181816101d00152818161029c015281816104d0015281816109410152610ca10152f35b600080fd5b634e487b7160e01b600052604160045260246000fdfe60806040526004361015610013575b600080fd5b6000803560e01c9081630d9577c61461007a5750806336e1cca41461007157806352c6bfeb14610068578063bba47ad41461005f5763e4dd6d091461005757600080fd5b61000e610460565b5061000e610225565b5061000e610184565b5061000e610114565b60407ffffffffffffffffffffffffffffffffffffffffffffffffffffffffffffffffc3601126100d95760243567ffffffffffffffff81116100d5576100c76100d09136906004016100dc565b906004356108f4565b604051f35b5080fd5b80fd5b9181601f8401121561000e5782359167ffffffffffffffff831161000e576020838186019501011161000e57565b8015150361000e57565b5060607ffffffffffffffffffffffffffffffffffffffffffffffffffffffffffffffffc36011261000e5760243567ffffffffffffffff811161000e576101626101779136906004016100dc565b6044359161016f8361010a565b600435610c80565b005b600091031261000e57565b503461000e5760007ffffffffffffffffffffffffffffffffffffffffffffffffffffffffffffffffc36011261000e57602060405173ffffffffffffffffffffffffffffffffffffffff7f0000000000000000000000000000000000000000000000000000000000000000168152f35b9181601f8401121561000e5782359167ffffffffffffffff831161000e576020808501948460051b01011161000e57565b5060807ffffffffffffffffffffffffffffffffffffffffffffffffffffffffffffffffc36011261000e5767ffffffffffffffff6004803582811161000e5761027190369083016101f4565b909260443590811161000e578361028c8492369084016100dc565b916064359361029a8561010a565b7f00000000000000000000000000000000000000000000000000000000000000009560005b8181106102d457610177878787602435610c80565b6103066102ed6102ed6102e88486896106e9565b610725565b73ffffffffffffffffffffffffffffffffffffffff1690565b604080517fe985e9c50000000000000000000000000000000000000000000000000000000081523086820190815273ffffffffffffffffffffffffffffffffffffffff8c16602082810191909152939493919082908290819086010381885afa918215610453575b600092610426575b50501561038e575b50610389915061065d565b6102bf565b823b1561000e57517fa22cb46500000000000000000000000000000000000000000000000000000000815273ffffffffffffffffffffffffffffffffffffffff8a16858201908152600160208201526103899360009183919082908490829060400103925af18015610419575b1561037e578061040d61041392610762565b80610179565b8961037e565b610421610811565b6103fb565b6104459250803d1061044c575b61043d81836107bb565b8101906107fc565b8b80610376565b503d610433565b61045b610811565b61036e565b5060607ffffffffffffffffffffffffffffffffffffffffffffffffffffffffffffffffc36011261000e5767ffffffffffffffff6004803582811161000e576104ac90369083016101f4565b91909260443590811161000e57906104c88492369083016100dc565b9290916000947f0000000000000000000000000000000000000000000000000000000000000000955b8181106105055761017786866024356108f4565b6105196102ed6102ed6102e88486896106e9565b604080517fe985e9c50000000000000000000000000000000000000000000000000000000081523086820190815273ffffffffffffffffffffffffffffffffffffffff8b16602082810191909152939493919082908290819086010381885afa918215610650575b600092610633575b5050156105a1575b5061059c915061065d565b6104f1565b823b1561000e57517fa22cb46500000000000000000000000000000000000000000000000000000000815273ffffffffffffffffffffffffffffffffffffffff89168582019081526001602082015261059c9360009183919082908490829060400103925af18015610626575b15610591578061040d61062092610762565b88610591565b61062e610811565b61060e565b6106499250803d1061044c5761043d81836107bb565b8a80610589565b610658610811565b610581565b7fffffffffffffffffffffffffffffffffffffffffffffffffffffffffffffffff811461068a5760010190565b7f4e487b7100000000000000000000000000000000000000000000000000000000600052601160045260246000fd5b507f4e487b7100000000000000000000000000000000000000000000000000000000600052603260045260246000fd5b91908110156106fa575b60051b0190565b6107026106b9565b6106f3565b73ffffffffffffffffffffffffffffffffffffffff81160361000e57565b3561072f81610707565b90565b507f4e487b7100000000000000000000000000000000000000000000000000000000600052604160045260246000fd5b67ffffffffffffffff811161077657604052565b61077e610732565b604052565b6060810190811067ffffffffffffffff82111761077657604052565b60a0810190811067ffffffffffffffff82111761077657604052565b90601f7fffffffffffffffffffffffffffffffffffffffffffffffffffffffffffffffe0910116810190811067ffffffffffffffff82111761077657604052565b9081602091031261000e575161072f8161010a565b506040513d6000823e3d90fd5b82600493927fe7acab240000000000000000000000000000000000000000000000000000000083528483013701016000815290565b82600493927f87201b410000000000000000000000000000000000000000000000000000000083528483013701016000815290565b3d156108ef573d9067ffffffffffffffff82116108e2575b604051916108d660207fffffffffffffffffffffffffffffffffffffffffffffffffffffffffffffffe0601f84011601846107bb565b82523d6000602084013e565b6108ea610732565b6108a0565b606090565b6000929161091161093d859460405192839160208301958661081e565b037fffffffffffffffffffffffffffffffffffffffffffffffffffffffffffffffe081018352826107bb565b51917f00000000000000000000000000000000000000000000000000000000000000005af161096a610888565b816109fc575b501561097857565b60846040517f08c379a000000000000000000000000000000000000000000000000000000000815260206004820152602160248201527f66756c6c66696c6c2f534541504f52545f4f524445525f554e46494c4c41424c60448201527f45000000000000000000000000000000000000000000000000000000000000006064820152fd5b610a109150602080825183010191016107fc565b38610970565b60209067ffffffffffffffff8111610a2f5760051b0190565b610702610732565b5190610a4282610707565b565b81601f8201121561000e57805190610a5b82610a16565b92604090610a6b825195866107bb565b838552602091828601918360e08097028601019481861161000e578401925b858410610a9b575050505050505090565b8382039087821261000e57835190610ab282610783565b60a080931261000e57845191610ac78361079f565b8651600681101561000e578a9484610b1b928b9652858a0151610ae981610707565b86820152888a0151898201526060808b0151908201526080808b015190610b0f82610707565b82015283528801610a37565b8382015260c087015186820152815201930192610a8a565b91909160408184031261000e5780519267ffffffffffffffff9384811161000e5782019381601f8601121561000e578451610b6d81610a16565b90610b7b60405192836107bb565b808252602096878084019260051b8201019185831161000e5788809201905b838210610bba57505050509483015190811161000e5761072f9201610a44565b8280918351610bc88161010a565b815201910190610b9a565b6020918151811015610be8575b60051b010190565b610bf06106b9565b610be0565b15610bfc57565b60846040517f08c379a000000000000000000000000000000000000000000000000000000000815260206004820152602560248201527f66756c66696c6c42617463682f534541504f52545f4f524445525f554e46494c60448201527f4c41424c450000000000000000000000000000000000000000000000000000006064820152fd5b60009291610911610c9d8594604051928391602083019586610853565b51917f00000000000000000000000000000000000000000000000000000000000000005af190610ccb610888565b9115610d2757610cd85750565b80602080610ceb93518301019101610b33565b5080519060005b828110610cfe57505050565b80610d1d610d18610d12610d229486610bd3565b51151590565b610bf5565b61065d565b610cf2565b60646040517f08c379a000000000000000000000000000000000000000000000000000000000815260206004820152601e60248201527f66756c6c66696c6c42617463682f534541504f52545f524556455254454400006044820152fdfea2646970667358221220b507a1971b5adc3a379768917b1362b7c7eb5e5469732ebbd2c6840f24dc1eec64736f6c634300080e0033",
  "devdoc": {
    "kind": "dev",
    "methods": {
      "approveBeforeFulfill(address[],uint256,bytes)": {
        "details": "This function grants approval for NFTs held by address(this)      to Seaport contract before fulfilling a single order by      calling `fulfillAdvancedOrder()`.",
        "params": {
          "data": "The Seaport encoded fulfillment data.",
          "ethAmount": "The amount of ETH to be sent when filling the order.",
          "tokensToApprove": "The tokens to approve before fulfilling the order."
        }
      },
      "approveBeforeFulfillBatch(address[],uint256,bytes,bool)": {
        "details": "This function grants approval for NFTs held by address(this)      to Seaport contract before fulfilling multiple orders by      calling `fulfillAvailableAdvancedOrders()`",
        "params": {
          "data": "The ABI encoded params.",
          "ethAmount": "The amount of ETH to be sent when filling the orders.",
          "revertIfIncomplete": "Flag to revert if one or more orders cannot be fulfilled.",
          "tokensToApprove": "The tokens to approve before fulfilling the orders."
        }
      },
      "fulfill(uint256,bytes)": {
        "details": "This function calls `fulfillAdvancedOrder()` on Seaport      using the given abi encoded params.",
        "params": {
          "data": "The ABI encoded params.",
          "ethAmount": "The amount of ETH to be sent when fulfilling the order."
        }
      },
      "fulfillBatch(uint256,bytes,bool)": {
        "details": "This function calls `fulfillAvailableAdvancedOrders()` on      Seaport using the given abi encoded params.",
        "params": {
          "data": "The ABI encoded params.",
          "ethAmount": "The amount of ETH to be sent when calling the fulfillment function.",
          "revertIfIncomplete": "Flag to revert if one or more orders cannot be fulfilled."
        }
      }
    },
    "version": 1
  },
  "userdoc": {
    "kind": "user",
    "methods": {},
    "version": 1
  },
  "storageLayout": {
    "storage": [],
    "types": null
  }
}