{
  "address": "0x00000000006c3852cbEf3e08E8dF289169EdE581",
  "abi": [
    {
      "inputs": [
        {
          "internalType": "address",
          "name": "conduitController",
          "type": "address"
        }
      ],
      "stateMutability": "nonpayable",
      "type": "constructor"
    },
    {
      "inputs": [],
      "name": "BadContractSignature",
      "type": "error"
    },
    {
      "inputs": [],
      "name": "BadFraction",
      "type": "error"
    },
    {
      "inputs": [
        {
          "internalType": "address",
          "name": "token",
          "type": "address"
        },
        {
          "internalType": "address",
          "name": "from",
          "type": "address"
        },
        {
          "internalType": "address",
          "name": "to",
          "type": "address"
        },
        {
          "internalType": "uint256",
          "name": "amount",
          "type": "uint256"
        }
      ],
      "name": "BadReturnValueFromERC20OnTransfer",
      "type": "error"
    },
    {
      "inputs": [
        {
          "internalType": "uint8",
          "name": "v",
          "type": "uint8"
        }
      ],
      "name": "BadSignatureV",
      "type": "error"
    },
    {
      "inputs": [],
      "name": "ConsiderationCriteriaResolverOutOfRange",
      "type": "error"
    },
    {
      "inputs": [
        {
          "internalType": "uint256",
          "name": "orderIndex",
          "type": "uint256"
        },
        {
          "internalType": "uint256",
          "name": "considerationIndex",
          "type": "uint256"
        },
        {
          "internalType": "uint256",
          "name": "shortfallAmount",
          "type": "uint256"
        }
      ],
      "name": "ConsiderationNotMet",
      "type": "error"
    },
    {
      "inputs": [],
      "name": "CriteriaNotEnabledForItem",
      "type": "error"
    },
    {
      "inputs": [
        {
          "internalType": "address",
          "name": "token",
          "type": "address"
        },
        {
          "internalType": "address",
          "name": "from",
          "type": "address"
        },
        {
          "internalType": "address",
          "name": "to",
          "type": "address"
        },
        {
          "internalType": "uint256[]",
          "name": "identifiers",
          "type": "uint256[]"
        },
        {
          "internalType": "uint256[]",
          "name": "amounts",
          "type": "uint256[]"
        }
      ],
      "name": "ERC1155BatchTransferGenericFailure",
      "type": "error"
    },
    {
      "inputs": [
        {
          "internalType": "address",
          "name": "account",
          "type": "address"
        },
        {
          "internalType": "uint256",
          "name": "amount",
          "type": "uint256"
        }
      ],
      "name": "EtherTransferGenericFailure",
      "type": "error"
    },
    {
      "inputs": [],
      "name": "InexactFraction",
      "type": "error"
    },
    {
      "inputs": [],
      "name": "InsufficientEtherSupplied",
      "type": "error"
    },
    {
      "inputs": [],
      "name": "Invalid1155BatchTransferEncoding",
      "type": "error"
    },
    {
      "inputs": [],
      "name": "InvalidBasicOrderParameterEncoding",
      "type": "error"
    },
    {
      "inputs": [
        {
          "internalType": "address",
          "name": "conduit",
          "type": "address"
        }
      ],
      "name": "InvalidCallToConduit",
      "type": "error"
    },
    {
      "inputs": [],
      "name": "InvalidCanceller",
      "type": "error"
    },
    {
      "inputs": [
        {
          "internalType": "bytes32",
          "name": "conduitKey",
          "type": "bytes32"
        },
        {
          "internalType": "address",
          "name": "conduit",
          "type": "address"
        }
      ],
      "name": "InvalidConduit",
      "type": "error"
    },
    {
      "inputs": [],
      "name": "InvalidERC721TransferAmount",
      "type": "error"
    },
    {
      "inputs": [],
      "name": "InvalidFulfillmentComponentData",
      "type": "error"
    },
    {
      "inputs": [
        {
          "internalType": "uint256",
          "name": "value",
          "type": "uint256"
        }
      ],
      "name": "InvalidMsgValue",
      "type": "error"
    },
    {
      "inputs": [],
      "name": "InvalidNativeOfferItem",
      "type": "error"
    },
    {
      "inputs": [],
      "name": "InvalidProof",
      "type": "error"
    },
    {
      "inputs": [
        {
          "internalType": "bytes32",
          "name": "orderHash",
          "type": "bytes32"
        }
      ],
      "name": "InvalidRestrictedOrder",
      "type": "error"
    },
    {
      "inputs": [],
      "name": "InvalidSignature",
      "type": "error"
    },
    {
      "inputs": [],
      "name": "InvalidSigner",
      "type": "error"
    },
    {
      "inputs": [],
      "name": "InvalidTime",
      "type": "error"
    },
    {
      "inputs": [],
      "name": "MismatchedFulfillmentOfferAndConsiderationComponents",
      "type": "error"
    },
    {
      "inputs": [
        {
          "internalType": "enum Side",
          "name": "side",
          "type": "uint8"
        }
      ],
      "name": "MissingFulfillmentComponentOnAggregation",
      "type": "error"
    },
    {
      "inputs": [],
      "name": "MissingItemAmount",
      "type": "error"
    },
    {
      "inputs": [],
      "name": "MissingOriginalConsiderationItems",
      "type": "error"
    },
    {
      "inputs": [
        {
          "internalType": "address",
          "name": "account",
          "type": "address"
        }
      ],
      "name": "NoContract",
      "type": "error"
    },
    {
      "inputs": [],
      "name": "NoReentrantCalls",
      "type": "error"
    },
    {
      "inputs": [],
      "name": "NoSpecifiedOrdersAvailable",
      "type": "error"
    },
    {
      "inputs": [],
      "name": "OfferAndConsiderationRequiredOnFulfillment",
      "type": "error"
    },
    {
      "inputs": [],
      "name": "OfferCriteriaResolverOutOfRange",
      "type": "error"
    },
    {
      "inputs": [
        {
          "internalType": "bytes32",
          "name": "orderHash",
          "type": "bytes32"
        }
      ],
      "name": "OrderAlreadyFilled",
      "type": "error"
    },
    {
      "inputs": [],
      "name": "OrderCriteriaResolverOutOfRange",
      "type": "error"
    },
    {
      "inputs": [
        {
          "internalType": "bytes32",
          "name": "orderHash",
          "type": "bytes32"
        }
      ],
      "name": "OrderIsCancelled",
      "type": "error"
    },
    {
      "inputs": [
        {
          "internalType": "bytes32",
          "name": "orderHash",
          "type": "bytes32"
        }
      ],
      "name": "OrderPartiallyFilled",
      "type": "error"
    },
    {
      "inputs": [],
      "name": "PartialFillsNotEnabledForOrder",
      "type": "error"
    },
    {
      "inputs": [
        {
          "internalType": "address",
          "name": "token",
          "type": "address"
        },
        {
          "internalType": "address",
          "name": "from",
          "type": "address"
        },
        {
          "internalType": "address",
          "name": "to",
          "type": "address"
        },
        {
          "internalType": "uint256",
          "name": "identifier",
          "type": "uint256"
        },
        {
          "internalType": "uint256",
          "name": "amount",
          "type": "uint256"
        }
      ],
      "name": "TokenTransferGenericFailure",
      "type": "error"
    },
    {
      "inputs": [],
      "name": "UnresolvedConsiderationCriteria",
      "type": "error"
    },
    {
      "inputs": [],
      "name": "UnresolvedOfferCriteria",
      "type": "error"
    },
    {
      "inputs": [],
      "name": "UnusedItemParameters",
      "type": "error"
    },
    {
      "anonymous": false,
      "inputs": [
        {
          "indexed": false,
          "internalType": "uint256",
          "name": "newCounter",
          "type": "uint256"
        },
        {
          "indexed": true,
          "internalType": "address",
          "name": "offerer",
          "type": "address"
        }
      ],
      "name": "CounterIncremented",
      "type": "event"
    },
    {
      "anonymous": false,
      "inputs": [
        {
          "indexed": false,
          "internalType": "bytes32",
          "name": "orderHash",
          "type": "bytes32"
        },
        {
          "indexed": true,
          "internalType": "address",
          "name": "offerer",
          "type": "address"
        },
        {
          "indexed": true,
          "internalType": "address",
          "name": "zone",
          "type": "address"
        }
      ],
      "name": "OrderCancelled",
      "type": "event"
    },
    {
      "anonymous": false,
      "inputs": [
        {
          "indexed": false,
          "internalType": "bytes32",
          "name": "orderHash",
          "type": "bytes32"
        },
        {
          "indexed": true,
          "internalType": "address",
          "name": "offerer",
          "type": "address"
        },
        {
          "indexed": true,
          "internalType": "address",
          "name": "zone",
          "type": "address"
        },
        {
          "indexed": false,
          "internalType": "address",
          "name": "recipient",
          "type": "address"
        },
        {
          "components": [
            {
              "internalType": "enum ItemType",
              "name": "itemType",
              "type": "uint8"
            },
            {
              "internalType": "address",
              "name": "token",
              "type": "address"
            },
            {
              "internalType": "uint256",
              "name": "identifier",
              "type": "uint256"
            },
            {
              "internalType": "uint256",
              "name": "amount",
              "type": "uint256"
            }
          ],
          "indexed": false,
          "internalType": "struct SpentItem[]",
          "name": "offer",
          "type": "tuple[]"
        },
        {
          "components": [
            {
              "internalType": "enum ItemType",
              "name": "itemType",
              "type": "uint8"
            },
            {
              "internalType": "address",
              "name": "token",
              "type": "address"
            },
            {
              "internalType": "uint256",
              "name": "identifier",
              "type": "uint256"
            },
            {
              "internalType": "uint256",
              "name": "amount",
              "type": "uint256"
            },
            {
              "internalType": "address payable",
              "name": "recipient",
              "type": "address"
            }
          ],
          "indexed": false,
          "internalType": "struct ReceivedItem[]",
          "name": "consideration",
          "type": "tuple[]"
        }
      ],
      "name": "OrderFulfilled",
      "type": "event"
    },
    {
      "anonymous": false,
      "inputs": [
        {
          "indexed": false,
          "internalType": "bytes32",
          "name": "orderHash",
          "type": "bytes32"
        },
        {
          "indexed": true,
          "internalType": "address",
          "name": "offerer",
          "type": "address"
        },
        {
          "indexed": true,
          "internalType": "address",
          "name": "zone",
          "type": "address"
        }
      ],
      "name": "OrderValidated",
      "type": "event"
    },
    {
      "inputs": [
        {
          "components": [
            {
              "internalType": "address",
              "name": "offerer",
              "type": "address"
            },
            {
              "internalType": "address",
              "name": "zone",
              "type": "address"
            },
            {
              "components": [
                {
                  "internalType": "enum ItemType",
                  "name": "itemType",
                  "type": "uint8"
                },
                {
                  "internalType": "address",
                  "name": "token",
                  "type": "address"
                },
                {
                  "internalType": "uint256",
                  "name": "identifierOrCriteria",
                  "type": "uint256"
                },
                {
                  "internalType": "uint256",
                  "name": "startAmount",
                  "type": "uint256"
                },
                {
                  "internalType": "uint256",
                  "name": "endAmount",
                  "type": "uint256"
                }
              ],
              "internalType": "struct OfferItem[]",
              "name": "offer",
              "type": "tuple[]"
            },
            {
              "components": [
                {
                  "internalType": "enum ItemType",
                  "name": "itemType",
                  "type": "uint8"
                },
                {
                  "internalType": "address",
                  "name": "token",
                  "type": "address"
                },
                {
                  "internalType": "uint256",
                  "name": "identifierOrCriteria",
                  "type": "uint256"
                },
                {
                  "internalType": "uint256",
                  "name": "startAmount",
                  "type": "uint256"
                },
                {
                  "internalType": "uint256",
                  "name": "endAmount",
                  "type": "uint256"
                },
                {
                  "internalType": "address payable",
                  "name": "recipient",
                  "type": "address"
                }
              ],
              "internalType": "struct ConsiderationItem[]",
              "name": "consideration",
              "type": "tuple[]"
            },
            {
              "internalType": "enum OrderType",
              "name": "orderType",
              "type": "uint8"
            },
            {
              "internalType": "uint256",
              "name": "startTime",
              "type": "uint256"
            },
            {
              "internalType": "uint256",
              "name": "endTime",
              "type": "uint256"
            },
            {
              "internalType": "bytes32",
              "name": "zoneHash",
              "type": "bytes32"
            },
            {
              "internalType": "uint256",
              "name": "salt",
              "type": "uint256"
            },
            {
              "internalType": "bytes32",
              "name": "conduitKey",
              "type": "bytes32"
            },
            {
              "internalType": "uint256",
              "name": "counter",
              "type": "uint256"
            }
          ],
          "internalType": "struct OrderComponents[]",
          "name": "orders",
          "type": "tuple[]"
        }
      ],
      "name": "cancel",
      "outputs": [
        {
          "internalType": "bool",
          "name": "cancelled",
          "type": "bool"
        }
      ],
      "stateMutability": "nonpayable",
      "type": "function"
    },
    {
      "inputs": [
        {
          "components": [
            {
              "components": [
                {
                  "internalType": "address",
                  "name": "offerer",
                  "type": "address"
                },
                {
                  "internalType": "address",
                  "name": "zone",
                  "type": "address"
                },
                {
                  "components": [
                    {
                      "internalType": "enum ItemType",
                      "name": "itemType",
                      "type": "uint8"
                    },
                    {
                      "internalType": "address",
                      "name": "token",
                      "type": "address"
                    },
                    {
                      "internalType": "uint256",
                      "name": "identifierOrCriteria",
                      "type": "uint256"
                    },
                    {
                      "internalType": "uint256",
                      "name": "startAmount",
                      "type": "uint256"
                    },
                    {
                      "internalType": "uint256",
                      "name": "endAmount",
                      "type": "uint256"
                    }
                  ],
                  "internalType": "struct OfferItem[]",
                  "name": "offer",
                  "type": "tuple[]"
                },
                {
                  "components": [
                    {
                      "internalType": "enum ItemType",
                      "name": "itemType",
                      "type": "uint8"
                    },
                    {
                      "internalType": "address",
                      "name": "token",
                      "type": "address"
                    },
                    {
                      "internalType": "uint256",
                      "name": "identifierOrCriteria",
                      "type": "uint256"
                    },
                    {
                      "internalType": "uint256",
                      "name": "startAmount",
                      "type": "uint256"
                    },
                    {
                      "internalType": "uint256",
                      "name": "endAmount",
                      "type": "uint256"
                    },
                    {
                      "internalType": "address payable",
                      "name": "recipient",
                      "type": "address"
                    }
                  ],
                  "internalType": "struct ConsiderationItem[]",
                  "name": "consideration",
                  "type": "tuple[]"
                },
                {
                  "internalType": "enum OrderType",
                  "name": "orderType",
                  "type": "uint8"
                },
                {
                  "internalType": "uint256",
                  "name": "startTime",
                  "type": "uint256"
                },
                {
                  "internalType": "uint256",
                  "name": "endTime",
                  "type": "uint256"
                },
                {
                  "internalType": "bytes32",
                  "name": "zoneHash",
                  "type": "bytes32"
                },
                {
                  "internalType": "uint256",
                  "name": "salt",
                  "type": "uint256"
                },
                {
                  "internalType": "bytes32",
                  "name": "conduitKey",
                  "type": "bytes32"
                },
                {
                  "internalType": "uint256",
                  "name": "totalOriginalConsiderationItems",
                  "type": "uint256"
                }
              ],
              "internalType": "struct OrderParameters",
              "name": "parameters",
              "type": "tuple"
            },
            {
              "internalType": "uint120",
              "name": "numerator",
              "type": "uint120"
            },
            {
              "internalType": "uint120",
              "name": "denominator",
              "type": "uint120"
            },
            {
              "internalType": "bytes",
              "name": "signature",
              "type": "bytes"
            },
            {
              "internalType": "bytes",
              "name": "extraData",
              "type": "bytes"
            }
          ],
          "internalType": "struct AdvancedOrder",
          "name": "advancedOrder",
          "type": "tuple"
        },
        {
          "components": [
            {
              "internalType": "uint256",
              "name": "orderIndex",
              "type": "uint256"
            },
            {
              "internalType": "enum Side",
              "name": "side",
              "type": "uint8"
            },
            {
              "internalType": "uint256",
              "name": "index",
              "type": "uint256"
            },
            {
              "internalType": "uint256",
              "name": "identifier",
              "type": "uint256"
            },
            {
              "internalType": "bytes32[]",
              "name": "criteriaProof",
              "type": "bytes32[]"
            }
          ],
          "internalType": "struct CriteriaResolver[]",
          "name": "criteriaResolvers",
          "type": "tuple[]"
        },
        {
          "internalType": "bytes32",
          "name": "fulfillerConduitKey",
          "type": "bytes32"
        },
        {
          "internalType": "address",
          "name": "recipient",
          "type": "address"
        }
      ],
      "name": "fulfillAdvancedOrder",
      "outputs": [
        {
          "internalType": "bool",
          "name": "fulfilled",
          "type": "bool"
        }
      ],
      "stateMutability": "payable",
      "type": "function"
    },
    {
      "inputs": [
        {
          "components": [
            {
              "components": [
                {
                  "internalType": "address",
                  "name": "offerer",
                  "type": "address"
                },
                {
                  "internalType": "address",
                  "name": "zone",
                  "type": "address"
                },
                {
                  "components": [
                    {
                      "internalType": "enum ItemType",
                      "name": "itemType",
                      "type": "uint8"
                    },
                    {
                      "internalType": "address",
                      "name": "token",
                      "type": "address"
                    },
                    {
                      "internalType": "uint256",
                      "name": "identifierOrCriteria",
                      "type": "uint256"
                    },
                    {
                      "internalType": "uint256",
                      "name": "startAmount",
                      "type": "uint256"
                    },
                    {
                      "internalType": "uint256",
                      "name": "endAmount",
                      "type": "uint256"
                    }
                  ],
                  "internalType": "struct OfferItem[]",
                  "name": "offer",
                  "type": "tuple[]"
                },
                {
                  "components": [
                    {
                      "internalType": "enum ItemType",
                      "name": "itemType",
                      "type": "uint8"
                    },
                    {
                      "internalType": "address",
                      "name": "token",
                      "type": "address"
                    },
                    {
                      "internalType": "uint256",
                      "name": "identifierOrCriteria",
                      "type": "uint256"
                    },
                    {
                      "internalType": "uint256",
                      "name": "startAmount",
                      "type": "uint256"
                    },
                    {
                      "internalType": "uint256",
                      "name": "endAmount",
                      "type": "uint256"
                    },
                    {
                      "internalType": "address payable",
                      "name": "recipient",
                      "type": "address"
                    }
                  ],
                  "internalType": "struct ConsiderationItem[]",
                  "name": "consideration",
                  "type": "tuple[]"
                },
                {
                  "internalType": "enum OrderType",
                  "name": "orderType",
                  "type": "uint8"
                },
                {
                  "internalType": "uint256",
                  "name": "startTime",
                  "type": "uint256"
                },
                {
                  "internalType": "uint256",
                  "name": "endTime",
                  "type": "uint256"
                },
                {
                  "internalType": "bytes32",
                  "name": "zoneHash",
                  "type": "bytes32"
                },
                {
                  "internalType": "uint256",
                  "name": "salt",
                  "type": "uint256"
                },
                {
                  "internalType": "bytes32",
                  "name": "conduitKey",
                  "type": "bytes32"
                },
                {
                  "internalType": "uint256",
                  "name": "totalOriginalConsiderationItems",
                  "type": "uint256"
                }
              ],
              "internalType": "struct OrderParameters",
              "name": "parameters",
              "type": "tuple"
            },
            {
              "internalType": "uint120",
              "name": "numerator",
              "type": "uint120"
            },
            {
              "internalType": "uint120",
              "name": "denominator",
              "type": "uint120"
            },
            {
              "internalType": "bytes",
              "name": "signature",
              "type": "bytes"
            },
            {
              "internalType": "bytes",
              "name": "extraData",
              "type": "bytes"
            }
          ],
          "internalType": "struct AdvancedOrder[]",
          "name": "advancedOrders",
          "type": "tuple[]"
        },
        {
          "components": [
            {
              "internalType": "uint256",
              "name": "orderIndex",
              "type": "uint256"
            },
            {
              "internalType": "enum Side",
              "name": "side",
              "type": "uint8"
            },
            {
              "internalType": "uint256",
              "name": "index",
              "type": "uint256"
            },
            {
              "internalType": "uint256",
              "name": "identifier",
              "type": "uint256"
            },
            {
              "internalType": "bytes32[]",
              "name": "criteriaProof",
              "type": "bytes32[]"
            }
          ],
          "internalType": "struct CriteriaResolver[]",
          "name": "criteriaResolvers",
          "type": "tuple[]"
        },
        {
          "components": [
            {
              "internalType": "uint256",
              "name": "orderIndex",
              "type": "uint256"
            },
            {
              "internalType": "uint256",
              "name": "itemIndex",
              "type": "uint256"
            }
          ],
          "internalType": "struct FulfillmentComponent[][]",
          "name": "offerFulfillments",
          "type": "tuple[][]"
        },
        {
          "components": [
            {
              "internalType": "uint256",
              "name": "orderIndex",
              "type": "uint256"
            },
            {
              "internalType": "uint256",
              "name": "itemIndex",
              "type": "uint256"
            }
          ],
          "internalType": "struct FulfillmentComponent[][]",
          "name": "considerationFulfillments",
          "type": "tuple[][]"
        },
        {
          "internalType": "bytes32",
          "name": "fulfillerConduitKey",
          "type": "bytes32"
        },
        {
          "internalType": "address",
          "name": "recipient",
          "type": "address"
        },
        {
          "internalType": "uint256",
          "name": "maximumFulfilled",
          "type": "uint256"
        }
      ],
      "name": "fulfillAvailableAdvancedOrders",
      "outputs": [
        {
          "internalType": "bool[]",
          "name": "availableOrders",
          "type": "bool[]"
        },
        {
          "components": [
            {
              "components": [
                {
                  "internalType": "enum ItemType",
                  "name": "itemType",
                  "type": "uint8"
                },
                {
                  "internalType": "address",
                  "name": "token",
                  "type": "address"
                },
                {
                  "internalType": "uint256",
                  "name": "identifier",
                  "type": "uint256"
                },
                {
                  "internalType": "uint256",
                  "name": "amount",
                  "type": "uint256"
                },
                {
                  "internalType": "address payable",
                  "name": "recipient",
                  "type": "address"
                }
              ],
              "internalType": "struct ReceivedItem",
              "name": "item",
              "type": "tuple"
            },
            {
              "internalType": "address",
              "name": "offerer",
              "type": "address"
            },
            {
              "internalType": "bytes32",
              "name": "conduitKey",
              "type": "bytes32"
            }
          ],
          "internalType": "struct Execution[]",
          "name": "executions",
          "type": "tuple[]"
        }
      ],
      "stateMutability": "payable",
      "type": "function"
    },
    {
      "inputs": [
        {
          "components": [
            {
              "components": [
                {
                  "internalType": "address",
                  "name": "offerer",
                  "type": "address"
                },
                {
                  "internalType": "address",
                  "name": "zone",
                  "type": "address"
                },
                {
                  "components": [
                    {
                      "internalType": "enum ItemType",
                      "name": "itemType",
                      "type": "uint8"
                    },
                    {
                      "internalType": "address",
                      "name": "token",
                      "type": "address"
                    },
                    {
                      "internalType": "uint256",
                      "name": "identifierOrCriteria",
                      "type": "uint256"
                    },
                    {
                      "internalType": "uint256",
                      "name": "startAmount",
                      "type": "uint256"
                    },
                    {
                      "internalType": "uint256",
                      "name": "endAmount",
                      "type": "uint256"
                    }
                  ],
                  "internalType": "struct OfferItem[]",
                  "name": "offer",
                  "type": "tuple[]"
                },
                {
                  "components": [
                    {
                      "internalType": "enum ItemType",
                      "name": "itemType",
                      "type": "uint8"
                    },
                    {
                      "internalType": "address",
                      "name": "token",
                      "type": "address"
                    },
                    {
                      "internalType": "uint256",
                      "name": "identifierOrCriteria",
                      "type": "uint256"
                    },
                    {
                      "internalType": "uint256",
                      "name": "startAmount",
                      "type": "uint256"
                    },
                    {
                      "internalType": "uint256",
                      "name": "endAmount",
                      "type": "uint256"
                    },
                    {
                      "internalType": "address payable",
                      "name": "recipient",
                      "type": "address"
                    }
                  ],
                  "internalType": "struct ConsiderationItem[]",
                  "name": "consideration",
                  "type": "tuple[]"
                },
                {
                  "internalType": "enum OrderType",
                  "name": "orderType",
                  "type": "uint8"
                },
                {
                  "internalType": "uint256",
                  "name": "startTime",
                  "type": "uint256"
                },
                {
                  "internalType": "uint256",
                  "name": "endTime",
                  "type": "uint256"
                },
                {
                  "internalType": "bytes32",
                  "name": "zoneHash",
                  "type": "bytes32"
                },
                {
                  "internalType": "uint256",
                  "name": "salt",
                  "type": "uint256"
                },
                {
                  "internalType": "bytes32",
                  "name": "conduitKey",
                  "type": "bytes32"
                },
                {
                  "internalType": "uint256",
                  "name": "totalOriginalConsiderationItems",
                  "type": "uint256"
                }
              ],
              "internalType": "struct OrderParameters",
              "name": "parameters",
              "type": "tuple"
            },
            {
              "internalType": "bytes",
              "name": "signature",
              "type": "bytes"
            }
          ],
          "internalType": "struct Order[]",
          "name": "orders",
          "type": "tuple[]"
        },
        {
          "components": [
            {
              "internalType": "uint256",
              "name": "orderIndex",
              "type": "uint256"
            },
            {
              "internalType": "uint256",
              "name": "itemIndex",
              "type": "uint256"
            }
          ],
          "internalType": "struct FulfillmentComponent[][]",
          "name": "offerFulfillments",
          "type": "tuple[][]"
        },
        {
          "components": [
            {
              "internalType": "uint256",
              "name": "orderIndex",
              "type": "uint256"
            },
            {
              "internalType": "uint256",
              "name": "itemIndex",
              "type": "uint256"
            }
          ],
          "internalType": "struct FulfillmentComponent[][]",
          "name": "considerationFulfillments",
          "type": "tuple[][]"
        },
        {
          "internalType": "bytes32",
          "name": "fulfillerConduitKey",
          "type": "bytes32"
        },
        {
          "internalType": "uint256",
          "name": "maximumFulfilled",
          "type": "uint256"
        }
      ],
      "name": "fulfillAvailableOrders",
      "outputs": [
        {
          "internalType": "bool[]",
          "name": "availableOrders",
          "type": "bool[]"
        },
        {
          "components": [
            {
              "components": [
                {
                  "internalType": "enum ItemType",
                  "name": "itemType",
                  "type": "uint8"
                },
                {
                  "internalType": "address",
                  "name": "token",
                  "type": "address"
                },
                {
                  "internalType": "uint256",
                  "name": "identifier",
                  "type": "uint256"
                },
                {
                  "internalType": "uint256",
                  "name": "amount",
                  "type": "uint256"
                },
                {
                  "internalType": "address payable",
                  "name": "recipient",
                  "type": "address"
                }
              ],
              "internalType": "struct ReceivedItem",
              "name": "item",
              "type": "tuple"
            },
            {
              "internalType": "address",
              "name": "offerer",
              "type": "address"
            },
            {
              "internalType": "bytes32",
              "name": "conduitKey",
              "type": "bytes32"
            }
          ],
          "internalType": "struct Execution[]",
          "name": "executions",
          "type": "tuple[]"
        }
      ],
      "stateMutability": "payable",
      "type": "function"
    },
    {
      "inputs": [
        {
          "components": [
            {
              "internalType": "address",
              "name": "considerationToken",
              "type": "address"
            },
            {
              "internalType": "uint256",
              "name": "considerationIdentifier",
              "type": "uint256"
            },
            {
              "internalType": "uint256",
              "name": "considerationAmount",
              "type": "uint256"
            },
            {
              "internalType": "address payable",
              "name": "offerer",
              "type": "address"
            },
            {
              "internalType": "address",
              "name": "zone",
              "type": "address"
            },
            {
              "internalType": "address",
              "name": "offerToken",
              "type": "address"
            },
            {
              "internalType": "uint256",
              "name": "offerIdentifier",
              "type": "uint256"
            },
            {
              "internalType": "uint256",
              "name": "offerAmount",
              "type": "uint256"
            },
            {
              "internalType": "enum BasicOrderType",
              "name": "basicOrderType",
              "type": "uint8"
            },
            {
              "internalType": "uint256",
              "name": "startTime",
              "type": "uint256"
            },
            {
              "internalType": "uint256",
              "name": "endTime",
              "type": "uint256"
            },
            {
              "internalType": "bytes32",
              "name": "zoneHash",
              "type": "bytes32"
            },
            {
              "internalType": "uint256",
              "name": "salt",
              "type": "uint256"
            },
            {
              "internalType": "bytes32",
              "name": "offererConduitKey",
              "type": "bytes32"
            },
            {
              "internalType": "bytes32",
              "name": "fulfillerConduitKey",
              "type": "bytes32"
            },
            {
              "internalType": "uint256",
              "name": "totalOriginalAdditionalRecipients",
              "type": "uint256"
            },
            {
              "components": [
                {
                  "internalType": "uint256",
                  "name": "amount",
                  "type": "uint256"
                },
                {
                  "internalType": "address payable",
                  "name": "recipient",
                  "type": "address"
                }
              ],
              "internalType": "struct AdditionalRecipient[]",
              "name": "additionalRecipients",
              "type": "tuple[]"
            },
            {
              "internalType": "bytes",
              "name": "signature",
              "type": "bytes"
            }
          ],
          "internalType": "struct BasicOrderParameters",
          "name": "parameters",
          "type": "tuple"
        }
      ],
      "name": "fulfillBasicOrder",
      "outputs": [
        {
          "internalType": "bool",
          "name": "fulfilled",
          "type": "bool"
        }
      ],
      "stateMutability": "payable",
      "type": "function"
    },
    {
      "inputs": [
        {
          "components": [
            {
              "components": [
                {
                  "internalType": "address",
                  "name": "offerer",
                  "type": "address"
                },
                {
                  "internalType": "address",
                  "name": "zone",
                  "type": "address"
                },
                {
                  "components": [
                    {
                      "internalType": "enum ItemType",
                      "name": "itemType",
                      "type": "uint8"
                    },
                    {
                      "internalType": "address",
                      "name": "token",
                      "type": "address"
                    },
                    {
                      "internalType": "uint256",
                      "name": "identifierOrCriteria",
                      "type": "uint256"
                    },
                    {
                      "internalType": "uint256",
                      "name": "startAmount",
                      "type": "uint256"
                    },
                    {
                      "internalType": "uint256",
                      "name": "endAmount",
                      "type": "uint256"
                    }
                  ],
                  "internalType": "struct OfferItem[]",
                  "name": "offer",
                  "type": "tuple[]"
                },
                {
                  "components": [
                    {
                      "internalType": "enum ItemType",
                      "name": "itemType",
                      "type": "uint8"
                    },
                    {
                      "internalType": "address",
                      "name": "token",
                      "type": "address"
                    },
                    {
                      "internalType": "uint256",
                      "name": "identifierOrCriteria",
                      "type": "uint256"
                    },
                    {
                      "internalType": "uint256",
                      "name": "startAmount",
                      "type": "uint256"
                    },
                    {
                      "internalType": "uint256",
                      "name": "endAmount",
                      "type": "uint256"
                    },
                    {
                      "internalType": "address payable",
                      "name": "recipient",
                      "type": "address"
                    }
                  ],
                  "internalType": "struct ConsiderationItem[]",
                  "name": "consideration",
                  "type": "tuple[]"
                },
                {
                  "internalType": "enum OrderType",
                  "name": "orderType",
                  "type": "uint8"
                },
                {
                  "internalType": "uint256",
                  "name": "startTime",
                  "type": "uint256"
                },
                {
                  "internalType": "uint256",
                  "name": "endTime",
                  "type": "uint256"
                },
                {
                  "internalType": "bytes32",
                  "name": "zoneHash",
                  "type": "bytes32"
                },
                {
                  "internalType": "uint256",
                  "name": "salt",
                  "type": "uint256"
                },
                {
                  "internalType": "bytes32",
                  "name": "conduitKey",
                  "type": "bytes32"
                },
                {
                  "internalType": "uint256",
                  "name": "totalOriginalConsiderationItems",
                  "type": "uint256"
                }
              ],
              "internalType": "struct OrderParameters",
              "name": "parameters",
              "type": "tuple"
            },
            {
              "internalType": "bytes",
              "name": "signature",
              "type": "bytes"
            }
          ],
          "internalType": "struct Order",
          "name": "order",
          "type": "tuple"
        },
        {
          "internalType": "bytes32",
          "name": "fulfillerConduitKey",
          "type": "bytes32"
        }
      ],
      "name": "fulfillOrder",
      "outputs": [
        {
          "internalType": "bool",
          "name": "fulfilled",
          "type": "bool"
        }
      ],
      "stateMutability": "payable",
      "type": "function"
    },
    {
      "inputs": [
        {
          "internalType": "address",
          "name": "offerer",
          "type": "address"
        }
      ],
      "name": "getCounter",
      "outputs": [
        {
          "internalType": "uint256",
          "name": "counter",
          "type": "uint256"
        }
      ],
      "stateMutability": "view",
      "type": "function"
    },
    {
      "inputs": [
        {
          "components": [
            {
              "internalType": "address",
              "name": "offerer",
              "type": "address"
            },
            {
              "internalType": "address",
              "name": "zone",
              "type": "address"
            },
            {
              "components": [
                {
                  "internalType": "enum ItemType",
                  "name": "itemType",
                  "type": "uint8"
                },
                {
                  "internalType": "address",
                  "name": "token",
                  "type": "address"
                },
                {
                  "internalType": "uint256",
                  "name": "identifierOrCriteria",
                  "type": "uint256"
                },
                {
                  "internalType": "uint256",
                  "name": "startAmount",
                  "type": "uint256"
                },
                {
                  "internalType": "uint256",
                  "name": "endAmount",
                  "type": "uint256"
                }
              ],
              "internalType": "struct OfferItem[]",
              "name": "offer",
              "type": "tuple[]"
            },
            {
              "components": [
                {
                  "internalType": "enum ItemType",
                  "name": "itemType",
                  "type": "uint8"
                },
                {
                  "internalType": "address",
                  "name": "token",
                  "type": "address"
                },
                {
                  "internalType": "uint256",
                  "name": "identifierOrCriteria",
                  "type": "uint256"
                },
                {
                  "internalType": "uint256",
                  "name": "startAmount",
                  "type": "uint256"
                },
                {
                  "internalType": "uint256",
                  "name": "endAmount",
                  "type": "uint256"
                },
                {
                  "internalType": "address payable",
                  "name": "recipient",
                  "type": "address"
                }
              ],
              "internalType": "struct ConsiderationItem[]",
              "name": "consideration",
              "type": "tuple[]"
            },
            {
              "internalType": "enum OrderType",
              "name": "orderType",
              "type": "uint8"
            },
            {
              "internalType": "uint256",
              "name": "startTime",
              "type": "uint256"
            },
            {
              "internalType": "uint256",
              "name": "endTime",
              "type": "uint256"
            },
            {
              "internalType": "bytes32",
              "name": "zoneHash",
              "type": "bytes32"
            },
            {
              "internalType": "uint256",
              "name": "salt",
              "type": "uint256"
            },
            {
              "internalType": "bytes32",
              "name": "conduitKey",
              "type": "bytes32"
            },
            {
              "internalType": "uint256",
              "name": "counter",
              "type": "uint256"
            }
          ],
          "internalType": "struct OrderComponents",
          "name": "order",
          "type": "tuple"
        }
      ],
      "name": "getOrderHash",
      "outputs": [
        {
          "internalType": "bytes32",
          "name": "orderHash",
          "type": "bytes32"
        }
      ],
      "stateMutability": "view",
      "type": "function"
    },
    {
      "inputs": [
        {
          "internalType": "bytes32",
          "name": "orderHash",
          "type": "bytes32"
        }
      ],
      "name": "getOrderStatus",
      "outputs": [
        {
          "internalType": "bool",
          "name": "isValidated",
          "type": "bool"
        },
        {
          "internalType": "bool",
          "name": "isCancelled",
          "type": "bool"
        },
        {
          "internalType": "uint256",
          "name": "totalFilled",
          "type": "uint256"
        },
        {
          "internalType": "uint256",
          "name": "totalSize",
          "type": "uint256"
        }
      ],
      "stateMutability": "view",
      "type": "function"
    },
    {
      "inputs": [],
      "name": "incrementCounter",
      "outputs": [
        {
          "internalType": "uint256",
          "name": "newCounter",
          "type": "uint256"
        }
      ],
      "stateMutability": "nonpayable",
      "type": "function"
    },
    {
      "inputs": [],
      "name": "information",
      "outputs": [
        {
          "internalType": "string",
          "name": "version",
          "type": "string"
        },
        {
          "internalType": "bytes32",
          "name": "domainSeparator",
          "type": "bytes32"
        },
        {
          "internalType": "address",
          "name": "conduitController",
          "type": "address"
        }
      ],
      "stateMutability": "view",
      "type": "function"
    },
    {
      "inputs": [
        {
          "components": [
            {
              "components": [
                {
                  "internalType": "address",
                  "name": "offerer",
                  "type": "address"
                },
                {
                  "internalType": "address",
                  "name": "zone",
                  "type": "address"
                },
                {
                  "components": [
                    {
                      "internalType": "enum ItemType",
                      "name": "itemType",
                      "type": "uint8"
                    },
                    {
                      "internalType": "address",
                      "name": "token",
                      "type": "address"
                    },
                    {
                      "internalType": "uint256",
                      "name": "identifierOrCriteria",
                      "type": "uint256"
                    },
                    {
                      "internalType": "uint256",
                      "name": "startAmount",
                      "type": "uint256"
                    },
                    {
                      "internalType": "uint256",
                      "name": "endAmount",
                      "type": "uint256"
                    }
                  ],
                  "internalType": "struct OfferItem[]",
                  "name": "offer",
                  "type": "tuple[]"
                },
                {
                  "components": [
                    {
                      "internalType": "enum ItemType",
                      "name": "itemType",
                      "type": "uint8"
                    },
                    {
                      "internalType": "address",
                      "name": "token",
                      "type": "address"
                    },
                    {
                      "internalType": "uint256",
                      "name": "identifierOrCriteria",
                      "type": "uint256"
                    },
                    {
                      "internalType": "uint256",
                      "name": "startAmount",
                      "type": "uint256"
                    },
                    {
                      "internalType": "uint256",
                      "name": "endAmount",
                      "type": "uint256"
                    },
                    {
                      "internalType": "address payable",
                      "name": "recipient",
                      "type": "address"
                    }
                  ],
                  "internalType": "struct ConsiderationItem[]",
                  "name": "consideration",
                  "type": "tuple[]"
                },
                {
                  "internalType": "enum OrderType",
                  "name": "orderType",
                  "type": "uint8"
                },
                {
                  "internalType": "uint256",
                  "name": "startTime",
                  "type": "uint256"
                },
                {
                  "internalType": "uint256",
                  "name": "endTime",
                  "type": "uint256"
                },
                {
                  "internalType": "bytes32",
                  "name": "zoneHash",
                  "type": "bytes32"
                },
                {
                  "internalType": "uint256",
                  "name": "salt",
                  "type": "uint256"
                },
                {
                  "internalType": "bytes32",
                  "name": "conduitKey",
                  "type": "bytes32"
                },
                {
                  "internalType": "uint256",
                  "name": "totalOriginalConsiderationItems",
                  "type": "uint256"
                }
              ],
              "internalType": "struct OrderParameters",
              "name": "parameters",
              "type": "tuple"
            },
            {
              "internalType": "uint120",
              "name": "numerator",
              "type": "uint120"
            },
            {
              "internalType": "uint120",
              "name": "denominator",
              "type": "uint120"
            },
            {
              "internalType": "bytes",
              "name": "signature",
              "type": "bytes"
            },
            {
              "internalType": "bytes",
              "name": "extraData",
              "type": "bytes"
            }
          ],
          "internalType": "struct AdvancedOrder[]",
          "name": "advancedOrders",
          "type": "tuple[]"
        },
        {
          "components": [
            {
              "internalType": "uint256",
              "name": "orderIndex",
              "type": "uint256"
            },
            {
              "internalType": "enum Side",
              "name": "side",
              "type": "uint8"
            },
            {
              "internalType": "uint256",
              "name": "index",
              "type": "uint256"
            },
            {
              "internalType": "uint256",
              "name": "identifier",
              "type": "uint256"
            },
            {
              "internalType": "bytes32[]",
              "name": "criteriaProof",
              "type": "bytes32[]"
            }
          ],
          "internalType": "struct CriteriaResolver[]",
          "name": "criteriaResolvers",
          "type": "tuple[]"
        },
        {
          "components": [
            {
              "components": [
                {
                  "internalType": "uint256",
                  "name": "orderIndex",
                  "type": "uint256"
                },
                {
                  "internalType": "uint256",
                  "name": "itemIndex",
                  "type": "uint256"
                }
              ],
              "internalType": "struct FulfillmentComponent[]",
              "name": "offerComponents",
              "type": "tuple[]"
            },
            {
              "components": [
                {
                  "internalType": "uint256",
                  "name": "orderIndex",
                  "type": "uint256"
                },
                {
                  "internalType": "uint256",
                  "name": "itemIndex",
                  "type": "uint256"
                }
              ],
              "internalType": "struct FulfillmentComponent[]",
              "name": "considerationComponents",
              "type": "tuple[]"
            }
          ],
          "internalType": "struct Fulfillment[]",
          "name": "fulfillments",
          "type": "tuple[]"
        }
      ],
      "name": "matchAdvancedOrders",
      "outputs": [
        {
          "components": [
            {
              "components": [
                {
                  "internalType": "enum ItemType",
                  "name": "itemType",
                  "type": "uint8"
                },
                {
                  "internalType": "address",
                  "name": "token",
                  "type": "address"
                },
                {
                  "internalType": "uint256",
                  "name": "identifier",
                  "type": "uint256"
                },
                {
                  "internalType": "uint256",
                  "name": "amount",
                  "type": "uint256"
                },
                {
                  "internalType": "address payable",
                  "name": "recipient",
                  "type": "address"
                }
              ],
              "internalType": "struct ReceivedItem",
              "name": "item",
              "type": "tuple"
            },
            {
              "internalType": "address",
              "name": "offerer",
              "type": "address"
            },
            {
              "internalType": "bytes32",
              "name": "conduitKey",
              "type": "bytes32"
            }
          ],
          "internalType": "struct Execution[]",
          "name": "executions",
          "type": "tuple[]"
        }
      ],
      "stateMutability": "payable",
      "type": "function"
    },
    {
      "inputs": [
        {
          "components": [
            {
              "components": [
                {
                  "internalType": "address",
                  "name": "offerer",
                  "type": "address"
                },
                {
                  "internalType": "address",
                  "name": "zone",
                  "type": "address"
                },
                {
                  "components": [
                    {
                      "internalType": "enum ItemType",
                      "name": "itemType",
                      "type": "uint8"
                    },
                    {
                      "internalType": "address",
                      "name": "token",
                      "type": "address"
                    },
                    {
                      "internalType": "uint256",
                      "name": "identifierOrCriteria",
                      "type": "uint256"
                    },
                    {
                      "internalType": "uint256",
                      "name": "startAmount",
                      "type": "uint256"
                    },
                    {
                      "internalType": "uint256",
                      "name": "endAmount",
                      "type": "uint256"
                    }
                  ],
                  "internalType": "struct OfferItem[]",
                  "name": "offer",
                  "type": "tuple[]"
                },
                {
                  "components": [
                    {
                      "internalType": "enum ItemType",
                      "name": "itemType",
                      "type": "uint8"
                    },
                    {
                      "internalType": "address",
                      "name": "token",
                      "type": "address"
                    },
                    {
                      "internalType": "uint256",
                      "name": "identifierOrCriteria",
                      "type": "uint256"
                    },
                    {
                      "internalType": "uint256",
                      "name": "startAmount",
                      "type": "uint256"
                    },
                    {
                      "internalType": "uint256",
                      "name": "endAmount",
                      "type": "uint256"
                    },
                    {
                      "internalType": "address payable",
                      "name": "recipient",
                      "type": "address"
                    }
                  ],
                  "internalType": "struct ConsiderationItem[]",
                  "name": "consideration",
                  "type": "tuple[]"
                },
                {
                  "internalType": "enum OrderType",
                  "name": "orderType",
                  "type": "uint8"
                },
                {
                  "internalType": "uint256",
                  "name": "startTime",
                  "type": "uint256"
                },
                {
                  "internalType": "uint256",
                  "name": "endTime",
                  "type": "uint256"
                },
                {
                  "internalType": "bytes32",
                  "name": "zoneHash",
                  "type": "bytes32"
                },
                {
                  "internalType": "uint256",
                  "name": "salt",
                  "type": "uint256"
                },
                {
                  "internalType": "bytes32",
                  "name": "conduitKey",
                  "type": "bytes32"
                },
                {
                  "internalType": "uint256",
                  "name": "totalOriginalConsiderationItems",
                  "type": "uint256"
                }
              ],
              "internalType": "struct OrderParameters",
              "name": "parameters",
              "type": "tuple"
            },
            {
              "internalType": "bytes",
              "name": "signature",
              "type": "bytes"
            }
          ],
          "internalType": "struct Order[]",
          "name": "orders",
          "type": "tuple[]"
        },
        {
          "components": [
            {
              "components": [
                {
                  "internalType": "uint256",
                  "name": "orderIndex",
                  "type": "uint256"
                },
                {
                  "internalType": "uint256",
                  "name": "itemIndex",
                  "type": "uint256"
                }
              ],
              "internalType": "struct FulfillmentComponent[]",
              "name": "offerComponents",
              "type": "tuple[]"
            },
            {
              "components": [
                {
                  "internalType": "uint256",
                  "name": "orderIndex",
                  "type": "uint256"
                },
                {
                  "internalType": "uint256",
                  "name": "itemIndex",
                  "type": "uint256"
                }
              ],
              "internalType": "struct FulfillmentComponent[]",
              "name": "considerationComponents",
              "type": "tuple[]"
            }
          ],
          "internalType": "struct Fulfillment[]",
          "name": "fulfillments",
          "type": "tuple[]"
        }
      ],
      "name": "matchOrders",
      "outputs": [
        {
          "components": [
            {
              "components": [
                {
                  "internalType": "enum ItemType",
                  "name": "itemType",
                  "type": "uint8"
                },
                {
                  "internalType": "address",
                  "name": "token",
                  "type": "address"
                },
                {
                  "internalType": "uint256",
                  "name": "identifier",
                  "type": "uint256"
                },
                {
                  "internalType": "uint256",
                  "name": "amount",
                  "type": "uint256"
                },
                {
                  "internalType": "address payable",
                  "name": "recipient",
                  "type": "address"
                }
              ],
              "internalType": "struct ReceivedItem",
              "name": "item",
              "type": "tuple"
            },
            {
              "internalType": "address",
              "name": "offerer",
              "type": "address"
            },
            {
              "internalType": "bytes32",
              "name": "conduitKey",
              "type": "bytes32"
            }
          ],
          "internalType": "struct Execution[]",
          "name": "executions",
          "type": "tuple[]"
        }
      ],
      "stateMutability": "payable",
      "type": "function"
    },
    {
      "inputs": [],
      "name": "name",
      "outputs": [
        {
          "internalType": "string",
          "name": "contractName",
          "type": "string"
        }
      ],
      "stateMutability": "pure",
      "type": "function"
    },
    {
      "inputs": [
        {
          "components": [
            {
              "components": [
                {
                  "internalType": "address",
                  "name": "offerer",
                  "type": "address"
                },
                {
                  "internalType": "address",
                  "name": "zone",
                  "type": "address"
                },
                {
                  "components": [
                    {
                      "internalType": "enum ItemType",
                      "name": "itemType",
                      "type": "uint8"
                    },
                    {
                      "internalType": "address",
                      "name": "token",
                      "type": "address"
                    },
                    {
                      "internalType": "uint256",
                      "name": "identifierOrCriteria",
                      "type": "uint256"
                    },
                    {
                      "internalType": "uint256",
                      "name": "startAmount",
                      "type": "uint256"
                    },
                    {
                      "internalType": "uint256",
                      "name": "endAmount",
                      "type": "uint256"
                    }
                  ],
                  "internalType": "struct OfferItem[]",
                  "name": "offer",
                  "type": "tuple[]"
                },
                {
                  "components": [
                    {
                      "internalType": "enum ItemType",
                      "name": "itemType",
                      "type": "uint8"
                    },
                    {
                      "internalType": "address",
                      "name": "token",
                      "type": "address"
                    },
                    {
                      "internalType": "uint256",
                      "name": "identifierOrCriteria",
                      "type": "uint256"
                    },
                    {
                      "internalType": "uint256",
                      "name": "startAmount",
                      "type": "uint256"
                    },
                    {
                      "internalType": "uint256",
                      "name": "endAmount",
                      "type": "uint256"
                    },
                    {
                      "internalType": "address payable",
                      "name": "recipient",
                      "type": "address"
                    }
                  ],
                  "internalType": "struct ConsiderationItem[]",
                  "name": "consideration",
                  "type": "tuple[]"
                },
                {
                  "internalType": "enum OrderType",
                  "name": "orderType",
                  "type": "uint8"
                },
                {
                  "internalType": "uint256",
                  "name": "startTime",
                  "type": "uint256"
                },
                {
                  "internalType": "uint256",
                  "name": "endTime",
                  "type": "uint256"
                },
                {
                  "internalType": "bytes32",
                  "name": "zoneHash",
                  "type": "bytes32"
                },
                {
                  "internalType": "uint256",
                  "name": "salt",
                  "type": "uint256"
                },
                {
                  "internalType": "bytes32",
                  "name": "conduitKey",
                  "type": "bytes32"
                },
                {
                  "internalType": "uint256",
                  "name": "totalOriginalConsiderationItems",
                  "type": "uint256"
                }
              ],
              "internalType": "struct OrderParameters",
              "name": "parameters",
              "type": "tuple"
            },
            {
              "internalType": "bytes",
              "name": "signature",
              "type": "bytes"
            }
          ],
          "internalType": "struct Order[]",
          "name": "orders",
          "type": "tuple[]"
        }
      ],
      "name": "validate",
      "outputs": [
        {
          "internalType": "bool",
          "name": "validated",
          "type": "bool"
        }
      ],
      "stateMutability": "nonpayable",
      "type": "function"
    }
  ],
  "numDeployments": 2,
  "solcInputHash": "f88f57136358a3b31827c2ad30206828",
  "bytecode": "0x6101c060405234620000b9576200001f6200001962000114565b62000151565b604051615f7e90816200076d82396080518161282c015260a05181612852015260c05181612809015260e051818181611758015261269701526101005181818161162401526126e60152610120518181816117f40152612734015261014051816127b7015261016051816127dd015261018051818181611003015281816122f4015261246a01526101a05181818161233201526124a80152f35b600080fd5b604081019081106001600160401b03821117620000da57604052565b634e487b7160e01b600052604160045260246000fd5b601f909101601f19168101906001600160401b03821190821017620000da57604052565b620066eb60208138039182604051938492620001318285620000f0565b833981010312620000b957516001600160a01b0381168103620000b95790565b604060049162000160620002e3565b610120526101005260e05260c05260a05260805246610140526200018362000237565b610160526001600160a01b03166101808190528151630a96ad3960e01b815292839182905afa90811562000203575b600091620001cd575b506101a052620001cb6001600055565b565b620001f3915060403d8111620001fb575b620001ea8183620000f0565b81019062000213565b5038620001bb565b503d620001de565b6200020d6200022a565b620001b2565b9190826040910312620000b9576020825192015190565b506040513d6000823e3d90fd5b60c05160805160a0516040519160208301938452604083015260608201524660808201523060a082015260a0815260c0810181811060018060401b03821117620000da5760405251902090565b604051906200029382620000be565b6003825262312e3160e81b6020830152565b90815180926000905b828210620002cb575011620002c1570190565b6000828201520190565b915080602080928401015181850152018391620002ae565b620002ed62000747565b8051602080920120916200030062000284565b8281519101209160405181810192816200032b85600a906909ecccccae492e8cada560b31b81520190565b6e1d5a5b9d0e081a5d195b551e5c194b608a1b8152600f016d1859191c995cdcc81d1bdad95b8b60921b8152600e017f75696e74323536206964656e7469666965724f7243726974657269612c0000008152601d017f75696e74323536207374617274416d6f756e742c0000000000000000000000008152601401701d5a5b9d0c8d4d88195b99105b5bdd5b9d607a1b8152601101602960f81b81526001010392601f19938481018452620003e19084620000f0565b60405171086dedce6d2c8cae4c2e8d2dedc92e8cada560731b8282019081529481601287016e1d5a5b9d0e081a5d195b551e5c194b608a1b8152600f016d1859191c995cdcc81d1bdad95b8b60921b8152600e017f75696e74323536206964656e7469666965724f7243726974657269612c0000008152601d017f75696e74323536207374617274416d6f756e742c0000000000000000000000008152601401711d5a5b9d0c8d4d88195b99105b5bdd5b9d0b60721b8152601201701859191c995cdcc81c9958da5c1a595b9d607a1b8152601101602960f81b8152600101038181018352620004d29083620000f0565b6040519283818101620004fc906010906f09ee4c8cae486dedae0dedccadce8e6560831b81520190565b6f1859191c995cdcc81bd999995c995c8b60821b81526010016c1859191c995cdcc81e9bdb994b609a1b8152600d017113d999995c925d195b56d7481bd999995c8b60721b81526012017f436f6e73696465726174696f6e4974656d5b5d20636f6e73696465726174696f8152611b8b60f21b60208201526022016f1d5a5b9d0e081bdc99195c951e5c194b60821b8152601001711d5a5b9d0c8d4d881cdd185c9d151a5b594b60721b81526012016f1d5a5b9d0c8d4d88195b99151a5b594b60821b815260100170189e5d195ccccc881e9bdb9952185cda0b607a1b81526011016c1d5a5b9d0c8d4d881cd85b1d0b609a1b8152600d017f6279746573333220636f6e647569744b65792c0000000000000000000000000081526013016e3ab4b73a191a9b1031b7bab73a32b960891b8152600f01602960f81b81526001010382810185526200064e9085620000f0565b6040516c08a92a06e626488dedac2d2dc5609b1b8282019081529080600d83016b1cdd1c9a5b99c81b985b594b60a21b8152600c016e1cdd1c9a5b99c81d995c9cda5bdb8b608a1b8152600f016f1d5a5b9d0c8d4d8818da185a5b92590b60821b81526010017f6164647265737320766572696679696e67436f6e7472616374000000000000008152601901602960f81b8152600101038481018252620006f69082620000f0565b5190209786519020968351902095604051938492830195866200071991620002a5565b6200072491620002a5565b6200072f91620002a5565b039081018252620007419082620000f0565b51902090565b604051906200075682620000be565b600782526614d9585c1bdc9d60ca1b602083015256fe60806040526004361015610013575b600080fd5b60003560e01c806306fdde031461013f57806346423aa71461013657806355944a421461012d5780635b34b9661461012457806379df72bd1461011b57806387201b41146101125780638814773214610109578063a817440414610100578063b3a34c4c146100f7578063e7acab24146100ee578063ed98a574146100e5578063f07ec373146100dc578063f47b7740146100d3578063fb0f3ee1146100ca5763fd9f1e10146100c257600080fd5b61000e61132d565b5061000e61102c565b5061000e610f8b565b5061000e610f46565b5061000e610eb5565b5061000e610e07565b5061000e610da3565b5061000e610d32565b5061000e610be3565b5061000e610b0f565b5061000e610994565b5061000e61092f565b5061000e61089e565b5061000e6101c1565b5061000e610199565b91908251928382526000905b8482106101815750601f8460209495601f199311610174575b0116010190565b600085828601015261016d565b90602090818082850101519082860101520190610154565b503461000e57600060031936011261000e57602080526707536561706f727460475260606020f35b503461000e57602060031936011261000e57600435600052600260205260806040600020546040519060ff81161515825260ff8160081c16151560208301526effffffffffffffffffffffffffffff8160101c16604083015260881c6060820152f35b507f4e487b7100000000000000000000000000000000000000000000000000000000600052604160045260246000fd5b60a0810190811067ffffffffffffffff82111761027057604052565b610278610224565b604052565b60c0810190811067ffffffffffffffff82111761027057604052565b6020810190811067ffffffffffffffff82111761027057604052565b6040810190811067ffffffffffffffff82111761027057604052565b90601f601f19910116810190811067ffffffffffffffff82111761027057604052565b60405190610160820182811067ffffffffffffffff82111761027057604052565b6040519061032282610254565b565b60209067ffffffffffffffff811161033e575b60051b0190565b610346610224565b610337565b6001600160a01b0381160361000e57565b60a435906103228261034b565b35906103228261034b565b3590600682101561000e57565b92919261038d82610324565b60409461039c865192836102d1565b819584835260208093019160a080960285019481861161000e57925b8584106103c85750505050505050565b868483031261000e5784879184516103df81610254565b6103e887610374565b8152828701356103f78161034b565b83820152858701358682015260608088013590820152608080880135908201528152019301926103b8565b9080601f8301121561000e5781602061043d93359101610381565b90565b92919261044c82610324565b60409461045b865192836102d1565b819584835260208093019160c080960285019481861161000e57925b8584106104875750505050505050565b868483031261000e57848791845161049e8161027d565b6104a787610374565b8152828701356104b68161034b565b838201528587013586820152606080880135908201526080808801359082015260a080880135906104e68261034b565b820152815201930192610477565b9080601f8301121561000e5781602061043d93359101610440565b6004111561000e57565b35906103228261050f565b9190916101608184031261000e5761053a6102f4565b9261054482610369565b845261055260208301610369565b602085015267ffffffffffffffff90604083013582811161000e5781610579918501610422565b6040860152606083013591821161000e576105959183016104f4565b60608401526105a660808201610519565b608084015260a081013560a084015260c081013560c084015260e081013560e0840152610100808201359084015261012080820135908401526101408091013590830152565b35906effffffffffffffffffffffffffffff8216820361000e57565b92919267ffffffffffffffff8211610650575b604051916106336020601f19601f84011601846102d1565b82948184528183011161000e578281602093846000960137010152565b610658610224565b61061b565b9080601f8301121561000e5781602061043d93359101610608565b91909160a08184031261000e5761068d610315565b9267ffffffffffffffff823581811161000e57826106ac918501610524565b85526106ba602084016105ec565b60208601526106cb604084016105ec565b6040860152606083013581811161000e57826106e891850161065d565b6060860152608083013590811161000e57610703920161065d565b6080830152565b9080601f8301121561000e5781359061072282610324565b9261073060405194856102d1565b828452602092838086019160051b8301019280841161000e57848301915b84831061075e5750505050505090565b823567ffffffffffffffff811161000e57869161078084848094890101610678565b81520192019161074e565b9181601f8401121561000e5782359167ffffffffffffffff831161000e576020808501948460051b01011161000e57565b507f4e487b7100000000000000000000000000000000000000000000000000000000600052602160045260246000fd5b600611156107f657565b6103226107bc565b608090805161080c816107ec565b8352816001600160a01b03918260208201511660208601526040810151604086015260608101516060860152015116910152565b90815180825260208080930193019160005b828110610860575050505090565b909192938260e0600192604088516108798382516107fe565b808501516001600160a01b031660a0840152015160c082015201950193929101610852565b50606060031936011261000e5767ffffffffffffffff60043581811161000e576108cc90369060040161070a565b9060243581811161000e576108e590369060040161078b565b60443592831161000e5761092b9361091161090761091795369060040161078b565b9490933691611bff565b90613e21565b604051918291602083526020830190610840565b0390f35b503461000e57600060031936011261000e57610949615017565b3360005260016020526020604060002060018154018091556040518181527f721c20121297512b72821b97f5326877ea8ecf4bb9948fea5bfcb6453074d37f833392a2604051908152f35b503461000e5760031960208136011261000e5760043567ffffffffffffffff811161000e576101608160040192823603011261000e576109d38261152d565b916109e06024830161152d565b906109ee6044840182611cfc565b6064850192916109fe8484611d50565b92909360848801610a0e90611dae565b95610a1891611d50565b969050610a236102f4565b6001600160a01b0390991689526001600160a01b031660208901523690610a4992610381565b60408701523690610a5992610440565b6060850152610a6b9060808501611db8565b60a482013560a084015260c482013560c084015260e482013560e08401526101048201356101008401526101248201356101208401526101408301526101440135610ab59161268a565b604051908152602090f35b9092916040820191604081528451809352606081019260208096019060005b818110610af95750505061043d9394818403910152610840565b8251151586529487019491870191600101610adf565b5060e060031936011261000e5767ffffffffffffffff60043581811161000e57610b3d90369060040161070a565b60243582811161000e57610b5590369060040161078b565b909160443584811161000e57610b6f90369060040161078b565b9060643595861161000e57610b8b610ba496369060040161078b565b929091610b9661035c565b9560c4359760843596611cc2565b9061092b60405192839283610ac0565b602060031982011261000e576004359067ffffffffffffffff821161000e57610bdf9160040161078b565b9091565b503461000e57610bf236610bb4565b610bfa615017565b60005b818110610c105760405160018152602090f35b80610c1e6001928486613f13565b610c2881806146ae565b610c318161152d565b91610c44610c3f3684610524565b614fa9565b91610c59836000526002602052604060002090565b610c6381856155a2565b50610c76610c72825460ff1690565b1590565b610c86575b505050505001610bfd565b7ffde361574a066b44b3b5fe98a87108b7565e327327954c4faeea56a4e6491a0a92610d2592610d01610d0793610cd6610ccf610cc86020968781019061158b565b3691610608565b898b615303565b60017fffffffffffffffffffffffffffffffffffffffffffffffffffffffffffffff00825416179055565b0161152d565b6040519384526001600160a01b039081169416929081906020820190565b0390a33880808080610c7b565b50604060031936011261000e5767ffffffffffffffff60043581811161000e57610d6090369060040161078b565b60249291923591821161000e5761092b92610d8d610d8561091794369060040161078b565b939092614750565b60405190610d9a82610299565b60008252613e21565b5060031960408136011261000e576004359067ffffffffffffffff821161000e57604090823603011261000e57610dfd610de16020926004016146e1565b60405190610dee82610299565b600082523391602435916141fd565b6040519015158152f35b5060031960808136011261000e576004359067ffffffffffffffff9081831161000e5760a090833603011261000e5760243590811161000e5761092b91610e55610e9692369060040161078b565b90606435610e628161034b565b6001600160a01b038116610ea85750610e90610e8433945b3690600401610678565b91604435933691611bff565b906141fd565b60405190151581529081906020820190565b610e84610e909194610e7a565b5060a060031936011261000e5767ffffffffffffffff60043581811161000e57610ee390369060040161078b565b9060243583811161000e57610efc90369060040161078b565b91909260443594851161000e57610f25610f1d610ba496369060040161078b565b929093614750565b9160405193610f3385610299565b6000855260843595339560643595612a0b565b503461000e57602060031936011261000e576020610f83600435610f698161034b565b6001600160a01b0316600052600160205260406000205490565b604051908152f35b503461000e57600060031936011261000e57610ff3610fa86127b4565b60405190610fb5826102b5565b600382527f312e3100000000000000000000000000000000000000000000000000000000006020830152604051928392606084526060840190610148565b9060208301526001600160a01b037f00000000000000000000000000000000000000000000000000000000000000001660408301520390f35b5060031960208136011261000e5760043567ffffffffffffffff811161000e576102408160040192823603011261000e5761012435908160021c926001841193341585036112f85784936003821160028314916110d183600286117ffffffffffffffffffffffffffffffffffffffffffffffffffffffffffffffffe870102018815926001820185028460011b880103998a92600360a088026024013593168a6115dc565b6110e38260051b6101c40135986107ec565b156111b5575050506111036110f78261152d565b6001600160a01b031690565b6001600160a01b0390811660248401351761118b5761115f60449461115a6111759761116b9461113560a4890161152d565b9060648901946111448661152d565b9060e48b01359360c48c01359333931691611dcf565b61152d565b91610204840190611537565b93909201356119df565b61117f6001600055565b60405160018152602090f35b60046040517f6ab37ce7000000000000000000000000000000000000000000000000000000008152fd5b9194509161121e6110f7606461122396611228996111d1611514565b8a819b996111df839b6107ec565b1561122d5750610d01916111f560a4850161152d565b61120086860161152d565b9060e48601359160c4870135916001600160a01b03339216906120c8565b611ac5565b6122c4565b611175565b611236816107ec565b6003810361127d57506112789161124f60a4850161152d565b61125a86860161152d565b9060e48601359160c4870135916001600160a01b03339216906121be565b610d01565b806112896004926107ec565b036112c3576112789161129b8861152d565b6112a686860161152d565b6044860135916001600160a01b03602488013592169033906120c8565b611278916112d08861152d565b6112db86860161152d565b6044860135916001600160a01b03602488013592169033906121be565b6040517fa61be9f0000000000000000000000000000000000000000000000000000000008152346004820152602490fd5b0390fd5b503461000e5761133c36610bb4565b611344615017565b60005b81811061135a5760405160018152602090f35b611365818385614fe2565b61136e8161152d565b60209061137c82840161152d565b6001600160a01b0391828116938433141580611508575b6114de576040956113a681880182611cfc565b6060808401926113b68486611d50565b90916080948a8689016113c890611dae565b976113d3908a611d50565b9a90506113de6102f4565b6001600160a01b03909c168c526001600160a01b03909116908b0152369061140592610381565b8c890152369061141492610440565b9086015284019061142491611db8565b60a0808201359084015260c0808201359084015260e08082013590840152610100808201359084015261012080820135908401526101409182840152013561146b9161268a565b93611480856000526002602052604060002090565b80547fffffffffffffffffffffffffffffffffffffffffffffffffffffffffffff0000166101001790555193845216917f6bacc01dbe442496068f7d234edd811f1a5f833243e0aec824f86ab861f3c90d90602090a3600101611347565b60046040517f80ec7374000000000000000000000000000000000000000000000000000000008152fd5b50838316331415611393565b60405190611521826102b5565b60208083523683820137565b3561043d8161034b565b9035907fffffffffffffffffffffffffffffffffffffffffffffffffffffffffffffffe18136030182121561000e570180359067ffffffffffffffff821161000e57602001918160061b3603831361000e57565b9035907fffffffffffffffffffffffffffffffffffffffffffffffffffffffffffffffe18136030182121561000e570180359067ffffffffffffffff821161000e5760200191813603831361000e57565b9591906115e7615008565b6115fb610140880135610120890135615296565b50611604611927565b611622611615610200890189611537565b6101e08a013591506118f6565b7f00000000000000000000000000000000000000000000000000000000000000006080528160a0526060602460c037604060646101203760e06080908120610160526001610264359081016102a060059290921b918201526102c081019384526024906102e00137610160928460a0528560c052600060e05260005b8394610204358210156116fb5790604060a0600193602090818560061b6102840161010037838560061b6102840161012037019660e0608020885201968888528960c08201526101008360061b610284019101370193929361169e565b5090929350969590966001610204350160051b610160206060525b83610264358210156117495790604060a060019301958787528860c08201526101008360061b6102840191013701611716565b505093509490506103229391507f00000000000000000000000000000000000000000000000000000000000000006080528260a052606060c460c03760206101046101203760c0608020600052602060002060e05260016102643560051b610200015261022092836102643560051b0152606060c46102406102643560051b01376118ee610cc8608435936117f1856001600160a01b03166000526001602052604060002090565b547f00000000000000000000000000000000000000000000000000000000000000006080526040608460a03760605161010052846101205260a0610144610140376101e0526101809485608020956102643560051b0190868252336101a06102643560051b015260806101c06102643560051b01526101206101e06102643560051b01527f9d9af8e38d66c62e2c12f0225249fd9d721c54b83f48d9352c97c6cacdcb6f3160a4359260a061026435026101e00190a360006060526118e56060820161115a6118bf8261152d565b966118cc6080860161152d565b906001600160a01b03809916906101608701358b61569d565b9581019061158b565b9216906147dc565b106118fd57565b60046040517f466aa616000000000000000000000000000000000000000000000000000000008152fd5b601861012435106102643560061b61026001610244351461024061022435146020600435141616161561195657565b60046040517f39f3e3fd000000000000000000000000000000000000000000000000000000008152fd5b507f4e487b7100000000000000000000000000000000000000000000000000000000600052603260045260246000fd5b90156119b95790565b61043d611980565b91908110156119d2575b60061b0190565b6119da611980565b6119cb565b919234936000915b808310611a4257505050828211611a185781611a0291611e97565b808211611a0d575050565b610322910333611e97565b60046040517f1a783b8d000000000000000000000000000000000000000000000000000000008152fd5b909194611a508683856119c1565b90813590808211611a1857611a748260206001950135611a6f8161034b565b611e97565b03950191906119e7565b507f4e487b7100000000000000000000000000000000000000000000000000000000600052601160045260246000fd5b818110611ab9570390565b611ac1611a7e565b0390565b90939291908115611b85579333611ade60a0830161152d565b60e08301359260c08101355b61118b578460051b6101e40335946102008201611b078184611537565b93905060005b848110611b24575050505050956103229596611f2c565b8989858e611b3c85611b368989611537565b906119c1565b803592611b6a575b91611b649391611b5d6110f7602060019998960161152d565b908c611f2c565b01611b0d565b92909493919b8c611b7a91611aae565b9b9193949092611b44565b933394611b918261152d565b6040830135926020810135611aea565b81601f8201121561000e57803591611bb883610324565b92611bc660405194856102d1565b808452602092838086019260051b82010192831161000e578301905b828210611bf0575050505090565b81358152908301908301611be2565b909291611c0b84610324565b91604094611c1b865194856102d1565b839581855260208095019160051b83019380851161000e5783925b858410611c465750505050505050565b67ffffffffffffffff90843582811161000e5786019060a08285031261000e578451611c7181610254565b8235815289830135600281101561000e578a82015285830135868201526060808401359082015260808084013594851161000e57611cb3868c96879601611ba1565b90820152815201930192611c36565b90611cf090610bdf9a99989796959493986001600160a01b03811615600014611cf6575033985b3691611bff565b90612a0b565b98611ce9565b9035907fffffffffffffffffffffffffffffffffffffffffffffffffffffffffffffffe18136030182121561000e570180359067ffffffffffffffff821161000e576020019160a082023603831361000e57565b9035907fffffffffffffffffffffffffffffffffffffffffffffffffffffffffffffffe18136030182121561000e570180359067ffffffffffffffff821161000e576020019160c082023603831361000e57565b600411156107f657565b3561043d8161050f565b6004821015611dc45752565b611dcc6107bc565b52565b949290959391841515600014611e3b5761032296604051967f4ce34aa2000000000000000000000000000000000000000000000000000000008852602060048901526001602489015260448801526064870152608486015260a485015260c484015260e4830152612451565b9291946002919450611e4c816107ec565b03611e8b57600103611e61576103229361504d565b60046040517fefcc00b1000000000000000000000000000000000000000000000000000000008152fd5b9291906103229461515b565b90611ea181611efb565b600080808084865af115611eb3575050565b60449250611ebf612895565b6001600160a01b03604051927f470c7c1d0000000000000000000000000000000000000000000000000000000084521660048301526024820152fd5b15611f0257565b60046040517f91b3e514000000000000000000000000000000000000000000000000000000008152fd5b929193949094611f3b83611efb565b611f4581836122b1565b806120ba575050604051926000947f23b872dd00000000000000000000000000000000000000000000000000000000865280600452816024528260445260208660648180885af1803d15601f3d1160018a51141617163d1515811615611fb4575b505050505050604052606052565b80863b151516611fa657908795969115611ff457602486887f5f15d672000000000000000000000000000000000000000000000000000000008252600452fd5b1561202e57506084947f98891923000000000000000000000000000000000000000000000000000000008552600452602452604452606452fd5b3d61206d575b5060a4947ff486bc8700000000000000000000000000000000000000000000000000000000855260045260245260445281606452608452fd5b601f3d0160051c9060051c9080600302918082116120a1575b505060205a9101106120985785612034565b833d81803e3d90fd5b8080600392028380020360091c92030201018680612086565b9061032295929493916125c0565b959092949391936120d981836122b1565b806120f0575050600103611e61576103229361504d565b9060649593916000979593975060208251146000146121ab5760c0906001906040845260208401527f4ce34aa20000000000000000000000000000000000000000000000000000000060408401526020604484015280888401525b02019360027fffffffffffffffffffffffffffffffffffffffffffffffffffffffffffffffc48601527fffffffffffffffffffffffffffffffffffffffffffffffffffffffffffffffe48501526004840152602483015260448201520152565b5060c0868201600181510180915261214b565b9590919293946121cd86611efb565b6121d781836122b1565b806121e75750506103229461515b565b906064959694939291602082511460001461229e5760c0906001906040845260208401527f4ce34aa20000000000000000000000000000000000000000000000000000000060408401526020604484015280888401525b02019360037fffffffffffffffffffffffffffffffffffffffffffffffffffffffffffffffc48601527fffffffffffffffffffffffffffffffffffffffffffffffffffffffffffffffe48501526004840152602483015260448201520152565b5060c0868201600181510180915261223e565b906020820151036122bf5750565b610322905b60408082510361244d57602082015160c06064840151026044019180519260206001600160a01b036000928184927f00000000000000000000000000000000000000000000000000000000000000001674ff00000000000000000000000000000000000000001783528684527f000000000000000000000000000000000000000000000000000000000000000086526055600b201696855281805284880182885af190519015612402577fffffffff000000000000000000000000000000000000000000000000000000007f4ce34aa2000000000000000000000000000000000000000000000000000000009116036123c05750505060209052565b517f1cf99b2600000000000000000000000000000000000000000000000000000000815260048101919091526001600160a01b03919091166024820152604490fd5b611329848361240f612895565b517fd13d53d40000000000000000000000000000000000000000000000000000000081526001600160a01b0390911660048201529081906024820190565b5050565b6040519160206001600160a01b036101046000938285937f00000000000000000000000000000000000000000000000000000000000000001674ff00000000000000000000000000000000000000001784528685527f00000000000000000000000000000000000000000000000000000000000000006040526055600b20169660405282805282875af190519015612574577fffffffff000000000000000000000000000000000000000000000000000000007f4ce34aa200000000000000000000000000000000000000000000000000000000911603612530575050565b6040517f1cf99b2600000000000000000000000000000000000000000000000000000000815260048101919091526001600160a01b03919091166024820152604490fd5b61132983612580612895565b6040517fd13d53d40000000000000000000000000000000000000000000000000000000081526001600160a01b0390911660048201529081906024820190565b9060649492939160208251146000146126775760c0906001906040845260208401527f4ce34aa20000000000000000000000000000000000000000000000000000000060408401526020604484015280878401525b02019260017fffffffffffffffffffffffffffffffffffffffffffffffffffffffffffffffc48501527fffffffffffffffffffffffffffffffffffffffffffffffffffffffffffffffe484015260048301526024820152600060448201520152565b5060c08582016001815101809152612615565b91909161014081018051917f0000000000000000000000000000000000000000000000000000000000000000604051604083018051928351926020809501906000915b868684106127915750505050506040519160051b8220917f00000000000000000000000000000000000000000000000000000000000000009093606086019481865101906000915b8a831061276d575050505050601f198660051b604051209401978851907f00000000000000000000000000000000000000000000000000000000000000008a5282519383528451958552865261018089209852525252565b838082601f19600194510180519089815260e0812087525201920192019190612715565b8082601f19600194510180519088815260c08120875252019201920191906126cd565b467f0000000000000000000000000000000000000000000000000000000000000000036127ff577f000000000000000000000000000000000000000000000000000000000000000090565b60405160208101907f000000000000000000000000000000000000000000000000000000000000000082527f000000000000000000000000000000000000000000000000000000000000000060408201527f000000000000000000000000000000000000000000000000000000000000000060608201524660808201523060a082015260a0815261288f8161027d565b51902090565b3d61289c57565b601f3d0160051c60405160051c9080600302918082116128cf575b505060205a9101106128c557565b3d6000803e3d6000fd5b8080600392028380020360091c920302010138806128b7565b919082604091031261000e576040516040810181811067ffffffffffffffff821117612922575b6040526020808294803584520135910152565b61292a610224565b61290f565b92919261293b82610324565b60409261294a845192836102d1565b819581835260208093019160061b84019381851161000e57915b84831061297357505050505050565b83869161298084866128e8565b815201920191612964565b9291909261299884610324565b916129a660405193846102d1565b829480845260208094019060051b83019282841161000e5780915b8483106129d057505050505050565b823567ffffffffffffffff811161000e57820184601f8201121561000e578691612a00868385809535910161292f565b8152019201916129c1565b96989792612a268a612a359695612a2d95949998998b612c40565b369161298b565b93369161298b565b908251825191612a4d612a48848461314b565b61366d565b9760009586915b848310612b47575050506000935b838510612abf57505050505080612ab4575b50825115612a8a5782612a8691613b15565b9190565b60046040517fd5da9a1b000000000000000000000000000000000000000000000000000000008152fd5b835103835238612a74565b909192939488612ada84612ad38986612c1e565b518a613745565b8051608001516001600160a01b03166001600160a01b03612b086110f760208501516001600160a01b031690565b911603612b225750506001809101955b0193929190612a62565b8791612b4191612b3a85896001979c01038093612c1e565b528b612c1e565b50612b18565b9091968a612b6583612b5e8b879b98999a9b612c1e565b518c6136c9565b8051608001516001600160a01b03166001600160a01b03612b936110f760208501516001600160a01b031690565b911603612bb05750506001809101975b0191909594939295612a54565b8991612bcd91612bc6856001969d038093612c1e565b528d612c1e565b50612ba3565b90612bdd82610324565b612bea60405191826102d1565b828152601f19612bfa8294610324565b0190602036910137565b602090805115612c12570190565b612c1a611980565b0190565b6020918151811015612c33575b60051b010190565b612c3b611980565b612c2b565b93929091612c4c615008565b845192612c5884612bd3565b9160008352601d604560003560e01c061160011b9060005b868110612d30575050600314612d0657612c8a9086613266565b60005b838110612c9c57505050509050565b80612ca960019284612c1e565b5115612d0157612cfb612cbc8289612c1e565b5151612cc88386612c1e565b519086612cdc82516001600160a01b031690565b60208301516001600160a01b03169060606040850151940151946145e5565b01612c8d565b612cfb565b60046040517f12d3f5a3000000000000000000000000000000000000000000000000000000008152fd5b612d3a818a612c1e565b51918015612ebf57612d4d868685614cb3565b9290916001850189528215612eab57907fffffffffffffffffffffffffffffffffffffffffffffffffffffffffffffffff91612d89868b612c1e565b52019380519260a084015193604060c08201519101518051908560005b838110612e405750505050606080935101519485519560005b878110612dd85750505050505050506001905b01612c70565b808760a0612de860019486612c1e565b5188612e2489898d6080860197612e01895187836131fa565b918701958651908a518214600014612e30575050508085525b80885284516131a0565b90520151905201612dbf565b612e39926131fa565b8552612e1a565b612e4a8184612c1e565b519b8c5115179b86868b60808401938451612e669085896131fa565b60608192019586519881518a1460001499612e919760019b612e9b575050508187525b52845161315f565b9052018690612da6565b612ea4926131fa565b8752612e89565b509360019392506000915060200152612dd2565b91906000602060019301528181018652612dd2565b612edc615008565b805192612ee884612bd3565b92600091828552601d6045843560e01c061160011b90835b878110612f90575050600314612d0657612f1a9083613266565b838110612f275750505050565b80612f3460019285612c1e565b5115612f8b57612f85612f478285612c1e565b5151612f538387612c1e565b5190612f6681516001600160a01b031690565b60208201516001600160a01b0316906060604084015193015193614513565b01612f1a565b612f85565b612f9a8187612c1e565b51918581156130fb5750612faf888685614ee0565b929091600185018b528883156130e95750907fffffffffffffffffffffffffffffffffffffffffffffffffffffffffffffffff91612fed868d612c1e565b52019380519260a084015191604060c0860151950151805190858c5b83811061308f5750505050606090510151938451948a5b86811061303857505050505050506001905b01612f00565b8061304560019284612c1e565b5160a0608082019189613083888b61305f87518d866131fa565b60608601948d8651908a518214600014612e305750505080855280885284516131a0565b90520151905201613020565b6130998184612c1e565b519b8c5115179b868a89608084019384516130b59085896131fa565b60608192019586519881518a14600014996130df9760019b612e9b5750505081875252845161315f565b9052018690613009565b92505093600193925060200152613032565b6020600193929401528181018852613032565b807fffffffffffffffffffffffffffffffffffffffffffffffffffffffffffffffff0482118115151661313f570290565b613147611a7e565b0290565b81198111613157570190565b612c1a611a7e565b909283820361316e5750505090565b82939161318a613196946131909303954203918287039061310e565b9261310e565b9061314b565b9081049015150290565b90928382036131af5750505090565b926131906131cd9261318a856001969703964203918288039061310e565b917fffffffffffffffffffffffffffffffffffffffffffffffffffffffffffffffff830104019015150290565b9190918281146132435782818309613219576132159161310e565b0490565b7fc63cf0890000000000000000000000000000000000000000000000000000000060005260046000fd5b50905090565b600211156107f657565b5161043d816107ec565b611dcc826107ec565b815181519260005b8281106133a45750505060005b82811061328757505050565b6132918183612c1e565b516132c56132b160208301516effffffffffffffffffffffffffffff1690565b6effffffffffffffffffffffffffffff1690565b1561339b5751606081018051519060005b828110613354575050506040809101908151519160005b83811061330257505050506001905b0161327b565b61331f613319613313838551612c1e565b51613253565b60031090565b61332b576001016132ed565b600483517fa6cfc673000000000000000000000000000000000000000000000000000000008152fd5b613365613319613313838551612c1e565b613371576001016132d6565b60046040517fff75a340000000000000000000000000000000000000000000000000000000008152fd5b506001906132fc565b6133ae8183612c1e565b5180519086821015613565576020916133e56132b1846133ce848b612c1e565b5101516effffffffffffffffffffffffffffff1690565b1561355a576133f49087612c1e565b515191604092838301519183015161340b81613249565b61341481613249565b6134e55783015180518210156134bc579061342e91612c1e565b5191600383519361343e856107ec565b84906134558482019160048351981485039061325d565b606085015190525b11156134935750906001929181613478575b50505b0161326e565b61348c91608060608301519201519161358f565b388061346f565b600490517f94eb6af6000000000000000000000000000000000000000000000000000000008152fd5b600484517fbfb3f8ce000000000000000000000000000000000000000000000000000000008152fd5b929060608094015180518210156135315760039161350291612c1e565b5193845194613510866107ec565b85916135278583019260048451991486039061325d565b850151905261345d565b600483517f6088d7de000000000000000000000000000000000000000000000000000000008152fd5b505050600190613472565b60046040517f869586c4000000000000000000000000000000000000000000000000000000008152fd5b91909160009081526020808220928181019282825192600593841b0101915b8285106135eb575050505050036135c157565b60046040517f09bde339000000000000000000000000000000000000000000000000000000008152fd5b8451808711821b968752958418959095526040812094938301936135ae565b604051906060820182811067ffffffffffffffff821117613660575b8060405260408361363683610254565b6000928381528360808301528360a08301528360c08301528360e083015281528260208201520152565b613668610224565b613626565b9061367782610324565b61368460405191826102d1565b828152601f196136948294610324565b019060005b8281106136a557505050565b6020906136b061360a565b82828501015201613699565b906002821015611dc45752565b9092916136d461360a565b93805115613714576136f6926001600160a01b038693166080845101526137e9565b81516060810151156137055750565b60806000918260208601520152565b60246040517f375c24c100000000000000000000000000000000000000000000000000000000815260006004820152fd5b92919061375061360a565b9381511561378d576137639185916139aa565b60208301903382526040840152825190606082015115613781575050565b60009182608092520152565b60246040517f375c24c100000000000000000000000000000000000000000000000000000000815260016004820152fd5b507f7fda72790000000000000000000000000000000000000000000000000000000060005260046000fd5b92919260208201906020825151825181101561399d575b60051b82010151928351926020604085015181835101518151811015613990575b60051b01015160009460208697015161397a575b9061012060609260408b5193805185526020810151602086015201516040840152805160208c0152015160408a01522091805160051b01905b8181106138c1575050505060608293945101526138885750565b60011461389757610322611a7e565b7f91b3e5140000000000000000000000000000000000000000000000000000000060005260046000fd5b60209095949501906020825151855181101561396d575b60051b85010151602081015115613964575160606020604083015181865101518151811015613957575b60051b01015196818801519081158a8381011060011b17179801966000828201522084149060408a0151610120820151149060208b015190511416161561394a575b9061386e565b6139526137be565b613944565b61395f6137be565b613902565b50949394613944565b6139756137be565b6138d8565b6060820180516000909152801597509550613835565b6139986137be565b613821565b6139a56137be565b613800565b9291602080830194855151918151831015613b08575b80600593841b8301015194606093828588510151818b5101518151811015613afb575b831b010151926000968188990151613ae6575b51948451865281850151828701526040850151604087015260a0809501519a608087019b8c52878720948051851b01905b818110613a4257505050505050508394955001526138885750565b83909a999a01908c848351518551811015613ad9575b871b850101518581015115613acf578a869151015181855101518151811015613ac2575b881b0101518a81019b8d8d518091019e8f9115911060011b17179c9b60009052888b822089149251910151141615613ab5575b90613a27565b613abd6137be565b613aaf565b613aca6137be565b613a7c565b5050999899613aaf565b613ae16137be565b613a58565b848701805160009091528015995097506139f6565b613b036137be565b6139e3565b613b106137be565b6139c0565b908151613b2181612bd3565b9260005b828110613be5575050503490613b39611514565b9080519060005b828110613b7457505050613b53906122c4565b80613b64575b5061043d6001600055565b613b6e9033611e97565b38613b59565b613b7e8183612c1e565b518051908151613b8d816107ec565b613b96816107ec565b15613bca575b8560019392826040613bbb6020613bc49601516001600160a01b031690565b91015191613cae565b01613b40565b9560608293920181815111611a185751900395909190613b9c565b613bef8183612c1e565b51613c0f6132b160208301516effffffffffffffffffffffffffffff1690565b15613ca557613c27613c218388612c1e565b60019052565b606080915101519081519160005b838110613c4a57505050506001905b01613b25565b82613c558284612c1e565b51015180613c665750600101613c35565b6040517fa5f542080000000000000000000000000000000000000000000000000000000081526004810187905260248101929092526044820152606490fd5b50600190613c44565b9290918351613cbc816107ec565b613cc5816107ec565b613d1a57505050613ce36110f760208301516001600160a01b031690565b6001600160a01b03604083015191161761118b57806060613d1160806103229401516001600160a01b031690565b91015190611e97565b90919260018151613d2a816107ec565b613d33816107ec565b03613d8357604081015161118b5761032293613d5960208301516001600160a01b031690565b906001600160a01b036060613d7860808601516001600160a01b031690565b940151931691611f2c565b9260028451613d91816107ec565b613d9a816107ec565b03613de05783613db760206103229601516001600160a01b031690565b60808201516001600160a01b0316926001600160a01b03606060408501519401519416916120c8565b83613df860206103229601516001600160a01b031690565b60808201516001600160a01b0316926001600160a01b03606060408501519401519416916121be565b90613e33909493929482519083612ed4565b613e3c8261366d565b9160009485915b808310613e705750505090613e619184829495613e65575b50613b15565b5090565b825103825238613e5b565b909195613e7e878385613f13565b613ea4613e8b8280611537565b90613e9b60209485810190611537565b92909189613f6c565b906001600160a01b03613ed96110f7613ec960808651016001600160a01b0390511690565b938501516001600160a01b031690565b911603613ef057506001809101965b019190613e43565b96613f0d8298600193830390613f06828a612c1e565b5287612c1e565b50613ee8565b9190811015613f54575b60051b810135907fffffffffffffffffffffffffffffffffffffffffffffffffffffffffffffffc18136030182121561000e570190565b613f5c611980565b613f1d565b61043d9036906128e8565b92909391613f7861360a565b948115801561415e575b61413457613f8e61360a565b613fa381613f9d36888861292f565b886139aa565b5191613fba87613fb436848661292f565b886137e9565b613fc48751613253565b835190613fd0826107ec565b613fd9826107ec565b613fe2816107ec565b148015906140fc575b80156140e9575b6140bf5761043d9561406f95608095896060948588019687518784510151106000146140825750505061403161402c8593614057936119b0565b613f61565b60208361404a8d828a5191510151900396845190612c1e565b5151015191015190612c1e565b5101528651015190525b01516001600160a01b031690565b6080835101906001600160a01b03169052565b86979694506140b1935061404a856140a161402c6020956040956119b0565b9451015188518551910397612c1e565b510152519086510152614061565b60046040517f09cfb455000000000000000000000000000000000000000000000000000000008152fd5b5060408751015160408401511415613ff2565b508651602001516001600160a01b03166001600160a01b0361412b6110f760208701516001600160a01b031690565b91161415613feb565b60046040517f98e9db6e000000000000000000000000000000000000000000000000000000008152fd5b508315613f82565b6040519061417382610254565b604051608083610160830167ffffffffffffffff8111848210176141f0575b6040526000808452806020850152606093846040820152848082015281848201528160a08201528160c08201528160e08201528161010082015281610120820152816101408201528252806020830152604082015282808201520152565b6141f8610224565b614192565b909291614208615017565b600260005561421784836148c0565b9490919260405195614228876102b5565b6001875260005b6020808210156142515790602091614245614166565b90828b0101520161422f565b505061428583959761428061429e9a61428e97998351156142ba575b60208401528251156142ad575b82613266565b612c04565b515195866142c7565b81516001600160a01b0316612cdc565b6142a86001600055565b600190565b6142b5611980565b61427a565b6142c2611980565b61426d565b939192909360a093848201519360c0830151966142e2611514565b96604092838601908151519160005b8381106143d7575050505034986060809601978851519860005b8a8110614338575050505050505050505050614326906122c4565b8061432e5750565b6103229033611e97565b614343818351612c1e565b51898101805161435d87878d8c60808801958651906144a1565b8092528783015190528151614371816107ec565b61437a816107ec565b15614397575b50906143918d8c6001943390613cae565b0161430b565b90919e9d8082116143ae579d9e9d039c908a614380565b600489517f1a783b8d000000000000000000000000000000000000000000000000000000008152fd5b6143e2818351612c1e565b5180516143ee816107ec565b6143f7816107ec565b15614441579061443b8d8f93868f8d6144236001988e936060870193845195608089019687519061446a565b9052528c610120613bbb82516001600160a01b031690565b016142f1565b600488517f12d3f5a3000000000000000000000000000000000000000000000000000000008152fd5b90939084810361448057505061043d93506131fa565b938361449561043d979661449b9496866131fa565b936131fa565b9061315f565b9093908481036144b757505061043d93506131fa565b938361449561043d97966144cc9496866131fa565b906131a0565b90815180825260208080930193019160005b8281106144f2575050505090565b909192938260a08261450760019489516107fe565b019501939291016144e4565b91939290936040805193608091828601918652602090600082880152838188015285518093528160a088019601936000915b84831061459a5750505050505091614595827f9d9af8e38d66c62e2c12f0225249fd9d721c54b83f48d9352c97c6cacdcb6f31948380950360608501526001600160a01b038091169716956144d2565b0390a3565b90919293949684836001928a5180516145b2816107ec565b8252808401516001600160a01b031684830152858101518683015260609081015190820152019801959493019190614545565b92909493916040918251946080918287019187526001600160a01b0394856020921682890152838189015286518093528160a089019701936000915b84831061466a57505050505050828285949361459593867f9d9af8e38d66c62e2c12f0225249fd9d721c54b83f48d9352c97c6cacdcb6f319896036060870152169716956144d2565b90919293949784836001928b518051614682816107ec565b8252808401518c1684830152858101518683015260609081015190820152019901959493019190614621565b9035907ffffffffffffffffffffffffffffffffffffffffffffffffffffffffffffffea18136030182121561000e570190565b6146e9614166565b506147336147056146fa83806146ae565b92602081019061158b565b61471c6040519461471586610254565b3690610524565b845260016020850152600160408501523691610608565b606082015260405161474481610299565b60008152608082015290565b61475982610324565b9161476760405193846102d1565b808352601f1961477682610324565b0160005b8181106147c557505060005b8181106147935750505090565b806147a96147a46001938587613f13565b6146e1565b6147b38287612c1e565b526147be8186612c1e565b5001614786565b6020906147d0614166565b8282880101520161477a565b929190836000526002602052604060002091825460ff8160081c1661487b576effffffffffffffffffffffffffffff8160101c1661484a579460ff7101000000000000000000000000000001000195961615614839575b50505055565b61484292615303565b388080614833565b602486604051907fee9e0e630000000000000000000000000000000000000000000000000000000082526004820152fd5b602486604051907f1a5155740000000000000000000000000000000000000000000000000000000082526004820152fd5b90805b6148b7575090565b809106806148af565b90918151926148db610c7260a086015160c087015190615296565b614ca7576148fe6132b160208501516effffffffffffffffffffffffffffff1690565b9361491e6132b160408601516effffffffffffffffffffffffffffff1690565b948581118015614c9f575b614c755785811080614c5d575b614c335761498261494683614fa9565b9360e0840151608085015161495a81611da4565b85516001600160a01b0316918761497b60208901516001600160a01b031690565b948b615cc1565b614996836000526002602052604060002090565b916149a4610c7284866155a2565b614c23578254958460ff881615614bfc575b5050506effffffffffffffffffffffffffffff90818660101c169560881c96871515600014614b7f5760018103614b4757505085945b856149f7888361314b565b11614b3d575b86614a079161314b565b8082871183831117614ad6575b5090614a8f818493614a4e614ad19660017fffffffffffffffffffffffffffffffffffffffffffffffffffffffffffffff00825416179055565b84547fffffffffffffffffffffffffffffff00000000000000000000000000000000ff16911660101b70ffffffffffffffffffffffffffffff000016178355565b815470ffffffffffffffffffffffffffffffffff1690861660881b7fffffffffffffffffffffffffffffff000000000000000000000000000000000016179055565b929190565b9690614ae987614aef92989594986148ac565b826148ac565b80150180809204970492049480861181841117614b0e57909138614a14565b7f4e487b7100000000000000000000000000000000000000000000000000000000600052601160045260246000fd5b80860396506149fd565b959096868103614b58575b506149ec565b614b7281614b6c89614b78959b9a9b61310e565b9861310e565b9761310e565b9438614b52565b9550955090614ad191614bb78260017fffffffffffffffffffffffffffffffffffffffffffffffffffffffffffffff00825416179055565b81547fffffffffffffffffffffffffffffff00000000000000000000000000000000ff1687821660101b70ffffffffffffffffffffffffffffff000016178255614a8f565b6060614c12614c1b94516001600160a01b031690565b92015191615303565b3880846149b6565b5050509150915090600090600090565b60046040517fa11b63ff000000000000000000000000000000000000000000000000000000008152fd5b5060016080830151614c6e81611da4565b1615614936565b60046040517f5a052b32000000000000000000000000000000000000000000000000000000008152fd5b508015614929565b50600092508291508190565b919290928251614ccf610c7260a083015160c0840151906152df565b614ed057614cf26132b160208601516effffffffffffffffffffffffffffff1690565b614d116132b160408701516effffffffffffffffffffffffffffff1690565b958682118015614ec8575b614c755786821080614eb0575b614c3357614d7d90614d3a84614fa9565b9460e0850151608086015190614d4f82611da4565b87614d6188516001600160a01b031690565b93614d7660208a01516001600160a01b031690565b958c615da2565b614d91836000526002602052604060002090565b91614d9f610c728486615645565b614c23578254958460ff881615614e92575b5050506effffffffffffffffffffffffffffff90818660101c169560881c96871515600014614b7f5760018103614e6657505085945b85614df2888361314b565b11614e5c575b86614e029161314b565b8082871183821117614e48575090614a8f818493614a4e614ad19660017fffffffffffffffffffffffffffffffffffffffffffffffffffffffffffffff00825416179055565b969050614aef614ae98789989594986148ac565b8086039650614df8565b959096868103614e77575b50614de7565b614b7281614b6c89614e8b959b9a9b61310e565b9438614e71565b6060614c12614ea894516001600160a01b031690565b388084614db1565b5060016080840151614ec181611da4565b1615614d29565b508115614d1c565b5050915050600090600090600090565b919290928251614efc610c7260a083015160c084015190615296565b614ed057614f1f6132b160208601516effffffffffffffffffffffffffffff1690565b614f3e6132b160408701516effffffffffffffffffffffffffffff1690565b958682118015614fa1575b614c755786821080614f89575b614c3357614f6790614d3a84614fa9565b614f7b836000526002602052604060002090565b91614d9f610c7284866155a2565b5060016080840151614f9a81611da4565b1615614f56565b508115614f49565b61043d90614fc2606082015151610140830151906118f6565b80516001600160a01b03166000908152600160205260409020549061268a565b909161043d92811015614ffb575b60051b8101906146ae565b615003611980565b614ff0565b615010615017565b6002600055565b60016000540361502357565b60046040517f7fa8a987000000000000000000000000000000000000000000000000000000008152fd5b9092813b1561512d57604051926000947f23b872dd000000000000000000000000000000000000000000000000000000008652806004528160245282604452858060648180885af1156150a65750505050604052606052565b8593943d6150e9575b5060a4947ff486bc870000000000000000000000000000000000000000000000000000000085526004526024526044526064526001608452fd5b601f3d0160051c9060051c908060030291808211615114575b505060205a91011061209857856150af565b8080600392028380020360091c92030201018680615102565b507f5f15d6720000000000000000000000000000000000000000000000000000000060005260045260246000fd5b929093833b1561526857604051936080519160a0519360c051956000987ff242432a000000000000000000000000000000000000000000000000000000008a528060045281602452826044528360645260a06084528960a452898060c48180895af1156151d857505050505060805260a05260c052604052606052565b89949550883d61521b575b5060a4957ff486bc87000000000000000000000000000000000000000000000000000000008652600452602452604452606452608452fd5b601f3d0160051c9060051c90806003029180821161524f575b505060205a91011061524657866151e3565b843d81803e3d90fd5b8080600392028380020360091c92030201018780615234565b837f5f15d6720000000000000000000000000000000000000000000000000000000060005260045260246000fd5b42109081156152d4575b506152aa57600190565b60046040517f6f7eac26000000000000000000000000000000000000000000000000000000008152fd5b9050421015386152a0565b42109081156152f8575b506152f357600190565b600090565b9050421015386152e9565b9091336001600160a01b0383161461559d5761531d6127b4565b926000937f190100000000000000000000000000000000000000000000000000000000000085526002526022526042832090836022528380528392815191601f198101805184604103918860018411938415615532575b508514851515169788156153c3575b5050505050505050156153935750565b60049061539e612895565b7f4f7fb80d000000000000000000000000000000000000000000000000000000008152fd5b909192939495969750604082527fffffffffffffffffffffffffffffffffffffffffffffffffffffffffffffffbc8501937fffffffffffffffffffffffffffffffffffffffffffffffffffffffffffffffc0855196019660208b60648a519b7f1626ba7e000000000000000000000000000000000000000000000000000000009d8e8b528c520188845afa998a615469575b505050505252523880808080808080615383565b8b51036154765780615455565b908a913b61550a576154e257640101000000821a156154b757807f815e1d640000000000000000000000000000000000000000000000000000000060049252fd5b6024917f1f003d0a000000000000000000000000000000000000000000000000000000008252600452fd5b807f8baa579f0000000000000000000000000000000000000000000000000000000060049252fd5b6004827f4f7fb80d000000000000000000000000000000000000000000000000000000008152fd5b9850506040840180519060608601518b1a99615569575b89865288835260208b60808560015afa5083835287865252885138615374565b9850601b8160ff1c01987f7fffffffffffffffffffffffffffffffffffffffffffffffffffffffffffffff82168152615549565b505050565b905460ff8160081c16615614576effffffffffffffffffffffffffffff8160101c1690816155d3575b505050600190565b60881c11156155e35780806155cb565b602490604051907f10fda3e10000000000000000000000000000000000000000000000000000000082526004820152fd5b602482604051907f1a5155740000000000000000000000000000000000000000000000000000000082526004820152fd5b906000905460ff8160081c16615694576effffffffffffffffffffffffffffff8160101c16908161567a575b50505050600190565b60881c111561568a578080615671565b6155e35750600090565b50905050600090565b90929160019060048110156156fd575b11806156ea575b806156d7575b6156c5575b50505050565b6156ce9361570a565b388080806156bf565b506001600160a01b0382163314156156ba565b506001600160a01b0384163314156156b4565b6157056107bc565b6156ad565b6000919290829161032295604051906001600160a01b0360208301937f0e1d31dc00000000000000000000000000000000000000000000000000000000855288602485015233604485015216606483015260848201526084815261576d8161027d565b51915afa615e78565b90815180825260208080930193019160005b828110615796575050505090565b909192938260a0600192875180516157ad816107ec565b8252808401516001600160a01b03168483015260408082015190830152606080820151908301526080908101519082015201950193929101615788565b90815180825260208080930193019160005b82811061580a575050505090565b909192938260c060019287518051615821816107ec565b8252808401516001600160a01b039081168584015260408083015190840152606080830151908401526080808301519084015260a0918201511690820152019501939291016157fc565b906004821015611dc45752565b6060519081815260208091019160809160005b828110615899575050505090565b83518552938101939281019260010161588b565b90815180825260208080930193019160005b8281106158cd575050505090565b8351855293810193928101926001016158bf565b90815180825260208092019182818360051b85019501936000915b84831061590c5750505050505090565b909192939495848061595e83856001950387528a518051825261593584820151858401906136bc565b60408082015190830152606080820151908301526080809101519160a0809282015201906158ad565b98019301930191949392906158fc565b92615b02906001600160a01b0361043d9694615b0f94875216602086015260a06040860152805160a080870152610140906159b482880182516001600160a01b03169052565b6080615af1615a286159f38a6159dc6020870151610160809301906001600160a01b03169052565b6040860151906101808d01526102a08c0190615776565b60608501517ffffffffffffffffffffffffffffffffffffffffffffffffffffffffffffffec08c8303016101a08d01526157ea565b615a3a838501516101c08c019061586b565b60a08401516101e08b015260c08401516102008b015260e08401516102208b015261010094858501516102408c015261012094858101516102608d015201516102808b0152615aa1602087015160c08c01906effffffffffffffffffffffffffffff169052565b60408601516effffffffffffffffffffffffffffff1660e08b015260608601517fffffffffffffffffffffffffffffffffffffffffffffffffffffffffffffff6095868c840301908c0152610148565b930151918784030190870152610148565b8381036060850152615878565b9160808184039101526158e1565b939061043d95936001600160a01b03615b0f94615cb393885216602087015260a06040870152805160a08088015261014090615b6482890182516001600160a01b03169052565b6080615ca2615bd8615ba38b6020860151615b8d61016091828401906001600160a01b03169052565b61018060408801519201526102a08d0190615776565b60608501518c82037ffffffffffffffffffffffffffffffffffffffffffffffffffffffffffffffec0016101a08e01526157ea565b615bea838501516101c08d019061586b565b60a08401516101e08c015260c08401516102008c015260e08401516102208c015261010094858501516102408d0152610120948c6102608783015191015201516102808c0152615c52602087015160c08d01906effffffffffffffffffffffffffffff169052565b60408601516effffffffffffffffffffffffffffff1660e08c015260608601517fffffffffffffffffffffffffffffffffffffffffffffffffffffffffffffff6095868d840301908d0152610148565b930151918884030190880152610148565b9084820360608601526158ad565b909591929493600190615cd381611da4565b1180615d8f575b80615d7c575b615ced575b505050505050565b6080810151511580615d73575b15615d155750615d0a945061570a565b388080808080615ce5565b6000935083929450615d6061576d615d6e9760405192839160208301957f33131570000000000000000000000000000000000000000000000000000000008752338b6024860161596e565b03601f1981018352826102d1565b615d0a565b50855115615cfa565b506001600160a01b038416331415615ce0565b506001600160a01b038216331415615cda565b919692939594600190615db481611da4565b1180615e65575b80615e52575b615dcf575b50505050505050565b6080820151511580615e49575b15615df9575050615ded945061570a565b38808080808080615dc6565b600094508493955061576d615e4497615d6060405193849260208401967f33131570000000000000000000000000000000000000000000000000000000008852338c60248701615b1d565b615ded565b50805115615ddc565b506001600160a01b038516331415615dc1565b506001600160a01b038316331415615dbb565b15615f0f577f0e1d31dc000000000000000000000000000000000000000000000000000000007fffffffff00000000000000000000000000000000000000000000000000000000600060203d14615f04575b1603615ed35750565b602490604051907ffb5014fc0000000000000000000000000000000000000000000000000000000082526004820152fd5b602081803e51615eca565b602490615f1a612895565b604051907ffb5014fc0000000000000000000000000000000000000000000000000000000082526004820152fdfea26469706673582212209177a9398263fd39986bf51ffce37520ec7ad3d626c4e5ec68078d19dab2648164736f6c634300080e0033",
  "devdoc": {
    "author": "0age (0age.eth)",
    "custom:coauthor": "d1ll0n (d1ll0n.eth)transmissions11 (t11s.eth)",
    "custom:contributor": "Kartik (slokh.eth)LeFevre (lefevre.eth)Joseph Schiarizzi (CupOJoseph.eth)Aspyn Palatnick (stuckinaboot.eth)James Wenzel (emo.eth)Stephan Min (stephanm.eth)Ryan Ghods (ralxz.eth)hack3r-0m (hack3r-0m.eth)Diego Estevez (antidiego.eth)Chomtana (chomtana.eth)Saw-mon and Natalie (sawmonandnatalie.eth)0xBeans (0xBeans.eth)0x4non (punkdev.eth)Laurence E. Day (norsefire.eth)vectorized.eth (vectorized.eth)karmacoma (karmacoma.eth)horsefacts (horsefacts.eth)UncarvedBlock (uncarvedblock.eth)Zoraiz Mahmood (zorz.eth)William Poulin (wpoulin.eth)Rajiv Patel-O'Connor (rajivpoc.eth)tserg (tserg.eth)cygaar (cygaar.eth)Meta0xNull (meta0xnull.eth)gpersoon (gpersoon.eth)Matt Solomon (msolomon.eth)Weikang Song (weikangs.eth)zer0dot (zer0dot.eth)Mudit Gupta (mudit.eth)leonardoalt (leoalt.eth)cmichel (cmichel.eth)PraneshASP (pranesh.eth)JasperAlexander (jasperalexander.eth)Ellahi (ellahi.eth)zaz (1zaz1.eth)berndartmueller (berndartmueller.eth)dmfxyz (dmfxyz.eth)daltoncoder (dontkillrobots.eth)0xf4ce (0xf4ce.eth)phaze (phaze.eth)hrkrshnn (hrkrshnn.eth)axic (axic.eth)leastwood (leastwood.eth)0xsanson (sanson.eth)blockdev (blockd3v.eth)fiveoutofnine (fiveoutofnine.eth)shuklaayush (shuklaayush.eth)0xPatissierpcaversaccioDavid Eibercsanuragjainsach1r0twojoy0ori_dabushDaniel GelfandokkothejawaFlameHorizonvdrgdmitriiabokeh-ethasutorufosrfart(rfa)Riley Holterhusbig-tech-sux",
    "custom:version": "1.1",
    "errors": {
      "BadContractSignature()": [
        {
          "details": "Revert with an error when an EIP-1271 call to an account fails."
        }
      ],
      "BadFraction()": [
        {
          "details": "Revert with an error when supplying a fraction with a value of zero      for the numerator or denominator, or one where the numerator exceeds      the denominator."
        }
      ],
      "BadReturnValueFromERC20OnTransfer(address,address,address,uint256)": [
        {
          "details": "Revert with an error when an ERC20 token transfer returns a falsey      value.",
          "params": {
            "amount": "The amount for the attempted ERC20 transfer.",
            "from": "The source of the attempted ERC20 transfer.",
            "to": "The recipient of the attempted ERC20 transfer.",
            "token": "The token for which the ERC20 transfer was attempted."
          }
        }
      ],
      "BadSignatureV(uint8)": [
        {
          "details": "Revert with an error when a signature that does not contain a v      value of 27 or 28 has been supplied.",
          "params": {
            "v": "The invalid v value."
          }
        }
      ],
      "ConsiderationCriteriaResolverOutOfRange()": [
        {
          "details": "Revert with an error when providing a criteria resolver that refers      to an order with a consideration item that has not been supplied."
        }
      ],
      "ConsiderationNotMet(uint256,uint256,uint256)": [
        {
          "details": "Revert with an error if a consideration amount has not been fully      zeroed out after applying all fulfillments.",
          "params": {
            "considerationIndex": "The index of the consideration item on the                           order.",
            "orderIndex": "The index of the order with the consideration                           item with a shortfall.",
            "shortfallAmount": "The unfulfilled consideration amount."
          }
        }
      ],
      "CriteriaNotEnabledForItem()": [
        {
          "details": "Revert with an error when providing a criteria resolver that refers      to an order with an item that does not expect a criteria to be      resolved."
        }
      ],
      "ERC1155BatchTransferGenericFailure(address,address,address,uint256[],uint256[])": [
        {
          "details": "Revert with an error when a batch ERC1155 token transfer reverts.",
          "params": {
            "amounts": "The amounts for the attempted transfer.",
            "from": "The source of the attempted transfer.",
            "identifiers": "The identifiers for the attempted transfer.",
            "to": "The recipient of the attempted transfer.",
            "token": "The token for which the transfer was attempted."
          }
        }
      ],
      "EtherTransferGenericFailure(address,uint256)": [
        {
          "details": "Revert with an error when an ether transfer reverts."
        }
      ],
      "InexactFraction()": [
        {
          "details": "Revert with an error when attempting to apply a fraction as part of      a partial fill that does not divide the target amount cleanly."
        }
      ],
      "InsufficientEtherSupplied()": [
        {
          "details": "Revert with an error when insufficient ether is supplied as part of      msg.value when fulfilling orders."
        }
      ],
      "Invalid1155BatchTransferEncoding()": [
        {
          "details": "Revert with an error when attempting to execute an 1155 batch      transfer using calldata not produced by default ABI encoding or with      different lengths for ids and amounts arrays."
        }
      ],
      "InvalidBasicOrderParameterEncoding()": [
        {
          "details": "Revert with an error when attempting to fill a basic order using      calldata not produced by default ABI encoding."
        }
      ],
      "InvalidCallToConduit(address)": [
        {
          "details": "Revert with an error when a call to a conduit fails with revert data      that is too expensive to return."
        }
      ],
      "InvalidCanceller()": [
        {
          "details": "Revert with an error when attempting to cancel an order as a caller      other than the indicated offerer or zone."
        }
      ],
      "InvalidConduit(bytes32,address)": [
        {
          "details": "Revert with an error when attempting to fill an order referencing an      invalid conduit (i.e. one that has not been deployed)."
        }
      ],
      "InvalidERC721TransferAmount()": [
        {
          "details": "Revert with an error when an ERC721 transfer with amount other than      one is attempted."
        }
      ],
      "InvalidFulfillmentComponentData()": [
        {
          "details": "Revert with an error when an order or item index are out of range      or a fulfillment component does not match the type, token,      identifier, or conduit preference of the initial consideration item."
        }
      ],
      "InvalidMsgValue(uint256)": [
        {
          "details": "Revert with an error when a caller attempts to supply callvalue to a      non-payable basic order route or does not supply any callvalue to a      payable basic order route."
        }
      ],
      "InvalidNativeOfferItem()": [
        {
          "details": "Revert with an error when attempting to fulfill an order with an      offer for ETH outside of matching orders."
        }
      ],
      "InvalidProof()": [
        {
          "details": "Revert with an error when providing a criteria resolver that      contains an invalid proof with respect to the given item and      chosen identifier."
        }
      ],
      "InvalidRestrictedOrder(bytes32)": [
        {
          "details": "Revert with an error when attempting to fill an order that specifies      a restricted submitter as its order type when not submitted by      either the offerer or the order's zone or approved as valid by the      zone in question via a staticcall to `isValidOrder`.",
          "params": {
            "orderHash": "The order hash for the invalid restricted order."
          }
        }
      ],
      "InvalidSignature()": [
        {
          "details": "Revert with an error when a signer cannot be recovered from the      supplied signature."
        }
      ],
      "InvalidSigner()": [
        {
          "details": "Revert with an error when the signer recovered by the supplied      signature does not match the offerer or an allowed EIP-1271 signer      as specified by the offerer in the event they are a contract."
        }
      ],
      "InvalidTime()": [
        {
          "details": "Revert with an error when attempting to fill an order outside the      specified start time and end time."
        }
      ],
      "MismatchedFulfillmentOfferAndConsiderationComponents()": [
        {
          "details": "Revert with an error when the initial offer item named by a      fulfillment component does not match the type, token, identifier,      or conduit preference of the initial consideration item."
        }
      ],
      "MissingFulfillmentComponentOnAggregation(uint8)": [
        {
          "details": "Revert with an error when a fulfillment is provided that does not      declare at least one component as part of a call to fulfill      available orders."
        }
      ],
      "MissingItemAmount()": [
        {
          "details": "Revert with an error when attempting to fulfill an order where an      item has an amount of zero."
        }
      ],
      "MissingOriginalConsiderationItems()": [
        {
          "details": "Revert with an error when an order is supplied for fulfillment with      a consideration array that is shorter than the original array."
        }
      ],
      "NoContract(address)": [
        {
          "details": "Revert with an error when an account being called as an assumed      contract does not have code and returns no data.",
          "params": {
            "account": "The account that should contain code."
          }
        }
      ],
      "NoReentrantCalls()": [
        {
          "details": "Revert with an error when a caller attempts to reenter a protected      function."
        }
      ],
      "NoSpecifiedOrdersAvailable()": [
        {
          "details": "Revert with an error when attempting to fulfill any number of      available orders when none are fulfillable."
        }
      ],
      "OfferAndConsiderationRequiredOnFulfillment()": [
        {
          "details": "Revert with an error when a fulfillment is provided that does not      declare at least one offer component and at least one consideration      component."
        }
      ],
      "OfferCriteriaResolverOutOfRange()": [
        {
          "details": "Revert with an error when providing a criteria resolver that refers      to an order with an offer item that has not been supplied."
        }
      ],
      "OrderAlreadyFilled(bytes32)": [
        {
          "details": "Revert with an error when attempting to fill an order that has      already been fully filled.",
          "params": {
            "orderHash": "The order hash on which a fill was attempted."
          }
        }
      ],
      "OrderCriteriaResolverOutOfRange()": [
        {
          "details": "Revert with an error when providing a criteria resolver that refers      to an order that has not been supplied."
        }
      ],
      "OrderIsCancelled(bytes32)": [
        {
          "details": "Revert with an error when attempting to fill an order that has been      cancelled.",
          "params": {
            "orderHash": "The hash of the cancelled order."
          }
        }
      ],
      "OrderPartiallyFilled(bytes32)": [
        {
          "details": "Revert with an error when attempting to fill a basic order that has      been partially filled.",
          "params": {
            "orderHash": "The hash of the partially used order."
          }
        }
      ],
      "PartialFillsNotEnabledForOrder()": [
        {
          "details": "Revert with an error when a partial fill is attempted on an order      that does not specify partial fill support in its order type."
        }
      ],
      "TokenTransferGenericFailure(address,address,address,uint256,uint256)": [
        {
          "details": "Revert with an error when an ERC20, ERC721, or ERC1155 token      transfer reverts.",
          "params": {
            "amount": "The amount for the attempted transfer.",
            "from": "The source of the attempted transfer.",
            "identifier": "The identifier for the attempted transfer.",
            "to": "The recipient of the attempted transfer.",
            "token": "The token for which the transfer was attempted."
          }
        }
      ],
      "UnresolvedConsiderationCriteria()": [
        {
          "details": "Revert with an error if a consideration item still has unresolved      criteria after applying all criteria resolvers."
        }
      ],
      "UnresolvedOfferCriteria()": [
        {
          "details": "Revert with an error if an offer item still has unresolved criteria      after applying all criteria resolvers."
        }
      ],
      "UnusedItemParameters()": [
        {
          "details": "Revert with an error when attempting to fulfill an order where an      item has unused parameters. This includes both the token and the      identifier parameters for native transfers as well as the identifier      parameter for ERC20 transfers. Note that the conduit does not      perform this check, leaving it up to the calling channel to enforce      when desired."
        }
      ]
    },
    "kind": "dev",
    "methods": {
      "cancel((address,address,(uint8,address,uint256,uint256,uint256)[],(uint8,address,uint256,uint256,uint256,address)[],uint8,uint256,uint256,bytes32,uint256,bytes32,uint256)[])": {
        "params": {
          "orders": "The orders to cancel."
        },
        "returns": {
          "cancelled": "A boolean indicating whether the supplied orders have                   been successfully cancelled."
        }
      },
      "constructor": {
        "params": {
          "conduitController": "A contract that deploys conduits, or proxies                          that may optionally be used to transfer approved                          ERC20/721/1155 tokens."
        }
      },
      "fulfillAdvancedOrder(((address,address,(uint8,address,uint256,uint256,uint256)[],(uint8,address,uint256,uint256,uint256,address)[],uint8,uint256,uint256,bytes32,uint256,bytes32,uint256),uint120,uint120,bytes,bytes),(uint256,uint8,uint256,uint256,bytes32[])[],bytes32,address)": {
        "params": {
          "advancedOrder": "The order to fulfill along with the fraction                            of the order to attempt to fill. Note that                            both the offerer and the fulfiller must first                            approve this contract (or their conduit if                            indicated by the order) to transfer any                            relevant tokens on their behalf and that                            contracts must implement `onERC1155Received`                            to receive ERC1155 tokens as consideration.                            Also note that all offer and consideration                            components must have no remainder after                            multiplication of the respective amount with                            the supplied fraction for the partial fill to                            be considered valid.",
          "criteriaResolvers": "An array where each element contains a                            reference to a specific offer or                            consideration, a token identifier, and a proof                            that the supplied token identifier is                            contained in the merkle root held by the item                            in question's criteria element. Note that an                            empty criteria indicates that any                            (transferable) token identifier on the token                            in question is valid and that no associated                            proof needs to be supplied.",
          "fulfillerConduitKey": "A bytes32 value indicating what conduit, if                            any, to source the fulfiller's token approvals                            from. The zero hash signifies that no conduit                            should be used (and direct approvals set on                            Consideration).",
          "recipient": "The intended recipient for all received items,                            with `address(0)` indicating that the caller                            should receive the items."
        },
        "returns": {
          "fulfilled": "A boolean indicating whether the order has been                   successfully fulfilled."
        }
      },
      "fulfillAvailableAdvancedOrders(((address,address,(uint8,address,uint256,uint256,uint256)[],(uint8,address,uint256,uint256,uint256,address)[],uint8,uint256,uint256,bytes32,uint256,bytes32,uint256),uint120,uint120,bytes,bytes)[],(uint256,uint8,uint256,uint256,bytes32[])[],(uint256,uint256)[][],(uint256,uint256)[][],bytes32,address,uint256)": {
        "params": {
          "advancedOrders": "The orders to fulfill along with the                                  fraction of those orders to attempt to                                  fill. Note that both the offerer and the                                  fulfiller must first approve this                                  contract (or their conduit if indicated                                  by the order) to transfer any relevant                                  tokens on their behalf and that                                  contracts must implement                                  `onERC1155Received` in order to receive                                  ERC1155 tokens as consideration. Also                                  note that all offer and consideration                                  components must have no remainder after                                  multiplication of the respective amount                                  with the supplied fraction for an                                  order's partial fill amount to be                                  considered valid.",
          "considerationFulfillments": "An array of FulfillmentComponent arrays                                  indicating which consideration items to                                  attempt to aggregate when preparing                                  executions.",
          "criteriaResolvers": "An array where each element contains a                                  reference to a specific offer or                                  consideration, a token identifier, and a                                  proof that the supplied token identifier                                  is contained in the merkle root held by                                  the item in question's criteria element.                                  Note that an empty criteria indicates                                  that any (transferable) token                                  identifier on the token in question is                                  valid and that no associated proof needs                                  to be supplied.",
          "fulfillerConduitKey": "A bytes32 value indicating what conduit,                                  if any, to source the fulfiller's token                                  approvals from. The zero hash signifies                                  that no conduit should be used (and                                  direct approvals set on Consideration).",
          "maximumFulfilled": "The maximum number of orders to fulfill.",
          "offerFulfillments": "An array of FulfillmentComponent arrays                                  indicating which offer items to attempt                                  to aggregate when preparing executions.",
          "recipient": "The intended recipient for all received                                  items, with `address(0)` indicating that                                  the caller should receive the items."
        },
        "returns": {
          "availableOrders": "An array of booleans indicating if each order                         with an index corresponding to the index of the                         returned boolean was fulfillable or not.",
          "executions": "     An array of elements indicating the sequence of                         transfers performed as part of matching the given                         orders."
        }
      },
      "fulfillAvailableOrders(((address,address,(uint8,address,uint256,uint256,uint256)[],(uint8,address,uint256,uint256,uint256,address)[],uint8,uint256,uint256,bytes32,uint256,bytes32,uint256),bytes)[],(uint256,uint256)[][],(uint256,uint256)[][],bytes32,uint256)": {
        "params": {
          "considerationFulfillments": "An array of FulfillmentComponent arrays                                  indicating which consideration items to                                  attempt to aggregate when preparing                                  executions.",
          "fulfillerConduitKey": "A bytes32 value indicating what conduit,                                  if any, to source the fulfiller's token                                  approvals from. The zero hash signifies                                  that no conduit should be used (and                                  direct approvals set on Consideration).",
          "maximumFulfilled": "The maximum number of orders to fulfill.",
          "offerFulfillments": "An array of FulfillmentComponent arrays                                  indicating which offer items to attempt                                  to aggregate when preparing executions.",
          "orders": "The orders to fulfill. Note that both                                  the offerer and the fulfiller must first                                  approve this contract (or the                                  corresponding conduit if indicated) to                                  transfer any relevant tokens on their                                  behalf and that contracts must implement                                  `onERC1155Received` to receive ERC1155                                  tokens as consideration."
        },
        "returns": {
          "availableOrders": "An array of booleans indicating if each order                         with an index corresponding to the index of the                         returned boolean was fulfillable or not.",
          "executions": "     An array of elements indicating the sequence of                         transfers performed as part of matching the given                         orders."
        }
      },
      "fulfillBasicOrder((address,uint256,uint256,address,address,address,uint256,uint256,uint8,uint256,uint256,bytes32,uint256,bytes32,bytes32,uint256,(uint256,address)[],bytes))": {
        "params": {
          "parameters": "Additional information on the fulfilled order. Note                   that the offerer and the fulfiller must first approve                   this contract (or their chosen conduit if indicated)                   before any tokens can be transferred. Also note that                   contract recipients of ERC1155 consideration items must                   implement `onERC1155Received` in order to receive those                   items."
        },
        "returns": {
          "fulfilled": "A boolean indicating whether the order has been                   successfully fulfilled."
        }
      },
      "fulfillOrder(((address,address,(uint8,address,uint256,uint256,uint256)[],(uint8,address,uint256,uint256,uint256,address)[],uint8,uint256,uint256,bytes32,uint256,bytes32,uint256),bytes),bytes32)": {
        "params": {
          "fulfillerConduitKey": "A bytes32 value indicating what conduit, if                            any, to source the fulfiller's token approvals                            from. The zero hash signifies that no conduit                            should be used (and direct approvals set on                            Consideration).",
          "order": "The order to fulfill. Note that both the                            offerer and the fulfiller must first approve                            this contract (or the corresponding conduit if                            indicated) to transfer any relevant tokens on                            their behalf and that contracts must implement                            `onERC1155Received` to receive ERC1155 tokens                            as consideration."
        },
        "returns": {
          "fulfilled": "A boolean indicating whether the order has been                   successfully fulfilled."
        }
      },
      "getCounter(address)": {
        "params": {
          "offerer": "The offerer in question."
        },
        "returns": {
          "counter": "The current counter."
        }
      },
      "getOrderHash((address,address,(uint8,address,uint256,uint256,uint256)[],(uint8,address,uint256,uint256,uint256,address)[],uint8,uint256,uint256,bytes32,uint256,bytes32,uint256))": {
        "params": {
          "order": "The components of the order."
        },
        "returns": {
          "orderHash": "The order hash."
        }
      },
      "getOrderStatus(bytes32)": {
        "params": {
          "orderHash": "The order hash in question."
        },
        "returns": {
          "isCancelled": "A boolean indicating whether the order in question                     has been cancelled.",
          "isValidated": "A boolean indicating whether the order in question                     has been validated (i.e. previously approved or                     partially filled).",
          "totalFilled": "The total portion of the order that has been filled                     (i.e. the \"numerator\").",
          "totalSize": "  The total size of the order that is either filled or                     unfilled (i.e. the \"denominator\")."
        }
      },
      "incrementCounter()": {
        "returns": {
          "newCounter": "The new counter."
        }
      },
      "information()": {
        "returns": {
          "conduitController": "The conduit Controller set for this contract.",
          "domainSeparator": "  The domain separator for this contract.",
          "version": "          The contract version."
        }
      },
      "matchAdvancedOrders(((address,address,(uint8,address,uint256,uint256,uint256)[],(uint8,address,uint256,uint256,uint256,address)[],uint8,uint256,uint256,bytes32,uint256,bytes32,uint256),uint120,uint120,bytes,bytes)[],(uint256,uint8,uint256,uint256,bytes32[])[],((uint256,uint256)[],(uint256,uint256)[])[])": {
        "params": {
          "advancedOrders": "The advanced orders to match. Note that both the                          offerer and fulfiller on each order must first                          approve this contract (or their conduit if                          indicated by the order) to transfer any relevant                          tokens on their behalf and each consideration                          recipient must implement `onERC1155Received` in                          order to receive ERC1155 tokens. Also note that                          the offer and consideration components for each                          order must have no remainder after multiplying                          the respective amount with the supplied fraction                          in order for the group of partial fills to be                          considered valid.",
          "criteriaResolvers": "An array where each element contains a reference                          to a specific order as well as that order's                          offer or consideration, a token identifier, and                          a proof that the supplied token identifier is                          contained in the order's merkle root. Note that                          an empty root indicates that any (transferable)                          token identifier is valid and that no associated                          proof needs to be supplied.",
          "fulfillments": "An array of elements allocating offer components                          to consideration components. Note that each                          consideration component must be fully met in                          order for the match operation to be valid."
        },
        "returns": {
          "executions": "An array of elements indicating the sequence of                    transfers performed as part of matching the given                    orders."
        }
      },
      "matchOrders(((address,address,(uint8,address,uint256,uint256,uint256)[],(uint8,address,uint256,uint256,uint256,address)[],uint8,uint256,uint256,bytes32,uint256,bytes32,uint256),bytes)[],((uint256,uint256)[],(uint256,uint256)[])[])": {
        "params": {
          "fulfillments": "An array of elements allocating offer components                          to consideration components. Note that each                          consideration component must be fully met in                          order for the match operation to be valid.",
          "orders": "The orders to match. Note that both the offerer                          and fulfiller on each order must first approve                          this contract (or their conduit if indicated by                          the order) to transfer any relevant tokens on                          their behalf and each consideration recipient                          must implement `onERC1155Received` in order to                          receive ERC1155 tokens."
        },
        "returns": {
          "executions": "An array of elements indicating the sequence of                    transfers performed as part of matching the given                    orders."
        }
      },
      "name()": {
        "returns": {
          "contractName": "The name of this contract."
        }
      },
      "validate(((address,address,(uint8,address,uint256,uint256,uint256)[],(uint8,address,uint256,uint256,uint256,address)[],uint8,uint256,uint256,bytes32,uint256,bytes32,uint256),bytes)[])": {
        "params": {
          "orders": "The orders to validate."
        },
        "returns": {
          "validated": "A boolean indicating whether the supplied orders have                   been successfully validated."
        }
      }
    },
    "title": "Seaport",
    "version": 1
  },
  "userdoc": {
    "kind": "user",
    "methods": {
      "cancel((address,address,(uint8,address,uint256,uint256,uint256)[],(uint8,address,uint256,uint256,uint256,address)[],uint8,uint256,uint256,bytes32,uint256,bytes32,uint256)[])": {
        "notice": "Cancel an arbitrary number of orders. Note that only the offerer         or the zone of a given order may cancel it. Callers should ensure         that the intended order was cancelled by calling `getOrderStatus`         and confirming that `isCancelled` returns `true`."
      },
      "constructor": {
        "notice": "Derive and set hashes, reference chainId, and associated domain         separator during deployment."
      },
      "fulfillAdvancedOrder(((address,address,(uint8,address,uint256,uint256,uint256)[],(uint8,address,uint256,uint256,uint256,address)[],uint8,uint256,uint256,bytes32,uint256,bytes32,uint256),uint120,uint120,bytes,bytes),(uint256,uint8,uint256,uint256,bytes32[])[],bytes32,address)": {
        "notice": "Fill an order, fully or partially, with an arbitrary number of         items for offer and consideration alongside criteria resolvers         containing specific token identifiers and associated proofs."
      },
      "fulfillAvailableAdvancedOrders(((address,address,(uint8,address,uint256,uint256,uint256)[],(uint8,address,uint256,uint256,uint256,address)[],uint8,uint256,uint256,bytes32,uint256,bytes32,uint256),uint120,uint120,bytes,bytes)[],(uint256,uint8,uint256,uint256,bytes32[])[],(uint256,uint256)[][],(uint256,uint256)[][],bytes32,address,uint256)": {
        "notice": "Attempt to fill a group of orders, fully or partially, with an         arbitrary number of items for offer and consideration per order         alongside criteria resolvers containing specific token         identifiers and associated proofs. Any order that is not         currently active, has already been fully filled, or has been         cancelled will be omitted. Remaining offer and consideration         items will then be aggregated where possible as indicated by the         supplied offer and consideration component arrays and aggregated         items will be transferred to the fulfiller or to each intended         recipient, respectively. Note that a failing item transfer or an         issue with order formatting will cause the entire batch to fail."
      },
      "fulfillAvailableOrders(((address,address,(uint8,address,uint256,uint256,uint256)[],(uint8,address,uint256,uint256,uint256,address)[],uint8,uint256,uint256,bytes32,uint256,bytes32,uint256),bytes)[],(uint256,uint256)[][],(uint256,uint256)[][],bytes32,uint256)": {
        "notice": "Attempt to fill a group of orders, each with an arbitrary number         of items for offer and consideration. Any order that is not         currently active, has already been fully filled, or has been         cancelled will be omitted. Remaining offer and consideration         items will then be aggregated where possible as indicated by the         supplied offer and consideration component arrays and aggregated         items will be transferred to the fulfiller or to each intended         recipient, respectively. Note that a failing item transfer or an         issue with order formatting will cause the entire batch to fail.         Note that this function does not support criteria-based orders or         partial filling of orders (though filling the remainder of a         partially-filled order is supported)."
      },
      "fulfillBasicOrder((address,uint256,uint256,address,address,address,uint256,uint256,uint8,uint256,uint256,bytes32,uint256,bytes32,bytes32,uint256,(uint256,address)[],bytes))": {
        "notice": "Fulfill an order offering an ERC20, ERC721, or ERC1155 item by         supplying Ether (or other native tokens), ERC20 tokens, an ERC721         item, or an ERC1155 item as consideration. Six permutations are         supported: Native token to ERC721, Native token to ERC1155, ERC20         to ERC721, ERC20 to ERC1155, ERC721 to ERC20, and ERC1155 to         ERC20 (with native tokens supplied as msg.value). For an order to         be eligible for fulfillment via this method, it must contain a         single offer item (though that item may have a greater amount if         the item is not an ERC721). An arbitrary number of \"additional         recipients\" may also be supplied which will each receive native         tokens or ERC20 items from the fulfiller as consideration. Refer         to the documentation for a more comprehensive summary of how to         utilize this method and what orders are compatible with it."
      },
      "fulfillOrder(((address,address,(uint8,address,uint256,uint256,uint256)[],(uint8,address,uint256,uint256,uint256,address)[],uint8,uint256,uint256,bytes32,uint256,bytes32,uint256),bytes),bytes32)": {
        "notice": "Fulfill an order with an arbitrary number of items for offer and         consideration. Note that this function does not support         criteria-based orders or partial filling of orders (though         filling the remainder of a partially-filled order is supported)."
      },
      "getCounter(address)": {
        "notice": "Retrieve the current counter for a given offerer."
      },
      "getOrderHash((address,address,(uint8,address,uint256,uint256,uint256)[],(uint8,address,uint256,uint256,uint256,address)[],uint8,uint256,uint256,bytes32,uint256,bytes32,uint256))": {
        "notice": "Retrieve the order hash for a given order."
      },
      "getOrderStatus(bytes32)": {
        "notice": "Retrieve the status of a given order by hash, including whether         the order has been cancelled or validated and the fraction of the         order that has been filled."
      },
      "incrementCounter()": {
        "notice": "Cancel all orders from a given offerer with a given zone in bulk         by incrementing a counter. Note that only the offerer may         increment the counter."
      },
      "information()": {
        "notice": "Retrieve configuration information for this contract."
      },
      "matchAdvancedOrders(((address,address,(uint8,address,uint256,uint256,uint256)[],(uint8,address,uint256,uint256,uint256,address)[],uint8,uint256,uint256,bytes32,uint256,bytes32,uint256),uint120,uint120,bytes,bytes)[],(uint256,uint8,uint256,uint256,bytes32[])[],((uint256,uint256)[],(uint256,uint256)[])[])": {
        "notice": "Match an arbitrary number of full or partial orders, each with an         arbitrary number of items for offer and consideration, supplying         criteria resolvers containing specific token identifiers and         associated proofs as well as fulfillments allocating offer         components to consideration components."
      },
      "matchOrders(((address,address,(uint8,address,uint256,uint256,uint256)[],(uint8,address,uint256,uint256,uint256,address)[],uint8,uint256,uint256,bytes32,uint256,bytes32,uint256),bytes)[],((uint256,uint256)[],(uint256,uint256)[])[])": {
        "notice": "Match an arbitrary number of orders, each with an arbitrary         number of items for offer and consideration along with a set of         fulfillments allocating offer components to consideration         components. Note that this function does not support         criteria-based or partial filling of orders (though filling the         remainder of a partially-filled order is supported)."
      },
      "name()": {
        "notice": "Retrieve the name of this contract."
      },
      "validate(((address,address,(uint8,address,uint256,uint256,uint256)[],(uint8,address,uint256,uint256,uint256,address)[],uint8,uint256,uint256,bytes32,uint256,bytes32,uint256),bytes)[])": {
        "notice": "Validate an arbitrary number of orders, thereby registering their         signatures as valid and allowing the fulfiller to skip signature         verification on fulfillment. Note that validated orders may still         be unfulfillable due to invalid item amounts or other factors;         callers should determine whether validated orders are fulfillable         by simulating the fulfillment call prior to execution. Also note         that anyone can validate a signed order, but only the offerer can         validate an order without supplying a signature."
      }
    },
    "notice": "Seaport is a generalized ETH/ERC20/ERC721/ERC1155 marketplace. It         minimizes external calls to the greatest extent possible and provides         lightweight methods for common routes as well as more flexible         methods for composing advanced orders or groups of orders. Each order         contains an arbitrary number of items that may be spent (the \"offer\")         along with an arbitrary number of items that must be received back by         the indicated recipients (the \"consideration\").",
    "version": 1
  },
  "storageLayout": {
    "storage": [
      {
        "astId": 16074,
        "contract": "seaport/contracts/Seaport.sol:Seaport",
        "label": "_reentrancyGuard",
        "offset": 0,
        "slot": "0",
        "type": "t_uint256"
      },
      {
        "astId": 12397,
        "contract": "seaport/contracts/Seaport.sol:Seaport",
        "label": "_counters",
        "offset": 0,
        "slot": "1",
        "type": "t_mapping(t_address,t_uint256)"
      },
      {
        "astId": 15437,
        "contract": "seaport/contracts/Seaport.sol:Seaport",
        "label": "_orderStatus",
        "offset": 0,
        "slot": "2",
        "type": "t_mapping(t_bytes32,t_struct(OrderStatus)12347_storage)"
      }
    ],
    "types": {
      "t_address": {
        "encoding": "inplace",
        "label": "address",
        "numberOfBytes": "20"
      },
      "t_bool": {
        "encoding": "inplace",
        "label": "bool",
        "numberOfBytes": "1"
      },
      "t_bytes32": {
        "encoding": "inplace",
        "label": "bytes32",
        "numberOfBytes": "32"
      },
      "t_mapping(t_address,t_uint256)": {
        "encoding": "mapping",
        "key": "t_address",
        "label": "mapping(address => uint256)",
        "numberOfBytes": "32",
        "value": "t_uint256"
      },
      "t_mapping(t_bytes32,t_struct(OrderStatus)12347_storage)": {
        "encoding": "mapping",
        "key": "t_bytes32",
        "label": "mapping(bytes32 => struct OrderStatus)",
        "numberOfBytes": "32",
        "value": "t_struct(OrderStatus)12347_storage"
      },
      "t_struct(OrderStatus)12347_storage": {
        "encoding": "inplace",
        "label": "struct OrderStatus",
        "members": [
          {
            "astId": 12340,
            "contract": "seaport/contracts/Seaport.sol:Seaport",
            "label": "isValidated",
            "offset": 0,
            "slot": "0",
            "type": "t_bool"
          },
          {
            "astId": 12342,
            "contract": "seaport/contracts/Seaport.sol:Seaport",
            "label": "isCancelled",
            "offset": 1,
            "slot": "0",
            "type": "t_bool"
          },
          {
            "astId": 12344,
            "contract": "seaport/contracts/Seaport.sol:Seaport",
            "label": "numerator",
            "offset": 2,
            "slot": "0",
            "type": "t_uint120"
          },
          {
            "astId": 12346,
            "contract": "seaport/contracts/Seaport.sol:Seaport",
            "label": "denominator",
            "offset": 17,
            "slot": "0",
            "type": "t_uint120"
          }
        ],
        "numberOfBytes": "32"
      },
      "t_uint120": {
        "encoding": "inplace",
        "label": "uint120",
        "numberOfBytes": "15"
      },
      "t_uint256": {
        "encoding": "inplace",
        "label": "uint256",
        "numberOfBytes": "32"
      }
    }
  }
}