{
  "address": "0xe2350410D7940c9945911dD125427b669a9ADe67",
  "abi": [
    {
      "anonymous": false,
      "inputs": [
        {
          "indexed": false,
          "internalType": "address",
          "name": "previousAdmin",
          "type": "address"
        },
        {
          "indexed": false,
          "internalType": "address",
          "name": "newAdmin",
          "type": "address"
        }
      ],
      "name": "AdminChanged",
      "type": "event"
    },
    {
      "anonymous": false,
      "inputs": [
        {
          "indexed": true,
          "internalType": "address",
          "name": "beacon",
          "type": "address"
        }
      ],
      "name": "BeaconUpgraded",
      "type": "event"
    },
    {
      "anonymous": false,
      "inputs": [
        {
          "indexed": false,
          "internalType": "uint8",
          "name": "version",
          "type": "uint8"
        }
      ],
      "name": "Initialized",
      "type": "event"
    },
    {
      "anonymous": false,
      "inputs": [
        {
          "indexed": true,
          "internalType": "address",
          "name": "previousOwner",
          "type": "address"
        },
        {
          "indexed": true,
          "internalType": "address",
          "name": "newOwner",
          "type": "address"
        }
      ],
      "name": "OwnershipTransferred",
      "type": "event"
    },
    {
      "anonymous": false,
      "inputs": [
        {
          "indexed": false,
          "internalType": "address",
          "name": "account",
          "type": "address"
        }
      ],
      "name": "Paused",
      "type": "event"
    },
    {
      "anonymous": false,
      "inputs": [
        {
          "indexed": false,
          "internalType": "address",
          "name": "account",
          "type": "address"
        }
      ],
      "name": "Unpaused",
      "type": "event"
    },
    {
      "anonymous": false,
      "inputs": [
        {
          "indexed": true,
          "internalType": "address",
          "name": "implementation",
          "type": "address"
        }
      ],
      "name": "Upgraded",
      "type": "event"
    },
    {
      "inputs": [],
      "name": "adapterRegistry",
      "outputs": [
        {
          "internalType": "contract AdapterRegistry",
          "name": "",
          "type": "address"
        }
      ],
      "stateMutability": "view",
      "type": "function"
    },
    {
      "inputs": [
        {
          "internalType": "address",
          "name": "token",
          "type": "address"
        },
        {
          "internalType": "address",
          "name": "operator",
          "type": "address"
        },
        {
          "internalType": "uint256",
          "name": "amount",
          "type": "uint256"
        }
      ],
      "name": "approveERC20",
      "outputs": [],
      "stateMutability": "nonpayable",
      "type": "function"
    },
    {
      "inputs": [
        {
          "internalType": "uint8[]",
          "name": "adapterIds",
          "type": "uint8[]"
        },
        {
          "internalType": "uint256[]",
          "name": "values",
          "type": "uint256[]"
        },
        {
          "internalType": "bytes[]",
          "name": "datas",
          "type": "bytes[]"
        }
      ],
      "name": "cook",
      "outputs": [],
      "stateMutability": "payable",
      "type": "function"
    },
    {
      "inputs": [
        {
          "internalType": "address",
          "name": "_adapterRegistery",
          "type": "address"
        },
        {
          "internalType": "address",
          "name": "_bentobox",
          "type": "address"
        }
      ],
      "name": "initialize",
      "outputs": [],
      "stateMutability": "nonpayable",
      "type": "function"
    },
    {
      "inputs": [
        {
          "internalType": "address",
          "name": "",
          "type": "address"
        },
        {
          "internalType": "address",
          "name": "",
          "type": "address"
        },
        {
          "internalType": "uint256[]",
          "name": "",
          "type": "uint256[]"
        },
        {
          "internalType": "uint256[]",
          "name": "",
          "type": "uint256[]"
        },
        {
          "internalType": "bytes",
          "name": "",
          "type": "bytes"
        }
      ],
      "name": "onERC1155BatchReceived",
      "outputs": [
        {
          "internalType": "bytes4",
          "name": "",
          "type": "bytes4"
        }
      ],
      "stateMutability": "nonpayable",
      "type": "function"
    },
    {
      "inputs": [
        {
          "internalType": "address",
          "name": "",
          "type": "address"
        },
        {
          "internalType": "address",
          "name": "",
          "type": "address"
        },
        {
          "internalType": "uint256",
          "name": "",
          "type": "uint256"
        },
        {
          "internalType": "uint256",
          "name": "",
          "type": "uint256"
        },
        {
          "internalType": "bytes",
          "name": "",
          "type": "bytes"
        }
      ],
      "name": "onERC1155Received",
      "outputs": [
        {
          "internalType": "bytes4",
          "name": "",
          "type": "bytes4"
        }
      ],
      "stateMutability": "nonpayable",
      "type": "function"
    },
    {
      "inputs": [],
      "name": "owner",
      "outputs": [
        {
          "internalType": "address",
          "name": "",
          "type": "address"
        }
      ],
      "stateMutability": "view",
      "type": "function"
    },
    {
      "inputs": [],
      "name": "paused",
      "outputs": [
        {
          "internalType": "bool",
          "name": "",
          "type": "bool"
        }
      ],
      "stateMutability": "view",
      "type": "function"
    },
    {
      "inputs": [],
      "name": "proxiableUUID",
      "outputs": [
        {
          "internalType": "bytes32",
          "name": "",
          "type": "bytes32"
        }
      ],
      "stateMutability": "view",
      "type": "function"
    },
    {
      "inputs": [],
      "name": "renounceOwnership",
      "outputs": [],
      "stateMutability": "nonpayable",
      "type": "function"
    },
    {
      "inputs": [
        {
          "internalType": "address",
          "name": "token",
          "type": "address"
        },
        {
          "internalType": "uint256[]",
          "name": "tokenIds",
          "type": "uint256[]"
        },
        {
          "internalType": "uint256[]",
          "name": "amounts",
          "type": "uint256[]"
        },
        {
          "internalType": "address",
          "name": "to",
          "type": "address"
        }
      ],
      "name": "retrieveERC1155",
      "outputs": [],
      "stateMutability": "nonpayable",
      "type": "function"
    },
    {
      "inputs": [
        {
          "internalType": "address",
          "name": "token",
          "type": "address"
        },
        {
          "internalType": "address",
          "name": "to",
          "type": "address"
        },
        {
          "internalType": "uint256",
          "name": "amount",
          "type": "uint256"
        }
      ],
      "name": "retrieveERC20",
      "outputs": [],
      "stateMutability": "nonpayable",
      "type": "function"
    },
    {
      "inputs": [
        {
          "internalType": "address",
          "name": "token",
          "type": "address"
        },
        {
          "internalType": "uint256[]",
          "name": "tokenIds",
          "type": "uint256[]"
        },
        {
          "internalType": "address",
          "name": "to",
          "type": "address"
        }
      ],
      "name": "retrieveERC721",
      "outputs": [],
      "stateMutability": "nonpayable",
      "type": "function"
    },
    {
      "inputs": [
        {
          "internalType": "address",
          "name": "to",
          "type": "address"
        },
        {
          "internalType": "uint256",
          "name": "amount",
          "type": "uint256"
        }
      ],
      "name": "retrieveETH",
      "outputs": [],
      "stateMutability": "nonpayable",
      "type": "function"
    },
    {
      "inputs": [
        {
          "internalType": "address",
          "name": "newOwner",
          "type": "address"
        }
      ],
      "name": "transferOwnership",
      "outputs": [],
      "stateMutability": "nonpayable",
      "type": "function"
    },
    {
      "inputs": [
        {
          "internalType": "address",
          "name": "newImplementation",
          "type": "address"
        }
      ],
      "name": "upgradeTo",
      "outputs": [],
      "stateMutability": "nonpayable",
      "type": "function"
    },
    {
      "inputs": [
        {
          "internalType": "address",
          "name": "newImplementation",
          "type": "address"
        },
        {
          "internalType": "bytes",
          "name": "data",
          "type": "bytes"
        }
      ],
      "name": "upgradeToAndCall",
      "outputs": [],
      "stateMutability": "payable",
      "type": "function"
    },
    {
      "stateMutability": "payable",
      "type": "receive"
    }
  ],
  "numDeployments": 2,
  "solcInputHash": "0942d0323595a7e6fae04fd08a49e90f",
  "bytecode": "0x60a080604052346100315730608052611dd9908161003782396080518181816103650152818161086701526117200152f35b600080fdfe6080604052600436101561001b575b361561001957600080fd5b005b60003560e01c8062a04feb1461016e57806332b6b03c146101655780633659cfe61461015c578063485cc955146101535780634f1ef2861461014a57806350b5c16a1461014157806352d1902d146101385780635c975abb1461012f578063656f3d6414610126578063715018a61461011d5780638da5cb5b146101145780639b46383e1461010b578063a8e5e4aa14610102578063bc197c81146100f9578063d63f4594146100f0578063f23a6e61146100e75763f2fde38b0361000e576100e26110a2565b61000e565b506100e261102e565b506100e2610fa1565b506100e2610ef7565b506100e2610df6565b506100e2610c99565b506100e2610c64565b506100e2610bdc565b506100e2610960565b506100e261093c565b506100e261083e565b506100e2610809565b506100e2610781565b506100e261051c565b506100e261032e565b506100e26101fd565b506100e261019a565b73ffffffffffffffffffffffffffffffffffffffff81160361019557565b600080fd5b5034610195576040600319360112610195576100196004356101bb81610177565b6101c3611171565b60243590611d3c565b9181601f840112156101955782359167ffffffffffffffff8311610195576020808501948460051b01011161019557565b5034610195576060600319360112610195576004803561021c81610177565b60243567ffffffffffffffff81116101955761023c8391369083016101cc565b90916044359161024b83610177565b610253611171565b73ffffffffffffffffffffffffffffffffffffffff60009516945b81811061027757005b610282818387611be1565b3590863b1561019557604080517f42842e0e0000000000000000000000000000000000000000000000000000000081523086820190815273ffffffffffffffffffffffffffffffffffffffff88166020820152918201939093526103039290600090829081906060010381838c5af18015610321575b610308575b50611b55565b61026e565b8061031561031b9261069e565b806107fe565b876102fd565b610329611384565b6102f8565b50346101955760206003193601126101955760043561034c81610177565b73ffffffffffffffffffffffffffffffffffffffff90817f000000000000000000000000000000000000000000000000000000000000000016916103928330141561125f565b6103c17f360894a13ba1a3210667c828492db98dca3e2076cc3735a920a3ca505d382bbc9382855416146112ea565b6103c9611171565b604051906103d6826106bf565b600082527f4910fdfa16fed3260ed0e7147f7cc6da11a60208b5b9406d12a635614ffd91435460ff1615610410575050610019915061141c565b6020600491604094939451928380927f52d1902d00000000000000000000000000000000000000000000000000000000825286165afa600091816104ec575b506104d9576040517f08c379a000000000000000000000000000000000000000000000000000000000815260206004820152602e60248201527f45524331393637557067726164653a206e657720696d706c656d656e7461746960448201527f6f6e206973206e6f7420555550530000000000000000000000000000000000006064820152608490fd5b610019936104e79114611391565b611508565b61050e91925060203d8111610515575b61050681836106f7565b810190611375565b903861044f565b503d6104fc565b50346101955760406003193601126101955760043561053a81610177565b6105a860243561054981610177565b6000549261056e60ff8560081c161580958196610660575b8115610640575b50611977565b8361059f60017fffffffffffffffffffffffffffffffffffffffffffffffffffffffffffffff006000541617600055565b61060a57611a02565b6105ae57005b6105db7fffffffffffffffffffffffffffffffffffffffffffffffffffffffffffff00ff60005416600055565b604051600181527f7f26b83ff96e1f2b6a682f133852f6798a09c465da95921460cefb384740249890602090a1005b61063b6101007fffffffffffffffffffffffffffffffffffffffffffffffffffffffffffff00ff6000541617600055565b611a02565b303b15915081610652575b5038610568565b6001915060ff16143861064b565b600160ff8216109150610561565b507f4e487b7100000000000000000000000000000000000000000000000000000000600052604160045260246000fd5b67ffffffffffffffff81116106b257604052565b6106ba61066e565b604052565b6020810190811067ffffffffffffffff8211176106b257604052565b6060810190811067ffffffffffffffff8211176106b257604052565b90601f7fffffffffffffffffffffffffffffffffffffffffffffffffffffffffffffffe0910116810190811067ffffffffffffffff8211176106b257604052565b7fffffffffffffffffffffffffffffffffffffffffffffffffffffffffffffffe0601f60209267ffffffffffffffff8111610774575b01160190565b61077c61066e565b61076e565b5060406003193601126101955760043561079a81610177565b6024359067ffffffffffffffff82116101955736602383011215610195578160040135906107c782610738565b916107d560405193846106f7565b808352366024828601011161019557602081600092602461001997018387013784010152611707565b600091031261019557565b503461019557600060031936011261019557602073ffffffffffffffffffffffffffffffffffffffff60fb5416604051908152f35b50346101955760006003193601126101955773ffffffffffffffffffffffffffffffffffffffff7f00000000000000000000000000000000000000000000000000000000000000001630036108b8576040517f360894a13ba1a3210667c828492db98dca3e2076cc3735a920a3ca505d382bbc8152602090f35b60846040517f08c379a000000000000000000000000000000000000000000000000000000000815260206004820152603860248201527f555550535570677261646561626c653a206d757374206e6f742062652063616c60448201527f6c6564207468726f7567682064656c656761746563616c6c00000000000000006064820152fd5b503461019557600060031936011261019557602060ff60c954166040519015158152f35b5060608060031936011261019557600480359167ffffffffffffffff928381116101955761099190369084016101cc565b929091602435858111610195576109ab90369084016101cc565b9095604435908111610195576109c490369085016101cc565b92909160ff60c95416610b7e5760005b8781106109e357610019611d2d565b610a75610a21610a0860fb5473ffffffffffffffffffffffffffffffffffffffff1690565b73ffffffffffffffffffffffffffffffffffffffff1690565b84610a35610a30858d8d611be1565b611bff565b6040928a84518096819482937f4ef501ac000000000000000000000000000000000000000000000000000000008452830191909160ff6020820193169052565b03915afa918215610b71575b60009283918491610b39575b50610a9790611c4c565b83858d600093600014610af357505060009391508392610abb610ac8928b8b611cb1565b9290915180938193611d1f565b03915af4610ad46116d7565b505b15610ae957610ae490611b55565b6109d4565b3d6000803e3d6000fd5b93610b07610b339693610b21938697611be1565b3590610b14888d8d611cb1565b9390915180948193611d1f565b03925af1610b2d6116d7565b90151591565b50610ad6565b9050610a979350610b609150863d8811610b6a575b610b5881836106f7565b810190611c1a565b9193909190610a8d565b503d610b4e565b610b79611384565b610a81565b6064856020604051917f08c379a0000000000000000000000000000000000000000000000000000000008352820152601060248201527f5061757361626c653a20706175736564000000000000000000000000000000006044820152fd5b503461019557600080600319360112610c6157610bf7611171565b6097547fffffffffffffffffffffffff000000000000000000000000000000000000000081166097558173ffffffffffffffffffffffffffffffffffffffff60405192167f8be0079c531659141344cd1fd0a4f28419497f9722a3daafe3b4186f6b6457e08284a3f35b80fd5b503461019557600060031936011261019557602073ffffffffffffffffffffffffffffffffffffffff60975416604051908152f35b50346101955760031960808136011261019557600435610cb881610177565b67ffffffffffffffff9060243582811161019557610cda9036906004016101cc565b93909260443590811161019557610cf59036906004016101cc565b9360643591610d0383610177565b610d0b611171565b73ffffffffffffffffffffffffffffffffffffffff80951693843b15610195576000610d936020938299610d8384976040519d8e9c8d9b7f2eb2c2d6000000000000000000000000000000000000000000000000000000008d528c6004309101521660248c015260a060448c015260a48b0191611d62565b91858984030160648a0152611d62565b85810392830160848701525201925af18015610dbd575b610db057005b806103156100199261069e565b610dc5611384565b610daa565b600319606091011261019557600435610de281610177565b90602435610def81610177565b9060443590565b503461019557610e836020610e0a36610dca565b9190610e14611171565b600073ffffffffffffffffffffffffffffffffffffffff6040518097819682957f095ea7b3000000000000000000000000000000000000000000000000000000008452600484016020909392919373ffffffffffffffffffffffffffffffffffffffff60408201951681520152565b0393165af18015610ebc575b610e9557005b6100199060203d8111610eb5575b610ead81836106f7565b810190611d4e565b503d610ea3565b610ec4611384565b610e8f565b9181601f840112156101955782359167ffffffffffffffff8311610195576020838186019501011161019557565b50346101955760a060031936011261019557610f14600435610177565b610f1f602435610177565b67ffffffffffffffff60443581811161019557610f409036906004016101cc565b505060643581811161019557610f5a9036906004016101cc565b505060843590811161019557610f74903690600401610ec9565b50506040517fbc197c81000000000000000000000000000000000000000000000000000000008152602090f35b503461019557610e836020610fb536610dca565b9190610fbf611171565b600073ffffffffffffffffffffffffffffffffffffffff6040518097819682957fa9059cbb000000000000000000000000000000000000000000000000000000008452600484016020909392919373ffffffffffffffffffffffffffffffffffffffff60408201951681520152565b50346101955760a06003193601126101955761104b600435610177565b611056602435610177565b60843567ffffffffffffffff811161019557611076903690600401610ec9565b505060206040517ff23a6e61000000000000000000000000000000000000000000000000000000008152f35b5034610195576020600319360112610195576004356110c081610177565b6110c8611171565b73ffffffffffffffffffffffffffffffffffffffff8116156110ed57610019906111f0565b60846040517f08c379a000000000000000000000000000000000000000000000000000000000815260206004820152602660248201527f4f776e61626c653a206e6577206f776e657220697320746865207a65726f206160448201527f64647265737300000000000000000000000000000000000000000000000000006064820152fd5b73ffffffffffffffffffffffffffffffffffffffff60975416330361119257565b60646040517f08c379a000000000000000000000000000000000000000000000000000000000815260206004820152602060248201527f4f776e61626c653a2063616c6c6572206973206e6f7420746865206f776e65726044820152fd5b6097549073ffffffffffffffffffffffffffffffffffffffff80911691827fffffffffffffffffffffffff0000000000000000000000000000000000000000821617609755167f8be0079c531659141344cd1fd0a4f28419497f9722a3daafe3b4186f6b6457e06000604051a3565b1561126657565b60846040517f08c379a000000000000000000000000000000000000000000000000000000000815260206004820152602c60248201527f46756e6374696f6e206d7573742062652063616c6c6564207468726f7567682060448201527f64656c656761746563616c6c00000000000000000000000000000000000000006064820152fd5b156112f157565b60846040517f08c379a000000000000000000000000000000000000000000000000000000000815260206004820152602c60248201527f46756e6374696f6e206d7573742062652063616c6c6564207468726f7567682060448201527f6163746976652070726f787900000000000000000000000000000000000000006064820152fd5b90816020910312610195575190565b506040513d6000823e3d90fd5b1561139857565b60846040517f08c379a000000000000000000000000000000000000000000000000000000000815260206004820152602960248201527f45524331393637557067726164653a20756e737570706f727465642070726f7860448201527f6961626c655555494400000000000000000000000000000000000000000000006064820152fd5b803b156114845773ffffffffffffffffffffffffffffffffffffffff7f360894a13ba1a3210667c828492db98dca3e2076cc3735a920a3ca505d382bbc91167fffffffffffffffffffffffff0000000000000000000000000000000000000000825416179055565b60846040517f08c379a000000000000000000000000000000000000000000000000000000000815260206004820152602d60248201527f455243313936373a206e657720696d706c656d656e746174696f6e206973206e60448201527f6f74206120636f6e7472616374000000000000000000000000000000000000006064820152fd5b6115118161141c565b60405173ffffffffffffffffffffffffffffffffffffffff82167fbc7cd75a20ee27fd9adebab32041f755214dbc6bffa90cc0225b39da2e5c2d3b600083a282511580159061166c575b61156457505050565b813b156115ea5750600082819260206115e795519201905af46115856116d7565b60405191611592836106db565b602783527f416464726573733a206c6f772d6c6576656c2064656c65676174652063616c6c60208401527f206661696c65640000000000000000000000000000000000000000000000000060408401526118b8565b50565b807f08c379a0000000000000000000000000000000000000000000000000000000006084925260206004820152602660248201527f416464726573733a2064656c65676174652063616c6c20746f206e6f6e2d636f60448201527f6e747261637400000000000000000000000000000000000000000000000000006064820152fd5b50600061155b565b61167d8161141c565b60405173ffffffffffffffffffffffffffffffffffffffff82167fbc7cd75a20ee27fd9adebab32041f755214dbc6bffa90cc0225b39da2e5c2d3b600083a28251158015906116cf5761156457505050565b50600161155b565b3d15611702573d906116e882610738565b916116f660405193846106f7565b82523d6000602084013e565b606090565b73ffffffffffffffffffffffffffffffffffffffff91827f0000000000000000000000000000000000000000000000000000000000000000169261174d8430141561125f565b61177c7f360894a13ba1a3210667c828492db98dca3e2076cc3735a920a3ca505d382bbc9482865416146112ea565b611784611171565b7f4910fdfa16fed3260ed0e7147f7cc6da11a60208b5b9406d12a635614ffd91435460ff16156117bc5750506117ba915061141c565b565b6020600491604094939451928380927f52d1902d00000000000000000000000000000000000000000000000000000000825286165afa60009181611898575b50611885576040517f08c379a000000000000000000000000000000000000000000000000000000000815260206004820152602e60248201527f45524331393637557067726164653a206e657720696d706c656d656e7461746960448201527f6f6e206973206e6f7420555550530000000000000000000000000000000000006064820152608490fd5b6117ba936118939114611391565b611674565b6118b191925060203d81116105155761050681836106f7565b90386117fb565b909190156118c4575090565b8151156118d45750805190602001fd5b604051907f08c379a00000000000000000000000000000000000000000000000000000000082528160208060048301528251928360248401526000915b84831061195e575050601f836044947fffffffffffffffffffffffffffffffffffffffffffffffffffffffffffffffe09311611951575b01168101030190fd5b6000858286010152611948565b8183018101518684016044015285935091820191611911565b1561197e57565b60846040517f08c379a000000000000000000000000000000000000000000000000000000000815260206004820152602e60248201527f496e697469616c697a61626c653a20636f6e747261637420697320616c72656160448201527f647920696e697469616c697a65640000000000000000000000000000000000006064820152fd5b9073ffffffffffffffffffffffffffffffffffffffff8092167fffffffffffffffffffffffff000000000000000000000000000000000000000060fb54161760fb5516803b1561019557600080916004604051809481937faee4d1b20000000000000000000000000000000000000000000000000000000083525af18015611abd575b611aae575b50611aa560ff60005460081c16611aa081611aca565b611aca565b6117ba336111f0565b611ab79061069e565b38611a8a565b611ac5611384565b611a85565b15611ad157565b60846040517f08c379a000000000000000000000000000000000000000000000000000000000815260206004820152602b60248201527f496e697469616c697a61626c653a20636f6e7472616374206973206e6f74206960448201527f6e697469616c697a696e670000000000000000000000000000000000000000006064820152fd5b7fffffffffffffffffffffffffffffffffffffffffffffffffffffffffffffffff8114611b825760010190565b7f4e487b7100000000000000000000000000000000000000000000000000000000600052601160045260246000fd5b507f4e487b7100000000000000000000000000000000000000000000000000000000600052603260045260246000fd5b9190811015611bf2575b60051b0190565b611bfa611bb1565b611beb565b3560ff811681036101955790565b5190811515820361019557565b90816060910312610195578051611c3081610177565b91611c496040611c4260208501611c0d565b9301611c0d565b90565b15611c5357565b60646040517f08c379a000000000000000000000000000000000000000000000000000000000815260206004820152601660248201527f636f6f6b3a20696e6163746976652061646170746572000000000000000000006044820152fd5b9190811015611d12575b60051b810135907fffffffffffffffffffffffffffffffffffffffffffffffffffffffffffffffe18136030182121561019557019081359167ffffffffffffffff8311610195576020018236038113610195579190565b611d1a611bb1565b611cbb565b908092918237016000815290565b4780611d365750565b6117ba90335b60008080809481945af115610c615750565b9081602091031261019557611c4990611c0d565b90918281527f07ffffffffffffffffffffffffffffffffffffffffffffffffffffffffffffff83116101955760209260051b8092848301370101600081529056fea2646970667358221220957b38cce25380717fbbe89fd7395e398360823588d46d99ebd8799b269a651064736f6c634300080e0033",
  "devdoc": {
    "kind": "dev",
    "methods": {
      "onERC1155Received(address,address,uint256,uint256,bytes)": {
        "details": "Allows this contract to receive ERC1155 tokens"
      },
      "owner()": {
        "details": "Returns the address of the current owner."
      },
      "paused()": {
        "details": "Returns true if the contract is paused, and false otherwise."
      },
      "proxiableUUID()": {
        "details": "Implementation of the ERC1822 {proxiableUUID} function. This returns the storage slot used by the implementation. It is used to validate that the this implementation remains valid after an upgrade. IMPORTANT: A proxy pointing at a proxiable contract should not be considered proxiable itself, because this risks bricking a proxy that upgrades to it, by delegating to itself until out of gas. Thus it is critical that this function revert if invoked through a proxy. This is guaranteed by the `notDelegated` modifier."
      },
      "renounceOwnership()": {
        "details": "Leaves the contract without owner. It will not be possible to call `onlyOwner` functions anymore. Can only be called by the current owner. NOTE: Renouncing ownership will leave the contract without an owner, thereby removing any functionality that is only available to the owner."
      },
      "transferOwnership(address)": {
        "details": "Transfers ownership of the contract to a new account (`newOwner`). Can only be called by the current owner."
      },
      "upgradeTo(address)": {
        "details": "Upgrade the implementation of the proxy to `newImplementation`. Calls {_authorizeUpgrade}. Emits an {Upgraded} event."
      },
      "upgradeToAndCall(address,bytes)": {
        "details": "Upgrade the implementation of the proxy to `newImplementation`, and subsequently execute the function call encoded in `data`. Calls {_authorizeUpgrade}. Emits an {Upgraded} event."
      }
    },
    "version": 1
  },
  "userdoc": {
    "kind": "user",
    "methods": {},
    "version": 1
  },
  "storageLayout": {
    "storage": [
      {
        "astId": 527,
        "contract": "contracts/shoyu/Shoyu.sol:Shoyu",
        "label": "_initialized",
        "offset": 0,
        "slot": "0",
        "type": "t_uint8"
      },
      {
        "astId": 530,
        "contract": "contracts/shoyu/Shoyu.sol:Shoyu",
        "label": "_initializing",
        "offset": 1,
        "slot": "0",
        "type": "t_bool"
      },
      {
        "astId": 509,
        "contract": "contracts/shoyu/Shoyu.sol:Shoyu",
        "label": "__gap",
        "offset": 0,
        "slot": "1",
        "type": "t_array(t_uint256)50_storage"
      },
      {
        "astId": 806,
        "contract": "contracts/shoyu/Shoyu.sol:Shoyu",
        "label": "__gap",
        "offset": 0,
        "slot": "51",
        "type": "t_array(t_uint256)50_storage"
      },
      {
        "astId": 1218,
        "contract": "contracts/shoyu/Shoyu.sol:Shoyu",
        "label": "__gap",
        "offset": 0,
        "slot": "101",
        "type": "t_array(t_uint256)50_storage"
      },
      {
        "astId": 10,
        "contract": "contracts/shoyu/Shoyu.sol:Shoyu",
        "label": "_owner",
        "offset": 0,
        "slot": "151",
        "type": "t_address"
      },
      {
        "astId": 130,
        "contract": "contracts/shoyu/Shoyu.sol:Shoyu",
        "label": "__gap",
        "offset": 0,
        "slot": "152",
        "type": "t_array(t_uint256)49_storage"
      },
      {
        "astId": 828,
        "contract": "contracts/shoyu/Shoyu.sol:Shoyu",
        "label": "_paused",
        "offset": 0,
        "slot": "201",
        "type": "t_bool"
      },
      {
        "astId": 933,
        "contract": "contracts/shoyu/Shoyu.sol:Shoyu",
        "label": "__gap",
        "offset": 0,
        "slot": "202",
        "type": "t_array(t_uint256)49_storage"
      },
      {
        "astId": 4015,
        "contract": "contracts/shoyu/Shoyu.sol:Shoyu",
        "label": "adapterRegistry",
        "offset": 0,
        "slot": "251",
        "type": "t_contract(AdapterRegistry)5809"
      }
    ],
    "types": {
      "t_address": {
        "encoding": "inplace",
        "label": "address",
        "numberOfBytes": "20"
      },
      "t_array(t_uint256)49_storage": {
        "base": "t_uint256",
        "encoding": "inplace",
        "label": "uint256[49]",
        "numberOfBytes": "1568"
      },
      "t_array(t_uint256)50_storage": {
        "base": "t_uint256",
        "encoding": "inplace",
        "label": "uint256[50]",
        "numberOfBytes": "1600"
      },
      "t_bool": {
        "encoding": "inplace",
        "label": "bool",
        "numberOfBytes": "1"
      },
      "t_contract(AdapterRegistry)5809": {
        "encoding": "inplace",
        "label": "contract AdapterRegistry",
        "numberOfBytes": "20"
      },
      "t_uint256": {
        "encoding": "inplace",
        "label": "uint256",
        "numberOfBytes": "32"
      },
      "t_uint8": {
        "encoding": "inplace",
        "label": "uint8",
        "numberOfBytes": "1"
      }
    }
  }
}