{
  "address": "0x9C469F36bd7ed31Ee965034a5683B249928De5B8",
  "abi": [
    {
      "inputs": [
        {
          "internalType": "address",
          "name": "_adapterRegistery",
          "type": "address"
        }
      ],
      "stateMutability": "nonpayable",
      "type": "constructor"
    },
    {
      "anonymous": false,
      "inputs": [
        {
          "indexed": true,
          "internalType": "address",
          "name": "previousOwner",
          "type": "address"
        },
        {
          "indexed": true,
          "internalType": "address",
          "name": "newOwner",
          "type": "address"
        }
      ],
      "name": "OwnershipTransferred",
      "type": "event"
    },
    {
      "anonymous": false,
      "inputs": [
        {
          "indexed": false,
          "internalType": "address",
          "name": "account",
          "type": "address"
        }
      ],
      "name": "Paused",
      "type": "event"
    },
    {
      "anonymous": false,
      "inputs": [
        {
          "indexed": false,
          "internalType": "address",
          "name": "account",
          "type": "address"
        }
      ],
      "name": "Unpaused",
      "type": "event"
    },
    {
      "inputs": [],
      "name": "adapterRegistry",
      "outputs": [
        {
          "internalType": "contract AdapterRegistry",
          "name": "",
          "type": "address"
        }
      ],
      "stateMutability": "view",
      "type": "function"
    },
    {
      "inputs": [
        {
          "internalType": "address",
          "name": "token",
          "type": "address"
        },
        {
          "internalType": "address",
          "name": "operator",
          "type": "address"
        },
        {
          "internalType": "uint256",
          "name": "amount",
          "type": "uint256"
        }
      ],
      "name": "approveERC20",
      "outputs": [],
      "stateMutability": "nonpayable",
      "type": "function"
    },
    {
      "inputs": [
        {
          "internalType": "uint8[]",
          "name": "adapterIds",
          "type": "uint8[]"
        },
        {
          "internalType": "bytes[]",
          "name": "datas",
          "type": "bytes[]"
        }
      ],
      "name": "cook",
      "outputs": [],
      "stateMutability": "payable",
      "type": "function"
    },
    {
      "inputs": [
        {
          "internalType": "address",
          "name": "",
          "type": "address"
        },
        {
          "internalType": "address",
          "name": "",
          "type": "address"
        },
        {
          "internalType": "uint256[]",
          "name": "",
          "type": "uint256[]"
        },
        {
          "internalType": "uint256[]",
          "name": "",
          "type": "uint256[]"
        },
        {
          "internalType": "bytes",
          "name": "",
          "type": "bytes"
        }
      ],
      "name": "onERC1155BatchReceived",
      "outputs": [
        {
          "internalType": "bytes4",
          "name": "",
          "type": "bytes4"
        }
      ],
      "stateMutability": "pure",
      "type": "function"
    },
    {
      "inputs": [
        {
          "internalType": "address",
          "name": "",
          "type": "address"
        },
        {
          "internalType": "address",
          "name": "",
          "type": "address"
        },
        {
          "internalType": "uint256",
          "name": "",
          "type": "uint256"
        },
        {
          "internalType": "uint256",
          "name": "",
          "type": "uint256"
        },
        {
          "internalType": "bytes",
          "name": "",
          "type": "bytes"
        }
      ],
      "name": "onERC1155Received",
      "outputs": [
        {
          "internalType": "bytes4",
          "name": "",
          "type": "bytes4"
        }
      ],
      "stateMutability": "pure",
      "type": "function"
    },
    {
      "inputs": [
        {
          "internalType": "address",
          "name": "",
          "type": "address"
        },
        {
          "internalType": "address",
          "name": "",
          "type": "address"
        },
        {
          "internalType": "uint256",
          "name": "",
          "type": "uint256"
        },
        {
          "internalType": "bytes",
          "name": "",
          "type": "bytes"
        }
      ],
      "name": "onERC721Received",
      "outputs": [
        {
          "internalType": "bytes4",
          "name": "",
          "type": "bytes4"
        }
      ],
      "stateMutability": "pure",
      "type": "function"
    },
    {
      "inputs": [
        {
          "internalType": "address",
          "name": "",
          "type": "address"
        },
        {
          "internalType": "uint256",
          "name": "",
          "type": "uint256"
        },
        {
          "internalType": "bytes",
          "name": "",
          "type": "bytes"
        }
      ],
      "name": "onERC721Received",
      "outputs": [
        {
          "internalType": "bytes4",
          "name": "",
          "type": "bytes4"
        }
      ],
      "stateMutability": "pure",
      "type": "function"
    },
    {
      "inputs": [],
      "name": "owner",
      "outputs": [
        {
          "internalType": "address",
          "name": "",
          "type": "address"
        }
      ],
      "stateMutability": "view",
      "type": "function"
    },
    {
      "inputs": [],
      "name": "pause",
      "outputs": [],
      "stateMutability": "nonpayable",
      "type": "function"
    },
    {
      "inputs": [],
      "name": "paused",
      "outputs": [
        {
          "internalType": "bool",
          "name": "",
          "type": "bool"
        }
      ],
      "stateMutability": "view",
      "type": "function"
    },
    {
      "inputs": [],
      "name": "renounceOwnership",
      "outputs": [],
      "stateMutability": "nonpayable",
      "type": "function"
    },
    {
      "inputs": [
        {
          "internalType": "address",
          "name": "newOwner",
          "type": "address"
        }
      ],
      "name": "transferOwnership",
      "outputs": [],
      "stateMutability": "nonpayable",
      "type": "function"
    },
    {
      "inputs": [],
      "name": "unpause",
      "outputs": [],
      "stateMutability": "nonpayable",
      "type": "function"
    },
    {
      "stateMutability": "payable",
      "type": "receive"
    }
  ],
  "transactionHash": "0x5281bebf28e6b6eeba85e6665a46ed09e2bec4bc879a75621757610d2a79c20a",
  "args": [
    "0x0123Ee32eC7CD072FC433A0f3696417CA8aaF9f9"
  ],
  "numDeployments": 1,
  "solcInputHash": "ce961eb7631a6ee9b0f07f4cc0f96052",
  "bytecode": "0x60a03461007757601f610f5438819003918201601f19168301916001600160401b0383118484101761007c5780849260209460405283398101031261007757516001600160a01b03811681036100775761005890610092565b604051610e6790816100ed82396080518181816102f801526105f60152f35b600080fd5b634e487b7160e01b600052604160045260246000fd5b600080546040516001600160a01b0393923391858416917f8be0079c531659141344cd1fd0a4f28419497f9722a3daafe3b4186f6b6457e091a36001600160a81b0319163360ff60a01b191617600055600180551660805256fe6080604052600436101561001b575b361561001957600080fd5b005b60003560e01c8063150b7a021461011f5780633f4ba83a1461011657806350b5c16a1461010d5780635c975abb14610104578063715018a6146100fb5780638456cb59146100f25780638da5cb5b146100e9578063a8e5e4aa146100e0578063a9141af4146100d7578063bc197c81146100ce578063f0b9e5ba146100c5578063f23a6e61146100bc5763f2fde38b0361000e576100b7610929565b61000e565b506100b76108b5565b506100b761084c565b506100b76107a2565b506100b7610591565b506100b761048a565b506100b7610455565b506100b76103c6565b506100b7610343565b506100b761031c565b506100b76102ca565b506100b76101ed565b506100b7610179565b73ffffffffffffffffffffffffffffffffffffffff81160361014657565b600080fd5b9181601f840112156101465782359167ffffffffffffffff8311610146576020838186019501011161014657565b503461014657608060031936011261014657610196600435610128565b6101a1602435610128565b60643567ffffffffffffffff8111610146576101c190369060040161014b565b505060206040517f150b7a02000000000000000000000000000000000000000000000000000000008152f35b5034610146576000806003193601126102c757610208610a4a565b805460ff8160a01c1615610269577fffffffffffffffffffffff00ffffffffffffffffffffffffffffffffffffffff1681557f5db9ee0a495bf2e6ff9c91a7834c1ba4fdd244a5e8aa4e537bd38aeae4b073aa6020604051338152a1604051f35b60646040517f08c379a000000000000000000000000000000000000000000000000000000000815260206004820152601460248201527f5061757361626c653a206e6f74207061757365640000000000000000000000006044820152fd5b80fd5b503461014657600060031936011261014657602060405173ffffffffffffffffffffffffffffffffffffffff7f0000000000000000000000000000000000000000000000000000000000000000168152f35b503461014657600060031936011261014657602060ff60005460a01c166040519015158152f35b5034610146576000806003193601126102c75761035e610a4a565b80547fffffffffffffffffffffffff0000000000000000000000000000000000000000811682558173ffffffffffffffffffffffffffffffffffffffff60405192167f8be0079c531659141344cd1fd0a4f28419497f9722a3daafe3b4186f6b6457e08284a3f35b5034610146576000806003193601126102c7576103e1610a4a565b6103e9610d8c565b740100000000000000000000000000000000000000007fffffffffffffffffffffff00ffffffffffffffffffffffffffffffffffffffff8254161781557f62e78cea01bee320cd4e420270b5ea74000d11b0c9f74754ebdbfc544b05a2586020604051338152a1604051f35b503461014657600060031936011261014657602073ffffffffffffffffffffffffffffffffffffffff60005416604051908152f35b503461014657606060031936011261014657600060206004356104ac81610128565b6044602435916104bb83610128565b6104c3610a4a565b60405194859384927f095ea7b300000000000000000000000000000000000000000000000000000000845273ffffffffffffffffffffffffffffffffffffffff809216600485015284356024850152165af18015610553575b61052257005b6020813d821161054b575b8161053a60209383610bb1565b810103126101465761001990610bff565b3d915061052d565b61055b610c32565b61051c565b9181601f840112156101465782359167ffffffffffffffff8311610146576020808501948460051b01011161014657565b506040806003193601126101465767ffffffffffffffff9060048035838111610146576105c19036908301610560565b93602435908111610146576105d99036908401610560565b9290916105e4610d8c565b600260015414610745576002600155947f000000000000000000000000000000000000000000000000000000000000000073ffffffffffffffffffffffffffffffffffffffff169060005b81811061064d57600087610641610df9565b61064a60018055565b51f35b6000806106a28961066761066286888f610b55565b610b73565b8151809381927f4ef501ac0000000000000000000000000000000000000000000000000000000083528b830191909160ff6020820193169052565b0381895afa8015610738575b82918291610705575b506106c190610c3f565b6106cc848a8a610ca4565b906106db8c5180938193610d12565b03915af46106e7610d20565b50156106fb576106f690610ac9565b61062f565b3d6000803e3d6000fd5b6106c1925061072a91508b3d8d11610731575b6107228183610bb1565b810190610c0c565b90916106b7565b503d610718565b610740610c32565b6106ae565b60648260208751917f08c379a0000000000000000000000000000000000000000000000000000000008352820152601f60248201527f5265656e7472616e637947756172643a207265656e7472616e742063616c6c006044820152fd5b50346101465760a0600319360112610146576107bf600435610128565b6107ca602435610128565b67ffffffffffffffff604435818111610146576107eb903690600401610560565b505060643581811161014657610805903690600401610560565b50506084359081116101465761081f90369060040161014b565b50506040517fbc197c81000000000000000000000000000000000000000000000000000000008152602090f35b503461014657606060031936011261014657610869600435610128565b60443567ffffffffffffffff81116101465761088990369060040161014b565b505060206040517ff0b9e5ba000000000000000000000000000000000000000000000000000000008152f35b50346101465760a0600319360112610146576108d2600435610128565b6108dd602435610128565b60843567ffffffffffffffff8111610146576108fd90369060040161014b565b505060206040517ff23a6e61000000000000000000000000000000000000000000000000000000008152f35b50346101465760206003193601126101465760043561094781610128565b61094f610a4a565b73ffffffffffffffffffffffffffffffffffffffff8091169081156109c657600091825491817fffffffffffffffffffffffff0000000000000000000000000000000000000000841617845560405192167f8be0079c531659141344cd1fd0a4f28419497f9722a3daafe3b4186f6b6457e08484a3f35b60846040517f08c379a000000000000000000000000000000000000000000000000000000000815260206004820152602660248201527f4f776e61626c653a206e6577206f776e657220697320746865207a65726f206160448201527f64647265737300000000000000000000000000000000000000000000000000006064820152fd5b73ffffffffffffffffffffffffffffffffffffffff600054163303610a6b57565b60646040517f08c379a000000000000000000000000000000000000000000000000000000000815260206004820152602060248201527f4f776e61626c653a2063616c6c6572206973206e6f7420746865206f776e65726044820152fd5b7fffffffffffffffffffffffffffffffffffffffffffffffffffffffffffffffff8114610af65760010190565b7f4e487b7100000000000000000000000000000000000000000000000000000000600052601160045260246000fd5b507f4e487b7100000000000000000000000000000000000000000000000000000000600052603260045260246000fd5b9190811015610b66575b60051b0190565b610b6e610b25565b610b5f565b3560ff811681036101465790565b507f4e487b7100000000000000000000000000000000000000000000000000000000600052604160045260246000fd5b90601f7fffffffffffffffffffffffffffffffffffffffffffffffffffffffffffffffe0910116810190811067ffffffffffffffff821117610bf257604052565b610bfa610b81565b604052565b5190811515820361014657565b919082604091031261014657610c2f60208351610c2881610128565b9301610bff565b90565b506040513d6000823e3d90fd5b15610c4657565b60646040517f08c379a000000000000000000000000000000000000000000000000000000000815260206004820152601660248201527f636f6f6b3a20696e6163746976652061646170746572000000000000000000006044820152fd5b9190811015610d05575b60051b810135907fffffffffffffffffffffffffffffffffffffffffffffffffffffffffffffffe18136030182121561014657019081359167ffffffffffffffff8311610146576020018236038113610146579190565b610d0d610b25565b610cae565b908092918237016000815290565b3d15610d87573d9067ffffffffffffffff8211610d7a575b60405191610d6e60207fffffffffffffffffffffffffffffffffffffffffffffffffffffffffffffffe0601f8401160184610bb1565b82523d6000602084013e565b610d82610b81565b610d38565b606090565b60ff60005460a01c16610d9b57565b60646040517f08c379a000000000000000000000000000000000000000000000000000000000815260206004820152601060248201527f5061757361626c653a20706175736564000000000000000000000000000000006044820152fd5b4780158015610e06575050565b600080809381938290610e28575b3390f115610e1e57565b610e26610c32565b565b506108fc610e1456fea2646970667358221220b766e6ab69627fc727b785e241a56822c6128b35f1a4fc9078ad4727e83cadc364736f6c634300080e0033",
  "devdoc": {
    "kind": "dev",
    "methods": {
      "approveERC20(address,address,uint256)": {
        "details": "This function is used by the contract owner to grant      ERC20 token approval to a specified operator.",
        "params": {
          "amount": "The operator's allowance.",
          "operator": "The operator to grant approval to.",
          "token": "The ERC20 token to approve."
        }
      },
      "cook(uint8[],bytes[])": {
        "details": "This function executes a set of actions and allows composability      (contract calls) to other contracts that exist in AdapterRegistry.",
        "params": {
          "adapterIds": "An array containing a sequence of ids of adapters to executed.",
          "datas": "The encoded function data to be used when calling each adapter."
        }
      },
      "onERC1155Received(address,address,uint256,uint256,bytes)": {
        "details": "Allows this contract to receive ERC1155 tokens"
      },
      "owner()": {
        "details": "Returns the address of the current owner."
      },
      "pause()": {
        "details": "Allows contract owner to pause `cook()`."
      },
      "paused()": {
        "details": "Returns true if the contract is paused, and false otherwise."
      },
      "renounceOwnership()": {
        "details": "Leaves the contract without owner. It will not be possible to call `onlyOwner` functions anymore. Can only be called by the current owner. NOTE: Renouncing ownership will leave the contract without an owner, thereby removing any functionality that is only available to the owner."
      },
      "transferOwnership(address)": {
        "details": "Transfers ownership of the contract to a new account (`newOwner`). Can only be called by the current owner."
      },
      "unpause()": {
        "details": "Allows contract owner to unpause this contract."
      }
    },
    "version": 1
  },
  "userdoc": {
    "kind": "user",
    "methods": {},
    "version": 1
  },
  "storageLayout": {
    "storage": [
      {
        "astId": 7,
        "contract": "contracts/shoyu/Shoyu.sol:Shoyu",
        "label": "_owner",
        "offset": 0,
        "slot": "0",
        "type": "t_address"
      },
      {
        "astId": 130,
        "contract": "contracts/shoyu/Shoyu.sol:Shoyu",
        "label": "_paused",
        "offset": 20,
        "slot": "0",
        "type": "t_bool"
      },
      {
        "astId": 231,
        "contract": "contracts/shoyu/Shoyu.sol:Shoyu",
        "label": "_status",
        "offset": 0,
        "slot": "1",
        "type": "t_uint256"
      }
    ],
    "types": {
      "t_address": {
        "encoding": "inplace",
        "label": "address",
        "numberOfBytes": "20"
      },
      "t_bool": {
        "encoding": "inplace",
        "label": "bool",
        "numberOfBytes": "1"
      },
      "t_uint256": {
        "encoding": "inplace",
        "label": "uint256",
        "numberOfBytes": "32"
      }
    }
  }
}