{
  "address": "0xE9308Ae08593724b39eD44D64Cf65e98009D87bc",
  "abi": [
    {
      "anonymous": false,
      "inputs": [
        {
          "indexed": false,
          "internalType": "address",
          "name": "previousAdmin",
          "type": "address"
        },
        {
          "indexed": false,
          "internalType": "address",
          "name": "newAdmin",
          "type": "address"
        }
      ],
      "name": "AdminChanged",
      "type": "event"
    },
    {
      "anonymous": false,
      "inputs": [
        {
          "indexed": true,
          "internalType": "address",
          "name": "beacon",
          "type": "address"
        }
      ],
      "name": "BeaconUpgraded",
      "type": "event"
    },
    {
      "anonymous": false,
      "inputs": [
        {
          "indexed": false,
          "internalType": "uint8",
          "name": "version",
          "type": "uint8"
        }
      ],
      "name": "Initialized",
      "type": "event"
    },
    {
      "anonymous": false,
      "inputs": [
        {
          "indexed": true,
          "internalType": "address",
          "name": "previousOwner",
          "type": "address"
        },
        {
          "indexed": true,
          "internalType": "address",
          "name": "newOwner",
          "type": "address"
        }
      ],
      "name": "OwnershipTransferred",
      "type": "event"
    },
    {
      "anonymous": false,
      "inputs": [
        {
          "indexed": false,
          "internalType": "address",
          "name": "account",
          "type": "address"
        }
      ],
      "name": "Paused",
      "type": "event"
    },
    {
      "anonymous": false,
      "inputs": [
        {
          "indexed": false,
          "internalType": "address",
          "name": "account",
          "type": "address"
        }
      ],
      "name": "Unpaused",
      "type": "event"
    },
    {
      "anonymous": false,
      "inputs": [
        {
          "indexed": true,
          "internalType": "address",
          "name": "implementation",
          "type": "address"
        }
      ],
      "name": "Upgraded",
      "type": "event"
    },
    {
      "inputs": [],
      "name": "adapterRegistry",
      "outputs": [
        {
          "internalType": "contract AdapterRegistry",
          "name": "",
          "type": "address"
        }
      ],
      "stateMutability": "view",
      "type": "function"
    },
    {
      "inputs": [
        {
          "internalType": "address",
          "name": "token",
          "type": "address"
        },
        {
          "internalType": "address",
          "name": "operator",
          "type": "address"
        },
        {
          "internalType": "uint256",
          "name": "amount",
          "type": "uint256"
        }
      ],
      "name": "approveERC20",
      "outputs": [],
      "stateMutability": "nonpayable",
      "type": "function"
    },
    {
      "inputs": [
        {
          "internalType": "uint8[]",
          "name": "adapterIds",
          "type": "uint8[]"
        },
        {
          "internalType": "bytes[]",
          "name": "datas",
          "type": "bytes[]"
        }
      ],
      "name": "cook",
      "outputs": [],
      "stateMutability": "payable",
      "type": "function"
    },
    {
      "inputs": [
        {
          "internalType": "address",
          "name": "_adapterRegistery",
          "type": "address"
        },
        {
          "internalType": "address",
          "name": "_bentobox",
          "type": "address"
        }
      ],
      "name": "initialize",
      "outputs": [],
      "stateMutability": "nonpayable",
      "type": "function"
    },
    {
      "inputs": [
        {
          "internalType": "address",
          "name": "",
          "type": "address"
        },
        {
          "internalType": "address",
          "name": "",
          "type": "address"
        },
        {
          "internalType": "uint256[]",
          "name": "",
          "type": "uint256[]"
        },
        {
          "internalType": "uint256[]",
          "name": "",
          "type": "uint256[]"
        },
        {
          "internalType": "bytes",
          "name": "",
          "type": "bytes"
        }
      ],
      "name": "onERC1155BatchReceived",
      "outputs": [
        {
          "internalType": "bytes4",
          "name": "",
          "type": "bytes4"
        }
      ],
      "stateMutability": "nonpayable",
      "type": "function"
    },
    {
      "inputs": [
        {
          "internalType": "address",
          "name": "",
          "type": "address"
        },
        {
          "internalType": "address",
          "name": "",
          "type": "address"
        },
        {
          "internalType": "uint256",
          "name": "",
          "type": "uint256"
        },
        {
          "internalType": "uint256",
          "name": "",
          "type": "uint256"
        },
        {
          "internalType": "bytes",
          "name": "",
          "type": "bytes"
        }
      ],
      "name": "onERC1155Received",
      "outputs": [
        {
          "internalType": "bytes4",
          "name": "",
          "type": "bytes4"
        }
      ],
      "stateMutability": "nonpayable",
      "type": "function"
    },
    {
      "inputs": [
        {
          "internalType": "address",
          "name": "",
          "type": "address"
        },
        {
          "internalType": "address",
          "name": "",
          "type": "address"
        },
        {
          "internalType": "uint256",
          "name": "",
          "type": "uint256"
        },
        {
          "internalType": "bytes",
          "name": "",
          "type": "bytes"
        }
      ],
      "name": "onERC721Received",
      "outputs": [
        {
          "internalType": "bytes4",
          "name": "",
          "type": "bytes4"
        }
      ],
      "stateMutability": "nonpayable",
      "type": "function"
    },
    {
      "inputs": [
        {
          "internalType": "address",
          "name": "",
          "type": "address"
        },
        {
          "internalType": "uint256",
          "name": "",
          "type": "uint256"
        },
        {
          "internalType": "bytes",
          "name": "",
          "type": "bytes"
        }
      ],
      "name": "onERC721Received",
      "outputs": [
        {
          "internalType": "bytes4",
          "name": "",
          "type": "bytes4"
        }
      ],
      "stateMutability": "nonpayable",
      "type": "function"
    },
    {
      "inputs": [],
      "name": "owner",
      "outputs": [
        {
          "internalType": "address",
          "name": "",
          "type": "address"
        }
      ],
      "stateMutability": "view",
      "type": "function"
    },
    {
      "inputs": [],
      "name": "paused",
      "outputs": [
        {
          "internalType": "bool",
          "name": "",
          "type": "bool"
        }
      ],
      "stateMutability": "view",
      "type": "function"
    },
    {
      "inputs": [],
      "name": "proxiableUUID",
      "outputs": [
        {
          "internalType": "bytes32",
          "name": "",
          "type": "bytes32"
        }
      ],
      "stateMutability": "view",
      "type": "function"
    },
    {
      "inputs": [],
      "name": "renounceOwnership",
      "outputs": [],
      "stateMutability": "nonpayable",
      "type": "function"
    },
    {
      "inputs": [
        {
          "internalType": "address",
          "name": "newOwner",
          "type": "address"
        }
      ],
      "name": "transferOwnership",
      "outputs": [],
      "stateMutability": "nonpayable",
      "type": "function"
    },
    {
      "inputs": [
        {
          "internalType": "address",
          "name": "newImplementation",
          "type": "address"
        }
      ],
      "name": "upgradeTo",
      "outputs": [],
      "stateMutability": "nonpayable",
      "type": "function"
    },
    {
      "inputs": [
        {
          "internalType": "address",
          "name": "newImplementation",
          "type": "address"
        },
        {
          "internalType": "bytes",
          "name": "data",
          "type": "bytes"
        }
      ],
      "name": "upgradeToAndCall",
      "outputs": [],
      "stateMutability": "payable",
      "type": "function"
    },
    {
      "stateMutability": "payable",
      "type": "receive"
    }
  ],
  "numDeployments": 3,
  "solcInputHash": "f88f57136358a3b31827c2ad30206828",
  "bytecode": "0x60a080604052346100315730608052611a519081610037823960805181818161024c0152818161072f01526113f00152f35b600080fdfe6080604052600436101561001b575b361561001957600080fd5b005b60003560e01c8063150b7a02146101475780633659cfe61461013e578063485cc955146101355780634f1ef2861461012c57806350b5c16a1461012357806352d1902d1461011a5780635c975abb14610111578063715018a6146101085780638da5cb5b146100ff578063a8e5e4aa146100f6578063a9141af4146100ed578063bc197c81146100e4578063f0b9e5ba146100db578063f23a6e61146100d25763f2fde38b0361000e576100cd610d72565b61000e565b506100cd610cfe565b506100cd610c95565b506100cd610beb565b506100cd6109ec565b506100cd6108e5565b506100cd6108b0565b506100cd610828565b506100cd610804565b506100cd610706565b506100cd6106d1565b506100cd610654565b506100cd610403565b506100cd610215565b506100cd6101a1565b73ffffffffffffffffffffffffffffffffffffffff81160361016e57565b600080fd5b9181601f8401121561016e5782359167ffffffffffffffff831161016e576020838186019501011161016e57565b503461016e57608060031936011261016e576101be600435610150565b6101c9602435610150565b60643567ffffffffffffffff811161016e576101e9903690600401610173565b505060206040517f150b7a02000000000000000000000000000000000000000000000000000000008152f35b503461016e57602060031936011261016e5760043561023381610150565b73ffffffffffffffffffffffffffffffffffffffff90817f0000000000000000000000000000000000000000000000000000000000000000169161027983301415610f2f565b6102a87f360894a13ba1a3210667c828492db98dca3e2076cc3735a920a3ca505d382bbc938285541614610fba565b6102b0610e41565b604051906102bd82610585565b600082527f4910fdfa16fed3260ed0e7147f7cc6da11a60208b5b9406d12a635614ffd91435460ff16156102f757505061001991506110ec565b6020600491604094939451928380927f52d1902d00000000000000000000000000000000000000000000000000000000825286165afa600091816103d3575b506103c0576040517f08c379a000000000000000000000000000000000000000000000000000000000815260206004820152602e60248201527f45524331393637557067726164653a206e657720696d706c656d656e7461746960448201527f6f6e206973206e6f7420555550530000000000000000000000000000000000006064820152608490fd5b610019936103ce9114611061565b6111d8565b6103f591925060203d81116103fc575b6103ed81836105ca565b810190611045565b9038610336565b503d6103e3565b503461016e57604060031936011261016e5760043561042181610150565b61048f60243561043081610150565b6000549261045560ff8560081c161580958196610547575b8115610527575b50611647565b8361048660017fffffffffffffffffffffffffffffffffffffffffffffffffffffffffffffff006000541617600055565b6104f1576116d2565b61049557005b6104c27fffffffffffffffffffffffffffffffffffffffffffffffffffffffffffff00ff60005416600055565b604051600181527f7f26b83ff96e1f2b6a682f133852f6798a09c465da95921460cefb384740249890602090a1005b6105226101007fffffffffffffffffffffffffffffffffffffffffffffffffffffffffffff00ff6000541617600055565b6116d2565b303b15915081610539575b503861044f565b6001915060ff161438610532565b600160ff8216109150610448565b507f4e487b7100000000000000000000000000000000000000000000000000000000600052604160045260246000fd5b6020810190811067ffffffffffffffff8211176105a157604052565b6105a9610555565b604052565b6060810190811067ffffffffffffffff8211176105a157604052565b90601f7fffffffffffffffffffffffffffffffffffffffffffffffffffffffffffffffe0910116810190811067ffffffffffffffff8211176105a157604052565b7fffffffffffffffffffffffffffffffffffffffffffffffffffffffffffffffe0601f60209267ffffffffffffffff8111610647575b01160190565b61064f610555565b610641565b50604060031936011261016e5760043561066d81610150565b6024359067ffffffffffffffff821161016e573660238301121561016e5781600401359061069a8261060b565b916106a860405193846105ca565b808352366024828601011161016e576020816000926024610019970183870137840101526113d7565b503461016e57600060031936011261016e57602073ffffffffffffffffffffffffffffffffffffffff60fb5416604051908152f35b503461016e57600060031936011261016e5773ffffffffffffffffffffffffffffffffffffffff7f0000000000000000000000000000000000000000000000000000000000000000163003610780576040517f360894a13ba1a3210667c828492db98dca3e2076cc3735a920a3ca505d382bbc8152602090f35b60846040517f08c379a000000000000000000000000000000000000000000000000000000000815260206004820152603860248201527f555550535570677261646561626c653a206d757374206e6f742062652063616c60448201527f6c6564207468726f7567682064656c656761746563616c6c00000000000000006064820152fd5b503461016e57600060031936011261016e57602060ff60c954166040519015158152f35b503461016e576000806003193601126108ad57610843610e41565b6097547fffffffffffffffffffffffff000000000000000000000000000000000000000081166097558173ffffffffffffffffffffffffffffffffffffffff60405192167f8be0079c531659141344cd1fd0a4f28419497f9722a3daafe3b4186f6b6457e08284a3f35b80fd5b503461016e57600060031936011261016e57602073ffffffffffffffffffffffffffffffffffffffff60975416604051908152f35b503461016e57606060031936011261016e576000602060043561090781610150565b60446024359161091683610150565b61091e610e41565b60405194859384927f095ea7b300000000000000000000000000000000000000000000000000000000845273ffffffffffffffffffffffffffffffffffffffff809216600485015284356024850152165af180156109ae575b61097d57005b6020813d82116109a6575b81610995602093836105ca565b8101031261016e57610019906118f4565b3d9150610988565b6109b6611054565b610977565b9181601f8401121561016e5782359167ffffffffffffffff831161016e576020808501948460051b01011161016e57565b5060408060031936011261016e5767ffffffffffffffff906004803583811161016e57610a1c90369083016109bb565b9360243590811161016e57610a3490369084016109bb565b92909160ff60c95416610b8e5760005b868110610a5957600086610a56611a08565b51f35b600080610aec888a610aaf610aaa87610aa3610a8a60fb5473ffffffffffffffffffffffffffffffffffffffff1690565b73ffffffffffffffffffffffffffffffffffffffff1690565b938a6118c8565b6118e6565b90825180809581947f4ef501ac0000000000000000000000000000000000000000000000000000000083528c830191909160ff6020820193169052565b03915afa8015610b81575b82918291610b4e575b50610b0a90611927565b610b1584898961198c565b90610b248b51809381936119fa565b03915af4610b306113a7565b5015610b4457610b3f9061183c565b610a44565b3d6000803e3d6000fd5b610b0a9250610b7391508a3d8c11610b7a575b610b6b81836105ca565b810190611901565b9091610b00565b503d610b61565b610b89611054565b610af7565b60648260208751917f08c379a0000000000000000000000000000000000000000000000000000000008352820152601060248201527f5061757361626c653a20706175736564000000000000000000000000000000006044820152fd5b503461016e5760a060031936011261016e57610c08600435610150565b610c13602435610150565b67ffffffffffffffff60443581811161016e57610c349036906004016109bb565b505060643581811161016e57610c4e9036906004016109bb565b505060843590811161016e57610c68903690600401610173565b50506040517fbc197c81000000000000000000000000000000000000000000000000000000008152602090f35b503461016e57606060031936011261016e57610cb2600435610150565b60443567ffffffffffffffff811161016e57610cd2903690600401610173565b505060206040517ff0b9e5ba000000000000000000000000000000000000000000000000000000008152f35b503461016e5760a060031936011261016e57610d1b600435610150565b610d26602435610150565b60843567ffffffffffffffff811161016e57610d46903690600401610173565b505060206040517ff23a6e61000000000000000000000000000000000000000000000000000000008152f35b503461016e57602060031936011261016e57600435610d9081610150565b610d98610e41565b73ffffffffffffffffffffffffffffffffffffffff811615610dbd5761001990610ec0565b60846040517f08c379a000000000000000000000000000000000000000000000000000000000815260206004820152602660248201527f4f776e61626c653a206e6577206f776e657220697320746865207a65726f206160448201527f64647265737300000000000000000000000000000000000000000000000000006064820152fd5b73ffffffffffffffffffffffffffffffffffffffff609754163303610e6257565b60646040517f08c379a000000000000000000000000000000000000000000000000000000000815260206004820152602060248201527f4f776e61626c653a2063616c6c6572206973206e6f7420746865206f776e65726044820152fd5b6097549073ffffffffffffffffffffffffffffffffffffffff80911691827fffffffffffffffffffffffff0000000000000000000000000000000000000000821617609755167f8be0079c531659141344cd1fd0a4f28419497f9722a3daafe3b4186f6b6457e06000604051a3565b15610f3657565b60846040517f08c379a000000000000000000000000000000000000000000000000000000000815260206004820152602c60248201527f46756e6374696f6e206d7573742062652063616c6c6564207468726f7567682060448201527f64656c656761746563616c6c00000000000000000000000000000000000000006064820152fd5b15610fc157565b60846040517f08c379a000000000000000000000000000000000000000000000000000000000815260206004820152602c60248201527f46756e6374696f6e206d7573742062652063616c6c6564207468726f7567682060448201527f6163746976652070726f787900000000000000000000000000000000000000006064820152fd5b9081602091031261016e575190565b506040513d6000823e3d90fd5b1561106857565b60846040517f08c379a000000000000000000000000000000000000000000000000000000000815260206004820152602960248201527f45524331393637557067726164653a20756e737570706f727465642070726f7860448201527f6961626c655555494400000000000000000000000000000000000000000000006064820152fd5b803b156111545773ffffffffffffffffffffffffffffffffffffffff7f360894a13ba1a3210667c828492db98dca3e2076cc3735a920a3ca505d382bbc91167fffffffffffffffffffffffff0000000000000000000000000000000000000000825416179055565b60846040517f08c379a000000000000000000000000000000000000000000000000000000000815260206004820152602d60248201527f455243313936373a206e657720696d706c656d656e746174696f6e206973206e60448201527f6f74206120636f6e7472616374000000000000000000000000000000000000006064820152fd5b6111e1816110ec565b60405173ffffffffffffffffffffffffffffffffffffffff82167fbc7cd75a20ee27fd9adebab32041f755214dbc6bffa90cc0225b39da2e5c2d3b600083a282511580159061133c575b61123457505050565b813b156112ba5750600082819260206112b795519201905af46112556113a7565b60405191611262836105ae565b602783527f416464726573733a206c6f772d6c6576656c2064656c65676174652063616c6c60208401527f206661696c6564000000000000000000000000000000000000000000000000006040840152611588565b50565b807f08c379a0000000000000000000000000000000000000000000000000000000006084925260206004820152602660248201527f416464726573733a2064656c65676174652063616c6c20746f206e6f6e2d636f60448201527f6e747261637400000000000000000000000000000000000000000000000000006064820152fd5b50600061122b565b61134d816110ec565b60405173ffffffffffffffffffffffffffffffffffffffff82167fbc7cd75a20ee27fd9adebab32041f755214dbc6bffa90cc0225b39da2e5c2d3b600083a282511580159061139f5761123457505050565b50600161122b565b3d156113d2573d906113b88261060b565b916113c660405193846105ca565b82523d6000602084013e565b606090565b73ffffffffffffffffffffffffffffffffffffffff91827f0000000000000000000000000000000000000000000000000000000000000000169261141d84301415610f2f565b61144c7f360894a13ba1a3210667c828492db98dca3e2076cc3735a920a3ca505d382bbc948286541614610fba565b611454610e41565b7f4910fdfa16fed3260ed0e7147f7cc6da11a60208b5b9406d12a635614ffd91435460ff161561148c57505061148a91506110ec565b565b6020600491604094939451928380927f52d1902d00000000000000000000000000000000000000000000000000000000825286165afa60009181611568575b50611555576040517f08c379a000000000000000000000000000000000000000000000000000000000815260206004820152602e60248201527f45524331393637557067726164653a206e657720696d706c656d656e7461746960448201527f6f6e206973206e6f7420555550530000000000000000000000000000000000006064820152608490fd5b61148a936115639114611061565b611344565b61158191925060203d81116103fc576103ed81836105ca565b90386114cb565b90919015611594575090565b8151156115a45750805190602001fd5b604051907f08c379a00000000000000000000000000000000000000000000000000000000082528160208060048301528251928360248401526000915b84831061162e575050601f836044947fffffffffffffffffffffffffffffffffffffffffffffffffffffffffffffffe09311611621575b01168101030190fd5b6000858286010152611618565b81830181015186840160440152859350918201916115e1565b1561164e57565b60846040517f08c379a000000000000000000000000000000000000000000000000000000000815260206004820152602e60248201527f496e697469616c697a61626c653a20636f6e747261637420697320616c72656160448201527f647920696e697469616c697a65640000000000000000000000000000000000006064820152fd5b9073ffffffffffffffffffffffffffffffffffffffff8092167fffffffffffffffffffffffff000000000000000000000000000000000000000060fb54161760fb5516803b1561016e57600080916004604051809481937faee4d1b20000000000000000000000000000000000000000000000000000000083525af180156117a4575b61177e575b5061177560ff60005460081c16611770816117b1565b6117b1565b61148a33610ec0565b67ffffffffffffffff8111611797575b6040523861175a565b61179f610555565b61178e565b6117ac611054565b611755565b156117b857565b60846040517f08c379a000000000000000000000000000000000000000000000000000000000815260206004820152602b60248201527f496e697469616c697a61626c653a20636f6e7472616374206973206e6f74206960448201527f6e697469616c697a696e670000000000000000000000000000000000000000006064820152fd5b7fffffffffffffffffffffffffffffffffffffffffffffffffffffffffffffffff81146118695760010190565b7f4e487b7100000000000000000000000000000000000000000000000000000000600052601160045260246000fd5b507f4e487b7100000000000000000000000000000000000000000000000000000000600052603260045260246000fd5b91908110156118d9575b60051b0190565b6118e1611898565b6118d2565b3560ff8116810361016e5790565b5190811515820361016e57565b919082604091031261016e576119246020835161191d81610150565b93016118f4565b90565b1561192e57565b60646040517f08c379a000000000000000000000000000000000000000000000000000000000815260206004820152601660248201527f636f6f6b3a20696e6163746976652061646170746572000000000000000000006044820152fd5b91908110156119ed575b60051b810135907fffffffffffffffffffffffffffffffffffffffffffffffffffffffffffffffe18136030182121561016e57019081359167ffffffffffffffff831161016e57602001823603811361016e579190565b6119f5611898565b611996565b908092918237016000815290565b47611a0f57565b600080808047335af15056fea26469706673582212207e28c4e5b0b78b25e0f7ccac24f85dc89655e81f16bcf95c1fb307cc416d4dc164736f6c634300080e0033",
  "devdoc": {
    "kind": "dev",
    "methods": {
      "approveERC20(address,address,uint256)": {
        "details": "This function is used by the contract owner to grant      ERC20 token approval to a specified operator.",
        "params": {
          "amount": "The operator's allowance.",
          "operator": "The operator to grant approval to.",
          "token": "The ERC20 token to approve."
        }
      },
      "cook(uint8[],bytes[])": {
        "details": "This function executes a set of actions and allows composability      (contract calls) to other contracts that exist in AdapterRegistry.",
        "params": {
          "adapterIds": "An array containing a sequence of ids of adapters to executed.",
          "datas": "The encoded function data to be used when calling each adapter."
        }
      },
      "onERC1155Received(address,address,uint256,uint256,bytes)": {
        "details": "Allows this contract to receive ERC1155 tokens"
      },
      "owner()": {
        "details": "Returns the address of the current owner."
      },
      "paused()": {
        "details": "Returns true if the contract is paused, and false otherwise."
      },
      "proxiableUUID()": {
        "details": "Implementation of the ERC1822 {proxiableUUID} function. This returns the storage slot used by the implementation. It is used to validate that the this implementation remains valid after an upgrade. IMPORTANT: A proxy pointing at a proxiable contract should not be considered proxiable itself, because this risks bricking a proxy that upgrades to it, by delegating to itself until out of gas. Thus it is critical that this function revert if invoked through a proxy. This is guaranteed by the `notDelegated` modifier."
      },
      "renounceOwnership()": {
        "details": "Leaves the contract without owner. It will not be possible to call `onlyOwner` functions anymore. Can only be called by the current owner. NOTE: Renouncing ownership will leave the contract without an owner, thereby removing any functionality that is only available to the owner."
      },
      "transferOwnership(address)": {
        "details": "Transfers ownership of the contract to a new account (`newOwner`). Can only be called by the current owner."
      },
      "upgradeTo(address)": {
        "details": "Upgrade the implementation of the proxy to `newImplementation`. Calls {_authorizeUpgrade}. Emits an {Upgraded} event."
      },
      "upgradeToAndCall(address,bytes)": {
        "details": "Upgrade the implementation of the proxy to `newImplementation`, and subsequently execute the function call encoded in `data`. Calls {_authorizeUpgrade}. Emits an {Upgraded} event."
      }
    },
    "version": 1
  },
  "userdoc": {
    "kind": "user",
    "methods": {},
    "version": 1
  },
  "storageLayout": {
    "storage": [
      {
        "astId": 527,
        "contract": "contracts/shoyu/Shoyu.sol:Shoyu",
        "label": "_initialized",
        "offset": 0,
        "slot": "0",
        "type": "t_uint8"
      },
      {
        "astId": 530,
        "contract": "contracts/shoyu/Shoyu.sol:Shoyu",
        "label": "_initializing",
        "offset": 1,
        "slot": "0",
        "type": "t_bool"
      },
      {
        "astId": 509,
        "contract": "contracts/shoyu/Shoyu.sol:Shoyu",
        "label": "__gap",
        "offset": 0,
        "slot": "1",
        "type": "t_array(t_uint256)50_storage"
      },
      {
        "astId": 806,
        "contract": "contracts/shoyu/Shoyu.sol:Shoyu",
        "label": "__gap",
        "offset": 0,
        "slot": "51",
        "type": "t_array(t_uint256)50_storage"
      },
      {
        "astId": 1218,
        "contract": "contracts/shoyu/Shoyu.sol:Shoyu",
        "label": "__gap",
        "offset": 0,
        "slot": "101",
        "type": "t_array(t_uint256)50_storage"
      },
      {
        "astId": 10,
        "contract": "contracts/shoyu/Shoyu.sol:Shoyu",
        "label": "_owner",
        "offset": 0,
        "slot": "151",
        "type": "t_address"
      },
      {
        "astId": 130,
        "contract": "contracts/shoyu/Shoyu.sol:Shoyu",
        "label": "__gap",
        "offset": 0,
        "slot": "152",
        "type": "t_array(t_uint256)49_storage"
      },
      {
        "astId": 828,
        "contract": "contracts/shoyu/Shoyu.sol:Shoyu",
        "label": "_paused",
        "offset": 0,
        "slot": "201",
        "type": "t_bool"
      },
      {
        "astId": 933,
        "contract": "contracts/shoyu/Shoyu.sol:Shoyu",
        "label": "__gap",
        "offset": 0,
        "slot": "202",
        "type": "t_array(t_uint256)49_storage"
      },
      {
        "astId": 5145,
        "contract": "contracts/shoyu/Shoyu.sol:Shoyu",
        "label": "adapterRegistry",
        "offset": 0,
        "slot": "251",
        "type": "t_contract(AdapterRegistry)7003"
      }
    ],
    "types": {
      "t_address": {
        "encoding": "inplace",
        "label": "address",
        "numberOfBytes": "20"
      },
      "t_array(t_uint256)49_storage": {
        "base": "t_uint256",
        "encoding": "inplace",
        "label": "uint256[49]",
        "numberOfBytes": "1568"
      },
      "t_array(t_uint256)50_storage": {
        "base": "t_uint256",
        "encoding": "inplace",
        "label": "uint256[50]",
        "numberOfBytes": "1600"
      },
      "t_bool": {
        "encoding": "inplace",
        "label": "bool",
        "numberOfBytes": "1"
      },
      "t_contract(AdapterRegistry)7003": {
        "encoding": "inplace",
        "label": "contract AdapterRegistry",
        "numberOfBytes": "20"
      },
      "t_uint256": {
        "encoding": "inplace",
        "label": "uint256",
        "numberOfBytes": "32"
      },
      "t_uint8": {
        "encoding": "inplace",
        "label": "uint8",
        "numberOfBytes": "1"
      }
    }
  }
}