{
  "address": "0xf780B54D0f09FB6938A2C9eDdAa13868b982c3Ae",
  "abi": [
    {
      "inputs": [
        {
          "internalType": "address",
          "name": "_weth",
          "type": "address"
        },
        {
          "internalType": "address",
          "name": "_factory",
          "type": "address"
        },
        {
          "internalType": "bytes32",
          "name": "_pairCodeHash",
          "type": "bytes32"
        },
        {
          "internalType": "address",
          "name": "_conduitController",
          "type": "address"
        },
        {
          "internalType": "address",
          "name": "_bentobox",
          "type": "address"
        }
      ],
      "stateMutability": "nonpayable",
      "type": "constructor"
    },
    {
      "inputs": [
        {
          "internalType": "address",
          "name": "token",
          "type": "address"
        },
        {
          "internalType": "address",
          "name": "from",
          "type": "address"
        },
        {
          "internalType": "address",
          "name": "to",
          "type": "address"
        },
        {
          "internalType": "uint256",
          "name": "amount",
          "type": "uint256"
        }
      ],
      "name": "BadReturnValueFromERC20OnTransfer",
      "type": "error"
    },
    {
      "inputs": [
        {
          "internalType": "address",
          "name": "token",
          "type": "address"
        },
        {
          "internalType": "address",
          "name": "from",
          "type": "address"
        },
        {
          "internalType": "address",
          "name": "to",
          "type": "address"
        },
        {
          "internalType": "uint256[]",
          "name": "identifiers",
          "type": "uint256[]"
        },
        {
          "internalType": "uint256[]",
          "name": "amounts",
          "type": "uint256[]"
        }
      ],
      "name": "ERC1155BatchTransferGenericFailure",
      "type": "error"
    },
    {
      "inputs": [],
      "name": "Invalid1155BatchTransferEncoding",
      "type": "error"
    },
    {
      "inputs": [],
      "name": "InvalidERC721TransferAmount",
      "type": "error"
    },
    {
      "inputs": [],
      "name": "MissingItemAmount",
      "type": "error"
    },
    {
      "inputs": [
        {
          "internalType": "address",
          "name": "account",
          "type": "address"
        }
      ],
      "name": "NoContract",
      "type": "error"
    },
    {
      "inputs": [
        {
          "internalType": "address",
          "name": "token",
          "type": "address"
        },
        {
          "internalType": "address",
          "name": "from",
          "type": "address"
        },
        {
          "internalType": "address",
          "name": "to",
          "type": "address"
        },
        {
          "internalType": "uint256",
          "name": "identifier",
          "type": "uint256"
        },
        {
          "internalType": "uint256",
          "name": "amount",
          "type": "uint256"
        }
      ],
      "name": "TokenTransferGenericFailure",
      "type": "error"
    },
    {
      "inputs": [],
      "name": "UnusedItemParameters",
      "type": "error"
    },
    {
      "inputs": [],
      "name": "bentoBox",
      "outputs": [
        {
          "internalType": "contract IBentoBoxMinimal",
          "name": "",
          "type": "address"
        }
      ],
      "stateMutability": "view",
      "type": "function"
    },
    {
      "inputs": [
        {
          "internalType": "bool",
          "name": "approve",
          "type": "bool"
        },
        {
          "internalType": "address",
          "name": "token",
          "type": "address"
        },
        {
          "internalType": "address",
          "name": "to",
          "type": "address"
        },
        {
          "internalType": "uint256",
          "name": "amount",
          "type": "uint256"
        },
        {
          "internalType": "uint256",
          "name": "share",
          "type": "uint256"
        },
        {
          "internalType": "uint256",
          "name": "value",
          "type": "uint256"
        }
      ],
      "name": "depositToBentoBox",
      "outputs": [],
      "stateMutability": "nonpayable",
      "type": "function"
    },
    {
      "inputs": [
        {
          "internalType": "uint256",
          "name": "amountIn",
          "type": "uint256"
        },
        {
          "internalType": "uint256",
          "name": "amountOutMin",
          "type": "uint256"
        },
        {
          "internalType": "address[]",
          "name": "path",
          "type": "address[]"
        },
        {
          "internalType": "address payable",
          "name": "to",
          "type": "address"
        },
        {
          "internalType": "bool",
          "name": "unwrapNative",
          "type": "bool"
        }
      ],
      "name": "swapExactIn",
      "outputs": [],
      "stateMutability": "payable",
      "type": "function"
    },
    {
      "inputs": [
        {
          "internalType": "uint256",
          "name": "amountOut",
          "type": "uint256"
        },
        {
          "internalType": "uint256",
          "name": "amountInMax",
          "type": "uint256"
        },
        {
          "internalType": "address[]",
          "name": "path",
          "type": "address[]"
        },
        {
          "internalType": "address payable",
          "name": "to",
          "type": "address"
        },
        {
          "internalType": "enum TokenSource",
          "name": "tokenSource",
          "type": "uint8"
        },
        {
          "internalType": "bytes",
          "name": "transferData",
          "type": "bytes"
        },
        {
          "internalType": "bool",
          "name": "unwrapNative",
          "type": "bool"
        }
      ],
      "name": "swapExactOut",
      "outputs": [],
      "stateMutability": "payable",
      "type": "function"
    },
    {
      "inputs": [
        {
          "internalType": "address",
          "name": "token",
          "type": "address"
        },
        {
          "internalType": "address",
          "name": "to",
          "type": "address"
        },
        {
          "internalType": "uint256",
          "name": "tokenId",
          "type": "uint256"
        },
        {
          "internalType": "uint256",
          "name": "amount",
          "type": "uint256"
        },
        {
          "internalType": "enum TokenSource",
          "name": "source",
          "type": "uint8"
        },
        {
          "internalType": "bytes",
          "name": "data",
          "type": "bytes"
        }
      ],
      "name": "transferERC1155From",
      "outputs": [],
      "stateMutability": "nonpayable",
      "type": "function"
    },
    {
      "inputs": [
        {
          "internalType": "address",
          "name": "token",
          "type": "address"
        },
        {
          "internalType": "address",
          "name": "to",
          "type": "address"
        },
        {
          "internalType": "uint256",
          "name": "amount",
          "type": "uint256"
        },
        {
          "internalType": "enum TokenSource",
          "name": "source",
          "type": "uint8"
        },
        {
          "internalType": "bytes",
          "name": "data",
          "type": "bytes"
        }
      ],
      "name": "transferERC20From",
      "outputs": [],
      "stateMutability": "nonpayable",
      "type": "function"
    },
    {
      "inputs": [
        {
          "internalType": "address",
          "name": "token",
          "type": "address"
        },
        {
          "internalType": "address",
          "name": "to",
          "type": "address"
        },
        {
          "internalType": "uint256",
          "name": "tokenId",
          "type": "uint256"
        },
        {
          "internalType": "enum TokenSource",
          "name": "source",
          "type": "uint8"
        },
        {
          "internalType": "bytes",
          "name": "data",
          "type": "bytes"
        }
      ],
      "name": "transferERC721From",
      "outputs": [],
      "stateMutability": "nonpayable",
      "type": "function"
    },
    {
      "inputs": [
        {
          "internalType": "uint256",
          "name": "amount",
          "type": "uint256"
        },
        {
          "internalType": "address payable",
          "name": "to",
          "type": "address"
        }
      ],
      "name": "unwrapNativeToken",
      "outputs": [],
      "stateMutability": "payable",
      "type": "function"
    },
    {
      "inputs": [
        {
          "internalType": "uint256",
          "name": "amount",
          "type": "uint256"
        }
      ],
      "name": "wrapNativeToken",
      "outputs": [],
      "stateMutability": "payable",
      "type": "function"
    }
  ],
  "transactionHash": "0xfa6fac7a36218c0d8ec4087725e484e5689fb0317db46e02fbe7045c5d0d1eb1",
  "args": [
    "0xB4FBF271143F4FBf7B91A5ded31805e42b2208d6",
    "0xc35DADB65012eC5796536bD9864eD8773aBc74C4",
    "0xe18a34eb0e04b04f7a0ac29a6e80748dca96319b42c54d679cb821dca90c6303",
    "0x00000000006ce100a8b5ed8edf18ceef9e500697",
    "0xF5BCE5077908a1b7370B9ae04AdC565EBd643966"
  ],
  "numDeployments": 1,
  "solcInputHash": "341995732b39b6fbda29df0a41772b4d",
  "bytecode": "0x61014080604052346200012f5760a08162002d6d803803809162000024828562000134565b8339810103126200012f57806200003f62000077926200016e565b906200004e602082016200016e565b60408201519062000070608062000068606086016200016e565b94016200016e565b9362000183565b604051612b559081620002188239608051818181611281015281816114d101526115d7015260a05181818161125f015281816114af0152611609015260c05181818161066e0152818161070d015281816107f001528181610e2301528181610e9e0152610fcd015260e0518181816118f701528181611c5a0152611ead01526101005181818161191801528181611c7c0152611ecf01526101205181818161042a01528181610ab601528181610b9101526117880152f35b600080fd5b601f909101601f19168101906001600160401b038211908210176200015857604052565b634e487b7160e01b600052604160045260246000fd5b51906001600160a01b03821682036200012f57565b60408051630a96ad3960e01b81529195939492936001600160a01b03939092908416918082600481865afa9081156200020d57600091620001d8575b5060a052506080521660c05260e0526101005261012052565b82813d831162000205575b620001ef818362000134565b81010312620002025750518038620001bf565b80fd5b503d620001e3565b513d6000823e3d90fdfe60806040526004361015610013575b600080fd5b6000803560e01c908162c5a565146100c95750806302232c1f146100c0578063464d91cf146100b757806366c2910d146100ae5780636b2ace87146100a55780638974e2751461009c578063ae40801714610093578063c56420f71461008a5763d75c74621461008257600080fd5b61000e610b4d565b5061000e610a64565b5061000e61096f565b5061000e610814565b5061000e6107a4565b5061000e610588565b5061000e61056d565b5061000e61038e565b60e07ffffffffffffffffffffffffffffffffffffffffffffffffffffffffffffffffc3601126101695767ffffffffffffffff6044358181116101655761011490369060040161028a565b6064356101208161026c565b6101286102f2565b60a4359384116101615761014361015c943690600401610301565b9160c4359361015185610384565b60243560043561174c565b604051f35b8480fd5b8280fd5b80fd5b507f4e487b7100000000000000000000000000000000000000000000000000000000600052604160045260246000fd5b67ffffffffffffffff81116101b057604052565b6101b861016c565b604052565b60c0810190811067ffffffffffffffff8211176101b057604052565b6080810190811067ffffffffffffffff8211176101b057604052565b90601f7fffffffffffffffffffffffffffffffffffffffffffffffffffffffffffffffe0910116810190811067ffffffffffffffff8211176101b057604052565b60405190610243826101bd565b565b60209067ffffffffffffffff811161025f575b60051b0190565b61026761016c565b610258565b73ffffffffffffffffffffffffffffffffffffffff81160361000e57565b81601f8201121561000e578035916102a183610245565b926102af60405194856101f5565b808452602092838086019260051b82010192831161000e578301905b8282106102d9575050505090565b83809183356102e78161026c565b8152019101906102cb565b60843590600382101561000e57565b81601f8201121561000e5780359067ffffffffffffffff8211610377575b6040519261035560207fffffffffffffffffffffffffffffffffffffffffffffffffffffffffffffffe0601f86011601856101f5565b8284526020838301011161000e57816000926020809301838601378301015290565b61037f61016c565b61031f565b8015150361000e57565b5060a07ffffffffffffffffffffffffffffffffffffffffffffffffffffffffffffffffc36011261000e5760443567ffffffffffffffff811161000e576103d990369060040161028a565b606435906103e68261026c565b61040a608435916103f683610384565b82156104d95730905b602435600435611e9d565b90610412575b005b73ffffffffffffffffffffffffffffffffffffffff807f000000000000000000000000000000000000000000000000000000000000000016803b1561000e57600060405180927f2e1a7d4d00000000000000000000000000000000000000000000000000000000825281838161049089600483019190602083019252565b03925af180156104cc575b6104b3575b5082163014610410575b61041091611852565b806104c06104c69261019c565b80610799565b386104a0565b6104d4610c2e565b61049b565b73ffffffffffffffffffffffffffffffffffffffff8416906103ff565b60a07ffffffffffffffffffffffffffffffffffffffffffffffffffffffffffffffffc82011261000e5760043561052c8161026c565b916024356105398161026c565b9160443591606435600381101561000e57916084359067ffffffffffffffff821161000e5761056a91600401610301565b90565b503461000e5761041061057f366104f6565b93929092610ca2565b503461000e5760c07ffffffffffffffffffffffffffffffffffffffffffffffffffffffffffffffffc36011261000e5761065260406004356105c981610384565b6024356105d58161026c565b604435916105e28361026c565b6106d1575b82517f02b9446c00000000000000000000000000000000000000000000000000000000815273ffffffffffffffffffffffffffffffffffffffff91821660048201523060248201529116604482015260648035908201526084803590820152918290819060a4820190565b038160a43573ffffffffffffffffffffffffffffffffffffffff7f0000000000000000000000000000000000000000000000000000000000000000165af180156106c4575b61069d57005b6104109060403d81116106bd575b6106b581836101f5565b810190610c3b565b503d6106ab565b6106cc610c2e565b610697565b82517f095ea7b300000000000000000000000000000000000000000000000000000000815273ffffffffffffffffffffffffffffffffffffffff7f00000000000000000000000000000000000000000000000000000000000000008116600483015260001960248301526020908290604490829060009087165af1801561078c575b61075e575b506105e7565b61077e9060203d8111610785575b61077681836101f5565b810190610c19565b5038610758565b503d61076c565b610794610c2e565b610753565b600091031261000e57565b503461000e5760007ffffffffffffffffffffffffffffffffffffffffffffffffffffffffffffffffc36011261000e57602060405173ffffffffffffffffffffffffffffffffffffffff7f0000000000000000000000000000000000000000000000000000000000000000168152f35b503461000e5760c07ffffffffffffffffffffffffffffffffffffffffffffffffffffffffffffffffc36011261000e576004356108508161026c565b60243561085c8161026c565b6044356064359161086b6102f2565b9360a43567ffffffffffffffff811161000e5761088c903690600401610301565b946003811015610962575b806108a95750610410945033906129e4565b806108ba6001929695949396610c81565b036108dd576108d58560208061041098518301019101610c93565b933390611589565b6040517f08c379a000000000000000000000000000000000000000000000000000000000815260206004820152602860248201527f7472616e736665724552433131353546726f6d2f494e56414c49445f544f4b4560448201527f4e5f534f555243450000000000000000000000000000000000000000000000006064820152608490fd5b61096a610c51565b610897565b503461000e5761097e366104f6565b93906003819493941015610a57575b8061099f5750610410935033906128d6565b806109af60019295949395610c81565b036109d2576109ca8460208061041097518301019101610c93565b923390611475565b6040517f08c379a000000000000000000000000000000000000000000000000000000000815260206004820152602760248201527f7472616e7366657245524337323146726f6d2f494e56414c49445f544f4b454e60448201527f5f534f55524345000000000000000000000000000000000000000000000000006064820152608490fd5b610a5f610c51565b61098d565b5060407ffffffffffffffffffffffffffffffffffffffffffffffffffffffffffffffffc36011261000e57602435600435610a9e8261026c565b73ffffffffffffffffffffffffffffffffffffffff807f000000000000000000000000000000000000000000000000000000000000000016803b1561000e57600080916024604051809481937f2e1a7d4d0000000000000000000000000000000000000000000000000000000083528860048401525af18015610b40575b610b2d575b5030908316036104aa57005b806104c0610b3a9261019c565b38610b21565b610b48610c2e565b610b1c565b50600060207ffffffffffffffffffffffffffffffffffffffffffffffffffffffffffffffffc3601126101695773ffffffffffffffffffffffffffffffffffffffff7f00000000000000000000000000000000000000000000000000000000000000001681813b1561016957600491604051928380927fd0e30db00000000000000000000000000000000000000000000000000000000082528235905af18015610c0c575b610bfd575b50604051f35b610c069061019c565b38610bf7565b610c14610c2e565b610bf2565b9081602091031261000e575161056a81610384565b506040513d6000823e3d90fd5b919082604091031261000e576020825192015190565b507f4e487b7100000000000000000000000000000000000000000000000000000000600052602160045260246000fd5b60031115610c8b57565b610243610c51565b9081602091031261000e575190565b909192610cae81610c81565b80610cc0575061024393503390612766565b610ccd8194939294610c81565b60018103610cf45750610cec8460208061024397518301019101610c93565b923390611225565b80610d00600292610c81565b03610d2357610d1b8460208061024397518301019101610c19565b923390610da8565b6040517f08c379a000000000000000000000000000000000000000000000000000000000815260206004820152602660248201527f7472616e73666572455243323046726f6d2f494e56414c49445f544f4b454e5f60448201527f534f5552434500000000000000000000000000000000000000000000000000006064820152608490fd5b909192600094600014610e7c57604080517f97da6d3000000000000000000000000000000000000000000000000000000000815273ffffffffffffffffffffffffffffffffffffffff9384166004820152938316602485015293821660448401526064830152608482019390935291829060a49082906000907f0000000000000000000000000000000000000000000000000000000000000000165af18015610e6f575b610e54575b50565b610e6b9060403d81116106bd576106b581836101f5565b5050565b610e77610c2e565b610e4c565b8093929193610f58575b5073ffffffffffffffffffffffffffffffffffffffff7f00000000000000000000000000000000000000000000000000000000000000001690813b1561000e576040517ff18d03cc00000000000000000000000000000000000000000000000000000000815273ffffffffffffffffffffffffffffffffffffffff9485166004820152908416602482015291909216604482015260648101929092526000908290608490829084905af18015610f4b575b610f3e5750565b806104c06102439261019c565b610f53610c2e565b610f37565b6040517fda5139ca00000000000000000000000000000000000000000000000000000000815273ffffffffffffffffffffffffffffffffffffffff851660048201526024810191909152600060448201529093906020818060648101038173ffffffffffffffffffffffffffffffffffffffff7f0000000000000000000000000000000000000000000000000000000000000000165afa918215611033575b91611005575b509238610e86565b611026915060203d811161102c575b61101e81836101f5565b810190610c93565b38610ffd565b503d611014565b61103b610c2e565b610ff7565b60409081519180830183811067ffffffffffffffff8211176110b9575b815260018352829160005b6020808210156110b157835160209291611081826101bd565b600082526000818301526000868301526000606083015260006080830152600060a0830152828801015201611068565b505091925050565b6110c161016c565b61105d565b507f4e487b7100000000000000000000000000000000000000000000000000000000600052603260045260246000fd5b602090805115611104570190565b61110c6110c6565b0190565b604090805160011015611104570190565b6020918151811015611136575b60051b010190565b61113e6110c6565b61112e565b9081602091031261000e57517fffffffff000000000000000000000000000000000000000000000000000000008116810361000e5790565b60208082019080835283518092528060408094019401926000905b8382106111a557505050505090565b90919293948360c0600192885180516004811015611218575b825273ffffffffffffffffffffffffffffffffffffffff80858301511685840152808783015116878401526060908183015116908301526080808201519083015260a0809101519082015201960192019093929193611196565b611220610c51565b6111be565b9061142e92916020946113d761136361134a6040518981019061132e8161130273ffffffffffffffffffffffffffffffffffffffff9e8f907f0000000000000000000000000000000000000000000000000000000000000000917f00000000000000000000000000000000000000000000000000000000000000001687917fffffffffffffffffffffffffffffffffffffffff000000000000000000000000605594927fff00000000000000000000000000000000000000000000000000000000000000855260601b166001840152601583015260358201520190565b037fffffffffffffffffffffffffffffffffffffffffffffffffffffffffffffffe081018352826101f5565b51902073ffffffffffffffffffffffffffffffffffffffff1690565b73ffffffffffffffffffffffffffffffffffffffff1690565b946113ba61136f611040565b9561139d61137b610236565b60018152965b73ffffffffffffffffffffffffffffffffffffffff16878c0152565b73ffffffffffffffffffffffffffffffffffffffff166040860152565b73ffffffffffffffffffffffffffffffffffffffff166060840152565b6000608083015260a08201526113ec826110f6565b526113f6816110f6565b5060006040519586809581947f4ce34aa20000000000000000000000000000000000000000000000000000000083526004830161117b565b0393165af18015611468575b6114415750565b610e519060203d8111611461575b61145981836101f5565b810190611143565b503d61144f565b611470610c2e565b61143a565b9061142e929160209461157461155261134a6040518981019061132e8161130273ffffffffffffffffffffffffffffffffffffffff9e8f907f0000000000000000000000000000000000000000000000000000000000000000917f00000000000000000000000000000000000000000000000000000000000000001687917fffffffffffffffffffffffffffffffffffffffff000000000000000000000000605594927fff00000000000000000000000000000000000000000000000000000000000000855260601b166001840152601583015260358201520190565b946113ba61155e611040565b9561139d61156a610236565b6002815296611381565b6080820152600160a08201526113ec826110f6565b6040517fff00000000000000000000000000000000000000000000000000000000000000602082019081527fffffffffffffffffffffffffffffffffffffffff0000000000000000000000007f000000000000000000000000000000000000000000000000000000000000000060601b16602183015260358201979097527f0000000000000000000000000000000000000000000000000000000000000000605580830191909152815273ffffffffffffffffffffffffffffffffffffffff969395929491939061165b6075826101f5565b51902073ffffffffffffffffffffffffffffffffffffffff169461167d611040565b94611686610236565b600381529473ffffffffffffffffffffffffffffffffffffffff16602086015273ffffffffffffffffffffffffffffffffffffffff16604085015273ffffffffffffffffffffffffffffffffffffffff166060840152608083015260a08201526116ef826110f6565b526116f9816110f6565b50604051928380927f4ce34aa200000000000000000000000000000000000000000000000000000000825260048201906117329161117b565b03921691815a602094600091f18015611468576114415750565b94919061176793969491856000146118355730915b876118ef565b50611770575050565b73ffffffffffffffffffffffffffffffffffffffff807f000000000000000000000000000000000000000000000000000000000000000016803b1561000e57600060405180927f2e1a7d4d0000000000000000000000000000000000000000000000000000000082528183816117ee89600483019190602083019252565b03925af18015611828575b611815575b50309083160361180c575050565b61024391611852565b806104c06118229261019c565b386117fe565b611830610c2e565b6117f9565b73ffffffffffffffffffffffffffffffffffffffff881691611761565b60008080809481945af1156101695750565b1561186b57565b60846040517f08c379a000000000000000000000000000000000000000000000000000000000815260206004820152602760248201527f5f6c65676163795377617045786163744f75742f4558434553534956455f414d60448201527f4f554e545f494e000000000000000000000000000000000000000000000000006064820152fd5b9295949193907f00000000000000000000000000000000000000000000000000000000000000007f00000000000000000000000000000000000000000000000000000000000000006119456002885110156121e5565b61194f875161224a565b9586519060018210611a69575b61196b60001980930189611121565b52875160018110611a5c575b01805b6119f85750926119f3926102439795926119ed889661199c6119a89d9a6110f6565b519c8d94851115611864565b6119ce6119b48a6110f6565b5173ffffffffffffffffffffffffffffffffffffffff1690565b926119db6119b48b6110f6565b6119e76119b48c611110565b91612103565b90610ca2565b611c53565b80611a3e611a2d848b611a266119b486611a206119b4611a1a611a569b611abe565b86611121565b93611121565b9088612366565b90611a38848c611121565b51612673565b611a50611a4a83611abe565b8a611121565b52612665565b8061197a565b611a64611a76565b611977565b611a71611a76565b61195c565b507f4e487b7100000000000000000000000000000000000000000000000000000000600052601160045260246000fd5b6001906000198114611ab6570190565b61110c611a76565b6000199060018110611ab6570190565b7ffffffffffffffffffffffffffffffffffffffffffffffffffffffffffffffffe9060028110611ab6570190565b818110611b07570390565b611b0f611a76565b0390565b6001907ffffffffffffffffffffffffffffffffffffffffffffffffffffffffffffffffe8111611ab6570190565b6002907ffffffffffffffffffffffffffffffffffffffffffffffffffffffffffffffffd8111611ab6570190565b81198111611ab6570190565b604051906000602083019280841067ffffffffffffffff851117611ba7575b8360405281815292369037565b611baf61016c565b611b9a565b9273ffffffffffffffffffffffffffffffffffffffff91959495845260209283850152166040830152608060608301528351908160808401526000945b828610611c3d575050601f817fffffffffffffffffffffffffffffffffffffffffffffffffffffffffffffffe09260a0959611611c30575b0116010190565b6000858286010152611c29565b85810182015184870160a0015294810194611bf1565b92919260007f0000000000000000000000000000000000000000000000000000000000000000927f0000000000000000000000000000000000000000000000000000000000000000915b611ca78251611abe565b811015611e095780611cbd6119b4899385611121565b611ccc6119b4611a1a84611b13565b85611cd78284611fe5565b5091868a611ced611ce788611b13565b8c611121565b519473ffffffffffffffffffffffffffffffffffffffff878116911603611def57928261134a9282611d569661134a968b60009a9d5b611d2d8651611ace565b821015611de357506119b4611d4e95611d486119e793611b41565b90611121565b965b8d612103565b91611d5f611b7b565b92803b1561000e57611dbe9560008094611da8604051978896879586947f022c0d9f00000000000000000000000000000000000000000000000000000000865260048601611bb4565b03925af18015611dd6575b611dc3575b50611aa6565b611c9d565b806104c0611dd09261019c565b38611db8565b611dde610c2e565b611db3565b94505050505096611d50565b939261134a9261134a9282611d569697838b60009d611d23565b50505050509050565b15611e1957565b60846040517f08c379a000000000000000000000000000000000000000000000000000000000815260206004820152602760248201527f5f6c6567616379537761704578616374496e2f4558434553534956455f414d4f60448201527f554e545f4f5554000000000000000000000000000000000000000000000000006064820152fd5b916102439294939194611fa460207f0000000000000000000000000000000000000000000000000000000000000000927f000000000000000000000000000000000000000000000000000000000000000093611f4a611efe86888585612299565b95611f1f611f15611f0f8951611abe565b89611121565b519c8d1015611e12565b611f3161134a61134a6119b48b6110f6565b92611f3e6119b48a6110f6565b6119e76119b48b611110565b60006040518096819582947fa9059cbb000000000000000000000000000000000000000000000000000000008452600484016020909392919373ffffffffffffffffffffffffffffffffffffffff60408201951681520152565b03925af18015611fd8575b611fba575b50611c53565b611fd19060203d81116107855761077681836101f5565b5038611fb4565b611fe0610c2e565b611faf565b909173ffffffffffffffffffffffffffffffffffffffff9182841683821681811461207f57101561207a57925b9183161561201c57565b60646040517f08c379a000000000000000000000000000000000000000000000000000000000815260206004820152601e60248201527f556e697377617056324c6962726172793a205a45524f5f4144445245535300006044820152fd5b612012565b60846040517f08c379a000000000000000000000000000000000000000000000000000000000815260206004820152602560248201527f556e697377617056324c6962726172793a204944454e544943414c5f4144445260448201527f45535345530000000000000000000000000000000000000000000000000000006064820152fd5b919261212673ffffffffffffffffffffffffffffffffffffffff9460b593611fe5565b6040939193519060208201947fffffffffffffffffffffffffffffffffffffffff0000000000000000000000009182809260601b16875260601b16603483015260288252606082019482861067ffffffffffffffff8711176121d8575b85604052825190209060808301967fff00000000000000000000000000000000000000000000000000000000000000885260601b16608183015260958201520152605581526121d1816101d9565b5190201690565b6121e061016c565b612183565b156121ec57565b60646040517f08c379a000000000000000000000000000000000000000000000000000000000815260206004820152601e60248201527f556e697377617056324c6962726172793a20494e56414c49445f5041544800006044820152fd5b9061225482610245565b61226160405191826101f5565b8281527fffffffffffffffffffffffffffffffffffffffffffffffffffffffffffffffe061228f8294610245565b0190602036910137565b909392916122ab6002825110156121e5565b6122b5815161224a565b9485511561233e575b602086015260005b600019825160018110612331575b0181101561232b5780612314612303866122f46119b46123269688611121565b611a266119b4611f0f87611b13565b9061230e848b611121565b51612579565b612320611f0f83611b13565b52611aa6565b6122c6565b50505050565b612339611a76565b6122d4565b6123466110c6565b6122be565b51906dffffffffffffffffffffffffffff8216820361000e57565b6060829161239a6004959661237b8886611fe5565b509773ffffffffffffffffffffffffffffffffffffffff958694612103565b16604051948580927f0902f1ac0000000000000000000000000000000000000000000000000000000082525afa92831561245b575b6000908194612403575b5081906dffffffffffffffffffffffffffff809116941694169116146000146123ff5791565b9091565b93506060843d8211612453575b8161241d606093836101f5565b810103126101695761242e8461234b565b90604061243d6020870161234b565b95015163ffffffff8116036101695750816123d9565b3d9150612410565b612463610c2e565b6123cf565b1561246f57565b60846040517f08c379a000000000000000000000000000000000000000000000000000000000815260206004820152602860248201527f556e697377617056324c6962726172793a20494e53554646494349454e545f4c60448201527f49515549444954590000000000000000000000000000000000000000000000006064820152fd5b6103e890806000190482118115151661250a570290565b612512611a76565b0290565b6103e590806000190482118115151661250a570290565b806000190482118115151661250a570290565b811561254a570490565b7f4e487b7100000000000000000000000000000000000000000000000000000000600052601260045260246000fd5b80156125e15761056a926125c06125ba6125c593851515806125d8575b61259f90612468565b6103e590806000190482116001166125cb575b02928361252d565b936124f3565b611b6f565b90612540565b6125d3611a76565b6125b2565b50831515612596565b60846040517f08c379a000000000000000000000000000000000000000000000000000000000815260206004820152602b60248201527f556e697377617056324c6962726172793a20494e53554646494349454e545f4960448201527f4e5055545f414d4f554e540000000000000000000000000000000000000000006064820152fd5b600019908015611ab6570190565b80156126e25761056a926126c06126bb6126a284866126c7971515806126d9575b61269d90612468565b61252d565b936103e89385600019048511861515166126cc57611afc565b612516565b9102612540565b611b13565b6126d4611a76565b611afc565b50851515612694565b60846040517f08c379a000000000000000000000000000000000000000000000000000000000815260206004820152602c60248201527f556e697377617056324c6962726172793a20494e53554646494349454e545f4f60448201527f55545055545f414d4f554e5400000000000000000000000000000000000000006064820152fd5b9092604051926000947f23b872dd00000000000000000000000000000000000000000000000000000000865280600452816024528260445260208660648180885af1803d15601f3d1160018a51141617163d15158116156127d0575b505050505050604052606052565b80863b1515166127c25790879596911561281057602486887f5f15d672000000000000000000000000000000000000000000000000000000008252600452fd5b1561284a57506084947f98891923000000000000000000000000000000000000000000000000000000008552600452602452604452606452fd5b3d612889575b5060a4947ff486bc8700000000000000000000000000000000000000000000000000000000855260045260245260445281606452608452fd5b601f3d0160051c9060051c9080600302918082116128bd575b505060205a9101106128b45785612850565b833d81803e3d90fd5b8080600392028380020360091c920302010186806128a2565b9092813b156129b657604051926000947f23b872dd000000000000000000000000000000000000000000000000000000008652806004528160245282604452858060648180885af11561292f5750505050604052606052565b8593943d612972575b5060a4947ff486bc870000000000000000000000000000000000000000000000000000000085526004526024526044526064526001608452fd5b601f3d0160051c9060051c90806003029180821161299d575b505060205a9101106128b45785612938565b8080600392028380020360091c9203020101868061298b565b507f5f15d6720000000000000000000000000000000000000000000000000000000060005260045260246000fd5b929093833b15612af157604051936080519160a0519360c051956000987ff242432a000000000000000000000000000000000000000000000000000000008a528060045281602452826044528360645260a06084528960a452898060c48180895af115612a6157505050505060805260a05260c052604052606052565b89949550883d612aa4575b5060a4957ff486bc87000000000000000000000000000000000000000000000000000000008652600452602452604452606452608452fd5b601f3d0160051c9060051c908060030291808211612ad8575b505060205a910110612acf5786612a6c565b843d81803e3d90fd5b8080600392028380020360091c92030201018780612abd565b837f5f15d6720000000000000000000000000000000000000000000000000000000060005260045260246000fdfea264697066735822122050034e8018bb6ec6bb52e1d096bfd43751607ee40de1997adff12d9f6494880d64736f6c634300080e0033",
  "devdoc": {
    "errors": {
      "BadReturnValueFromERC20OnTransfer(address,address,address,uint256)": [
        {
          "details": "Revert with an error when an ERC20 token transfer returns a falsey      value.",
          "params": {
            "amount": "The amount for the attempted ERC20 transfer.",
            "from": "The source of the attempted ERC20 transfer.",
            "to": "The recipient of the attempted ERC20 transfer.",
            "token": "The token for which the ERC20 transfer was attempted."
          }
        }
      ],
      "ERC1155BatchTransferGenericFailure(address,address,address,uint256[],uint256[])": [
        {
          "details": "Revert with an error when a batch ERC1155 token transfer reverts.",
          "params": {
            "amounts": "The amounts for the attempted transfer.",
            "from": "The source of the attempted transfer.",
            "identifiers": "The identifiers for the attempted transfer.",
            "to": "The recipient of the attempted transfer.",
            "token": "The token for which the transfer was attempted."
          }
        }
      ],
      "Invalid1155BatchTransferEncoding()": [
        {
          "details": "Revert with an error when attempting to execute an 1155 batch      transfer using calldata not produced by default ABI encoding or with      different lengths for ids and amounts arrays."
        }
      ],
      "InvalidERC721TransferAmount()": [
        {
          "details": "Revert with an error when an ERC721 transfer with amount other than      one is attempted."
        }
      ],
      "MissingItemAmount()": [
        {
          "details": "Revert with an error when attempting to fulfill an order where an      item has an amount of zero."
        }
      ],
      "NoContract(address)": [
        {
          "details": "Revert with an error when an account being called as an assumed      contract does not have code and returns no data.",
          "params": {
            "account": "The account that should contain code."
          }
        }
      ],
      "TokenTransferGenericFailure(address,address,address,uint256,uint256)": [
        {
          "details": "Revert with an error when an ERC20, ERC721, or ERC1155 token      transfer reverts.",
          "params": {
            "amount": "The amount for the attempted transfer.",
            "from": "The source of the attempted transfer.",
            "identifier": "The identifier for the attempted transfer.",
            "to": "The recipient of the attempted transfer.",
            "token": "The token for which the transfer was attempted."
          }
        }
      ],
      "UnusedItemParameters()": [
        {
          "details": "Revert with an error when attempting to fulfill an order where an      item has unused parameters. This includes both the token and the      identifier parameters for native transfers as well as the identifier      parameter for ERC20 transfers. Note that the conduit does not      perform this check, leaving it up to the calling channel to enforce      when desired."
        }
      ]
    },
    "kind": "dev",
    "methods": {},
    "version": 1
  },
  "userdoc": {
    "kind": "user",
    "methods": {},
    "version": 1
  },
  "storageLayout": {
    "storage": [],
    "types": null
  }
}