{
  "address": "0x505d8ff44d40A8B6bD0A9b84499cBd9A95e6d855",
  "abi": [
    {
      "inputs": [
        {
          "internalType": "address",
          "name": "_weth",
          "type": "address"
        },
        {
          "internalType": "address",
          "name": "_factory",
          "type": "address"
        },
        {
          "internalType": "bytes32",
          "name": "_pairCodeHash",
          "type": "bytes32"
        },
        {
          "internalType": "address",
          "name": "_conduitController",
          "type": "address"
        }
      ],
      "stateMutability": "nonpayable",
      "type": "constructor"
    },
    {
      "inputs": [
        {
          "internalType": "address",
          "name": "token",
          "type": "address"
        },
        {
          "internalType": "uint256",
          "name": "tokenId",
          "type": "uint256"
        }
      ],
      "name": "returnERC1155",
      "outputs": [],
      "stateMutability": "payable",
      "type": "function"
    },
    {
      "inputs": [
        {
          "internalType": "address",
          "name": "token",
          "type": "address"
        }
      ],
      "name": "returnERC20",
      "outputs": [],
      "stateMutability": "payable",
      "type": "function"
    },
    {
      "inputs": [
        {
          "internalType": "address",
          "name": "token",
          "type": "address"
        },
        {
          "internalType": "uint256",
          "name": "tokenId",
          "type": "uint256"
        }
      ],
      "name": "returnERC721",
      "outputs": [],
      "stateMutability": "payable",
      "type": "function"
    },
    {
      "inputs": [
        {
          "internalType": "uint256",
          "name": "amountIn",
          "type": "uint256"
        },
        {
          "internalType": "uint256",
          "name": "amountOutMin",
          "type": "uint256"
        },
        {
          "internalType": "address[]",
          "name": "path",
          "type": "address[]"
        },
        {
          "internalType": "address payable",
          "name": "to",
          "type": "address"
        },
        {
          "internalType": "bool",
          "name": "unwrapNative",
          "type": "bool"
        }
      ],
      "name": "swapExactIn",
      "outputs": [],
      "stateMutability": "payable",
      "type": "function"
    },
    {
      "inputs": [
        {
          "internalType": "uint256",
          "name": "amountOut",
          "type": "uint256"
        },
        {
          "internalType": "uint256",
          "name": "amountInMax",
          "type": "uint256"
        },
        {
          "internalType": "address[]",
          "name": "path",
          "type": "address[]"
        },
        {
          "internalType": "address payable",
          "name": "to",
          "type": "address"
        },
        {
          "internalType": "enum TokenSource",
          "name": "tokenSource",
          "type": "uint8"
        },
        {
          "internalType": "bytes",
          "name": "transferData",
          "type": "bytes"
        },
        {
          "internalType": "bool",
          "name": "unwrapNative",
          "type": "bool"
        }
      ],
      "name": "swapExactOut",
      "outputs": [],
      "stateMutability": "payable",
      "type": "function"
    },
    {
      "inputs": [
        {
          "internalType": "uint256",
          "name": "amountOutMin",
          "type": "uint256"
        },
        {
          "internalType": "address[]",
          "name": "path",
          "type": "address[]"
        },
        {
          "internalType": "address payable",
          "name": "to",
          "type": "address"
        },
        {
          "internalType": "bool",
          "name": "unwrapNative",
          "type": "bool"
        }
      ],
      "name": "swapMaxIn",
      "outputs": [],
      "stateMutability": "payable",
      "type": "function"
    },
    {
      "inputs": [
        {
          "internalType": "address",
          "name": "token",
          "type": "address"
        },
        {
          "internalType": "address",
          "name": "to",
          "type": "address"
        },
        {
          "internalType": "uint256",
          "name": "tokenId",
          "type": "uint256"
        },
        {
          "internalType": "uint256",
          "name": "amount",
          "type": "uint256"
        },
        {
          "internalType": "enum TokenSource",
          "name": "source",
          "type": "uint8"
        },
        {
          "internalType": "bytes",
          "name": "data",
          "type": "bytes"
        }
      ],
      "name": "transferERC1155From",
      "outputs": [],
      "stateMutability": "payable",
      "type": "function"
    },
    {
      "inputs": [
        {
          "internalType": "address",
          "name": "token",
          "type": "address"
        },
        {
          "internalType": "address",
          "name": "to",
          "type": "address"
        },
        {
          "internalType": "uint256",
          "name": "amount",
          "type": "uint256"
        },
        {
          "internalType": "enum TokenSource",
          "name": "source",
          "type": "uint8"
        },
        {
          "internalType": "bytes",
          "name": "data",
          "type": "bytes"
        }
      ],
      "name": "transferERC20From",
      "outputs": [],
      "stateMutability": "payable",
      "type": "function"
    },
    {
      "inputs": [
        {
          "internalType": "address",
          "name": "token",
          "type": "address"
        },
        {
          "internalType": "address",
          "name": "to",
          "type": "address"
        },
        {
          "internalType": "uint256",
          "name": "tokenId",
          "type": "uint256"
        },
        {
          "internalType": "enum TokenSource",
          "name": "source",
          "type": "uint8"
        },
        {
          "internalType": "bytes",
          "name": "data",
          "type": "bytes"
        }
      ],
      "name": "transferERC721From",
      "outputs": [],
      "stateMutability": "payable",
      "type": "function"
    },
    {
      "inputs": [
        {
          "internalType": "uint256",
          "name": "amount",
          "type": "uint256"
        },
        {
          "internalType": "address payable",
          "name": "to",
          "type": "address"
        }
      ],
      "name": "unwrapNativeToken",
      "outputs": [],
      "stateMutability": "payable",
      "type": "function"
    },
    {
      "inputs": [
        {
          "internalType": "uint256",
          "name": "amount",
          "type": "uint256"
        }
      ],
      "name": "wrapNativeToken",
      "outputs": [],
      "stateMutability": "payable",
      "type": "function"
    }
  ],
  "transactionHash": "0xc9b82d93d8dcd8761f61ec37c11ca871b3c61720d407daedea9d43920764fd90",
  "args": [
    "0xB4FBF271143F4FBf7B91A5ded31805e42b2208d6",
    "0xc35DADB65012eC5796536bD9864eD8773aBc74C4",
    "0xe18a34eb0e04b04f7a0ac29a6e80748dca96319b42c54d679cb821dca90c6303",
    "0x00000000F9490004C11Cef243f5400493c00Ad63"
  ],
  "numDeployments": 1,
  "solcInputHash": "4cdb95148abdf6f3fe75c6d0b6b1f691",
  "bytecode": "0x6101208060405234620000d0576080816200259f8038038091620000248285620000d5565b833981010312620000d057806200003f62000068926200010f565b906200004e602082016200010f565b620000616060604084015193016200010f565b9262000124565b6040516123f39081620001ac82396080518161134c015260a0518161137b015260c051818181611575015281816118be0152611b11015260e051818181611596015281816118e00152611b330152610100518181816103bb01528181610bac0152610ddd0152f35b600080fd5b601f909101601f19168101906001600160401b03821190821017620000f957604052565b634e487b7160e01b600052604160045260246000fd5b51906001600160a01b0382168203620000d057565b60408051630a96ad3960e01b815291946001600160a01b031691908082600481865afa908115620001a1576000916200016c575b5060a0525060805260c05260e05261010052565b82813d831162000199575b620001838183620000d5565b8101031262000196575051803862000158565b80fd5b503d62000177565b513d6000823e3d90fdfe60806040526004361015610013575b600080fd5b60003560e01c8062c5a565146100ee57806302232c1f146100e55780630b7bc729146100dc578063464d91cf146100d35780638974e275146100ca5780639b223997146100c1578063ae408017146100b8578063b80e2d50146100af578063c56420f7146100a6578063c72936681461009d5763d75c74621461009557600080fd5b61000e610db7565b5061000e610c8c565b5061000e610b77565b5061000e610a42565b5061000e610970565b5061000e61083c565b5061000e6106dd565b5061000e6106c7565b5061000e610526565b5061000e6104a5565b5061000e610319565b507f4e487b7100000000000000000000000000000000000000000000000000000000600052604160045260246000fd5b67ffffffffffffffff811161013b57604052565b6101436100f7565b604052565b60c0810190811067ffffffffffffffff82111761013b57604052565b6080810190811067ffffffffffffffff82111761013b57604052565b90601f7fffffffffffffffffffffffffffffffffffffffffffffffffffffffffffffffe0910116810190811067ffffffffffffffff82111761013b57604052565b604051906101ce82610148565b565b60209067ffffffffffffffff81116101ea575b60051b0190565b6101f26100f7565b6101e3565b73ffffffffffffffffffffffffffffffffffffffff81160361000e57565b81601f8201121561000e5780359161022c836101d0565b9261023a6040519485610180565b808452602092838086019260051b82010192831161000e578301905b828210610264575050505090565b8380918335610272816101f7565b815201910190610256565b60843590600282101561000e57565b81601f8201121561000e5780359067ffffffffffffffff8211610302575b604051926102e060207fffffffffffffffffffffffffffffffffffffffffffffffffffffffffffffffe0601f8601160185610180565b8284526020838301011161000e57816000926020809301838601378301015290565b61030a6100f7565b6102aa565b8015150361000e57565b5060e060031936011261000e5760043567ffffffffffffffff60443581811161000e5761034a903690600401610215565b60643591610357836101f7565b61035f61027d565b60a43591821161000e5761037a61039a92369060040161028c565b9060c435936103888561030f565b84156104885730905b6024358861156d565b506103a2575b005b73ffffffffffffffffffffffffffffffffffffffff90817f000000000000000000000000000000000000000000000000000000000000000016803b1561000e57600060405180927f2e1a7d4d0000000000000000000000000000000000000000000000000000000082528183816104218a600483019190602083019252565b03925af1801561047b575b610462575b50163081146103a05760008080938193828215610459575bf11561045157005b6103a0610ece565b506108fc610449565b8061046f61047592610127565b806113b3565b38610431565b610483610ece565b61042c565b73ffffffffffffffffffffffffffffffffffffffff861690610391565b5060a060031936011261000e5760443567ffffffffffffffff811161000e576104d2903690600401610215565b6064356104de816101f7565b610502608435926104ee8461030f565b83156105095730905b602435600435611b01565b916103a257005b73ffffffffffffffffffffffffffffffffffffffff8316906104f7565b50604060031936011261000e5760043561053f816101f7565b6024359073ffffffffffffffffffffffffffffffffffffffff80911690604051907f6352211e0000000000000000000000000000000000000000000000000000000082526020828061059987600483019190602083019252565b0381865afa918215610661575b600092610631575b501630146105b857005b803b1561000e576040517f23b872dd00000000000000000000000000000000000000000000000000000000815230600482015233602482015260448101929092526000908290818381606481015b03925af18015610624575b61061757005b8061046f6103a092610127565b61062c610ece565b610611565b61065391925060203d811161065a575b61064b8183610180565b8101906114cd565b90386105ae565b503d610641565b610669610ece565b6105a6565b60a060031982011261000e57600435610686816101f7565b91602435610693816101f7565b9160443591606435600281101561000e57916084359067ffffffffffffffff821161000e576106c49160040161028c565b90565b506103a06106d43661066e565b93929092610edb565b5060c060031936011261000e576004356106f6816101f7565b602435610702816101f7565b604435916064359061071261027d565b60a43567ffffffffffffffff811161000e5761073290369060040161028c565b9061073c81610e98565b8061080657505073ffffffffffffffffffffffffffffffffffffffff16803b1561000e576040517ff242432a00000000000000000000000000000000000000000000000000000000815233600482015273ffffffffffffffffffffffffffffffffffffffff9390931660248401526044830193909352606482015260a06084820152600260a48201527f307800000000000000000000000000000000000000000000000000000000000060c482015290600090829060e490829084905af180156106245761061757005b806108176001929794969397610e98565b1461081e57005b610834856020806103a098518301019101610eaa565b93339061141f565b50604060031936011261000e57600435610855816101f7565b6040517efdd58e0000000000000000000000000000000000000000000000000000000081523060048201526024803590820181905273ffffffffffffffffffffffffffffffffffffffff929092169190602081604481865afa908115610963575b600091610935575b50806108c657005b823b1561000e576040517ff242432a0000000000000000000000000000000000000000000000000000000081523060048201523360248201526044810192909252606482015260a06084820152600060a482018190529091829060c490829084905af180156106245761061757005b610956915060203d811161095c575b61094e8183610180565b810190610eaa565b386108be565b503d610944565b61096b610ece565b6108b6565b5061097a3661066e565b9061098781959395610e98565b80610a0c57505073ffffffffffffffffffffffffffffffffffffffff1691823b1561000e576040517f42842e0e00000000000000000000000000000000000000000000000000000000815233600482015273ffffffffffffffffffffffffffffffffffffffff9092166024830152604482015290600090829081838160648101610606565b80610a1d6001929694959396610e98565b14610a2457005b610a3a846020806103a097518301019101610eaa565b9233906113be565b50608060031936011261000e5760243567ffffffffffffffff811161000e57610a6f903690600401610215565b604435610a7b816101f7565b61050260643592610a8b8461030f565b610ad0610ab7610ab7610a9d8461107d565b5173ffffffffffffffffffffffffffffffffffffffff1690565b73ffffffffffffffffffffffffffffffffffffffff1690565b6040517f70a082310000000000000000000000000000000000000000000000000000000081523060048201529190602090839060249082905afa918215610b6a575b600092610b4a575b508415610b2d5730915b60043590611b01565b73ffffffffffffffffffffffffffffffffffffffff841691610b24565b610b6391925060203d811161095c5761094e8183610180565b9038610b1a565b610b72610ece565b610b12565b50604060031936011261000e57602435600435610b93826101f7565b73ffffffffffffffffffffffffffffffffffffffff90817f00000000000000000000000000000000000000000000000000000000000000001691823b1561000e57604051937f2e1a7d4d00000000000000000000000000000000000000000000000000000000855284600081819796818381610c188a6004849d019190602083019252565b03925af18015610c7f575b610c6c575b501690308203610c39575b82604051f35b828092918192828215610c63575bf115610c56575b803880610c33565b610c5e610ece565b610c4e565b506108fc610c47565b8061046f610c7992610127565b38610c28565b610c87610ece565b610c23565b5060208060031936011261000e5773ffffffffffffffffffffffffffffffffffffffff600435610cbb816101f7565b6040517f70a0823100000000000000000000000000000000000000000000000000000000815230600482015291168282602481845afa918215610daa575b600092610d8b575b5081610d0957005b6040517fa9059cbb00000000000000000000000000000000000000000000000000000000815233600482015260248101929092528290829060449082906000905af18015610d7e575b610d5857005b816103a092903d10610d77575b610d6f8183610180565b810190610eb9565b503d610d65565b610d86610ece565b610d52565b610da3919250833d851161095c5761094e8183610180565b9038610d01565b610db2610ece565b610cf9565b5060006020600319360112610e655773ffffffffffffffffffffffffffffffffffffffff7f00000000000000000000000000000000000000000000000000000000000000001681813b15610e6557600491604051928380927fd0e30db00000000000000000000000000000000000000000000000000000000082528235905af18015610e58575b610e49575b50604051f35b610e5290610127565b38610e43565b610e60610ece565b610e3e565b80fd5b507f4e487b7100000000000000000000000000000000000000000000000000000000600052602160045260246000fd5b60021115610ea257565b6101ce610e68565b9081602091031261000e575190565b9081602091031261000e57516106c48161030f565b506040513d6000823e3d90fd5b9293909193610ee981610e98565b80610f845750506040517f23b872dd00000000000000000000000000000000000000000000000000000000815233600482015273ffffffffffffffffffffffffffffffffffffffff9182166024820152604481019390935260209183916064918391600091165af18015610f77575b610f60575b50565b610f5d9060203d8111610d7757610d6f8183610180565b610f7f610ece565b610f58565b80610f9460019296949396610e98565b14610fa0575b50505050565b610fb684602080610fbe97518301019101610eaa565b9233906111ac565b38808080610f9a565b60409081519180830183811067ffffffffffffffff821117611040575b815260018352829160005b6020808210156110385783516020929161100882610148565b600082526000818301526000868301526000606083015260006080830152600060a0830152828801015201610fef565b505091925050565b6110486100f7565b610fe4565b507f4e487b7100000000000000000000000000000000000000000000000000000000600052603260045260246000fd5b60209080511561108b570190565b61109361104d565b0190565b60409080516001101561108b570190565b60209181518110156110bd575b60051b010190565b6110c561104d565b6110b5565b9081602091031261000e57517fffffffff000000000000000000000000000000000000000000000000000000008116810361000e5790565b60208082019080835283518092528060408094019401926000905b83821061112c57505050505090565b90919293948360c060019288518051600481101561119f575b825273ffffffffffffffffffffffffffffffffffffffff80858301511685840152808783015116878401526060908183015116908301526080808201519083015260a080910151908201520196019201909392919361111d565b6111a7610e68565b611145565b906112a1929160209461124a6111d673ffffffffffffffffffffffffffffffffffffffff986112e8565b9461122d6111e2610fc7565b956112106111ee6101c1565b60018152965b73ffffffffffffffffffffffffffffffffffffffff16878c0152565b73ffffffffffffffffffffffffffffffffffffffff166040860152565b73ffffffffffffffffffffffffffffffffffffffff166060840152565b6000608083015260a082015261125f8261107d565b526112698161107d565b5060006040519586809581947f4ce34aa200000000000000000000000000000000000000000000000000000000835260048301611102565b0393165af180156112db575b6112b45750565b610f5d9060203d81116112d4575b6112cc8183610180565b8101906110ca565b503d6112c2565b6112e3610ece565b6112ad565b73ffffffffffffffffffffffffffffffffffffffff9060405160208101917fff0000000000000000000000000000000000000000000000000000000000000083527fffffffffffffffffffffffffffffffffffffffff0000000000000000000000007f000000000000000000000000000000000000000000000000000000000000000060601b16602183015260358201527f00000000000000000000000000000000000000000000000000000000000000006055820152605581526113ac81610164565b5190201690565b600091031261000e57565b906112a1929160209461140a6113e873ffffffffffffffffffffffffffffffffffffffff986112e8565b9461122d6113f4610fc7565b956112106114006101c1565b60028152966111f4565b6080820152600160a082015261125f8261107d565b6020946112a1946114ba61144773ffffffffffffffffffffffffffffffffffffffff996112e8565b9561149d611453610fc7565b9661148061145f6101c1565b600381529773ffffffffffffffffffffffffffffffffffffffff16888d0152565b73ffffffffffffffffffffffffffffffffffffffff166040870152565b73ffffffffffffffffffffffffffffffffffffffff166060850152565b608083015260a082015261125f8261107d565b9081602091031261000e57516106c4816101f7565b156114e957565b60846040517f08c379a000000000000000000000000000000000000000000000000000000000815260206004820152602760248201527f5f6c65676163795377617045786163744f75742f4558434553534956455f414d60448201527f4f554e545f494e000000000000000000000000000000000000000000000000006064820152fd5b9295949193907f00000000000000000000000000000000000000000000000000000000000000007f00000000000000000000000000000000000000000000000000000000000000006115c3600288511015611e42565b6115cd8751611ea7565b95865190600182106116cd575b6115e9600019809301896110a8565b528751600181106116c0575b01805b61165c575092611657926101ce979592611651889661161a6116269d9a61107d565b519c8d948511156114e2565b611632610a9d8a61107d565b9261163f610a9d8b61107d565b61164b610a9d8c611097565b91611d67565b90610edb565b6118b7565b806116a2611691848b61168a610a9d86611684610a9d61167e6116ba9b611722565b866110a8565b936110a8565b9088611fbd565b9061169c848c6110a8565b516122ca565b6116b46116ae83611722565b8a6110a8565b526122bc565b806115f8565b6116c86116da565b6115f5565b6116d56116da565b6115da565b507f4e487b7100000000000000000000000000000000000000000000000000000000600052601160045260246000fd5b600190600019811461171a570190565b6110936116da565b600019906001811061171a570190565b7ffffffffffffffffffffffffffffffffffffffffffffffffffffffffffffffffe906002811061171a570190565b81811061176b570390565b6117736116da565b0390565b6001907ffffffffffffffffffffffffffffffffffffffffffffffffffffffffffffffffe811161171a570190565b6002907ffffffffffffffffffffffffffffffffffffffffffffffffffffffffffffffffd811161171a570190565b8119811161171a570190565b604051906000602083019280841067ffffffffffffffff85111761180b575b8360405281815292369037565b6118136100f7565b6117fe565b9273ffffffffffffffffffffffffffffffffffffffff91959495845260209283850152166040830152608060608301528351908160808401526000945b8286106118a1575050601f817fffffffffffffffffffffffffffffffffffffffffffffffffffffffffffffffe09260a0959611611894575b0116010190565b600085828601015261188d565b85810182015184870160a0015294810194611855565b92919260007f0000000000000000000000000000000000000000000000000000000000000000927f0000000000000000000000000000000000000000000000000000000000000000915b61190b8251611722565b811015611a6d5780611921610a9d8993856110a8565b611930610a9d61167e84611777565b8561193b8284611c49565b5091868a61195161194b88611777565b8c6110a8565b519473ffffffffffffffffffffffffffffffffffffffff878116911603611a53579282610ab792826119ba96610ab7968b60009a9d5b6119918651611732565b821015611a475750610a9d6119b2956119ac61164b936117a5565b906110a8565b965b8d611d67565b916119c36117df565b92803b1561000e57611a229560008094611a0c604051978896879586947f022c0d9f00000000000000000000000000000000000000000000000000000000865260048601611818565b03925af18015611a3a575b611a27575b5061170a565b611901565b8061046f611a3492610127565b38611a1c565b611a42610ece565b611a17565b945050505050966119b4565b9392610ab792610ab792826119ba9697838b60009d611987565b50505050509050565b15611a7d57565b60846040517f08c379a000000000000000000000000000000000000000000000000000000000815260206004820152602760248201527f5f6c6567616379537761704578616374496e2f4558434553534956455f414d4f60448201527f554e545f4f5554000000000000000000000000000000000000000000000000006064820152fd5b916101ce9294939194611c0860207f0000000000000000000000000000000000000000000000000000000000000000927f000000000000000000000000000000000000000000000000000000000000000093611bae611b6286888585611ef6565b95611b83611b79611b738951611722565b896110a8565b519c8d1015611a76565b611b95610ab7610ab7610a9d8b61107d565b92611ba2610a9d8a61107d565b61164b610a9d8b611097565b60006040518096819582947fa9059cbb000000000000000000000000000000000000000000000000000000008452600484016020909392919373ffffffffffffffffffffffffffffffffffffffff60408201951681520152565b03925af18015611c3c575b611c1e575b506118b7565b611c359060203d8111610d7757610d6f8183610180565b5038611c18565b611c44610ece565b611c13565b909173ffffffffffffffffffffffffffffffffffffffff91828416838216818114611ce3571015611cde57925b91831615611c8057565b60646040517f08c379a000000000000000000000000000000000000000000000000000000000815260206004820152601e60248201527f556e697377617056324c6962726172793a205a45524f5f4144445245535300006044820152fd5b611c76565b60846040517f08c379a000000000000000000000000000000000000000000000000000000000815260206004820152602560248201527f556e697377617056324c6962726172793a204944454e544943414c5f4144445260448201527f45535345530000000000000000000000000000000000000000000000000000006064820152fd5b9192611d8a73ffffffffffffffffffffffffffffffffffffffff9460b593611c49565b6040939193519060208201947fffffffffffffffffffffffffffffffffffffffff0000000000000000000000009182809260601b16875260601b16603483015260288252606082019482861067ffffffffffffffff871117611e35575b85604052825190209060808301967fff00000000000000000000000000000000000000000000000000000000000000885260601b16608183015260958201520152605581526113ac81610164565b611e3d6100f7565b611de7565b15611e4957565b60646040517f08c379a000000000000000000000000000000000000000000000000000000000815260206004820152601e60248201527f556e697377617056324c6962726172793a20494e56414c49445f5041544800006044820152fd5b90611eb1826101d0565b611ebe6040519182610180565b8281527fffffffffffffffffffffffffffffffffffffffffffffffffffffffffffffffe0611eec82946101d0565b0190602036910137565b90939291611f08600282511015611e42565b611f128151611ea7565b94855115611f95575b602086015260005b600019825160018110611f88575b01811015610f9a5780611f71611f6086611f51610a9d611f8396886110a8565b61168a610a9d611b7387611777565b90611f6b848b6110a8565b516121d0565b611f7d611b7383611777565b5261170a565b611f23565b611f906116da565b611f31565b611f9d61104d565b611f1b565b51906dffffffffffffffffffffffffffff8216820361000e57565b60608291611ff160049596611fd28886611c49565b509773ffffffffffffffffffffffffffffffffffffffff958694611d67565b16604051948580927f0902f1ac0000000000000000000000000000000000000000000000000000000082525afa9283156120b2575b600090819461205a575b5081906dffffffffffffffffffffffffffff809116941694169116146000146120565791565b9091565b93506060843d82116120aa575b8161207460609383610180565b81010312610e655761208584611fa2565b90604061209460208701611fa2565b95015163ffffffff811603610e65575081612030565b3d9150612067565b6120ba610ece565b612026565b156120c657565b60846040517f08c379a000000000000000000000000000000000000000000000000000000000815260206004820152602860248201527f556e697377617056324c6962726172793a20494e53554646494349454e545f4c60448201527f49515549444954590000000000000000000000000000000000000000000000006064820152fd5b6103e8908060001904821181151516612161570290565b6121696116da565b0290565b6103e5908060001904821181151516612161570290565b8060001904821181151516612161570290565b81156121a1570490565b7f4e487b7100000000000000000000000000000000000000000000000000000000600052601260045260246000fd5b8015612238576106c49261221761221161221c938515158061222f575b6121f6906120bf565b6103e59080600019048211600116612222575b029283612184565b9361214a565b6117d3565b90612197565b61222a6116da565b612209565b508315156121ed565b60846040517f08c379a000000000000000000000000000000000000000000000000000000000815260206004820152602b60248201527f556e697377617056324c6962726172793a20494e53554646494349454e545f4960448201527f4e5055545f414d4f554e540000000000000000000000000000000000000000006064820152fd5b60001990801561171a570190565b8015612339576106c4926123176123126122f9848661231e97151580612330575b6122f4906120bf565b612184565b936103e893856000190485118615151661232357611760565b61216d565b9102612197565b611777565b61232b6116da565b611760565b508515156122eb565b60846040517f08c379a000000000000000000000000000000000000000000000000000000000815260206004820152602c60248201527f556e697377617056324c6962726172793a20494e53554646494349454e545f4f60448201527f55545055545f414d4f554e5400000000000000000000000000000000000000006064820152fdfea26469706673582212208066e1436b59be175bade58380b9ea428be88ec8220e961f3b041e62b4cfad4664736f6c634300080e0033",
  "devdoc": {
    "kind": "dev",
    "methods": {
      "returnERC1155(address,uint256)": {
        "details": "Function to return any excess ERC1155 token from      address(this) to `msg.sender`.",
        "params": {
          "token": "The token to return to the caller.",
          "tokenId": "The token identifier of the asset."
        }
      },
      "returnERC20(address)": {
        "details": "Function to return any excess ERC20 tokens from address(this)      to `msg.sender`.",
        "params": {
          "token": "The token to return to the caller."
        }
      },
      "returnERC721(address,uint256)": {
        "details": "Function to return any left over ERC721 token from      address(this) to `msg.sender`.",
        "params": {
          "token": "The token to return to the caller.",
          "tokenId": "The token identifier of the asset."
        }
      },
      "swapExactIn(uint256,uint256,address[],address,bool)": {
        "details": "This function swaps an exact amount of tokens from address(this)      and sends a mimimum amount of output token to the specified recipient.",
        "params": {
          "amountIn": "The exact amount of input token to be spent.",
          "amountOutMin": "The minimum amount of output token to be received.",
          "path": "The swap path.",
          "to": "The recipient of output token.",
          "unwrapNative": "Flag to unwrap for native token if output token is WETH."
        }
      },
      "swapExactOut(uint256,uint256,address[],address,uint8,bytes,bool)": {
        "details": "This function swaps ERC20 tokens from msg.sender      for an exact amount of output tokens, sent      to the specified recipient.",
        "params": {
          "amountInMax": "The maximum amount of input to be spent.",
          "amountOut": "The exact amount of output token to receive.",
          "path": "The swap path.",
          "to": "The recipient to receive output token.",
          "tokenSource": "The token / approval source for input token.",
          "transferData": "Additional data required depending on `source`.",
          "unwrapNative": "Flag to unwrap for native token if output token is WETH."
        }
      },
      "swapMaxIn(uint256,address[],address,bool)": {
        "details": "This function performs the swaps as outlined in `path`. This contract's      entire balance of input token will be swapped for a minimum amount of      output token, sent to the specified recipient.",
        "params": {
          "amountOutMin": "The minimum amount of output token to be received.",
          "path": "The swap path.",
          "to": "The recipient of output token.",
          "unwrapNative": "Flag to unwrap for native token if output token is WETH."
        }
      },
      "transferERC1155From(address,address,uint256,uint256,uint8,bytes)": {
        "details": "Function to transfer an ERC1155 token from `msg.sender`      to a given recipient. Assets will be transferred from      a user's wallet with approvals being sourced from the      Shoyu contract or Seaport Conduit.",
        "params": {
          "amount": "The amount of the asset to transfer.",
          "data": "Additional encoded data required depending on `source`.",
          "source": "The NFT approval source.",
          "to": "The recipient of the transfer.",
          "token": "The ERC1155 token to transfer.",
          "tokenId": "The tokenId of the asset to transfer."
        }
      },
      "transferERC20From(address,address,uint256,uint8,bytes)": {
        "details": "Function to transfer ERC20 tokens from `msg.sender`      to a given recipient. Assets can be transferred from      a user's wallet with approvals being sourced from      Shoyu contract or Shoyu's Seaport Conduit.",
        "params": {
          "amount": "The amount to transfer.",
          "data": "Additional encoded data required depending on `source`.",
          "source": "The token / approval source.",
          "to": "The recipient of the transfer.",
          "token": "The ERC20 token to transfer."
        }
      },
      "transferERC721From(address,address,uint256,uint8,bytes)": {
        "details": "Function to transfer an ERC721 token from `msg.sender`      to a given recipient. Assets will be transferred from      a user's wallet with approvals being sourced from the      Shoyu contract or Seaport Conduit.",
        "params": {
          "data": "Additional encoded data required depending on `source`.",
          "source": "The NFT approval source.",
          "to": "The recipient of the transfer.",
          "token": "The ERC721 token to transfer.",
          "tokenId": "The tokenId of the asset to transfer."
        }
      },
      "unwrapNativeToken(uint256,address)": {
        "details": "This function unwraps WETH held by address(this)      and transfers ETH to the specified recipient.",
        "params": {
          "amount": "The amount of WETH to be unwrapped.",
          "to": "The ETH recipient."
        }
      },
      "wrapNativeToken(uint256)": {
        "details": "This function wraps ETH held by address(this).",
        "params": {
          "amount": "The amount of ETH to wrap"
        }
      }
    },
    "stateVariables": {
      "WETH": {
        "details": "The WETH address."
      }
    },
    "version": 1
  },
  "userdoc": {
    "kind": "user",
    "methods": {},
    "version": 1
  },
  "storageLayout": {
    "storage": [],
    "types": null
  }
}