{
  "address": "0xF070932F7c748A585C54b87E7e16396529dcEb38",
  "abi": [
    {
      "inputs": [
        {
          "internalType": "address",
          "name": "_weth",
          "type": "address"
        },
        {
          "internalType": "address",
          "name": "_factory",
          "type": "address"
        },
        {
          "internalType": "bytes32",
          "name": "_pairCodeHash",
          "type": "bytes32"
        },
        {
          "internalType": "address",
          "name": "_conduitController",
          "type": "address"
        },
        {
          "internalType": "address",
          "name": "_bentobox",
          "type": "address"
        }
      ],
      "stateMutability": "nonpayable",
      "type": "constructor"
    },
    {
      "inputs": [],
      "name": "bentoBox",
      "outputs": [
        {
          "internalType": "contract IBentoBoxMinimal",
          "name": "",
          "type": "address"
        }
      ],
      "stateMutability": "view",
      "type": "function"
    },
    {
      "inputs": [
        {
          "internalType": "address",
          "name": "token",
          "type": "address"
        },
        {
          "internalType": "address",
          "name": "to",
          "type": "address"
        },
        {
          "internalType": "uint256",
          "name": "amount",
          "type": "uint256"
        },
        {
          "internalType": "uint256",
          "name": "share",
          "type": "uint256"
        },
        {
          "internalType": "uint256",
          "name": "value",
          "type": "uint256"
        }
      ],
      "name": "depositERC20ToBentoBox",
      "outputs": [],
      "stateMutability": "nonpayable",
      "type": "function"
    },
    {
      "inputs": [
        {
          "internalType": "address",
          "name": "token",
          "type": "address"
        },
        {
          "internalType": "uint256",
          "name": "tokenId",
          "type": "uint256"
        }
      ],
      "name": "returnERC1155",
      "outputs": [],
      "stateMutability": "nonpayable",
      "type": "function"
    },
    {
      "inputs": [
        {
          "internalType": "address",
          "name": "token",
          "type": "address"
        }
      ],
      "name": "returnERC20",
      "outputs": [],
      "stateMutability": "payable",
      "type": "function"
    },
    {
      "inputs": [
        {
          "internalType": "address",
          "name": "token",
          "type": "address"
        },
        {
          "internalType": "uint256",
          "name": "tokenId",
          "type": "uint256"
        }
      ],
      "name": "returnERC721",
      "outputs": [],
      "stateMutability": "nonpayable",
      "type": "function"
    },
    {
      "inputs": [
        {
          "internalType": "uint256",
          "name": "amountIn",
          "type": "uint256"
        },
        {
          "internalType": "uint256",
          "name": "amountOutMin",
          "type": "uint256"
        },
        {
          "internalType": "address[]",
          "name": "path",
          "type": "address[]"
        },
        {
          "internalType": "address payable",
          "name": "to",
          "type": "address"
        },
        {
          "internalType": "bool",
          "name": "unwrapNative",
          "type": "bool"
        }
      ],
      "name": "swapExactIn",
      "outputs": [],
      "stateMutability": "payable",
      "type": "function"
    },
    {
      "inputs": [
        {
          "internalType": "uint256",
          "name": "amountOut",
          "type": "uint256"
        },
        {
          "internalType": "uint256",
          "name": "amountInMax",
          "type": "uint256"
        },
        {
          "internalType": "address[]",
          "name": "path",
          "type": "address[]"
        },
        {
          "internalType": "address payable",
          "name": "to",
          "type": "address"
        },
        {
          "internalType": "enum TokenSource",
          "name": "tokenSource",
          "type": "uint8"
        },
        {
          "internalType": "bytes",
          "name": "transferData",
          "type": "bytes"
        },
        {
          "internalType": "bool",
          "name": "unwrapNative",
          "type": "bool"
        }
      ],
      "name": "swapExactOut",
      "outputs": [],
      "stateMutability": "payable",
      "type": "function"
    },
    {
      "inputs": [
        {
          "internalType": "uint256",
          "name": "amountOutMin",
          "type": "uint256"
        },
        {
          "internalType": "address[]",
          "name": "path",
          "type": "address[]"
        },
        {
          "internalType": "address payable",
          "name": "to",
          "type": "address"
        },
        {
          "internalType": "bool",
          "name": "unwrapNative",
          "type": "bool"
        }
      ],
      "name": "swapMaxIn",
      "outputs": [],
      "stateMutability": "payable",
      "type": "function"
    },
    {
      "inputs": [
        {
          "internalType": "address",
          "name": "token",
          "type": "address"
        },
        {
          "internalType": "address",
          "name": "to",
          "type": "address"
        },
        {
          "internalType": "uint256",
          "name": "tokenId",
          "type": "uint256"
        },
        {
          "internalType": "uint256",
          "name": "amount",
          "type": "uint256"
        },
        {
          "internalType": "enum TokenSource",
          "name": "source",
          "type": "uint8"
        },
        {
          "internalType": "bytes",
          "name": "data",
          "type": "bytes"
        }
      ],
      "name": "transferERC1155From",
      "outputs": [],
      "stateMutability": "nonpayable",
      "type": "function"
    },
    {
      "inputs": [
        {
          "internalType": "address",
          "name": "token",
          "type": "address"
        },
        {
          "internalType": "address",
          "name": "to",
          "type": "address"
        },
        {
          "internalType": "uint256",
          "name": "amount",
          "type": "uint256"
        },
        {
          "internalType": "enum TokenSource",
          "name": "source",
          "type": "uint8"
        },
        {
          "internalType": "bytes",
          "name": "data",
          "type": "bytes"
        }
      ],
      "name": "transferERC20From",
      "outputs": [],
      "stateMutability": "nonpayable",
      "type": "function"
    },
    {
      "inputs": [
        {
          "internalType": "address",
          "name": "token",
          "type": "address"
        },
        {
          "internalType": "address",
          "name": "to",
          "type": "address"
        },
        {
          "internalType": "uint256",
          "name": "tokenId",
          "type": "uint256"
        },
        {
          "internalType": "enum TokenSource",
          "name": "source",
          "type": "uint8"
        },
        {
          "internalType": "bytes",
          "name": "data",
          "type": "bytes"
        }
      ],
      "name": "transferERC721From",
      "outputs": [],
      "stateMutability": "nonpayable",
      "type": "function"
    },
    {
      "inputs": [
        {
          "internalType": "uint256",
          "name": "amount",
          "type": "uint256"
        },
        {
          "internalType": "address payable",
          "name": "to",
          "type": "address"
        }
      ],
      "name": "unwrapNativeToken",
      "outputs": [],
      "stateMutability": "payable",
      "type": "function"
    },
    {
      "inputs": [
        {
          "internalType": "uint256",
          "name": "amount",
          "type": "uint256"
        }
      ],
      "name": "wrapNativeToken",
      "outputs": [],
      "stateMutability": "payable",
      "type": "function"
    }
  ],
  "transactionHash": "0xca6f1cc5ffb841898170a76c34dd319579adfd193fffd95bab3e3edbf45f57a0",
  "args": [
    "0xB4FBF271143F4FBf7B91A5ded31805e42b2208d6",
    "0xc35DADB65012eC5796536bD9864eD8773aBc74C4",
    "0xe18a34eb0e04b04f7a0ac29a6e80748dca96319b42c54d679cb821dca90c6303",
    "0x00000000006ce100a8b5ed8edf18ceef9e500697",
    "0xF5BCE5077908a1b7370B9ae04AdC565EBd643966"
  ],
  "numDeployments": 3,
  "solcInputHash": "f88f57136358a3b31827c2ad30206828",
  "bytecode": "0x6101408060405234620001055760a08162002b8b80380380916200002482856200010a565b8339810103126200010557806200003f620000779262000144565b906200004e6020820162000144565b604082015190620000706080620000686060860162000144565b940162000144565b9362000159565b60405161299d9081620001ee8239608051816118e9015260a05181611918015260c05181818161072a0152818161106001528181611358015281816113d20152611501015260e051818181611b1901528181611e6201526120b5015261010051818181611b3a01528181611e8401526120d70152610120518181816103e201528181610d320152610f1a0152f35b600080fd5b601f909101601f19168101906001600160401b038211908210176200012e57604052565b634e487b7160e01b600052604160045260246000fd5b51906001600160a01b03821682036200010557565b60408051630a96ad3960e01b81529195939492936001600160a01b03939092908416918082600481865afa908115620001e357600091620001ae575b5060a052506080521660c05260e0526101005261012052565b82813d8311620001db575b620001c581836200010a565b81010312620001d8575051803862000195565b80fd5b503d620001b9565b513d6000823e3d90fdfe60806040526004361015610013575b600080fd5b60003560e01c8062c5a5651461011657806302232c1f1461010d5780630b7bc72914610104578063464d91cf146100fb5780636b2ace87146100f25780638974e275146100e95780639b223997146100e0578063ae408017146100d7578063b80e2d50146100ce578063c56420f7146100c5578063c7293668146100bc578063d75c7462146100b35763ead9ba13146100ab57600080fd5b61000e610fa5565b5061000e610ef4565b5061000e610dc9565b5061000e610cfe565b5061000e610bc8565b5061000e610a6e565b5061000e610935565b5061000e61074e565b5061000e6106fc565b5061000e6106d6565b5061000e610530565b5061000e6104ae565b5061000e610341565b507f4e487b7100000000000000000000000000000000000000000000000000000000600052604160045260246000fd5b67ffffffffffffffff811161016357604052565b61016b61011f565b604052565b60c0810190811067ffffffffffffffff82111761016357604052565b6080810190811067ffffffffffffffff82111761016357604052565b90601f7fffffffffffffffffffffffffffffffffffffffffffffffffffffffffffffffe0910116810190811067ffffffffffffffff82111761016357604052565b604051906101f682610170565b565b60209067ffffffffffffffff8111610212575b60051b0190565b61021a61011f565b61020b565b73ffffffffffffffffffffffffffffffffffffffff81160361000e57565b81601f8201121561000e57803591610254836101f8565b9261026260405194856101a8565b808452602092838086019260051b82010192831161000e578301905b82821061028c575050505090565b838091833561029a8161021f565b81520191019061027e565b60843590600382101561000e57565b81601f8201121561000e5780359067ffffffffffffffff821161032a575b6040519261030860207fffffffffffffffffffffffffffffffffffffffffffffffffffffffffffffffe0601f86011601856101a8565b8284526020838301011161000e57816000926020809301838601378301015290565b61033261011f565b6102d2565b8015150361000e57565b5060e060031936011261000e5767ffffffffffffffff60043560443582811161000e5761037290369060040161023d565b6064359261037f8461021f565b6103876102a5565b60a43591821161000e576103a26103c29236906004016102b4565b9060c435936103b085610337565b84156104915730905b60243587611b11565b506103ca575b005b73ffffffffffffffffffffffffffffffffffffffff807f000000000000000000000000000000000000000000000000000000000000000016803b1561000e57600060405180927f2e1a7d4d00000000000000000000000000000000000000000000000000000000825281838161044889600483019190602083019252565b03925af18015610484575b61046b575b50821630146103c8575b6103c891611a74565b8061047861047e9261014f565b806106f1565b38610458565b61048c6110d9565b610453565b73ffffffffffffffffffffffffffffffffffffffff8716906103b9565b5060a060031936011261000e5760443567ffffffffffffffff811161000e576104db90369060040161023d565b606435906104e88261021f565b61050c608435916104f883610337565b82156105135730905b6024356004356120a5565b906103ca57005b73ffffffffffffffffffffffffffffffffffffffff841690610501565b503461000e57604060031936011261000e5760043561054e8161021f565b6024359073ffffffffffffffffffffffffffffffffffffffff80911690604051907f6352211e000000000000000000000000000000000000000000000000000000008252602082806105a887600483019190602083019252565b0381865afa918215610670575b600092610640575b501630146105c757005b803b1561000e576040517f23b872dd00000000000000000000000000000000000000000000000000000000815230600482015233602482015260448101929092526000908290818381606481015b03925af18015610633575b61062657005b806104786103c89261014f565b61063b6110d9565b610620565b61066291925060203d8111610669575b61065a81836101a8565b810190611a5f565b90386105bd565b503d610650565b6106786110d9565b6105b5565b60a060031982011261000e576004356106958161021f565b916024356106a28161021f565b9160443591606435600381101561000e57916084359067ffffffffffffffff821161000e576106d3916004016102b4565b90565b503461000e576103c86106e83661067d565b9392909261114c565b600091031261000e57565b503461000e57600060031936011261000e57602060405173ffffffffffffffffffffffffffffffffffffffff7f0000000000000000000000000000000000000000000000000000000000000000168152f35b503461000e5760c060031936011261000e5760043561076c8161021f565b6024356107788161021f565b60443591606435906107886102a5565b60a43567ffffffffffffffff811161000e576107a89036906004016102b4565b906107b281611116565b8061087c57505073ffffffffffffffffffffffffffffffffffffffff16803b1561000e576040517ff242432a00000000000000000000000000000000000000000000000000000000815233600482015273ffffffffffffffffffffffffffffffffffffffff9390931660248401526044830193909352606482015260a06084820152600260a48201527f307800000000000000000000000000000000000000000000000000000000000060c482015290600090829060e490829084905af180156106335761062657005b8061088d6001929794969397611116565b036108b0576108a8856020806103c89851830101910161113d565b9333906119b1565b6040517f08c379a000000000000000000000000000000000000000000000000000000000815260206004820152602860248201527f7472616e736665724552433131353546726f6d2f494e56414c49445f544f4b4560448201527f4e5f534f555243450000000000000000000000000000000000000000000000006064820152608490fd5b503461000e57604060031936011261000e576004356109538161021f565b6040517efdd58e0000000000000000000000000000000000000000000000000000000081523060048201526024803590820181905273ffffffffffffffffffffffffffffffffffffffff929092169190602081604481865afa908115610a61575b600091610a33575b50806109c457005b823b1561000e576040517ff242432a0000000000000000000000000000000000000000000000000000000081523060048201523360248201526044810192909252606482015260a06084820152600060a482018190529091829060c490829084905af180156106335761062657005b610a54915060203d8111610a5a575b610a4c81836101a8565b81019061113d565b386109bc565b503d610a42565b610a696110d9565b6109b4565b503461000e57610a7d3661067d565b90610a8a81959395611116565b80610b0f57505073ffffffffffffffffffffffffffffffffffffffff1691823b1561000e576040517f42842e0e00000000000000000000000000000000000000000000000000000000815233600482015273ffffffffffffffffffffffffffffffffffffffff9092166024830152604482015290600090829081838160648101610615565b80610b206001929694959396611116565b03610b4357610b3b846020806103c89751830101910161113d565b923390611950565b6040517f08c379a000000000000000000000000000000000000000000000000000000000815260206004820152602760248201527f7472616e7366657245524337323146726f6d2f494e56414c49445f544f4b454e60448201527f5f534f55524345000000000000000000000000000000000000000000000000006064820152608490fd5b50608060031936011261000e5760243567ffffffffffffffff811161000e57610bf590369060040161023d565b60443590610c028261021f565b61050c60643591610c1283610337565b610c57610c3e610c3e610c248461161a565b5173ffffffffffffffffffffffffffffffffffffffff1690565b73ffffffffffffffffffffffffffffffffffffffff1690565b6040517f70a082310000000000000000000000000000000000000000000000000000000081523060048201529190602090839060249082905afa918215610cf1575b600092610cd1575b508315610cb45730915b600435906120a5565b73ffffffffffffffffffffffffffffffffffffffff851691610cab565b610cea91925060203d8111610a5a57610a4c81836101a8565b9038610ca1565b610cf96110d9565b610c99565b50604060031936011261000e57602435600435610d1a8261021f565b73ffffffffffffffffffffffffffffffffffffffff807f000000000000000000000000000000000000000000000000000000000000000016803b1561000e57600080916024604051809481937f2e1a7d4d0000000000000000000000000000000000000000000000000000000083528860048401525af18015610dbc575b610da9575b50309083160361046257005b80610478610db69261014f565b38610d9d565b610dc46110d9565b610d98565b5060208060031936011261000e5773ffffffffffffffffffffffffffffffffffffffff600435610df88161021f565b6040517f70a0823100000000000000000000000000000000000000000000000000000000815230600482015291168282602481845afa918215610ee7575b600092610ec8575b5081610e4657005b6040517fa9059cbb00000000000000000000000000000000000000000000000000000000815233600482015260248101929092528290829060449082906000905af18015610ebb575b610e9557005b816103c892903d10610eb4575b610eac81836101a8565b810190611128565b503d610ea2565b610ec36110d9565b610e8f565b610ee0919250833d8511610a5a57610a4c81836101a8565b9038610e3e565b610eef6110d9565b610e36565b5060006020600319360112610fa25773ffffffffffffffffffffffffffffffffffffffff7f00000000000000000000000000000000000000000000000000000000000000001681813b15610fa257600491604051928380927fd0e30db00000000000000000000000000000000000000000000000000000000082528235905af18015610f95575b610f86575b50604051f35b610f8f9061014f565b38610f80565b610f9d6110d9565b610f7b565b80fd5b503461000e5760a060031936011261000e576110446040600435610fc88161021f565b60243590610fd58261021f565b82517f02b9446c00000000000000000000000000000000000000000000000000000000815273ffffffffffffffffffffffffffffffffffffffff9182166004820152306024820152911660448083019190915235606480830191909152356084820152918290819060a4820190565b038160843573ffffffffffffffffffffffffffffffffffffffff7f0000000000000000000000000000000000000000000000000000000000000000165af180156110b6575b61108f57005b6103c89060403d81116110af575b6110a781836101a8565b8101906110c3565b503d61109d565b6110be6110d9565b611089565b919082604091031261000e576020825192015190565b506040513d6000823e3d90fd5b507f4e487b7100000000000000000000000000000000000000000000000000000000600052602160045260246000fd5b6003111561112057565b6101f66110e6565b9081602091031261000e57516106d381610337565b9081602091031261000e575190565b929390919361115a81611116565b806111f55750506040517f23b872dd00000000000000000000000000000000000000000000000000000000815233600482015273ffffffffffffffffffffffffffffffffffffffff9182166024820152604481019390935260209183916064918391600091165af180156111e8575b6111d1575b50565b6111ce9060203d8111610eb457610eac81836101a8565b6111f06110d9565b6111c9565b6112028195939295611116565b600181036112295750611221846020806101f69751830101910161113d565b923390611749565b80611235600292611116565b0361125857611250846020806101f697518301019101611128565b9233906112dd565b6040517f08c379a000000000000000000000000000000000000000000000000000000000815260206004820152602660248201527f7472616e73666572455243323046726f6d2f494e56414c49445f544f4b454e5f60448201527f534f5552434500000000000000000000000000000000000000000000000000006064820152608490fd5b9091926000946000146113b057604080517f97da6d3000000000000000000000000000000000000000000000000000000000815273ffffffffffffffffffffffffffffffffffffffff9384166004820152938316602485015293821660448401526064830152608482019390935291829060a49082906000907f0000000000000000000000000000000000000000000000000000000000000000165af180156113a3575b6113885750565b61139f9060403d81116110af576110a781836101a8565b5050565b6113ab6110d9565b611381565b809392919361148c575b5073ffffffffffffffffffffffffffffffffffffffff7f00000000000000000000000000000000000000000000000000000000000000001690813b1561000e576040517ff18d03cc00000000000000000000000000000000000000000000000000000000815273ffffffffffffffffffffffffffffffffffffffff9485166004820152908416602482015291909216604482015260648101929092526000908290608490829084905af1801561147f575b6114725750565b806104786101f69261014f565b6114876110d9565b61146b565b6040517fda5139ca00000000000000000000000000000000000000000000000000000000815273ffffffffffffffffffffffffffffffffffffffff851660048201526024810191909152600060448201529093906020818060648101038173ffffffffffffffffffffffffffffffffffffffff7f0000000000000000000000000000000000000000000000000000000000000000165afa918215611557575b91611539575b5092386113ba565b611551915060203d8111610a5a57610a4c81836101a8565b38611531565b61155f6110d9565b61152b565b60409081519180830183811067ffffffffffffffff8211176115dd575b815260018352829160005b6020808210156115d5578351602092916115a582610170565b600082526000818301526000868301526000606083015260006080830152600060a083015282880101520161158c565b505091925050565b6115e561011f565b611581565b507f4e487b7100000000000000000000000000000000000000000000000000000000600052603260045260246000fd5b602090805115611628570190565b6116306115ea565b0190565b604090805160011015611628570190565b602091815181101561165a575b60051b010190565b6116626115ea565b611652565b9081602091031261000e57517fffffffff000000000000000000000000000000000000000000000000000000008116810361000e5790565b60208082019080835283518092528060408094019401926000905b8382106116c957505050505090565b90919293948360c060019288518051600481101561173c575b825273ffffffffffffffffffffffffffffffffffffffff80858301511685840152808783015116878401526060908183015116908301526080808201519083015260a08091015190820152019601920190939291936116ba565b6117446110e6565b6116e2565b9061183e92916020946117e761177373ffffffffffffffffffffffffffffffffffffffff98611885565b946117ca61177f611564565b956117ad61178b6101e9565b60018152965b73ffffffffffffffffffffffffffffffffffffffff16878c0152565b73ffffffffffffffffffffffffffffffffffffffff166040860152565b73ffffffffffffffffffffffffffffffffffffffff166060840152565b6000608083015260a08201526117fc8261161a565b526118068161161a565b5060006040519586809581947f4ce34aa20000000000000000000000000000000000000000000000000000000083526004830161169f565b0393165af18015611878575b6118515750565b6111ce9060203d8111611871575b61186981836101a8565b810190611667565b503d61185f565b6118806110d9565b61184a565b73ffffffffffffffffffffffffffffffffffffffff9060405160208101917fff0000000000000000000000000000000000000000000000000000000000000083527fffffffffffffffffffffffffffffffffffffffff0000000000000000000000007f000000000000000000000000000000000000000000000000000000000000000060601b16602183015260358201527f00000000000000000000000000000000000000000000000000000000000000006055820152605581526119498161018c565b5190201690565b9061183e929160209461199c61197a73ffffffffffffffffffffffffffffffffffffffff98611885565b946117ca611986611564565b956117ad6119926101e9565b6002815296611791565b6080820152600160a08201526117fc8261161a565b60209461183e94611a4c6119d973ffffffffffffffffffffffffffffffffffffffff99611885565b95611a2f6119e5611564565b96611a126119f16101e9565b600381529773ffffffffffffffffffffffffffffffffffffffff16888d0152565b73ffffffffffffffffffffffffffffffffffffffff166040870152565b73ffffffffffffffffffffffffffffffffffffffff166060850152565b608083015260a08201526117fc8261161a565b9081602091031261000e57516106d38161021f565b60008080809481945af115610fa25750565b15611a8d57565b60846040517f08c379a000000000000000000000000000000000000000000000000000000000815260206004820152602760248201527f5f6c65676163795377617045786163744f75742f4558434553534956455f414d60448201527f4f554e545f494e000000000000000000000000000000000000000000000000006064820152fd5b9295949193907f00000000000000000000000000000000000000000000000000000000000000007f0000000000000000000000000000000000000000000000000000000000000000611b676002885110156123e6565b611b71875161244b565b9586519060018210611c71575b611b8d60001980930189611645565b52875160018110611c64575b01805b611c00575092611bfb926101f6979592611bf58896611bbe611bca9d9a61161a565b519c8d94851115611a86565b611bd6610c248a61161a565b92611be3610c248b61161a565b611bef610c248c611634565b9161230b565b9061114c565b611e5b565b80611c46611c35848b611c2e610c2486611c28610c24611c22611c5e9b611cc6565b86611645565b93611645565b9088612567565b90611c40848c611645565b51612874565b611c58611c5283611cc6565b8a611645565b52612866565b80611b9c565b611c6c611c7e565b611b99565b611c79611c7e565b611b7e565b507f4e487b7100000000000000000000000000000000000000000000000000000000600052601160045260246000fd5b6001906000198114611cbe570190565b611630611c7e565b6000199060018110611cbe570190565b7ffffffffffffffffffffffffffffffffffffffffffffffffffffffffffffffffe9060028110611cbe570190565b818110611d0f570390565b611d17611c7e565b0390565b6001907ffffffffffffffffffffffffffffffffffffffffffffffffffffffffffffffffe8111611cbe570190565b6002907ffffffffffffffffffffffffffffffffffffffffffffffffffffffffffffffffd8111611cbe570190565b81198111611cbe570190565b604051906000602083019280841067ffffffffffffffff851117611daf575b8360405281815292369037565b611db761011f565b611da2565b9273ffffffffffffffffffffffffffffffffffffffff91959495845260209283850152166040830152608060608301528351908160808401526000945b828610611e45575050601f817fffffffffffffffffffffffffffffffffffffffffffffffffffffffffffffffe09260a0959611611e38575b0116010190565b6000858286010152611e31565b85810182015184870160a0015294810194611df9565b92919260007f0000000000000000000000000000000000000000000000000000000000000000927f0000000000000000000000000000000000000000000000000000000000000000915b611eaf8251611cc6565b8110156120115780611ec5610c24899385611645565b611ed4610c24611c2284611d1b565b85611edf82846121ed565b5091868a611ef5611eef88611d1b565b8c611645565b519473ffffffffffffffffffffffffffffffffffffffff878116911603611ff7579282610c3e9282611f5e96610c3e968b60009a9d5b611f358651611cd6565b821015611feb5750610c24611f5695611f50611bef93611d49565b90611645565b965b8d61230b565b91611f67611d83565b92803b1561000e57611fc69560008094611fb0604051978896879586947f022c0d9f00000000000000000000000000000000000000000000000000000000865260048601611dbc565b03925af18015611fde575b611fcb575b50611cae565b611ea5565b80610478611fd89261014f565b38611fc0565b611fe66110d9565b611fbb565b94505050505096611f58565b9392610c3e92610c3e9282611f5e9697838b60009d611f2b565b50505050509050565b1561202157565b60846040517f08c379a000000000000000000000000000000000000000000000000000000000815260206004820152602760248201527f5f6c6567616379537761704578616374496e2f4558434553534956455f414d4f60448201527f554e545f4f5554000000000000000000000000000000000000000000000000006064820152fd5b916101f692949391946121ac60207f0000000000000000000000000000000000000000000000000000000000000000927f0000000000000000000000000000000000000000000000000000000000000000936121526121068688858561249a565b9561212761211d6121178951611cc6565b89611645565b519c8d101561201a565b612139610c3e610c3e610c248b61161a565b92612146610c248a61161a565b611bef610c248b611634565b60006040518096819582947fa9059cbb000000000000000000000000000000000000000000000000000000008452600484016020909392919373ffffffffffffffffffffffffffffffffffffffff60408201951681520152565b03925af180156121e0575b6121c2575b50611e5b565b6121d99060203d8111610eb457610eac81836101a8565b50386121bc565b6121e86110d9565b6121b7565b909173ffffffffffffffffffffffffffffffffffffffff9182841683821681811461228757101561228257925b9183161561222457565b60646040517f08c379a000000000000000000000000000000000000000000000000000000000815260206004820152601e60248201527f556e697377617056324c6962726172793a205a45524f5f4144445245535300006044820152fd5b61221a565b60846040517f08c379a000000000000000000000000000000000000000000000000000000000815260206004820152602560248201527f556e697377617056324c6962726172793a204944454e544943414c5f4144445260448201527f45535345530000000000000000000000000000000000000000000000000000006064820152fd5b919261232e73ffffffffffffffffffffffffffffffffffffffff9460b5936121ed565b6040939193519060208201947fffffffffffffffffffffffffffffffffffffffff0000000000000000000000009182809260601b16875260601b16603483015260288252606082019482861067ffffffffffffffff8711176123d9575b85604052825190209060808301967fff00000000000000000000000000000000000000000000000000000000000000885260601b16608183015260958201520152605581526119498161018c565b6123e161011f565b61238b565b156123ed57565b60646040517f08c379a000000000000000000000000000000000000000000000000000000000815260206004820152601e60248201527f556e697377617056324c6962726172793a20494e56414c49445f5041544800006044820152fd5b90612455826101f8565b61246260405191826101a8565b8281527fffffffffffffffffffffffffffffffffffffffffffffffffffffffffffffffe061249082946101f8565b0190602036910137565b909392916124ac6002825110156123e6565b6124b6815161244b565b9485511561253f575b602086015260005b600019825160018110612532575b0181101561252c5780612515612504866124f5610c246125279688611645565b611c2e610c2461211787611d1b565b9061250f848b611645565b5161277a565b61252161211783611d1b565b52611cae565b6124c7565b50505050565b61253a611c7e565b6124d5565b6125476115ea565b6124bf565b51906dffffffffffffffffffffffffffff8216820361000e57565b6060829161259b6004959661257c88866121ed565b509773ffffffffffffffffffffffffffffffffffffffff95869461230b565b16604051948580927f0902f1ac0000000000000000000000000000000000000000000000000000000082525afa92831561265c575b6000908194612604575b5081906dffffffffffffffffffffffffffff809116941694169116146000146126005791565b9091565b93506060843d8211612654575b8161261e606093836101a8565b81010312610fa25761262f8461254c565b90604061263e6020870161254c565b95015163ffffffff811603610fa25750816125da565b3d9150612611565b6126646110d9565b6125d0565b1561267057565b60846040517f08c379a000000000000000000000000000000000000000000000000000000000815260206004820152602860248201527f556e697377617056324c6962726172793a20494e53554646494349454e545f4c60448201527f49515549444954590000000000000000000000000000000000000000000000006064820152fd5b6103e890806000190482118115151661270b570290565b612713611c7e565b0290565b6103e590806000190482118115151661270b570290565b806000190482118115151661270b570290565b811561274b570490565b7f4e487b7100000000000000000000000000000000000000000000000000000000600052601260045260246000fd5b80156127e2576106d3926127c16127bb6127c693851515806127d9575b6127a090612669565b6103e590806000190482116001166127cc575b02928361272e565b936126f4565b611d77565b90612741565b6127d4611c7e565b6127b3565b50831515612797565b60846040517f08c379a000000000000000000000000000000000000000000000000000000000815260206004820152602b60248201527f556e697377617056324c6962726172793a20494e53554646494349454e545f4960448201527f4e5055545f414d4f554e540000000000000000000000000000000000000000006064820152fd5b600019908015611cbe570190565b80156128e3576106d3926128c16128bc6128a384866128c8971515806128da575b61289e90612669565b61272e565b936103e89385600019048511861515166128cd57611d04565b612717565b9102612741565b611d1b565b6128d5611c7e565b611d04565b50851515612895565b60846040517f08c379a000000000000000000000000000000000000000000000000000000000815260206004820152602c60248201527f556e697377617056324c6962726172793a20494e53554646494349454e545f4f60448201527f55545055545f414d4f554e5400000000000000000000000000000000000000006064820152fdfea2646970667358221220a1bc2027da08c40895a13bae0e10a2aabcf7a1ec90338cd653854de0b6216a1464736f6c634300080e0033",
  "devdoc": {
    "kind": "dev",
    "methods": {
      "depositERC20ToBentoBox(address,address,uint256,uint256,uint256)": {
        "details": "Deposits ERC20 token from address(this) into the BentoBox.",
        "params": {
          "amount": "amount to be deposited",
          "share": "share to be deposited",
          "to": "receiver",
          "token": "token to deposit. Use token as address(0) when depositing native token",
          "value": "native token value to be deposited. Only use when token address is address(0)"
        }
      },
      "returnERC1155(address,uint256)": {
        "details": "Function to return any excess ERC1155 token from      address(this) to `msg.sender`.",
        "params": {
          "token": "The token to return to the caller.",
          "tokenId": "The token identifier of the asset."
        }
      },
      "returnERC20(address)": {
        "details": "Function to return any excess ERC20 tokens from address(this)      to `msg.sender`.",
        "params": {
          "token": "The token to return to the caller."
        }
      },
      "returnERC721(address,uint256)": {
        "details": "Function to return any left over ERC721 token from      address(this) to `msg.sender`.",
        "params": {
          "token": "The token to return to the caller.",
          "tokenId": "The token identifier of the asset."
        }
      },
      "swapExactIn(uint256,uint256,address[],address,bool)": {
        "details": "This function swaps an exact amount of tokens from address(this)      and sends a mimimum amount of output token to the specified recipient.",
        "params": {
          "amountIn": "The exact amount of input token to be spent.",
          "amountOutMin": "The minimum amount of output token to be received.",
          "path": "The swap path.",
          "to": "The recipient of output token.",
          "unwrapNative": "Flag to unwrap for native token if output token is WETH."
        }
      },
      "swapExactOut(uint256,uint256,address[],address,uint8,bytes,bool)": {
        "details": "This function swaps ERC20 tokens from msg.sender      for an exact amount of output tokens, sent      to the specified recipient.",
        "params": {
          "amountInMax": "The maximum amount of input to be spent.",
          "amountOut": "The exact amount of output token to receive.",
          "path": "The swap path.",
          "to": "The recipient to receive output token.",
          "tokenSource": "The token / approval source for input token.",
          "transferData": "Additional data required depending on `source`.",
          "unwrapNative": "Flag to unwrap for native token if output token is WETH."
        }
      },
      "swapMaxIn(uint256,address[],address,bool)": {
        "details": "This function performs the swaps as outlined in `path`. This contract's      entire balance of input token will be swapped for a minimum amount of      output token, sent to the specified recipient.",
        "params": {
          "amountOutMin": "The minimum amount of output token to be received.",
          "path": "The swap path.",
          "to": "The recipient of output token.",
          "unwrapNative": "Flag to unwrap for native token if output token is WETH."
        }
      },
      "transferERC1155From(address,address,uint256,uint256,uint8,bytes)": {
        "details": "Function to transfer an ERC1155 token from `msg.sender`      to a given recipient. Assets will be transferred from      a user's wallet with approvals being sourced from the      Shoyu contract or Seaport Conduit.",
        "params": {
          "amount": "The amount of the asset to transfer.",
          "data": "Additional encoded data required depending on `source`.",
          "source": "The NFT approval source.",
          "to": "The recipient of the transfer.",
          "token": "The ERC1155 token to transfer.",
          "tokenId": "The tokenId of the asset to transfer."
        }
      },
      "transferERC20From(address,address,uint256,uint8,bytes)": {
        "details": "Function to transfer ERC20 tokens from `msg.sender`      to a given recipient. Assets can be transferred from      a user's bentobox or wallet. If funds are transferred      from a user's wallet, approvals can be sourced from the      Shoyu contract or Seaport Conduit.",
        "params": {
          "amount": "The amount to transfer.",
          "data": "Additional encoded data required depending on `source`.",
          "source": "The token / approval source.",
          "to": "The recipient of the transfer.",
          "token": "The ERC20 token to transfer."
        }
      },
      "transferERC721From(address,address,uint256,uint8,bytes)": {
        "details": "Function to transfer an ERC721 token from `msg.sender`      to a given recipient. Assets will be transferred from      a user's wallet with approvals being sourced from the      Shoyu contract or Seaport Conduit.",
        "params": {
          "data": "Additional encoded data required depending on `source`.",
          "source": "The NFT approval source.",
          "to": "The recipient of the transfer.",
          "token": "The ERC721 token to transfer.",
          "tokenId": "The tokenId of the asset to transfer."
        }
      },
      "unwrapNativeToken(uint256,address)": {
        "details": "This function unwraps WETH held by address(this)      and transfers ETH to the specified recipient.",
        "params": {
          "amount": "The amount of WETH to be unwrapped.",
          "to": "The ETH recipient."
        }
      },
      "wrapNativeToken(uint256)": {
        "details": "This function wraps ETH held by address(this).",
        "params": {
          "amount": "The amount of ETH to wrap"
        }
      }
    },
    "stateVariables": {
      "WETH": {
        "details": "The WETH address."
      }
    },
    "version": 1
  },
  "userdoc": {
    "kind": "user",
    "methods": {},
    "version": 1
  },
  "storageLayout": {
    "storage": [],
    "types": null
  }
}