{
  "address": "0x16aBEBa80BE10540044541d9b00F059742908D05",
  "abi": [
    {
      "inputs": [
        {
          "internalType": "address",
          "name": "_weth",
          "type": "address"
        },
        {
          "internalType": "address",
          "name": "_factory",
          "type": "address"
        },
        {
          "internalType": "bytes32",
          "name": "_pairCodeHash",
          "type": "bytes32"
        },
        {
          "internalType": "address",
          "name": "_conduitController",
          "type": "address"
        }
      ],
      "stateMutability": "nonpayable",
      "type": "constructor"
    },
    {
      "inputs": [
        {
          "internalType": "address",
          "name": "token",
          "type": "address"
        },
        {
          "internalType": "uint256",
          "name": "tokenId",
          "type": "uint256"
        }
      ],
      "name": "returnERC1155",
      "outputs": [],
      "stateMutability": "nonpayable",
      "type": "function"
    },
    {
      "inputs": [
        {
          "internalType": "address",
          "name": "token",
          "type": "address"
        }
      ],
      "name": "returnERC20",
      "outputs": [],
      "stateMutability": "nonpayable",
      "type": "function"
    },
    {
      "inputs": [
        {
          "internalType": "address",
          "name": "token",
          "type": "address"
        },
        {
          "internalType": "uint256",
          "name": "tokenId",
          "type": "uint256"
        }
      ],
      "name": "returnERC721",
      "outputs": [],
      "stateMutability": "nonpayable",
      "type": "function"
    },
    {
      "inputs": [
        {
          "internalType": "uint256",
          "name": "amountIn",
          "type": "uint256"
        },
        {
          "internalType": "uint256",
          "name": "amountOutMin",
          "type": "uint256"
        },
        {
          "internalType": "address[]",
          "name": "path",
          "type": "address[]"
        },
        {
          "internalType": "address payable",
          "name": "to",
          "type": "address"
        },
        {
          "internalType": "bool",
          "name": "unwrapNative",
          "type": "bool"
        }
      ],
      "name": "swapExactIn",
      "outputs": [],
      "stateMutability": "payable",
      "type": "function"
    },
    {
      "inputs": [
        {
          "internalType": "uint256",
          "name": "amountOut",
          "type": "uint256"
        },
        {
          "internalType": "uint256",
          "name": "amountInMax",
          "type": "uint256"
        },
        {
          "internalType": "address[]",
          "name": "path",
          "type": "address[]"
        },
        {
          "internalType": "address payable",
          "name": "to",
          "type": "address"
        },
        {
          "internalType": "enum TokenSource",
          "name": "tokenSource",
          "type": "uint8"
        },
        {
          "internalType": "bytes",
          "name": "transferData",
          "type": "bytes"
        },
        {
          "internalType": "bool",
          "name": "unwrapNative",
          "type": "bool"
        }
      ],
      "name": "swapExactOut",
      "outputs": [],
      "stateMutability": "payable",
      "type": "function"
    },
    {
      "inputs": [
        {
          "internalType": "uint256",
          "name": "amountOutMin",
          "type": "uint256"
        },
        {
          "internalType": "address[]",
          "name": "path",
          "type": "address[]"
        },
        {
          "internalType": "address payable",
          "name": "to",
          "type": "address"
        },
        {
          "internalType": "bool",
          "name": "unwrapNative",
          "type": "bool"
        }
      ],
      "name": "swapMaxIn",
      "outputs": [],
      "stateMutability": "payable",
      "type": "function"
    },
    {
      "inputs": [
        {
          "internalType": "address",
          "name": "token",
          "type": "address"
        },
        {
          "internalType": "address",
          "name": "to",
          "type": "address"
        },
        {
          "internalType": "uint256",
          "name": "tokenId",
          "type": "uint256"
        },
        {
          "internalType": "uint256",
          "name": "amount",
          "type": "uint256"
        },
        {
          "internalType": "enum TokenSource",
          "name": "source",
          "type": "uint8"
        },
        {
          "internalType": "bytes",
          "name": "data",
          "type": "bytes"
        }
      ],
      "name": "transferERC1155From",
      "outputs": [],
      "stateMutability": "nonpayable",
      "type": "function"
    },
    {
      "inputs": [
        {
          "internalType": "address",
          "name": "token",
          "type": "address"
        },
        {
          "internalType": "address",
          "name": "to",
          "type": "address"
        },
        {
          "internalType": "uint256",
          "name": "amount",
          "type": "uint256"
        },
        {
          "internalType": "enum TokenSource",
          "name": "source",
          "type": "uint8"
        },
        {
          "internalType": "bytes",
          "name": "data",
          "type": "bytes"
        }
      ],
      "name": "transferERC20From",
      "outputs": [],
      "stateMutability": "nonpayable",
      "type": "function"
    },
    {
      "inputs": [
        {
          "internalType": "address",
          "name": "token",
          "type": "address"
        },
        {
          "internalType": "address",
          "name": "to",
          "type": "address"
        },
        {
          "internalType": "uint256",
          "name": "tokenId",
          "type": "uint256"
        },
        {
          "internalType": "enum TokenSource",
          "name": "source",
          "type": "uint8"
        },
        {
          "internalType": "bytes",
          "name": "data",
          "type": "bytes"
        }
      ],
      "name": "transferERC721From",
      "outputs": [],
      "stateMutability": "nonpayable",
      "type": "function"
    },
    {
      "inputs": [
        {
          "internalType": "uint256",
          "name": "amount",
          "type": "uint256"
        },
        {
          "internalType": "address payable",
          "name": "to",
          "type": "address"
        }
      ],
      "name": "unwrapNativeToken",
      "outputs": [],
      "stateMutability": "nonpayable",
      "type": "function"
    },
    {
      "inputs": [
        {
          "internalType": "uint256",
          "name": "amount",
          "type": "uint256"
        }
      ],
      "name": "wrapNativeToken",
      "outputs": [],
      "stateMutability": "payable",
      "type": "function"
    }
  ],
  "transactionHash": "0x3da64d0d2acf92ed12ecc8ea9181944d29658d6eeab9850966434aeae3ac90df",
  "args": [
    "0xB4FBF271143F4FBf7B91A5ded31805e42b2208d6",
    "0xc35DADB65012eC5796536bD9864eD8773aBc74C4",
    "0xe18a34eb0e04b04f7a0ac29a6e80748dca96319b42c54d679cb821dca90c6303",
    "0x00000000006ce100a8b5ed8edf18ceef9e500697"
  ],
  "numDeployments": 5,
  "solcInputHash": "ce961eb7631a6ee9b0f07f4cc0f96052",
  "bytecode": "0x6101208060405234620000d057608081620025c28038038091620000248285620000d5565b833981010312620000d057806200003f62000068926200010f565b906200004e602082016200010f565b620000616060604084015193016200010f565b9262000124565b6040516124169081620001ac82396080518161136f015260a0518161139e015260c051818181611598015281816118e10152611b34015260e0518181816115b9015281816119030152611b560152610100518181816103bb01528181610bca0152610e000152f35b600080fd5b601f909101601f19168101906001600160401b03821190821017620000f957604052565b634e487b7160e01b600052604160045260246000fd5b51906001600160a01b0382168203620000d057565b60408051630a96ad3960e01b815291946001600160a01b031691908082600481865afa908115620001a1576000916200016c575b5060a0525060805260c05260e05261010052565b82813d831162000199575b620001838183620000d5565b8101031262000196575051803862000158565b80fd5b503d62000177565b513d6000823e3d90fdfe60806040526004361015610013575b600080fd5b60003560e01c8062c5a565146100ee57806302232c1f146100e55780630b7bc729146100dc578063464d91cf146100d35780638974e275146100ca5780639b223997146100c1578063ae408017146100b8578063b80e2d50146100af578063c56420f7146100a6578063c72936681461009d5763d75c74621461009557600080fd5b61000e610dda565b5061000e610caa565b5061000e610b90565b5061000e610a5b565b5061000e610984565b5061000e61084b565b5061000e6106e7565b5061000e6106cc565b5061000e610526565b5061000e6104a5565b5061000e610319565b507f4e487b7100000000000000000000000000000000000000000000000000000000600052604160045260246000fd5b67ffffffffffffffff811161013b57604052565b6101436100f7565b604052565b60c0810190811067ffffffffffffffff82111761013b57604052565b6080810190811067ffffffffffffffff82111761013b57604052565b90601f7fffffffffffffffffffffffffffffffffffffffffffffffffffffffffffffffe0910116810190811067ffffffffffffffff82111761013b57604052565b604051906101ce82610148565b565b60209067ffffffffffffffff81116101ea575b60051b0190565b6101f26100f7565b6101e3565b73ffffffffffffffffffffffffffffffffffffffff81160361000e57565b81601f8201121561000e5780359161022c836101d0565b9261023a6040519485610180565b808452602092838086019260051b82010192831161000e578301905b828210610264575050505090565b8380918335610272816101f7565b815201910190610256565b60843590600282101561000e57565b81601f8201121561000e5780359067ffffffffffffffff8211610302575b604051926102e060207fffffffffffffffffffffffffffffffffffffffffffffffffffffffffffffffe0601f8601160185610180565b8284526020838301011161000e57816000926020809301838601378301015290565b61030a6100f7565b6102aa565b8015150361000e57565b5060e060031936011261000e5760043567ffffffffffffffff60443581811161000e5761034a903690600401610215565b60643591610357836101f7565b61035f61027d565b60a43591821161000e5761037a61039a92369060040161028c565b9060c435936103888561030f565b84156104885730905b60243588611590565b506103a2575b005b73ffffffffffffffffffffffffffffffffffffffff90817f000000000000000000000000000000000000000000000000000000000000000016803b1561000e57600060405180927f2e1a7d4d0000000000000000000000000000000000000000000000000000000082528183816104218a600483019190602083019252565b03925af1801561047b575b610462575b50163081146103a05760008080938193828215610459575bf11561045157005b6103a0610ef1565b506108fc610449565b8061046f61047592610127565b806113d6565b38610431565b610483610ef1565b61042c565b73ffffffffffffffffffffffffffffffffffffffff861690610391565b5060a060031936011261000e5760443567ffffffffffffffff811161000e576104d2903690600401610215565b6064356104de816101f7565b610502608435926104ee8461030f565b83156105095730905b602435600435611b24565b916103a257005b73ffffffffffffffffffffffffffffffffffffffff8316906104f7565b503461000e57604060031936011261000e57600435610544816101f7565b6024359073ffffffffffffffffffffffffffffffffffffffff80911690604051907f6352211e0000000000000000000000000000000000000000000000000000000082526020828061059e87600483019190602083019252565b0381865afa918215610666575b600092610636575b501630146105bd57005b803b1561000e576040517f23b872dd00000000000000000000000000000000000000000000000000000000815230600482015233602482015260448101929092526000908290818381606481015b03925af18015610629575b61061c57005b8061046f6103a092610127565b610631610ef1565b610616565b61065891925060203d811161065f575b6106508183610180565b8101906114f0565b90386105b3565b503d610646565b61066e610ef1565b6105ab565b60a060031982011261000e5760043561068b816101f7565b91602435610698816101f7565b9160443591606435600281101561000e57916084359067ffffffffffffffff821161000e576106c99160040161028c565b90565b503461000e576103a06106de36610673565b93929092610efe565b503461000e5760c060031936011261000e57600435610705816101f7565b602435610711816101f7565b604435916064359061072161027d565b60a43567ffffffffffffffff811161000e5761074190369060040161028c565b9061074b81610ebb565b8061081557505073ffffffffffffffffffffffffffffffffffffffff16803b1561000e576040517ff242432a00000000000000000000000000000000000000000000000000000000815233600482015273ffffffffffffffffffffffffffffffffffffffff9390931660248401526044830193909352606482015260a06084820152600260a48201527f307800000000000000000000000000000000000000000000000000000000000060c482015290600090829060e490829084905af180156106295761061c57005b806108266001929794969397610ebb565b1461082d57005b610843856020806103a098518301019101610ecd565b933390611442565b503461000e57604060031936011261000e57600435610869816101f7565b6040517efdd58e0000000000000000000000000000000000000000000000000000000081523060048201526024803590820181905273ffffffffffffffffffffffffffffffffffffffff929092169190602081604481865afa908115610977575b600091610949575b50806108da57005b823b1561000e576040517ff242432a0000000000000000000000000000000000000000000000000000000081523060048201523360248201526044810192909252606482015260a06084820152600060a482018190529091829060c490829084905af180156106295761061c57005b61096a915060203d8111610970575b6109628183610180565b810190610ecd565b386108d2565b503d610958565b61097f610ef1565b6108ca565b503461000e5761099336610673565b906109a081959395610ebb565b80610a2557505073ffffffffffffffffffffffffffffffffffffffff1691823b1561000e576040517f42842e0e00000000000000000000000000000000000000000000000000000000815233600482015273ffffffffffffffffffffffffffffffffffffffff909216602483015260448201529060009082908183816064810161060b565b80610a366001929694959396610ebb565b14610a3d57005b610a53846020806103a097518301019101610ecd565b9233906113e1565b50608060031936011261000e5760243567ffffffffffffffff811161000e57610a88903690600401610215565b604435610a94816101f7565b61050260643592610aa48461030f565b610ae9610ad0610ad0610ab6846110a0565b5173ffffffffffffffffffffffffffffffffffffffff1690565b73ffffffffffffffffffffffffffffffffffffffff1690565b6040517f70a082310000000000000000000000000000000000000000000000000000000081523060048201529190602090839060249082905afa918215610b83575b600092610b63575b508415610b465730915b60043590611b24565b73ffffffffffffffffffffffffffffffffffffffff841691610b3d565b610b7c91925060203d8111610970576109628183610180565b9038610b33565b610b8b610ef1565b610b2b565b503461000e57604060031936011261000e57602435600435610bb1826101f7565b73ffffffffffffffffffffffffffffffffffffffff90817f00000000000000000000000000000000000000000000000000000000000000001691823b1561000e57604051937f2e1a7d4d00000000000000000000000000000000000000000000000000000000855284600081819796818381610c368a6004849d019190602083019252565b03925af18015610c9d575b610c8a575b501690308203610c57575b82604051f35b828092918192828215610c81575bf115610c74575b803880610c51565b610c7c610ef1565b610c6c565b506108fc610c65565b8061046f610c9792610127565b38610c46565b610ca5610ef1565b610c41565b503461000e5760208060031936011261000e5773ffffffffffffffffffffffffffffffffffffffff600435610cde816101f7565b6040517f70a0823100000000000000000000000000000000000000000000000000000000815230600482015291168282602481845afa918215610dcd575b600092610dae575b5081610d2c57005b6040517fa9059cbb00000000000000000000000000000000000000000000000000000000815233600482015260248101929092528290829060449082906000905af18015610da1575b610d7b57005b816103a092903d10610d9a575b610d928183610180565b810190610edc565b503d610d88565b610da9610ef1565b610d75565b610dc6919250833d8511610970576109628183610180565b9038610d24565b610dd5610ef1565b610d1c565b5060006020600319360112610e885773ffffffffffffffffffffffffffffffffffffffff7f00000000000000000000000000000000000000000000000000000000000000001681813b15610e8857600491604051928380927fd0e30db00000000000000000000000000000000000000000000000000000000082528235905af18015610e7b575b610e6c575b50604051f35b610e7590610127565b38610e66565b610e83610ef1565b610e61565b80fd5b507f4e487b7100000000000000000000000000000000000000000000000000000000600052602160045260246000fd5b60021115610ec557565b6101ce610e8b565b9081602091031261000e575190565b9081602091031261000e57516106c98161030f565b506040513d6000823e3d90fd5b9293909193610f0c81610ebb565b80610fa75750506040517f23b872dd00000000000000000000000000000000000000000000000000000000815233600482015273ffffffffffffffffffffffffffffffffffffffff9182166024820152604481019390935260209183916064918391600091165af18015610f9a575b610f83575b50565b610f809060203d8111610d9a57610d928183610180565b610fa2610ef1565b610f7b565b80610fb760019296949396610ebb565b14610fc3575b50505050565b610fd984602080610fe197518301019101610ecd565b9233906111cf565b38808080610fbd565b60409081519180830183811067ffffffffffffffff821117611063575b815260018352829160005b60208082101561105b5783516020929161102b82610148565b600082526000818301526000868301526000606083015260006080830152600060a0830152828801015201611012565b505091925050565b61106b6100f7565b611007565b507f4e487b7100000000000000000000000000000000000000000000000000000000600052603260045260246000fd5b6020908051156110ae570190565b6110b6611070565b0190565b6040908051600110156110ae570190565b60209181518110156110e0575b60051b010190565b6110e8611070565b6110d8565b9081602091031261000e57517fffffffff000000000000000000000000000000000000000000000000000000008116810361000e5790565b60208082019080835283518092528060408094019401926000905b83821061114f57505050505090565b90919293948360c06001928851805160048110156111c2575b825273ffffffffffffffffffffffffffffffffffffffff80858301511685840152808783015116878401526060908183015116908301526080808201519083015260a0809101519082015201960192019093929193611140565b6111ca610e8b565b611168565b906112c4929160209461126d6111f973ffffffffffffffffffffffffffffffffffffffff9861130b565b94611250611205610fea565b956112336112116101c1565b60018152965b73ffffffffffffffffffffffffffffffffffffffff16878c0152565b73ffffffffffffffffffffffffffffffffffffffff166040860152565b73ffffffffffffffffffffffffffffffffffffffff166060840152565b6000608083015260a0820152611282826110a0565b5261128c816110a0565b5060006040519586809581947f4ce34aa200000000000000000000000000000000000000000000000000000000835260048301611125565b0393165af180156112fe575b6112d75750565b610f809060203d81116112f7575b6112ef8183610180565b8101906110ed565b503d6112e5565b611306610ef1565b6112d0565b73ffffffffffffffffffffffffffffffffffffffff9060405160208101917fff0000000000000000000000000000000000000000000000000000000000000083527fffffffffffffffffffffffffffffffffffffffff0000000000000000000000007f000000000000000000000000000000000000000000000000000000000000000060601b16602183015260358201527f00000000000000000000000000000000000000000000000000000000000000006055820152605581526113cf81610164565b5190201690565b600091031261000e57565b906112c4929160209461142d61140b73ffffffffffffffffffffffffffffffffffffffff9861130b565b94611250611417610fea565b956112336114236101c1565b6002815296611217565b6080820152600160a0820152611282826110a0565b6020946112c4946114dd61146a73ffffffffffffffffffffffffffffffffffffffff9961130b565b956114c0611476610fea565b966114a36114826101c1565b600381529773ffffffffffffffffffffffffffffffffffffffff16888d0152565b73ffffffffffffffffffffffffffffffffffffffff166040870152565b73ffffffffffffffffffffffffffffffffffffffff166060850152565b608083015260a0820152611282826110a0565b9081602091031261000e57516106c9816101f7565b1561150c57565b60846040517f08c379a000000000000000000000000000000000000000000000000000000000815260206004820152602760248201527f5f6c65676163795377617045786163744f75742f4558434553534956455f414d60448201527f4f554e545f494e000000000000000000000000000000000000000000000000006064820152fd5b9295949193907f00000000000000000000000000000000000000000000000000000000000000007f00000000000000000000000000000000000000000000000000000000000000006115e6600288511015611e65565b6115f08751611eca565b95865190600182106116f0575b61160c600019809301896110cb565b528751600181106116e3575b01805b61167f57509261167a926101ce979592611674889661163d6116499d9a6110a0565b519c8d94851115611505565b611655610ab68a6110a0565b92611662610ab68b6110a0565b61166e610ab68c6110ba565b91611d8a565b90610efe565b6118da565b806116c56116b4848b6116ad610ab6866116a7610ab66116a16116dd9b611745565b866110cb565b936110cb565b9088611fe0565b906116bf848c6110cb565b516122ed565b6116d76116d183611745565b8a6110cb565b526122df565b8061161b565b6116eb6116fd565b611618565b6116f86116fd565b6115fd565b507f4e487b7100000000000000000000000000000000000000000000000000000000600052601160045260246000fd5b600190600019811461173d570190565b6110b66116fd565b600019906001811061173d570190565b7ffffffffffffffffffffffffffffffffffffffffffffffffffffffffffffffffe906002811061173d570190565b81811061178e570390565b6117966116fd565b0390565b6001907ffffffffffffffffffffffffffffffffffffffffffffffffffffffffffffffffe811161173d570190565b6002907ffffffffffffffffffffffffffffffffffffffffffffffffffffffffffffffffd811161173d570190565b8119811161173d570190565b604051906000602083019280841067ffffffffffffffff85111761182e575b8360405281815292369037565b6118366100f7565b611821565b9273ffffffffffffffffffffffffffffffffffffffff91959495845260209283850152166040830152608060608301528351908160808401526000945b8286106118c4575050601f817fffffffffffffffffffffffffffffffffffffffffffffffffffffffffffffffe09260a09596116118b7575b0116010190565b60008582860101526118b0565b85810182015184870160a0015294810194611878565b92919260007f0000000000000000000000000000000000000000000000000000000000000000927f0000000000000000000000000000000000000000000000000000000000000000915b61192e8251611745565b811015611a905780611944610ab68993856110cb565b611953610ab66116a18461179a565b8561195e8284611c6c565b5091868a61197461196e8861179a565b8c6110cb565b519473ffffffffffffffffffffffffffffffffffffffff878116911603611a76579282610ad092826119dd96610ad0968b60009a9d5b6119b48651611755565b821015611a6a5750610ab66119d5956119cf61166e936117c8565b906110cb565b965b8d611d8a565b916119e6611802565b92803b1561000e57611a459560008094611a2f604051978896879586947f022c0d9f0000000000000000000000000000000000000000000000000000000086526004860161183b565b03925af18015611a5d575b611a4a575b5061172d565b611924565b8061046f611a5792610127565b38611a3f565b611a65610ef1565b611a3a565b945050505050966119d7565b9392610ad092610ad092826119dd9697838b60009d6119aa565b50505050509050565b15611aa057565b60846040517f08c379a000000000000000000000000000000000000000000000000000000000815260206004820152602760248201527f5f6c6567616379537761704578616374496e2f4558434553534956455f414d4f60448201527f554e545f4f5554000000000000000000000000000000000000000000000000006064820152fd5b916101ce9294939194611c2b60207f0000000000000000000000000000000000000000000000000000000000000000927f000000000000000000000000000000000000000000000000000000000000000093611bd1611b8586888585611f19565b95611ba6611b9c611b968951611745565b896110cb565b519c8d1015611a99565b611bb8610ad0610ad0610ab68b6110a0565b92611bc5610ab68a6110a0565b61166e610ab68b6110ba565b60006040518096819582947fa9059cbb000000000000000000000000000000000000000000000000000000008452600484016020909392919373ffffffffffffffffffffffffffffffffffffffff60408201951681520152565b03925af18015611c5f575b611c41575b506118da565b611c589060203d8111610d9a57610d928183610180565b5038611c3b565b611c67610ef1565b611c36565b909173ffffffffffffffffffffffffffffffffffffffff91828416838216818114611d06571015611d0157925b91831615611ca357565b60646040517f08c379a000000000000000000000000000000000000000000000000000000000815260206004820152601e60248201527f556e697377617056324c6962726172793a205a45524f5f4144445245535300006044820152fd5b611c99565b60846040517f08c379a000000000000000000000000000000000000000000000000000000000815260206004820152602560248201527f556e697377617056324c6962726172793a204944454e544943414c5f4144445260448201527f45535345530000000000000000000000000000000000000000000000000000006064820152fd5b9192611dad73ffffffffffffffffffffffffffffffffffffffff9460b593611c6c565b6040939193519060208201947fffffffffffffffffffffffffffffffffffffffff0000000000000000000000009182809260601b16875260601b16603483015260288252606082019482861067ffffffffffffffff871117611e58575b85604052825190209060808301967fff00000000000000000000000000000000000000000000000000000000000000885260601b16608183015260958201520152605581526113cf81610164565b611e606100f7565b611e0a565b15611e6c57565b60646040517f08c379a000000000000000000000000000000000000000000000000000000000815260206004820152601e60248201527f556e697377617056324c6962726172793a20494e56414c49445f5041544800006044820152fd5b90611ed4826101d0565b611ee16040519182610180565b8281527fffffffffffffffffffffffffffffffffffffffffffffffffffffffffffffffe0611f0f82946101d0565b0190602036910137565b90939291611f2b600282511015611e65565b611f358151611eca565b94855115611fb8575b602086015260005b600019825160018110611fab575b01811015610fbd5780611f94611f8386611f74610ab6611fa696886110cb565b6116ad610ab6611b968761179a565b90611f8e848b6110cb565b516121f3565b611fa0611b968361179a565b5261172d565b611f46565b611fb36116fd565b611f54565b611fc0611070565b611f3e565b51906dffffffffffffffffffffffffffff8216820361000e57565b6060829161201460049596611ff58886611c6c565b509773ffffffffffffffffffffffffffffffffffffffff958694611d8a565b16604051948580927f0902f1ac0000000000000000000000000000000000000000000000000000000082525afa9283156120d5575b600090819461207d575b5081906dffffffffffffffffffffffffffff809116941694169116146000146120795791565b9091565b93506060843d82116120cd575b8161209760609383610180565b81010312610e88576120a884611fc5565b9060406120b760208701611fc5565b95015163ffffffff811603610e88575081612053565b3d915061208a565b6120dd610ef1565b612049565b156120e957565b60846040517f08c379a000000000000000000000000000000000000000000000000000000000815260206004820152602860248201527f556e697377617056324c6962726172793a20494e53554646494349454e545f4c60448201527f49515549444954590000000000000000000000000000000000000000000000006064820152fd5b6103e8908060001904821181151516612184570290565b61218c6116fd565b0290565b6103e5908060001904821181151516612184570290565b8060001904821181151516612184570290565b81156121c4570490565b7f4e487b7100000000000000000000000000000000000000000000000000000000600052601260045260246000fd5b801561225b576106c99261223a61223461223f9385151580612252575b612219906120e2565b6103e59080600019048211600116612245575b0292836121a7565b9361216d565b6117f6565b906121ba565b61224d6116fd565b61222c565b50831515612210565b60846040517f08c379a000000000000000000000000000000000000000000000000000000000815260206004820152602b60248201527f556e697377617056324c6962726172793a20494e53554646494349454e545f4960448201527f4e5055545f414d4f554e540000000000000000000000000000000000000000006064820152fd5b60001990801561173d570190565b801561235c576106c99261233a61233561231c848661234197151580612353575b612317906120e2565b6121a7565b936103e893856000190485118615151661234657611783565b612190565b91026121ba565b61179a565b61234e6116fd565b611783565b5085151561230e565b60846040517f08c379a000000000000000000000000000000000000000000000000000000000815260206004820152602c60248201527f556e697377617056324c6962726172793a20494e53554646494349454e545f4f60448201527f55545055545f414d4f554e5400000000000000000000000000000000000000006064820152fdfea26469706673582212202930953405f096d519e59cc67824621c4ba2df4d4ca8730abadb1f53260bcf3964736f6c634300080e0033",
  "devdoc": {
    "kind": "dev",
    "methods": {
      "returnERC1155(address,uint256)": {
        "details": "Function to return any excess ERC1155 token from      address(this) to `msg.sender`.",
        "params": {
          "token": "The token to return to the caller.",
          "tokenId": "The token identifier of the asset."
        }
      },
      "returnERC20(address)": {
        "details": "Function to return any excess ERC20 tokens from address(this)      to `msg.sender`.",
        "params": {
          "token": "The token to return to the caller."
        }
      },
      "returnERC721(address,uint256)": {
        "details": "Function to return any left over ERC721 token from      address(this) to `msg.sender`.",
        "params": {
          "token": "The token to return to the caller.",
          "tokenId": "The token identifier of the asset."
        }
      },
      "swapExactIn(uint256,uint256,address[],address,bool)": {
        "details": "This function swaps an exact amount of tokens from address(this)      and sends a mimimum amount of output token to the specified recipient.",
        "params": {
          "amountIn": "The exact amount of input token to be spent.",
          "amountOutMin": "The minimum amount of output token to be received.",
          "path": "The swap path.",
          "to": "The recipient of output token.",
          "unwrapNative": "Flag to unwrap for native token if output token is WETH."
        }
      },
      "swapExactOut(uint256,uint256,address[],address,uint8,bytes,bool)": {
        "details": "This function swaps ERC20 tokens from msg.sender      for an exact amount of output tokens, sent      to the specified recipient.",
        "params": {
          "amountInMax": "The maximum amount of input to be spent.",
          "amountOut": "The exact amount of output token to receive.",
          "path": "The swap path.",
          "to": "The recipient to receive output token.",
          "tokenSource": "The token / approval source for input token.",
          "transferData": "Additional data required depending on `source`.",
          "unwrapNative": "Flag to unwrap for native token if output token is WETH."
        }
      },
      "swapMaxIn(uint256,address[],address,bool)": {
        "details": "This function performs the swaps as outlined in `path`. This contract's      entire balance of input token will be swapped for a minimum amount of      output token, sent to the specified recipient.",
        "params": {
          "amountOutMin": "The minimum amount of output token to be received.",
          "path": "The swap path.",
          "to": "The recipient of output token.",
          "unwrapNative": "Flag to unwrap for native token if output token is WETH."
        }
      },
      "transferERC1155From(address,address,uint256,uint256,uint8,bytes)": {
        "details": "Function to transfer an ERC1155 token from `msg.sender`      to a given recipient. Assets will be transferred from      a user's wallet with approvals being sourced from the      Shoyu contract or Seaport Conduit.",
        "params": {
          "amount": "The amount of the asset to transfer.",
          "data": "Additional encoded data required depending on `source`.",
          "source": "The NFT approval source.",
          "to": "The recipient of the transfer.",
          "token": "The ERC1155 token to transfer.",
          "tokenId": "The tokenId of the asset to transfer."
        }
      },
      "transferERC20From(address,address,uint256,uint8,bytes)": {
        "details": "Function to transfer ERC20 tokens from `msg.sender`      to a given recipient. Assets can be transferred from      a user's wallet with approvals being sourced from      Shoyu contract or Shoyu's Seaport Conduit.",
        "params": {
          "amount": "The amount to transfer.",
          "data": "Additional encoded data required depending on `source`.",
          "source": "The token / approval source.",
          "to": "The recipient of the transfer.",
          "token": "The ERC20 token to transfer."
        }
      },
      "transferERC721From(address,address,uint256,uint8,bytes)": {
        "details": "Function to transfer an ERC721 token from `msg.sender`      to a given recipient. Assets will be transferred from      a user's wallet with approvals being sourced from the      Shoyu contract or Seaport Conduit.",
        "params": {
          "data": "Additional encoded data required depending on `source`.",
          "source": "The NFT approval source.",
          "to": "The recipient of the transfer.",
          "token": "The ERC721 token to transfer.",
          "tokenId": "The tokenId of the asset to transfer."
        }
      },
      "unwrapNativeToken(uint256,address)": {
        "details": "This function unwraps WETH held by address(this)      and transfers ETH to the specified recipient.",
        "params": {
          "amount": "The amount of WETH to be unwrapped.",
          "to": "The ETH recipient."
        }
      },
      "wrapNativeToken(uint256)": {
        "details": "This function wraps ETH held by address(this).",
        "params": {
          "amount": "The amount of ETH to wrap"
        }
      }
    },
    "stateVariables": {
      "WETH": {
        "details": "The WETH address."
      }
    },
    "version": 1
  },
  "userdoc": {
    "kind": "user",
    "methods": {},
    "version": 1
  },
  "storageLayout": {
    "storage": [],
    "types": null
  }
}